{
  "address": "0xAaC8783768f6259BC3670874f55029184Cd2e4D3",
  "abi": [
    {
      "inputs": [],
      "name": "AlreadyFinalized",
      "type": "error"
    },
    {
      "inputs": [],
      "name": "AlreadyStarted",
      "type": "error"
    },
    {
      "inputs": [],
      "name": "CalldataMustHaveValidPayload",
      "type": "error"
    },
    {
      "inputs": [],
      "name": "CalldataOverOrUnderFlow",
      "type": "error"
    },
    {
      "inputs": [],
      "name": "CanNotPickMedianOfEmptyArray",
      "type": "error"
    },
    {
      "inputs": [],
      "name": "DataPackageTimestampMustNotBeZero",
      "type": "error"
    },
    {
      "inputs": [],
      "name": "DataPackageTimestampsMustBeEqual",
      "type": "error"
    },
    {
      "inputs": [],
      "name": "EachSignerMustProvideTheSameValue",
      "type": "error"
    },
    {
      "inputs": [],
      "name": "EmptyCalldataPointersArr",
      "type": "error"
    },
    {
      "inputs": [],
      "name": "FudingGoalNotReached",
      "type": "error"
    },
    {
      "inputs": [],
      "name": "GetDataServiceIdNotImplemented",
      "type": "error"
    },
    {
      "inputs": [],
      "name": "IDONotEnded",
      "type": "error"
    },
    {
      "inputs": [],
      "name": "IncorrectUnsignedMetadataSize",
      "type": "error"
    },
    {
      "inputs": [
        {
          "internalType": "uint256",
          "name": "receivedSignersCount",
          "type": "uint256"
        },
        {
          "internalType": "uint256",
          "name": "requiredSignersCount",
          "type": "uint256"
        }
      ],
      "name": "InsufficientNumberOfUniqueSigners",
      "type": "error"
    },
    {
      "inputs": [],
      "name": "InvalidCalldataPointer",
      "type": "error"
    },
    {
      "inputs": [
        {
          "internalType": "address",
          "name": "token",
          "type": "address"
        }
      ],
      "name": "InvalidParticipateToken",
      "type": "error"
    },
    {
      "inputs": [
        {
          "internalType": "uint256",
          "name": "amount",
          "type": "uint256"
        }
      ],
      "name": "InvalidTokenAmounts",
      "type": "error"
    },
    {
      "inputs": [],
      "name": "NoStaking",
      "type": "error"
    },
    {
      "inputs": [],
      "name": "NotClaimable",
      "type": "error"
    },
    {
      "inputs": [],
      "name": "NotFinalized",
      "type": "error"
    },
    {
      "inputs": [
        {
          "internalType": "address",
          "name": "",
          "type": "address"
        }
      ],
      "name": "NotStaker",
      "type": "error"
    },
    {
      "inputs": [],
      "name": "NotStarted",
      "type": "error"
    },
    {
      "inputs": [
        {
          "internalType": "address",
          "name": "token",
          "type": "address"
        }
      ],
      "name": "ParticipateWithDifferentToken",
      "type": "error"
    },
    {
      "inputs": [],
      "name": "RedstonePayloadMustHaveAtLeastOneDataPackage",
      "type": "error"
    },
    {
      "inputs": [
        {
          "internalType": "address",
          "name": "receivedSigner",
          "type": "address"
        }
      ],
      "name": "SignerNotAuthorised",
      "type": "error"
    },
    {
      "inputs": [
        {
          "internalType": "uint256",
          "name": "receivedTimestampSeconds",
          "type": "uint256"
        },
        {
          "internalType": "uint256",
          "name": "blockTimestamp",
          "type": "uint256"
        }
      ],
      "name": "TimestampFromTooLongFuture",
      "type": "error"
    },
    {
      "inputs": [
        {
          "internalType": "uint256",
          "name": "receivedTimestampSeconds",
          "type": "uint256"
        },
        {
          "internalType": "uint256",
          "name": "blockTimestamp",
          "type": "uint256"
        }
      ],
      "name": "TimestampIsTooOld",
      "type": "error"
    },
    {
      "anonymous": false,
      "inputs": [
        {
          "indexed": true,
          "internalType": "address",
          "name": "account",
          "type": "address"
        },
        {
          "indexed": false,
          "internalType": "uint256",
          "name": "idoAmount",
          "type": "uint256"
        },
        {
          "indexed": false,
          "internalType": "uint256",
          "name": "refundAmount",
          "type": "uint256"
        }
      ],
      "name": "Claim",
      "type": "event"
    },
    {
      "anonymous": false,
      "inputs": [
        {
          "indexed": false,
          "internalType": "uint8",
          "name": "version",
          "type": "uint8"
        }
      ],
      "name": "Initialized",
      "type": "event"
    },
    {
      "anonymous": false,
      "inputs": [
        {
          "indexed": true,
          "internalType": "address",
          "name": "previousOwner",
          "type": "address"
        },
        {
          "indexed": true,
          "internalType": "address",
          "name": "newOwner",
          "type": "address"
        }
      ],
      "name": "OwnershipTransferStarted",
      "type": "event"
    },
    {
      "anonymous": false,
      "inputs": [
        {
          "indexed": true,
          "internalType": "address",
          "name": "previousOwner",
          "type": "address"
        },
        {
          "indexed": true,
          "internalType": "address",
          "name": "newOwner",
          "type": "address"
        }
      ],
      "name": "OwnershipTransferred",
      "type": "event"
    },
    {
      "anonymous": false,
      "inputs": [
        {
          "indexed": true,
          "internalType": "address",
          "name": "account",
          "type": "address"
        },
        {
          "indexed": false,
          "internalType": "address",
          "name": "token",
          "type": "address"
        },
        {
          "indexed": false,
          "internalType": "uint256",
          "name": "amount",
          "type": "uint256"
        }
      ],
      "name": "Participation",
      "type": "event"
    },
    {
      "inputs": [],
      "name": "acceptOwnership",
      "outputs": [],
      "stateMutability": "nonpayable",
      "type": "function"
    },
    {
      "inputs": [
        {
          "internalType": "address",
          "name": "",
          "type": "address"
        }
      ],
      "name": "accountPosition",
      "outputs": [
        {
          "internalType": "uint256",
          "name": "fyAmount",
          "type": "uint256"
        },
        {
          "internalType": "uint256",
          "name": "amount",
          "type": "uint256"
        }
      ],
      "stateMutability": "view",
      "type": "function"
    },
    {
      "inputs": [
        {
          "internalType": "uint256[]",
          "name": "values",
          "type": "uint256[]"
        }
      ],
      "name": "aggregateValues",
      "outputs": [
        {
          "internalType": "uint256",
          "name": "",
          "type": "uint256"
        }
      ],
      "stateMutability": "view",
      "type": "function"
    },
    {
      "inputs": [],
      "name": "buyToken",
      "outputs": [
        {
          "internalType": "address",
          "name": "",
          "type": "address"
        }
      ],
      "stateMutability": "view",
      "type": "function"
    },
    {
      "inputs": [
        {
          "internalType": "address",
          "name": "staker",
          "type": "address"
        }
      ],
      "name": "claim",
      "outputs": [],
      "stateMutability": "nonpayable",
      "type": "function"
    },
    {
      "inputs": [],
      "name": "claimableTime",
      "outputs": [
        {
          "internalType": "uint256",
          "name": "",
          "type": "uint256"
        }
      ],
      "stateMutability": "view",
      "type": "function"
    },
    {
      "inputs": [],
      "name": "extractTimestampsAndAssertAllAreEqual",
      "outputs": [
        {
          "internalType": "uint256",
          "name": "extractedTimestamp",
          "type": "uint256"
        }
      ],
      "stateMutability": "pure",
      "type": "function"
    },
    {
      "inputs": [],
      "name": "finalize",
      "outputs": [],
      "stateMutability": "nonpayable",
      "type": "function"
    },
    {
      "inputs": [],
      "name": "fyToken",
      "outputs": [
        {
          "internalType": "address",
          "name": "",
          "type": "address"
        }
      ],
      "stateMutability": "view",
      "type": "function"
    },
    {
      "inputs": [
        {
          "internalType": "address",
          "name": "signerAddress",
          "type": "address"
        }
      ],
      "name": "getAllMockAuthorised",
      "outputs": [
        {
          "internalType": "uint8",
          "name": "",
          "type": "uint8"
        }
      ],
      "stateMutability": "view",
      "type": "function"
    },
    {
      "inputs": [
        {
          "internalType": "address",
          "name": "signerAddress",
          "type": "address"
        }
      ],
      "name": "getAllMockExceptLastOneAuthorised",
      "outputs": [
        {
          "internalType": "uint8",
          "name": "",
          "type": "uint8"
        }
      ],
      "stateMutability": "view",
      "type": "function"
    },
    {
      "inputs": [
        {
          "internalType": "address",
          "name": "signerAddress",
          "type": "address"
        }
      ],
      "name": "getAuthorisedMockSignerIndex",
      "outputs": [
        {
          "internalType": "uint8",
          "name": "",
          "type": "uint8"
        }
      ],
      "stateMutability": "view",
      "type": "function"
    },
    {
      "inputs": [
        {
          "internalType": "address",
          "name": "_signer",
          "type": "address"
        }
      ],
      "name": "getAuthorisedSignerIndex",
      "outputs": [
        {
          "internalType": "uint8",
          "name": "",
          "type": "uint8"
        }
      ],
      "stateMutability": "view",
      "type": "function"
    },
    {
      "inputs": [],
      "name": "getDataServiceId",
      "outputs": [
        {
          "internalType": "string",
          "name": "",
          "type": "string"
        }
      ],
      "stateMutability": "view",
      "type": "function"
    },
    {
      "inputs": [],
      "name": "getETHPrice",
      "outputs": [
        {
          "internalType": "uint256",
          "name": "",
          "type": "uint256"
        }
      ],
      "stateMutability": "view",
      "type": "function"
    },
    {
      "inputs": [],
      "name": "getUniqueSignersThreshold",
      "outputs": [
        {
          "internalType": "uint8",
          "name": "",
          "type": "uint8"
        }
      ],
      "stateMutability": "view",
      "type": "function"
    },
    {
      "inputs": [],
      "name": "idoEndTime",
      "outputs": [
        {
          "internalType": "uint256",
          "name": "",
          "type": "uint256"
        }
      ],
      "stateMutability": "view",
      "type": "function"
    },
    {
      "inputs": [],
      "name": "idoPrice",
      "outputs": [
        {
          "internalType": "uint256",
          "name": "",
          "type": "uint256"
        }
      ],
      "stateMutability": "view",
      "type": "function"
    },
    {
      "inputs": [],
      "name": "idoSize",
      "outputs": [
        {
          "internalType": "uint256",
          "name": "",
          "type": "uint256"
        }
      ],
      "stateMutability": "view",
      "type": "function"
    },
    {
      "inputs": [],
      "name": "idoStartTime",
      "outputs": [
        {
          "internalType": "uint256",
          "name": "",
          "type": "uint256"
        }
      ],
      "stateMutability": "view",
      "type": "function"
    },
    {
      "inputs": [],
      "name": "idoToken",
      "outputs": [
        {
          "internalType": "address",
          "name": "",
          "type": "address"
        }
      ],
      "stateMutability": "view",
      "type": "function"
    },
    {
      "inputs": [
        {
          "internalType": "address",
          "name": "fyETH_",
          "type": "address"
        },
        {
          "internalType": "address",
          "name": "idoToken_",
          "type": "address"
        },
        {
          "internalType": "uint256",
          "name": "idoDecimals_",
          "type": "uint256"
        },
        {
          "internalType": "address",
          "name": "treasury_",
          "type": "address"
        },
        {
          "internalType": "bool",
          "name": "mock_",
          "type": "bool"
        },
        {
          "internalType": "uint256",
          "name": "idoStartTime_",
          "type": "uint256"
        },
        {
          "internalType": "uint256",
          "name": "idoEndTime_",
          "type": "uint256"
        },
        {
          "internalType": "uint256",
          "name": "minimumFundingGoal_",
          "type": "uint256"
        },
        {
          "internalType": "uint256",
          "name": "idoPrice_",
          "type": "uint256"
        }
      ],
      "name": "init",
      "outputs": [],
      "stateMutability": "nonpayable",
      "type": "function"
    },
    {
      "inputs": [],
      "name": "isClaimable",
      "outputs": [
        {
          "internalType": "bool",
          "name": "",
          "type": "bool"
        }
      ],
      "stateMutability": "view",
      "type": "function"
    },
    {
      "inputs": [],
      "name": "isFinalized",
      "outputs": [
        {
          "internalType": "bool",
          "name": "",
          "type": "bool"
        }
      ],
      "stateMutability": "view",
      "type": "function"
    },
    {
      "inputs": [],
      "name": "minimumFundingGoal",
      "outputs": [
        {
          "internalType": "uint256",
          "name": "",
          "type": "uint256"
        }
      ],
      "stateMutability": "view",
      "type": "function"
    },
    {
      "inputs": [],
      "name": "owner",
      "outputs": [
        {
          "internalType": "address",
          "name": "",
          "type": "address"
        }
      ],
      "stateMutability": "view",
      "type": "function"
    },
    {
      "inputs": [
        {
          "internalType": "address",
          "name": "receipient",
          "type": "address"
        },
        {
          "internalType": "address",
          "name": "token",
          "type": "address"
        },
        {
          "internalType": "uint256",
          "name": "amount",
          "type": "uint256"
        }
      ],
      "name": "participate",
      "outputs": [],
      "stateMutability": "payable",
      "type": "function"
    },
    {
      "inputs": [],
      "name": "pendingOwner",
      "outputs": [
        {
          "internalType": "address",
          "name": "",
          "type": "address"
        }
      ],
      "stateMutability": "view",
      "type": "function"
    },
    {
      "inputs": [],
      "name": "renounceOwnership",
      "outputs": [],
      "stateMutability": "nonpayable",
      "type": "function"
    },
    {
      "inputs": [
        {
          "internalType": "address",
          "name": "_token",
          "type": "address"
        },
        {
          "internalType": "uint256",
          "name": "_idoDecimals",
          "type": "uint256"
        }
      ],
      "name": "setIDOToken",
      "outputs": [],
      "stateMutability": "nonpayable",
      "type": "function"
    },
    {
      "inputs": [],
      "name": "snapshotPriceDecimals",
      "outputs": [
        {
          "internalType": "uint256",
          "name": "",
          "type": "uint256"
        }
      ],
      "stateMutability": "view",
      "type": "function"
    },
    {
      "inputs": [],
      "name": "snapshotTokenPrice",
      "outputs": [
        {
          "internalType": "uint256",
          "name": "",
          "type": "uint256"
        }
      ],
      "stateMutability": "view",
      "type": "function"
    },
    {
      "inputs": [
        {
          "internalType": "address",
          "name": "newOwner",
          "type": "address"
        }
      ],
      "name": "transferOwnership",
      "outputs": [],
      "stateMutability": "nonpayable",
      "type": "function"
    },
    {
      "inputs": [],
      "name": "treasury",
      "outputs": [
        {
          "internalType": "address",
          "name": "",
          "type": "address"
        }
      ],
      "stateMutability": "view",
      "type": "function"
    },
    {
      "inputs": [
        {
          "internalType": "uint256",
          "name": "receivedTimestampMilliseconds",
          "type": "uint256"
        }
      ],
      "name": "validateTimestamp",
      "outputs": [],
      "stateMutability": "view",
      "type": "function"
    },
    {
      "inputs": [],
      "name": "withdrawSpareIDO",
      "outputs": [],
      "stateMutability": "nonpayable",
      "type": "function"
    }
  ],
  "transactionHash": "0x33206166082681389e153eaede24f31752deb5147f2d4faab0f913289d5b7abf",
  "args": [],
  "numDeployments": 2,
  "solcInputHash": "6d5a7b936f5d98b7cb017ba844209a6f",
  "bytecode": "0x6080604052600060a860006101000a81548160ff02191690831515021790555034801561002b57600080fd5b506149af8061003b6000396000f3fe60806040526004361061020f5760003560e01c80638da5cb5b11610118578063cd80fe0d116100a0578063e30c39781161006f578063e30c39781461073e578063f2fde38b14610769578063f46cf7f014610792578063f50b2efe146107d0578063f90c4924146107f95761020f565b8063cd80fe0d14610680578063d22158fa146106ab578063d6cd82bc146106e8578063dc3bfba9146107135761020f565b8063a4821719116100e7578063a482171914610599578063a607a8d9146105c4578063b24ebfcc146105ef578063bf9c83ce1461062c578063c274583a146106555761020f565b80638da5cb5b146104ea57806395262d9f146105155780639653cc7a14610552578063997ccc7e1461056e5761020f565b80635ff56f6e1161019b57806370a6dea81161016a57806370a6dea81461043b578063715018a61461046657806374478bb31461047d57806379ba5097146104a85780638d4e4083146104bf5761020f565b80635ff56f6e1461039157806361d027b3146103bc578063691323bb146103e75780636d3185db146104105761020f565b806335f567be116101e257806335f567be146102be5780633ce142f5146102d5578063429989f0146103125780634bb278f31461034f57806355a547d5146103665761020f565b806310a120531461021457806313f4e9771461023f5780631dcd8ae51461026a5780631e83409a14610295575b600080fd5b34801561022057600080fd5b50610229610824565b6040516102369190613a5d565b60405180910390f35b34801561024b57600080fd5b5061025461082a565b6040516102619190613a5d565b60405180910390f35b34801561027657600080fd5b5061027f610830565b60405161028c9190613a5d565b60405180910390f35b3480156102a157600080fd5b506102bc60048036038101906102b79190613aea565b610836565b005b3480156102ca57600080fd5b506102d3610a52565b005b3480156102e157600080fd5b506102fc60048036038101906102f79190613aea565b610b42565b6040516103099190613b33565b60405180910390f35b34801561031e57600080fd5b5061033960048036038101906103349190613aea565b610b7a565b6040516103469190613b33565b60405180910390f35b34801561035b57600080fd5b506103646111fe565b005b34801561037257600080fd5b5061037b611490565b6040516103889190613a5d565b60405180910390f35b34801561039d57600080fd5b506103a6611600565b6040516103b39190613a5d565b60405180910390f35b3480156103c857600080fd5b506103d1611606565b6040516103de9190613b5d565b60405180910390f35b3480156103f357600080fd5b5061040e60048036038101906104099190613bdc565b61162c565b005b34801561041c57600080fd5b50610425611786565b6040516104329190613a5d565b60405180910390f35b34801561044757600080fd5b5061045061178c565b60405161045d9190613a5d565b60405180910390f35b34801561047257600080fd5b5061047b611792565b005b34801561048957600080fd5b506104926117a6565b60405161049f9190613cb5565b60405180910390f35b3480156104b457600080fd5b506104bd6117b9565b005b3480156104cb57600080fd5b506104d4611846565b6040516104e19190613cb5565b60405180910390f35b3480156104f657600080fd5b506104ff611859565b60405161050c9190613b5d565b60405180910390f35b34801561052157600080fd5b5061053c60048036038101906105379190613aea565b611883565b6040516105499190613b33565b60405180910390f35b61056c60048036038101906105679190613cd0565b611895565b005b34801561057a57600080fd5b50610583611b8c565b6040516105909190613a5d565b60405180910390f35b3480156105a557600080fd5b506105ae611b92565b6040516105bb9190613b5d565b60405180910390f35b3480156105d057600080fd5b506105d9611bb8565b6040516105e69190613a5d565b60405180910390f35b3480156105fb57600080fd5b5061061660048036038101906106119190613e7c565b611be8565b6040516106239190613a5d565b60405180910390f35b34801561063857600080fd5b50610653600480360381019061064e9190613ec5565b611bfa565b005b34801561066157600080fd5b5061066a611c9e565b6040516106779190613f84565b60405180910390f35b34801561068c57600080fd5b50610695611cdb565b6040516106a29190613a5d565b60405180910390f35b3480156106b757600080fd5b506106d260048036038101906106cd9190613aea565b611ce1565b6040516106df9190613b33565b60405180910390f35b3480156106f457600080fd5b506106fd611d77565b60405161070a9190613b5d565b60405180910390f35b34801561071f57600080fd5b50610728611d9d565b6040516107359190613b5d565b60405180910390f35b34801561074a57600080fd5b50610753611dc3565b6040516107609190613b5d565b60405180910390f35b34801561077557600080fd5b50610790600480360381019061078b9190613aea565b611ded565b005b34801561079e57600080fd5b506107b960048036038101906107b49190613aea565b611e9a565b6040516107c7929190613fa6565b60405180910390f35b3480156107dc57600080fd5b506107f760048036038101906107f29190613fcf565b611ebe565b005b34801561080557600080fd5b5061080e611eca565b60405161081b9190613b33565b60405180910390f35b609e5481565b60a75481565b60a05481565b609a60149054906101000a900460ff1661087c576040517f1bee0d5a00000000000000000000000000000000000000000000000000000000815260040160405180910390fd5b609b544210156108b8576040517f6247a84e00000000000000000000000000000000000000000000000000000000815260040160405180910390fd5b600060a460008373ffffffffffffffffffffffffffffffffffffffff1673ffffffffffffffffffffffffffffffffffffffff1681526020019081526020016000206040518060400160405290816000820154815260200160018201548152505090506000816020015103610958576040517fbaa8213400000000000000000000000000000000000000000000000000000000815260040160405180910390fd5b60008061096483611ed3565b9150915060a460008573ffffffffffffffffffffffffffffffffffffffff1673ffffffffffffffffffffffffffffffffffffffff1681526020019081526020016000206000808201600090556001820160009055505060008111156109cf576109ce838583611fce565b5b6109fc609a60009054906101000a900473ffffffffffffffffffffffffffffffffffffffff16858461219c565b8373ffffffffffffffffffffffffffffffffffffffff167f34fcbac0073d7c3d388e51312faf357774904998eeb8fca628b9e6f65ee1cbf78383604051610a44929190613fa6565b60405180910390a250505050565b609a60149054906101000a900460ff16610a98576040517f1bee0d5a00000000000000000000000000000000000000000000000000000000815260040160405180910390fd5b610aa0612292565b600060a254600a610ab1919061415e565b609d54609e54610ac191906141a9565b610acb919061421a565b905060a1548110610adc5750610b40565b6000609f5460a05460a154610af191906141a9565b610afb919061421a565b9050600081609e54610b0d919061424b565b9050610b3c609a60009054906101000a900473ffffffffffffffffffffffffffffffffffffffff16338361219c565b5050505b565b600060a860009054906101000a900460ff1615610b6957610b6282610b7a565b9050610b75565b610b7282612310565b90505b919050565b600073f39fd6e51aad88f6f4ce6ab8827279cfffb9226673ffffffffffffffffffffffffffffffffffffffff168273ffffffffffffffffffffffffffffffffffffffff1603610bcc57600090506111f9565b7370997970c51812dc3a010c7d01b50e0d17dc79c873ffffffffffffffffffffffffffffffffffffffff168273ffffffffffffffffffffffffffffffffffffffff1603610c1c57600190506111f9565b733c44cdddb6a900fa2b585dd299e03d12fa4293bc73ffffffffffffffffffffffffffffffffffffffff168273ffffffffffffffffffffffffffffffffffffffff1603610c6c57600290506111f9565b7390f79bf6eb2c4f870365e785982e1f101e93b90673ffffffffffffffffffffffffffffffffffffffff168273ffffffffffffffffffffffffffffffffffffffff1603610cbc57600390506111f9565b7315d34aaf54267db7d7c367839aaf71a00a2c6a6573ffffffffffffffffffffffffffffffffffffffff168273ffffffffffffffffffffffffffffffffffffffff1603610d0c57600490506111f9565b739965507d1a55bcc2695c58ba16fb37d819b0a4dc73ffffffffffffffffffffffffffffffffffffffff168273ffffffffffffffffffffffffffffffffffffffff1603610d5c57600590506111f9565b73976ea74026e726554db657fa54763abd0c3a0aa973ffffffffffffffffffffffffffffffffffffffff168273ffffffffffffffffffffffffffffffffffffffff1603610dac57600690506111f9565b7314dc79964da2c08b23698b3d3cc7ca32193d995573ffffffffffffffffffffffffffffffffffffffff168273ffffffffffffffffffffffffffffffffffffffff1603610dfc57600790506111f9565b7323618e81e3f5cdf7f54c3d65f7fbc0abf5b21e8f73ffffffffffffffffffffffffffffffffffffffff168273ffffffffffffffffffffffffffffffffffffffff1603610e4c57600890506111f9565b73a0ee7a142d267c1f36714e4a8f75612f20a7972073ffffffffffffffffffffffffffffffffffffffff168273ffffffffffffffffffffffffffffffffffffffff1603610e9c57600990506111f9565b73bcd4042de499d14e55001ccbb24a551f3b95409673ffffffffffffffffffffffffffffffffffffffff168273ffffffffffffffffffffffffffffffffffffffff1603610eec57600a90506111f9565b7371be63f3384f5fb98995898a86b02fb2426c578873ffffffffffffffffffffffffffffffffffffffff168273ffffffffffffffffffffffffffffffffffffffff1603610f3c57600b90506111f9565b73fabb0ac9d68b0b445fb7357272ff202c5651694a73ffffffffffffffffffffffffffffffffffffffff168273ffffffffffffffffffffffffffffffffffffffff1603610f8c57600c90506111f9565b731cbd3b2770909d4e10f157cabc84c7264073c9ec73ffffffffffffffffffffffffffffffffffffffff168273ffffffffffffffffffffffffffffffffffffffff1603610fdc57600d90506111f9565b73df3e18d64bc6a983f673ab319ccae4f1a57c709773ffffffffffffffffffffffffffffffffffffffff168273ffffffffffffffffffffffffffffffffffffffff160361102c57600e90506111f9565b73cd3b766ccdd6ae721141f452c550ca635964ce7173ffffffffffffffffffffffffffffffffffffffff168273ffffffffffffffffffffffffffffffffffffffff160361107c57600f90506111f9565b732546bcd3c84621e976d8185a91a922ae77ecec3073ffffffffffffffffffffffffffffffffffffffff168273ffffffffffffffffffffffffffffffffffffffff16036110cc57601090506111f9565b73bda5747bfd65f08deb54cb465eb87d40e51b197e73ffffffffffffffffffffffffffffffffffffffff168273ffffffffffffffffffffffffffffffffffffffff160361111c57601190506111f9565b73dd2fd4581271e230360230f9337d5c0430bf44c073ffffffffffffffffffffffffffffffffffffffff168273ffffffffffffffffffffffffffffffffffffffff160361116c57601290506111f9565b738626f6940e2eb28930efb4cef49b2d1f2c9c119973ffffffffffffffffffffffffffffffffffffffff168273ffffffffffffffffffffffffffffffffffffffff16036111bc57601390506111f9565b816040517fec459bc00000000000000000000000000000000000000000000000000000000081526004016111f09190613b5d565b60405180910390fd5b919050565b611206612292565b609a60149054906101000a900460ff161561124d576040517f475a253500000000000000000000000000000000000000000000000000000000815260040160405180910390fd5b60a654421015611289576040517f2dbbc8f700000000000000000000000000000000000000000000000000000000815260040160405180910390fd5b60a754609e5410156112c7576040517f7473e65600000000000000000000000000000000000000000000000000000000815260040160405180910390fd5b6112cf6124e4565b609f600060a0600084919050558391905055505060a054609f5460a36000609860009054906101000a900473ffffffffffffffffffffffffffffffffffffffff1673ffffffffffffffffffffffffffffffffffffffff1673ffffffffffffffffffffffffffffffffffffffff1681526020019081526020016000205460a36000609760009054906101000a900473ffffffffffffffffffffffffffffffffffffffff1673ffffffffffffffffffffffffffffffffffffffff1673ffffffffffffffffffffffffffffffffffffffff168152602001908152602001600020546113b7919061427f565b6113c191906141a9565b6113cb919061421a565b60a181905550609a60009054906101000a900473ffffffffffffffffffffffffffffffffffffffff1673ffffffffffffffffffffffffffffffffffffffff166370a08231306040518263ffffffff1660e01b815260040161142c9190613b5d565b602060405180830381865afa158015611449573d6000803e3d6000fd5b505050506040513d601f19601f8201168201806040525081019061146d91906142c8565b609e819055506001609a60146101000a81548160ff021916908315150217905550565b60008061149b6124fc565b905060006114a88261260d565b61ffff169050600081036114e8576040517f8552ff3c00000000000000000000000000000000000000000000000000000000815260040160405180910390fd5b6002826114f5919061427f565b915060005b818110156115fa57600061150d84612669565b905060008060688661151f919061427f565b90506000816000369050611533919061424b565b90508035925060008365ffffffffffff160361157b576040517f336dc9d000000000000000000000000000000000000000000000000000000000815260040160405180910390fd5b60008803611593578265ffffffffffff1697506115d5565b878365ffffffffffff16146115d4576040517fd9d1f46500000000000000000000000000000000000000000000000000000000815260040160405180910390fd5b5b83876115e1919061427f565b96505050505080806115f2906142f5565b9150506114fa565b50505090565b60a65481565b609960009054906101000a900473ffffffffffffffffffffffffffffffffffffffff1681565b60008060019054906101000a900460ff1615905080801561165d5750600160008054906101000a900460ff1660ff16105b8061168a575061166c306126a8565b1580156116895750600160008054906101000a900460ff1660ff16145b5b6116c9576040517f08c379a00000000000000000000000000000000000000000000000000000000081526004016116c0906143af565b60405180910390fd5b60016000806101000a81548160ff021916908360ff1602179055508015611706576001600060016101000a81548160ff0219169083151502179055505b61171860008b8b8b8b8a8a8a8a6126cb565b6117218661273e565b801561177a5760008060016101000a81548160ff0219169083151502179055507f7f26b83ff96e1f2b6a682f133852f6798a09c465da95921460cefb384740249860016040516117719190614414565b60405180910390a15b50505050505050505050565b609b5481565b60a55481565b61179a612292565b6117a460006127aa565b565b609c60009054906101000a900460ff1681565b60006117c36127db565b90508073ffffffffffffffffffffffffffffffffffffffff166117e4611dc3565b73ffffffffffffffffffffffffffffffffffffffff161461183a576040517f08c379a0000000000000000000000000000000000000000000000000000000008152600401611831906144a1565b60405180910390fd5b611843816127aa565b50565b609a60149054906101000a900460ff1681565b6000603360009054906101000a900473ffffffffffffffffffffffffffffffffffffffff16905090565b600061188e82611ce1565b9050919050565b609a60149054906101000a900460ff16156118dc576040517f475a253500000000000000000000000000000000000000000000000000000000815260040160405180910390fd5b60a554421015611918576040517f6f312cbd00000000000000000000000000000000000000000000000000000000815260040160405180910390fd5b609760009054906101000a900473ffffffffffffffffffffffffffffffffffffffff1673ffffffffffffffffffffffffffffffffffffffff168273ffffffffffffffffffffffffffffffffffffffff16141580156119c45750609860009054906101000a900473ffffffffffffffffffffffffffffffffffffffff1673ffffffffffffffffffffffffffffffffffffffff168273ffffffffffffffffffffffffffffffffffffffff1614155b15611a0657816040517f0fe3f57b0000000000000000000000000000000000000000000000000000000081526004016119fd9190613b5d565b60405180910390fd5b600060a460008573ffffffffffffffffffffffffffffffffffffffff1673ffffffffffffffffffffffffffffffffffffffff1681526020019081526020016000209050609860009054906101000a900473ffffffffffffffffffffffffffffffffffffffff1673ffffffffffffffffffffffffffffffffffffffff168373ffffffffffffffffffffffffffffffffffffffff1603611aba5781816000016000828254611ab2919061427f565b925050819055505b81816001016000828254611ace919061427f565b925050819055508160a360008573ffffffffffffffffffffffffffffffffffffffff1673ffffffffffffffffffffffffffffffffffffffff1681526020019081526020016000206000828254611b24919061427f565b92505081905550611b368333846127e3565b8373ffffffffffffffffffffffffffffffffffffffff167ff6764e668f66491117a03c0e0009c5bed5b1aabe82e3ab4d38ff8bdb35094ec18484604051611b7e9291906144c1565b60405180910390a250505050565b609f5481565b609760009054906101000a900473ffffffffffffffffffffffffffffffffffffffff1681565b6000611be37f4554480000000000000000000000000000000000000000000000000000000000612893565b905090565b6000611bf38261292f565b9050919050565b611c02612292565b609a60149054906101000a900460ff1615611c52576040517f08c379a0000000000000000000000000000000000000000000000000000000008152600401611c4990614536565b60405180910390fd5b81609a60006101000a81548173ffffffffffffffffffffffffffffffffffffffff021916908373ffffffffffffffffffffffffffffffffffffffff1602179055508060a2819055505050565b60606040518060400160405280601581526020017f72656473746f6e652d7072696d6172792d70726f640000000000000000000000815250905090565b609d5481565b6000738626f6940e2eb28930efb4cef49b2d1f2c9c119973ffffffffffffffffffffffffffffffffffffffff168273ffffffffffffffffffffffffffffffffffffffff1603611d6757816040517fec459bc0000000000000000000000000000000000000000000000000000000008152600401611d5e9190613b5d565b60405180910390fd5b611d7082610b7a565b9050919050565b609a60009054906101000a900473ffffffffffffffffffffffffffffffffffffffff1681565b609860009054906101000a900473ffffffffffffffffffffffffffffffffffffffff1681565b6000606560009054906101000a900473ffffffffffffffffffffffffffffffffffffffff16905090565b611df5612292565b80606560006101000a81548173ffffffffffffffffffffffffffffffffffffffff021916908373ffffffffffffffffffffffffffffffffffffffff1602179055508073ffffffffffffffffffffffffffffffffffffffff16611e55611859565b73ffffffffffffffffffffffffffffffffffffffff167f38d16b8cac22d99fc7c124b9cd0de2d3fa1faef420bfe791d8c362d765e2270060405160405180910390a350565b60a46020528060005260406000206000915090508060000154908060010154905082565b611ec781612941565b50565b60006003905090565b600080600060a054609f548560200151611eed91906141a9565b611ef7919061421a565b9050600060a254600a611f0a919061415e565b9050600060a15483609e54611f1f91906141a9565b611f29919061421a565b90506000609d548385611f3c91906141a9565b611f46919061421a565b905060a15483609d54609e54611f5c91906141a9565b611f66919061421a565b10611f7b578060009550955050505050611fc9565b6000609d548484611f8c91906141a9565b611f96919061421a565b85611fa1919061424b565b905082609f5460a05483611fb591906141a9565b611fbf919061421a565b9650965050505050505b915091565b826000015181116120cb57612006609860009054906101000a900473ffffffffffffffffffffffffffffffffffffffff16838361219c565b612064609860009054906101000a900473ffffffffffffffffffffffffffffffffffffffff16609960009054906101000a900473ffffffffffffffffffffffffffffffffffffffff1683866000015161205f919061424b565b61219c565b6120c6609760009054906101000a900473ffffffffffffffffffffffffffffffffffffffff16609960009054906101000a900473ffffffffffffffffffffffffffffffffffffffff16856000015186602001516120c1919061424b565b61219c565b612197565b6120fc609860009054906101000a900473ffffffffffffffffffffffffffffffffffffffff1683856000015161219c565b612138609760009054906101000a900473ffffffffffffffffffffffffffffffffffffffff1683856000015184612133919061424b565b61219c565b612196609760009054906101000a900473ffffffffffffffffffffffffffffffffffffffff16609960009054906101000a900473ffffffffffffffffffffffffffffffffffffffff16838660200151612191919061424b565b61219c565b5b505050565b600073ffffffffffffffffffffffffffffffffffffffff168373ffffffffffffffffffffffffffffffffffffffff1603612261578047101561221557806040517f83b9f0ae00000000000000000000000000000000000000000000000000000000815260040161220c9190613a5d565b60405180910390fd5b8173ffffffffffffffffffffffffffffffffffffffff166108fc829081150290604051600060405180830381858888f1935050505015801561225b573d6000803e3d6000fd5b5061228d565b61228c82828573ffffffffffffffffffffffffffffffffffffffff16612a0b9092919063ffffffff16565b5b505050565b61229a6127db565b73ffffffffffffffffffffffffffffffffffffffff166122b8611859565b73ffffffffffffffffffffffffffffffffffffffff161461230e576040517f08c379a0000000000000000000000000000000000000000000000000000000008152600401612305906145a2565b60405180910390fd5b565b6000738bb8f32df04c8b654987daaed53d6b6091e3b77473ffffffffffffffffffffffffffffffffffffffff168273ffffffffffffffffffffffffffffffffffffffff160361236257600090506124df565b73deb22f54738d54976c4c0fe5ce6d408e40d8849973ffffffffffffffffffffffffffffffffffffffff168273ffffffffffffffffffffffffffffffffffffffff16036123b257600190506124df565b7351ce04be4b3e32572c4ec9135221d0691ba7d20273ffffffffffffffffffffffffffffffffffffffff168273ffffffffffffffffffffffffffffffffffffffff160361240257600290506124df565b73dd682daec5a90dd295d14da4b0bec9281017b5be73ffffffffffffffffffffffffffffffffffffffff168273ffffffffffffffffffffffffffffffffffffffff160361245257600390506124df565b739c5ae89c4af6aa32ce58588dbaf90d18a855b6de73ffffffffffffffffffffffffffffffffffffffff168273ffffffffffffffffffffffffffffffffffffffff16036124a257600490506124df565b816040517fec459bc00000000000000000000000000000000000000000000000000000000081526004016124d69190613b5d565b60405180910390fd5b919050565b6000806124ef611bb8565b6305f5e100915091509091565b60008060203603356602ed57011e000081166602ed57011e00001491505080612551576040517fe7764c9e00000000000000000000000000000000000000000000000000000000815260040160405180910390fd5b60008036905060291115612591576040517f5796f78a00000000000000000000000000000000000000000000000000000000815260040160405180910390fd5b602936033590506000600960038362ffffff166125ae919061427f565b6125b8919061427f565b905060003690506002826125cc919061427f565b1115612604576040517fc30a7bd700000000000000000000000000000000000000000000000000000000815260040160405180910390fd5b80935050505090565b60008060208361261d919061427f565b9050600036905081111561265d576040517f5796f78a00000000000000000000000000000000000000000000000000000000815260040160405180910390fd5b80360335915050919050565b600080600061267784612a91565b91509150604e81602061268a919061427f565b8361269591906141a9565b61269f919061427f565b92505050919050565b6000808273ffffffffffffffffffffffffffffffffffffffff163b119050919050565b600060019054906101000a900460ff1661271a576040517f08c379a000000000000000000000000000000000000000000000000000000000815260040161271190614634565b60405180910390fd5b61272b898989898989898989612b07565b612733612c88565b505050505050505050565b600060019054906101000a900460ff1661278d576040517f08c379a000000000000000000000000000000000000000000000000000000000815260040161278490614634565b60405180910390fd5b8060a860006101000a81548160ff02191690831515021790555050565b606560006101000a81549073ffffffffffffffffffffffffffffffffffffffff02191690556127d881612ce1565b50565b600033905090565b600073ffffffffffffffffffffffffffffffffffffffff168373ffffffffffffffffffffffffffffffffffffffff16036128605734811461285b57806040517f83b9f0ae0000000000000000000000000000000000000000000000000000000081526004016128529190613a5d565b60405180910390fd5b61288e565b61288d8230838673ffffffffffffffffffffffffffffffffffffffff16612da7909392919063ffffffff16565b5b505050565b600080600167ffffffffffffffff8111156128b1576128b0613d39565b5b6040519080825280602002602001820160405280156128df5781602001602082028036833780820191505090505b50905082816000815181106128f7576128f6614654565b5b60200260200101818152505061290c81612e30565b60008151811061291f5761291e614654565b5b6020026020010151915050919050565b600061293a82612e42565b9050919050565b60006103e882612951919061421a565b9050804210156129b357603c4282612969919061424b565b11156129ae5780426040517fb6b0916d0000000000000000000000000000000000000000000000000000000081526004016129a5929190613fa6565b60405180910390fd5b612a07565b60b481426129c1919061424b565b1115612a065780426040517f0321d0b50000000000000000000000000000000000000000000000000000000081526004016129fd929190613fa6565b60405180910390fd5b5b5050565b612a8c8363a9059cbb60e01b8484604051602401612a2a9291906144c1565b604051602081830303815290604052907bffffffffffffffffffffffffffffffffffffffffffffffffffffffff19166020820180517bffffffffffffffffffffffffffffffffffffffffffffffffffffffff8381831617835250505050612f36565b505050565b6000806000806000604186612aa6919061427f565b90506000612acd602083612aba919061427f565b6000369050612ffe90919063ffffffff16565b905080359350612ae7600382612ffe90919063ffffffff16565b9050803592508362ffffff1695508263ffffffff16945050505050915091565b600060019054906101000a900460ff16612b56576040517f08c379a0000000000000000000000000000000000000000000000000000000008152600401612b4d90614634565b60405180910390fd5b88609760006101000a81548173ffffffffffffffffffffffffffffffffffffffff021916908373ffffffffffffffffffffffffffffffffffffffff16021790555087609860006101000a81548173ffffffffffffffffffffffffffffffffffffffff021916908373ffffffffffffffffffffffffffffffffffffffff16021790555086609a60006101000a81548173ffffffffffffffffffffffffffffffffffffffff021916908373ffffffffffffffffffffffffffffffffffffffff1602179055508560a28190555084609960006101000a81548173ffffffffffffffffffffffffffffffffffffffff021916908373ffffffffffffffffffffffffffffffffffffffff1602179055508360a5819055508260a6819055508160a78190555080609d81905550505050505050505050565b600060019054906101000a900460ff16612cd7576040517f08c379a0000000000000000000000000000000000000000000000000000000008152600401612cce90614634565b60405180910390fd5b612cdf613014565b565b6000603360009054906101000a900473ffffffffffffffffffffffffffffffffffffffff16905081603360006101000a81548173ffffffffffffffffffffffffffffffffffffffff021916908373ffffffffffffffffffffffffffffffffffffffff1602179055508173ffffffffffffffffffffffffffffffffffffffff168173ffffffffffffffffffffffffffffffffffffffff167f8be0079c531659141344cd1fd0a4f28419497f9722a3daafe3b4186f6b6457e060405160405180910390a35050565b612e2a846323b872dd60e01b858585604051602401612dc893929190614683565b604051602081830303815290604052907bffffffffffffffffffffffffffffffffffffffffffffffffffffffff19166020820180517bffffffffffffffffffffffffffffffffffffffffffffffffffffffff8381831617835250505050612f36565b50505050565b6060612e3b82613075565b9050919050565b600080825103612e7e576040517f9e198af900000000000000000000000000000000000000000000000000000000815260040160405180910390fd5b612e8782613284565b600060028351612e97919061421a565b9050600060028451612ea991906146ba565b03612f12576000612efa84600184612ec1919061424b565b81518110612ed257612ed1614654565b5b6020026020010151858481518110612eed57612eec614654565b5b60200260200101516132d7565b9050600281612f09919061421a565b92505050612f31565b828181518110612f2557612f24614654565b5b60200260200101519150505b919050565b6000612f98826040518060400160405280602081526020017f5361666545524332303a206c6f772d6c6576656c2063616c6c206661696c65648152508573ffffffffffffffffffffffffffffffffffffffff166132ed9092919063ffffffff16565b9050600081511480612fba575080806020019051810190612fb99190614700565b5b612ff9576040517f08c379a0000000000000000000000000000000000000000000000000000000008152600401612ff09061479f565b60405180910390fd5b505050565b6000818361300c919061424b565b905092915050565b600060019054906101000a900460ff16613063576040517f08c379a000000000000000000000000000000000000000000000000000000000815260040161305a90614634565b60405180910390fd5b61307361306e6127db565b6127aa565b565b60606000825167ffffffffffffffff81111561309457613093613d39565b5b6040519080825280602002602001820160405280156130c25781602001602082028036833780820191505090505b5090506000835167ffffffffffffffff8111156130e2576130e1613d39565b5b6040519080825280602002602001820160405280156131105781602001602082028036833780820191505090505b5090506000845167ffffffffffffffff8111156131305761312f613d39565b5b60405190808252806020026020018201604052801561316357816020015b606081526020019060019003908161314e5790505b50905060005b85518110156131f65761317a611eca565b60ff1667ffffffffffffffff81111561319657613195613d39565b5b6040519080825280602002602001820160405280156131c45781602001602082028036833780820191505090505b508282815181106131d8576131d7614654565b5b602002602001018190525080806131ee906142f5565b915050613169565b5060006132016124fc565b9050600061320e8261260d565b61ffff169050600282613221919061427f565b91506000604051905060005b8281101561326c5760006132448a89898989613305565b90508085613252919061427f565b945082604052508080613264906142f5565b91505061322d565b5061327784876135fd565b9650505050505050919050565b805160208201602082028101815b818110156132d057825b818110156132c45781518151808210156132b7578084528183525b505060208101905061329c565b50602081019050613292565b5050505050565b600081836132e5919061427f565b905092915050565b60606132fc848460008561374a565b90509392505050565b60008060008061331485612a91565b91509150600080600060606000600d613342602088613333919061427f565b8961381790919063ffffffff16565b61334c919061427f565b9050600061337360688c613360919061427f565b6000369050612ffe90919063ffffffff16565b905060006133a58360418e613388919061427f565b613392919061427f565b6000369050612ffe90919063ffffffff16565b90506133b183826133df565b93508260208501209450813596506133fb565b60006040519050818152602081019050818101604052919050565b60006133ea836133c4565b838382376020810391505092915050565b61340c8765ffffffffffff16611ebe565b6134228560418e61341d919061427f565b61382d565b955061342d86610b42565b60ff1699505050505050505060008060005b848110156135c8576134528885836138ac565b809350819450505060005b8c518110156135b4578c818151811061347957613478614654565b5b602002602001015184036135a15760008b828151811061349c5761349b614654565b5b602002602001015190506134b08189613932565b1580156134e057506134c0611eca565b60ff168d83815181106134d6576134d5614654565b5b6020026020010151105b1561359b578c82815181106134f8576134f7614654565b5b60200260200101805180919061350d906142f5565b81525050838b838151811061352557613524614654565b5b602002602001015160018f858151811061354257613541614654565b5b6020026020010151613554919061424b565b8151811061356557613564614654565b5b60200260200101818152505061357b818961394b565b8c838151811061358e5761358d614654565b5b6020026020010181815250505b506135b4565b80806135ac906142f5565b91505061345d565b5080806135c0906142f5565b91505061343f565b505050816020826135d9919061427f565b6135e391906141a9565b604e6135ef919061427f565b935050505095945050505050565b60606000835167ffffffffffffffff81111561361c5761361b613d39565b5b60405190808252806020026020018201604052801561364a5781602001602082028036833780820191505090505b5090506000613657611eca565b60ff16905060005b855181101561373e578185828151811061367c5761367b614654565b5b602002602001015110156136e35784818151811061369d5761369c614654565b5b6020026020010151826040517f2b13aef50000000000000000000000000000000000000000000000000000000081526004016136da929190613fa6565b60405180910390fd5b60006137088783815181106136fb576136fa614654565b5b6020026020010151611be8565b90508084838151811061371e5761371d614654565b5b602002602001018181525050508080613736906142f5565b91505061365f565b50819250505092915050565b60608247101561378f576040517f08c379a000000000000000000000000000000000000000000000000000000000815260040161378690614831565b60405180910390fd5b6000808673ffffffffffffffffffffffffffffffffffffffff1685876040516137b89190614898565b60006040518083038185875af1925050503d80600081146137f5576040519150601f19603f3d011682016040523d82523d6000602084013e6137fa565b606091505b509150915061380b8783838761395c565b92505050949350505050565b6000818361382591906141a9565b905092915050565b6000806000808436038035935060208101905080359250602081019050803560001a9150506001868285856040516000815260200160405260405161387594939291906148c8565b6020604051602081039080840390855afa158015613897573d6000803e3d6000fd5b50505060206040510351935050505092915050565b6000806000604e866138be919061427f565b905060006138ff6138f06020886138d5919061427f565b8760016138e2919061427f565b61381790919063ffffffff16565b836132d790919063ffffffff16565b9050600061391a826000369050612ffe90919063ffffffff16565b90508035945060208101359350505050935093915050565b600080826001901b841690506000811191505092915050565b6000816001901b8317905092915050565b606083156139be5760008351036139b657613976856139d1565b6139b5576040517f08c379a00000000000000000000000000000000000000000000000000000000081526004016139ac90614959565b60405180910390fd5b5b8290506139c9565b6139c883836139f4565b5b949350505050565b6000808273ffffffffffffffffffffffffffffffffffffffff163b119050919050565b600082511115613a075781518083602001fd5b806040517f08c379a0000000000000000000000000000000000000000000000000000000008152600401613a3b9190613f84565b60405180910390fd5b6000819050919050565b613a5781613a44565b82525050565b6000602082019050613a726000830184613a4e565b92915050565b6000604051905090565b600080fd5b600080fd5b600073ffffffffffffffffffffffffffffffffffffffff82169050919050565b6000613ab782613a8c565b9050919050565b613ac781613aac565b8114613ad257600080fd5b50565b600081359050613ae481613abe565b92915050565b600060208284031215613b0057613aff613a82565b5b6000613b0e84828501613ad5565b91505092915050565b600060ff82169050919050565b613b2d81613b17565b82525050565b6000602082019050613b486000830184613b24565b92915050565b613b5781613aac565b82525050565b6000602082019050613b726000830184613b4e565b92915050565b613b8181613a44565b8114613b8c57600080fd5b50565b600081359050613b9e81613b78565b92915050565b60008115159050919050565b613bb981613ba4565b8114613bc457600080fd5b50565b600081359050613bd681613bb0565b92915050565b60008060008060008060008060006101208a8c031215613bff57613bfe613a82565b5b6000613c0d8c828d01613ad5565b9950506020613c1e8c828d01613ad5565b9850506040613c2f8c828d01613b8f565b9750506060613c408c828d01613ad5565b9650506080613c518c828d01613bc7565b95505060a0613c628c828d01613b8f565b94505060c0613c738c828d01613b8f565b93505060e0613c848c828d01613b8f565b925050610100613c968c828d01613b8f565b9150509295985092959850929598565b613caf81613ba4565b82525050565b6000602082019050613cca6000830184613ca6565b92915050565b600080600060608486031215613ce957613ce8613a82565b5b6000613cf786828701613ad5565b9350506020613d0886828701613ad5565b9250506040613d1986828701613b8f565b9150509250925092565b600080fd5b6000601f19601f8301169050919050565b7f4e487b7100000000000000000000000000000000000000000000000000000000600052604160045260246000fd5b613d7182613d28565b810181811067ffffffffffffffff82111715613d9057613d8f613d39565b5b80604052505050565b6000613da3613a78565b9050613daf8282613d68565b919050565b600067ffffffffffffffff821115613dcf57613dce613d39565b5b602082029050602081019050919050565b600080fd5b6000613df8613df384613db4565b613d99565b90508083825260208201905060208402830185811115613e1b57613e1a613de0565b5b835b81811015613e445780613e308882613b8f565b845260208401935050602081019050613e1d565b5050509392505050565b600082601f830112613e6357613e62613d23565b5b8135613e73848260208601613de5565b91505092915050565b600060208284031215613e9257613e91613a82565b5b600082013567ffffffffffffffff811115613eb057613eaf613a87565b5b613ebc84828501613e4e565b91505092915050565b60008060408385031215613edc57613edb613a82565b5b6000613eea85828601613ad5565b9250506020613efb85828601613b8f565b9150509250929050565b600081519050919050565b600082825260208201905092915050565b60005b83811015613f3f578082015181840152602081019050613f24565b60008484015250505050565b6000613f5682613f05565b613f608185613f10565b9350613f70818560208601613f21565b613f7981613d28565b840191505092915050565b60006020820190508181036000830152613f9e8184613f4b565b905092915050565b6000604082019050613fbb6000830185613a4e565b613fc86020830184613a4e565b9392505050565b600060208284031215613fe557613fe4613a82565b5b6000613ff384828501613b8f565b91505092915050565b7f4e487b7100000000000000000000000000000000000000000000000000000000600052601160045260246000fd5b60008160011c9050919050565b6000808291508390505b60018511156140825780860481111561405e5761405d613ffc565b5b600185161561406d5780820291505b808102905061407b8561402b565b9450614042565b94509492505050565b60008261409b5760019050614157565b816140a95760009050614157565b81600181146140bf57600281146140c9576140f8565b6001915050614157565b60ff8411156140db576140da613ffc565b5b8360020a9150848211156140f2576140f1613ffc565b5b50614157565b5060208310610133831016604e8410600b841016171561412d5782820a90508381111561412857614127613ffc565b5b614157565b61413a8484846001614038565b9250905081840481111561415157614150613ffc565b5b81810290505b9392505050565b600061416982613a44565b915061417483613a44565b92506141a17fffffffffffffffffffffffffffffffffffffffffffffffffffffffffffffffff848461408b565b905092915050565b60006141b482613a44565b91506141bf83613a44565b92508282026141cd81613a44565b915082820484148315176141e4576141e3613ffc565b5b5092915050565b7f4e487b7100000000000000000000000000000000000000000000000000000000600052601260045260246000fd5b600061422582613a44565b915061423083613a44565b9250826142405761423f6141eb565b5b828204905092915050565b600061425682613a44565b915061426183613a44565b925082820390508181111561427957614278613ffc565b5b92915050565b600061428a82613a44565b915061429583613a44565b92508282019050808211156142ad576142ac613ffc565b5b92915050565b6000815190506142c281613b78565b92915050565b6000602082840312156142de576142dd613a82565b5b60006142ec848285016142b3565b91505092915050565b600061430082613a44565b91507fffffffffffffffffffffffffffffffffffffffffffffffffffffffffffffffff820361433257614331613ffc565b5b600182019050919050565b7f496e697469616c697a61626c653a20636f6e747261637420697320616c72656160008201527f647920696e697469616c697a6564000000000000000000000000000000000000602082015250565b6000614399602e83613f10565b91506143a48261433d565b604082019050919050565b600060208201905081810360008301526143c88161438c565b9050919050565b6000819050919050565b6000819050919050565b60006143fe6143f96143f4846143cf565b6143d9565b613b17565b9050919050565b61440e816143e3565b82525050565b60006020820190506144296000830184614405565b92915050565b7f4f776e61626c6532537465703a2063616c6c6572206973206e6f74207468652060008201527f6e6577206f776e65720000000000000000000000000000000000000000000000602082015250565b600061448b602983613f10565b91506144968261442f565b604082019050919050565b600060208201905081810360008301526144ba8161447e565b9050919050565b60006040820190506144d66000830185613b4e565b6144e36020830184613a4e565b9392505050565b7f496e76616c6964546f6b656e0000000000000000000000000000000000000000600082015250565b6000614520600c83613f10565b915061452b826144ea565b602082019050919050565b6000602082019050818103600083015261454f81614513565b9050919050565b7f4f776e61626c653a2063616c6c6572206973206e6f7420746865206f776e6572600082015250565b600061458c602083613f10565b915061459782614556565b602082019050919050565b600060208201905081810360008301526145bb8161457f565b9050919050565b7f496e697469616c697a61626c653a20636f6e7472616374206973206e6f74206960008201527f6e697469616c697a696e67000000000000000000000000000000000000000000602082015250565b600061461e602b83613f10565b9150614629826145c2565b604082019050919050565b6000602082019050818103600083015261464d81614611565b9050919050565b7f4e487b7100000000000000000000000000000000000000000000000000000000600052603260045260246000fd5b60006060820190506146986000830186613b4e565b6146a56020830185613b4e565b6146b26040830184613a4e565b949350505050565b60006146c582613a44565b91506146d083613a44565b9250826146e0576146df6141eb565b5b828206905092915050565b6000815190506146fa81613bb0565b92915050565b60006020828403121561471657614715613a82565b5b6000614724848285016146eb565b91505092915050565b7f5361666545524332303a204552433230206f7065726174696f6e20646964206e60008201527f6f74207375636365656400000000000000000000000000000000000000000000602082015250565b6000614789602a83613f10565b91506147948261472d565b604082019050919050565b600060208201905081810360008301526147b88161477c565b9050919050565b7f416464726573733a20696e73756666696369656e742062616c616e636520666f60008201527f722063616c6c0000000000000000000000000000000000000000000000000000602082015250565b600061481b602683613f10565b9150614826826147bf565b604082019050919050565b6000602082019050818103600083015261484a8161480e565b9050919050565b600081519050919050565b600081905092915050565b600061487282614851565b61487c818561485c565b935061488c818560208601613f21565b80840191505092915050565b60006148a48284614867565b915081905092915050565b6000819050919050565b6148c2816148af565b82525050565b60006080820190506148dd60008301876148b9565b6148ea6020830186613b24565b6148f760408301856148b9565b61490460608301846148b9565b95945050505050565b7f416464726573733a2063616c6c20746f206e6f6e2d636f6e7472616374000000600082015250565b6000614943601d83613f10565b915061494e8261490d565b602082019050919050565b6000602082019050818103600083015261497281614936565b905091905056fea2646970667358221220277fe3731fd05f91749b5a51e29326c413a0007634f07b0ae43b0cc200332fa864736f6c63430008140033",
  "devdoc": {
    "events": {
      "Initialized(uint8)": {
        "details": "Triggered when the contract has been initialized or reinitialized."
      }
    },
    "kind": "dev",
    "methods": {
      "acceptOwnership()": {
        "details": "The new owner accepts the ownership transfer."
      },
      "aggregateValues(uint256[])": {
        "details": "This function may be overridden by the child consumer contract. It should aggregate values from different signers to a single uint value. By default, it calculates the median value",
        "params": {
          "values": "An array of uint256 values from different signers"
        },
        "returns": {
          "_0": "Result of the aggregation in the form of a single number"
        }
      },
      "claim(address)": {
        "details": "Claim refund and IDO token",
        "params": {
          "staker": "address of staker to claim IDO token1"
        }
      },
      "finalize()": {
        "details": "finalize the IDO pool cannot finalize if IDO has not reached end time or minimum funding goal is not reached. Finalize will calulate total value of USD funded for IDO and determine IDO size"
      },
      "getDataServiceId()": {
        "details": "This function must be implemented by the child consumer contract. It should return dataServiceId which DataServiceWrapper will use if not provided explicitly . If not overridden, value will always have to be provided explicitly in DataServiceWrapper.",
        "returns": {
          "_0": "dataServiceId being consumed by contract"
        }
      },
      "getUniqueSignersThreshold()": {
        "details": "This function should be overridden by the child consumer contract.",
        "returns": {
          "_0": "The minimum required value of unique authorised signers"
        }
      },
      "owner()": {
        "details": "Returns the address of the current owner."
      },
      "participate(address,address,uint256)": {
        "details": "Participate in IDO",
        "params": {
          "amount": "amount of token to participate",
          "receipient": "address to participate in IDO",
          "token": "address of token used to particpate, must be either buyToken or fyToken"
        }
      },
      "pendingOwner()": {
        "details": "Returns the address of the pending owner."
      },
      "renounceOwnership()": {
        "details": "Leaves the contract without owner. It will not be possible to call `onlyOwner` functions. Can only be called by the current owner. NOTE: Renouncing ownership will leave the contract without an owner, thereby disabling any functionality that is only available to the owner."
      },
      "transferOwnership(address)": {
        "details": "Starts the ownership transfer of the contract to a new account. Replaces the pending transfer if there is one. Can only be called by the current owner."
      },
      "validateTimestamp(uint256)": {
        "details": "This function may be overridden by the child consumer contract. It should validate the timestamp against the current time (block.timestamp) It should revert with a helpful message if the timestamp is not valid",
        "params": {
          "receivedTimestampMilliseconds": "Timestamp extracted from calldata"
        }
      },
      "withdrawSpareIDO()": {
        "details": "Withdraw remaining IDO token if funding goal is not reached"
      }
    },
    "version": 1
  },
  "userdoc": {
    "kind": "user",
    "methods": {
      "getETHPrice()": {
        "notice": "Get ETH pricing from redstone oracles on blast network result is in 8 decimals"
      }
    },
    "version": 1
  },
  "storageLayout": {
    "storage": [
      {
        "astId": 246,
        "contract": "contracts/ido/ETHIDOPool.sol:ETHIDOPool",
        "label": "_initialized",
        "offset": 0,
        "slot": "0",
        "type": "t_uint8"
      },
      {
        "astId": 249,
        "contract": "contracts/ido/ETHIDOPool.sol:ETHIDOPool",
        "label": "_initializing",
        "offset": 1,
        "slot": "0",
        "type": "t_bool"
      },
      {
        "astId": 788,
        "contract": "contracts/ido/ETHIDOPool.sol:ETHIDOPool",
        "label": "__gap",
        "offset": 0,
        "slot": "1",
        "type": "t_array(t_uint256)50_storage"
      },
      {
        "astId": 118,
        "contract": "contracts/ido/ETHIDOPool.sol:ETHIDOPool",
        "label": "_owner",
        "offset": 0,
        "slot": "51",
        "type": "t_address"
      },
      {
        "astId": 238,
        "contract": "contracts/ido/ETHIDOPool.sol:ETHIDOPool",
        "label": "__gap",
        "offset": 0,
        "slot": "52",
        "type": "t_array(t_uint256)49_storage"
      },
      {
        "astId": 11,
        "contract": "contracts/ido/ETHIDOPool.sol:ETHIDOPool",
        "label": "_pendingOwner",
        "offset": 0,
        "slot": "101",
        "type": "t_address"
      },
      {
        "astId": 105,
        "contract": "contracts/ido/ETHIDOPool.sol:ETHIDOPool",
        "label": "__gap",
        "offset": 0,
        "slot": "102",
        "type": "t_array(t_uint256)49_storage"
      },
      {
        "astId": 6859,
        "contract": "contracts/ido/ETHIDOPool.sol:ETHIDOPool",
        "label": "buyToken",
        "offset": 0,
        "slot": "151",
        "type": "t_address"
      },
      {
        "astId": 6861,
        "contract": "contracts/ido/ETHIDOPool.sol:ETHIDOPool",
        "label": "fyToken",
        "offset": 0,
        "slot": "152",
        "type": "t_address"
      },
      {
        "astId": 6863,
        "contract": "contracts/ido/ETHIDOPool.sol:ETHIDOPool",
        "label": "treasury",
        "offset": 0,
        "slot": "153",
        "type": "t_address"
      },
      {
        "astId": 6865,
        "contract": "contracts/ido/ETHIDOPool.sol:ETHIDOPool",
        "label": "idoToken",
        "offset": 0,
        "slot": "154",
        "type": "t_address"
      },
      {
        "astId": 6867,
        "contract": "contracts/ido/ETHIDOPool.sol:ETHIDOPool",
        "label": "isFinalized",
        "offset": 20,
        "slot": "154",
        "type": "t_bool"
      },
      {
        "astId": 6869,
        "contract": "contracts/ido/ETHIDOPool.sol:ETHIDOPool",
        "label": "claimableTime",
        "offset": 0,
        "slot": "155",
        "type": "t_uint256"
      },
      {
        "astId": 6871,
        "contract": "contracts/ido/ETHIDOPool.sol:ETHIDOPool",
        "label": "isClaimable",
        "offset": 0,
        "slot": "156",
        "type": "t_bool"
      },
      {
        "astId": 6873,
        "contract": "contracts/ido/ETHIDOPool.sol:ETHIDOPool",
        "label": "idoPrice",
        "offset": 0,
        "slot": "157",
        "type": "t_uint256"
      },
      {
        "astId": 6875,
        "contract": "contracts/ido/ETHIDOPool.sol:ETHIDOPool",
        "label": "idoSize",
        "offset": 0,
        "slot": "158",
        "type": "t_uint256"
      },
      {
        "astId": 6877,
        "contract": "contracts/ido/ETHIDOPool.sol:ETHIDOPool",
        "label": "snapshotTokenPrice",
        "offset": 0,
        "slot": "159",
        "type": "t_uint256"
      },
      {
        "astId": 6879,
        "contract": "contracts/ido/ETHIDOPool.sol:ETHIDOPool",
        "label": "snapshotPriceDecimals",
        "offset": 0,
        "slot": "160",
        "type": "t_uint256"
      },
      {
        "astId": 6881,
        "contract": "contracts/ido/ETHIDOPool.sol:ETHIDOPool",
        "label": "fundedUSDValue",
        "offset": 0,
        "slot": "161",
        "type": "t_uint256"
      },
      {
        "astId": 6883,
        "contract": "contracts/ido/ETHIDOPool.sol:ETHIDOPool",
        "label": "idoDecimals",
        "offset": 0,
        "slot": "162",
        "type": "t_uint256"
      },
      {
        "astId": 6887,
        "contract": "contracts/ido/ETHIDOPool.sol:ETHIDOPool",
        "label": "totalFunded",
        "offset": 0,
        "slot": "163",
        "type": "t_mapping(t_address,t_uint256)"
      },
      {
        "astId": 6892,
        "contract": "contracts/ido/ETHIDOPool.sol:ETHIDOPool",
        "label": "accountPosition",
        "offset": 0,
        "slot": "164",
        "type": "t_mapping(t_address,t_struct(Position)7817_storage)"
      },
      {
        "astId": 6894,
        "contract": "contracts/ido/ETHIDOPool.sol:ETHIDOPool",
        "label": "idoStartTime",
        "offset": 0,
        "slot": "165",
        "type": "t_uint256"
      },
      {
        "astId": 6896,
        "contract": "contracts/ido/ETHIDOPool.sol:ETHIDOPool",
        "label": "idoEndTime",
        "offset": 0,
        "slot": "166",
        "type": "t_uint256"
      },
      {
        "astId": 6898,
        "contract": "contracts/ido/ETHIDOPool.sol:ETHIDOPool",
        "label": "minimumFundingGoal",
        "offset": 0,
        "slot": "167",
        "type": "t_uint256"
      },
      {
        "astId": 8440,
        "contract": "contracts/ido/ETHIDOPool.sol:ETHIDOPool",
        "label": "mock",
        "offset": 0,
        "slot": "168",
        "type": "t_bool"
      }
    ],
    "types": {
      "t_address": {
        "encoding": "inplace",
        "label": "address",
        "numberOfBytes": "20"
      },
      "t_array(t_uint256)49_storage": {
        "base": "t_uint256",
        "encoding": "inplace",
        "label": "uint256[49]",
        "numberOfBytes": "1568"
      },
      "t_array(t_uint256)50_storage": {
        "base": "t_uint256",
        "encoding": "inplace",
        "label": "uint256[50]",
        "numberOfBytes": "1600"
      },
      "t_bool": {
        "encoding": "inplace",
        "label": "bool",
        "numberOfBytes": "1"
      },
      "t_mapping(t_address,t_struct(Position)7817_storage)": {
        "encoding": "mapping",
        "key": "t_address",
        "label": "mapping(address => struct IIDOPool.Position)",
        "numberOfBytes": "32",
        "value": "t_struct(Position)7817_storage"
      },
      "t_mapping(t_address,t_uint256)": {
        "encoding": "mapping",
        "key": "t_address",
        "label": "mapping(address => uint256)",
        "numberOfBytes": "32",
        "value": "t_uint256"
      },
      "t_struct(Position)7817_storage": {
        "encoding": "inplace",
        "label": "struct IIDOPool.Position",
        "members": [
          {
            "astId": 7814,
            "contract": "contracts/ido/ETHIDOPool.sol:ETHIDOPool",
            "label": "fyAmount",
            "offset": 0,
            "slot": "0",
            "type": "t_uint256"
          },
          {
            "astId": 7816,
            "contract": "contracts/ido/ETHIDOPool.sol:ETHIDOPool",
            "label": "amount",
            "offset": 0,
            "slot": "1",
            "type": "t_uint256"
          }
        ],
        "numberOfBytes": "64"
      },
      "t_uint256": {
        "encoding": "inplace",
        "label": "uint256",
        "numberOfBytes": "32"
      },
      "t_uint8": {
        "encoding": "inplace",
        "label": "uint8",
        "numberOfBytes": "1"
      }
    }
  }
}