{
  "address": "0x45BD58322327e6a857E21C3E2927e3Ad51c5b0bF",
  "abi": [
    {
      "inputs": [],
      "name": "AlreadyFinalized",
      "type": "error"
    },
    {
      "inputs": [],
      "name": "CalldataMustHaveValidPayload",
      "type": "error"
    },
    {
      "inputs": [],
      "name": "CalldataOverOrUnderFlow",
      "type": "error"
    },
    {
      "inputs": [],
      "name": "CanNotPickMedianOfEmptyArray",
      "type": "error"
    },
    {
      "inputs": [],
      "name": "DataPackageTimestampMustNotBeZero",
      "type": "error"
    },
    {
      "inputs": [],
      "name": "DataPackageTimestampsMustBeEqual",
      "type": "error"
    },
    {
      "inputs": [],
      "name": "EachSignerMustProvideTheSameValue",
      "type": "error"
    },
    {
      "inputs": [],
      "name": "EmptyCalldataPointersArr",
      "type": "error"
    },
    {
      "inputs": [],
      "name": "GetDataServiceIdNotImplemented",
      "type": "error"
    },
    {
      "inputs": [],
      "name": "IncorrectUnsignedMetadataSize",
      "type": "error"
    },
    {
      "inputs": [
        {
          "internalType": "uint256",
          "name": "receivedSignersCount",
          "type": "uint256"
        },
        {
          "internalType": "uint256",
          "name": "requiredSignersCount",
          "type": "uint256"
        }
      ],
      "name": "InsufficientNumberOfUniqueSigners",
      "type": "error"
    },
    {
      "inputs": [],
      "name": "InvalidCalldataPointer",
      "type": "error"
    },
    {
      "inputs": [
        {
          "internalType": "address",
          "name": "token",
          "type": "address"
        }
      ],
      "name": "InvalidParticipateToken",
      "type": "error"
    },
    {
      "inputs": [
        {
          "internalType": "uint256",
          "name": "amount",
          "type": "uint256"
        }
      ],
      "name": "InvalidTokenAmounts",
      "type": "error"
    },
    {
      "inputs": [],
      "name": "NoStaking",
      "type": "error"
    },
    {
      "inputs": [],
      "name": "NotFinalized",
      "type": "error"
    },
    {
      "inputs": [
        {
          "internalType": "address",
          "name": "",
          "type": "address"
        }
      ],
      "name": "NotStaker",
      "type": "error"
    },
    {
      "inputs": [
        {
          "internalType": "address",
          "name": "token",
          "type": "address"
        }
      ],
      "name": "ParticipateWithDifferentToken",
      "type": "error"
    },
    {
      "inputs": [],
      "name": "RedstonePayloadMustHaveAtLeastOneDataPackage",
      "type": "error"
    },
    {
      "inputs": [
        {
          "internalType": "address",
          "name": "receivedSigner",
          "type": "address"
        }
      ],
      "name": "SignerNotAuthorised",
      "type": "error"
    },
    {
      "inputs": [
        {
          "internalType": "uint256",
          "name": "receivedTimestampSeconds",
          "type": "uint256"
        },
        {
          "internalType": "uint256",
          "name": "blockTimestamp",
          "type": "uint256"
        }
      ],
      "name": "TimestampFromTooLongFuture",
      "type": "error"
    },
    {
      "inputs": [
        {
          "internalType": "uint256",
          "name": "receivedTimestampSeconds",
          "type": "uint256"
        },
        {
          "internalType": "uint256",
          "name": "blockTimestamp",
          "type": "uint256"
        }
      ],
      "name": "TimestampIsTooOld",
      "type": "error"
    },
    {
      "anonymous": false,
      "inputs": [
        {
          "indexed": true,
          "internalType": "address",
          "name": "account",
          "type": "address"
        },
        {
          "indexed": false,
          "internalType": "uint256",
          "name": "idoAmount",
          "type": "uint256"
        },
        {
          "indexed": false,
          "internalType": "uint256",
          "name": "refundAmount",
          "type": "uint256"
        }
      ],
      "name": "Claim",
      "type": "event"
    },
    {
      "anonymous": false,
      "inputs": [
        {
          "indexed": false,
          "internalType": "uint8",
          "name": "version",
          "type": "uint8"
        }
      ],
      "name": "Initialized",
      "type": "event"
    },
    {
      "anonymous": false,
      "inputs": [
        {
          "indexed": true,
          "internalType": "address",
          "name": "previousOwner",
          "type": "address"
        },
        {
          "indexed": true,
          "internalType": "address",
          "name": "newOwner",
          "type": "address"
        }
      ],
      "name": "OwnershipTransferred",
      "type": "event"
    },
    {
      "anonymous": false,
      "inputs": [
        {
          "indexed": true,
          "internalType": "address",
          "name": "account",
          "type": "address"
        },
        {
          "indexed": false,
          "internalType": "address",
          "name": "token",
          "type": "address"
        },
        {
          "indexed": false,
          "internalType": "uint256",
          "name": "amount",
          "type": "uint256"
        }
      ],
      "name": "Participation",
      "type": "event"
    },
    {
      "inputs": [
        {
          "internalType": "address",
          "name": "",
          "type": "address"
        }
      ],
      "name": "accountPosition",
      "outputs": [
        {
          "internalType": "address",
          "name": "token",
          "type": "address"
        },
        {
          "internalType": "uint256",
          "name": "amount",
          "type": "uint256"
        }
      ],
      "stateMutability": "view",
      "type": "function"
    },
    {
      "inputs": [
        {
          "internalType": "uint256[]",
          "name": "values",
          "type": "uint256[]"
        }
      ],
      "name": "aggregateValues",
      "outputs": [
        {
          "internalType": "uint256",
          "name": "",
          "type": "uint256"
        }
      ],
      "stateMutability": "view",
      "type": "function"
    },
    {
      "inputs": [],
      "name": "buyToken",
      "outputs": [
        {
          "internalType": "address",
          "name": "",
          "type": "address"
        }
      ],
      "stateMutability": "view",
      "type": "function"
    },
    {
      "inputs": [
        {
          "internalType": "address",
          "name": "staker",
          "type": "address"
        }
      ],
      "name": "claim",
      "outputs": [],
      "stateMutability": "nonpayable",
      "type": "function"
    },
    {
      "inputs": [],
      "name": "extractTimestampsAndAssertAllAreEqual",
      "outputs": [
        {
          "internalType": "uint256",
          "name": "extractedTimestamp",
          "type": "uint256"
        }
      ],
      "stateMutability": "pure",
      "type": "function"
    },
    {
      "inputs": [],
      "name": "finalize",
      "outputs": [],
      "stateMutability": "nonpayable",
      "type": "function"
    },
    {
      "inputs": [],
      "name": "fyToken",
      "outputs": [
        {
          "internalType": "address",
          "name": "",
          "type": "address"
        }
      ],
      "stateMutability": "view",
      "type": "function"
    },
    {
      "inputs": [
        {
          "internalType": "address",
          "name": "signerAddress",
          "type": "address"
        }
      ],
      "name": "getAllMockAuthorised",
      "outputs": [
        {
          "internalType": "uint8",
          "name": "",
          "type": "uint8"
        }
      ],
      "stateMutability": "view",
      "type": "function"
    },
    {
      "inputs": [
        {
          "internalType": "address",
          "name": "signerAddress",
          "type": "address"
        }
      ],
      "name": "getAllMockExceptLastOneAuthorised",
      "outputs": [
        {
          "internalType": "uint8",
          "name": "",
          "type": "uint8"
        }
      ],
      "stateMutability": "view",
      "type": "function"
    },
    {
      "inputs": [
        {
          "internalType": "address",
          "name": "signerAddress",
          "type": "address"
        }
      ],
      "name": "getAuthorisedMockSignerIndex",
      "outputs": [
        {
          "internalType": "uint8",
          "name": "",
          "type": "uint8"
        }
      ],
      "stateMutability": "view",
      "type": "function"
    },
    {
      "inputs": [
        {
          "internalType": "address",
          "name": "_signer",
          "type": "address"
        }
      ],
      "name": "getAuthorisedSignerIndex",
      "outputs": [
        {
          "internalType": "uint8",
          "name": "",
          "type": "uint8"
        }
      ],
      "stateMutability": "view",
      "type": "function"
    },
    {
      "inputs": [],
      "name": "getDataServiceId",
      "outputs": [
        {
          "internalType": "string",
          "name": "",
          "type": "string"
        }
      ],
      "stateMutability": "view",
      "type": "function"
    },
    {
      "inputs": [],
      "name": "getETHPrice",
      "outputs": [
        {
          "internalType": "uint256",
          "name": "",
          "type": "uint256"
        }
      ],
      "stateMutability": "view",
      "type": "function"
    },
    {
      "inputs": [],
      "name": "getUniqueSignersThreshold",
      "outputs": [
        {
          "internalType": "uint8",
          "name": "",
          "type": "uint8"
        }
      ],
      "stateMutability": "view",
      "type": "function"
    },
    {
      "inputs": [],
      "name": "idoPrice",
      "outputs": [
        {
          "internalType": "uint256",
          "name": "",
          "type": "uint256"
        }
      ],
      "stateMutability": "view",
      "type": "function"
    },
    {
      "inputs": [],
      "name": "idoSize",
      "outputs": [
        {
          "internalType": "uint256",
          "name": "",
          "type": "uint256"
        }
      ],
      "stateMutability": "view",
      "type": "function"
    },
    {
      "inputs": [],
      "name": "idoToken",
      "outputs": [
        {
          "internalType": "address",
          "name": "",
          "type": "address"
        }
      ],
      "stateMutability": "view",
      "type": "function"
    },
    {
      "inputs": [
        {
          "internalType": "address",
          "name": "fyETH_",
          "type": "address"
        },
        {
          "internalType": "address",
          "name": "idoToken_",
          "type": "address"
        },
        {
          "internalType": "uint256",
          "name": "idoDecimals_",
          "type": "uint256"
        },
        {
          "internalType": "address",
          "name": "treasury_",
          "type": "address"
        },
        {
          "internalType": "bool",
          "name": "mock_",
          "type": "bool"
        }
      ],
      "name": "init",
      "outputs": [],
      "stateMutability": "nonpayable",
      "type": "function"
    },
    {
      "inputs": [],
      "name": "isFinalized",
      "outputs": [
        {
          "internalType": "bool",
          "name": "",
          "type": "bool"
        }
      ],
      "stateMutability": "view",
      "type": "function"
    },
    {
      "inputs": [],
      "name": "owner",
      "outputs": [
        {
          "internalType": "address",
          "name": "",
          "type": "address"
        }
      ],
      "stateMutability": "view",
      "type": "function"
    },
    {
      "inputs": [
        {
          "internalType": "address",
          "name": "receipient",
          "type": "address"
        },
        {
          "internalType": "address",
          "name": "token",
          "type": "address"
        },
        {
          "internalType": "uint256",
          "name": "amount",
          "type": "uint256"
        }
      ],
      "name": "participate",
      "outputs": [],
      "stateMutability": "payable",
      "type": "function"
    },
    {
      "inputs": [],
      "name": "renounceOwnership",
      "outputs": [],
      "stateMutability": "nonpayable",
      "type": "function"
    },
    {
      "inputs": [
        {
          "internalType": "address",
          "name": "_token",
          "type": "address"
        },
        {
          "internalType": "uint256",
          "name": "_idoDecimals",
          "type": "uint256"
        }
      ],
      "name": "setIDOToken",
      "outputs": [],
      "stateMutability": "nonpayable",
      "type": "function"
    },
    {
      "inputs": [
        {
          "internalType": "uint256",
          "name": "price",
          "type": "uint256"
        }
      ],
      "name": "setTokenPriceInUSD",
      "outputs": [],
      "stateMutability": "nonpayable",
      "type": "function"
    },
    {
      "inputs": [],
      "name": "snapshotPriceDecimals",
      "outputs": [
        {
          "internalType": "uint256",
          "name": "",
          "type": "uint256"
        }
      ],
      "stateMutability": "view",
      "type": "function"
    },
    {
      "inputs": [],
      "name": "snapshotTokenPrice",
      "outputs": [
        {
          "internalType": "uint256",
          "name": "",
          "type": "uint256"
        }
      ],
      "stateMutability": "view",
      "type": "function"
    },
    {
      "inputs": [
        {
          "internalType": "address",
          "name": "newOwner",
          "type": "address"
        }
      ],
      "name": "transferOwnership",
      "outputs": [],
      "stateMutability": "nonpayable",
      "type": "function"
    },
    {
      "inputs": [],
      "name": "treasury",
      "outputs": [
        {
          "internalType": "address",
          "name": "",
          "type": "address"
        }
      ],
      "stateMutability": "view",
      "type": "function"
    },
    {
      "inputs": [
        {
          "internalType": "uint256",
          "name": "receivedTimestampMilliseconds",
          "type": "uint256"
        }
      ],
      "name": "validateTimestamp",
      "outputs": [],
      "stateMutability": "view",
      "type": "function"
    },
    {
      "inputs": [],
      "name": "withdrawSpareIDO",
      "outputs": [],
      "stateMutability": "nonpayable",
      "type": "function"
    }
  ],
  "transactionHash": "0xa164cfa2b40858d26d4dd8d2bc5ba1227242704ee44ceb5b671dc7b1eca08ef4",
  "args": [],
  "numDeployments": 1,
  "solcInputHash": "cae8cb29bcfa77b569b812f486e7b9c9",
  "bytecode": "0x60806040526000607160006101000a81548160ff02191690831515021790555034801561002b57600080fd5b506145418061003b6000396000f3fe6080604052600436106101cd5760003560e01c80639653cc7a116100f7578063cd80fe0d11610095578063f2fde38b11610064578063f2fde38b14610637578063f46cf7f014610660578063f50b2efe1461069e578063f90c4924146106c7576101cd565b8063cd80fe0d14610579578063d22158fa146105a4578063d6cd82bc146105e1578063dc3bfba91461060c576101cd565b8063a607a8d9116100d1578063a607a8d9146104bd578063b24ebfcc146104e8578063bf9c83ce14610525578063c274583a1461054e576101cd565b80639653cc7a1461044b578063997ccc7e14610467578063a482171914610492576101cd565b806355a547d51161016f578063797761151161013e578063797761151461038f5780638d4e4083146103b85780638da5cb5b146103e357806395262d9f1461040e576101cd565b806355a547d5146102f95780635eeb57c01461032457806361d027b31461034d578063715018a614610378576101cd565b806335f567be116101ab57806335f567be146102515780633ce142f514610268578063429989f0146102a55780634bb278f3146102e2576101cd565b806310a12053146101d25780631dcd8ae5146101fd5780631e83409a14610228575b600080fd5b3480156101de57600080fd5b506101e76106f2565b6040516101f491906136aa565b60405180910390f35b34801561020957600080fd5b506102126106f8565b60405161021f91906136aa565b60405180910390f35b34801561023457600080fd5b5061024f600480360381019061024a9190613737565b6106fe565b005b34801561025d57600080fd5b5061026661098d565b005b34801561027457600080fd5b5061028f600480360381019061028a9190613737565b610a7d565b60405161029c9190613780565b60405180910390f35b3480156102b157600080fd5b506102cc60048036038101906102c79190613737565b610ab5565b6040516102d99190613780565b60405180910390f35b3480156102ee57600080fd5b506102f7611139565b005b34801561030557600080fd5b5061030e6113f3565b60405161031b91906136aa565b60405180910390f35b34801561033057600080fd5b5061034b600480360381019061034691906137c7565b611563565b005b34801561035957600080fd5b50610362611575565b60405161036f9190613803565b60405180910390f35b34801561038457600080fd5b5061038d61159b565b005b34801561039b57600080fd5b506103b660048036038101906103b19190613856565b6115af565b005b3480156103c457600080fd5b506103cd611701565b6040516103da91906138e0565b60405180910390f35b3480156103ef57600080fd5b506103f8611714565b6040516104059190613803565b60405180910390f35b34801561041a57600080fd5b5061043560048036038101906104309190613737565b61173e565b6040516104429190613780565b60405180910390f35b610465600480360381019061046091906138fb565b611750565b005b34801561047357600080fd5b5061047c611a84565b60405161048991906136aa565b60405180910390f35b34801561049e57600080fd5b506104a7611a8a565b6040516104b49190613803565b60405180910390f35b3480156104c957600080fd5b506104d2611ab0565b6040516104df91906136aa565b60405180910390f35b3480156104f457600080fd5b5061050f600480360381019061050a9190613aa7565b611ae0565b60405161051c91906136aa565b60405180910390f35b34801561053157600080fd5b5061054c60048036038101906105479190613af0565b611af2565b005b34801561055a57600080fd5b50610563611b46565b6040516105709190613baf565b60405180910390f35b34801561058557600080fd5b5061058e611b83565b60405161059b91906136aa565b60405180910390f35b3480156105b057600080fd5b506105cb60048036038101906105c69190613737565b611b89565b6040516105d89190613780565b60405180910390f35b3480156105ed57600080fd5b506105f6611c1f565b6040516106039190613803565b60405180910390f35b34801561061857600080fd5b50610621611c45565b60405161062e9190613803565b60405180910390f35b34801561064357600080fd5b5061065e60048036038101906106599190613737565b611c6b565b005b34801561066c57600080fd5b5061068760048036038101906106829190613737565b611cee565b604051610695929190613bd1565b60405180910390f35b3480156106aa57600080fd5b506106c560048036038101906106c091906137c7565b611d32565b005b3480156106d357600080fd5b506106dc611d3e565b6040516106e99190613780565b60405180910390f35b606a5481565b606c5481565b606860149054906101000a900460ff16610744576040517f1bee0d5a00000000000000000000000000000000000000000000000000000000815260040160405180910390fd5b6000607060008373ffffffffffffffffffffffffffffffffffffffff1673ffffffffffffffffffffffffffffffffffffffff1681526020019081526020016000206040518060400160405290816000820160009054906101000a900473ffffffffffffffffffffffffffffffffffffffff1673ffffffffffffffffffffffffffffffffffffffff1673ffffffffffffffffffffffffffffffffffffffff16815260200160018201548152505090506000816020015103610830576040517fbaa8213400000000000000000000000000000000000000000000000000000000815260040160405180910390fd5b60008061083c83611d47565b91509150607060008573ffffffffffffffffffffffffffffffffffffffff1673ffffffffffffffffffffffffffffffffffffffff168152602001908152602001600020600080820160006101000a81549073ffffffffffffffffffffffffffffffffffffffff02191690556001820160009055505060008111156108ca576108c983600001518583611e42565b5b61090a8360000151606760009054906101000a900473ffffffffffffffffffffffffffffffffffffffff168386602001516109059190613c29565b611e42565b610937606860009054906101000a900473ffffffffffffffffffffffffffffffffffffffff168584611e42565b8373ffffffffffffffffffffffffffffffffffffffff167f34fcbac0073d7c3d388e51312faf357774904998eeb8fca628b9e6f65ee1cbf7838360405161097f929190613c5d565b60405180910390a250505050565b606860149054906101000a900460ff166109d3576040517f1bee0d5a00000000000000000000000000000000000000000000000000000000815260040160405180910390fd5b6109db611f38565b6000606e54600a6109ec9190613db9565b606954606a546109fc9190613e04565b610a069190613e75565b9050606d548110610a175750610a7b565b6000606b54606c54606d54610a2c9190613e04565b610a369190613e75565b9050600081606a54610a489190613c29565b9050610a77606860009054906101000a900473ffffffffffffffffffffffffffffffffffffffff163383611e42565b5050505b565b6000607160009054906101000a900460ff1615610aa457610a9d82610ab5565b9050610ab0565b610aad82611fb6565b90505b919050565b600073f39fd6e51aad88f6f4ce6ab8827279cfffb9226673ffffffffffffffffffffffffffffffffffffffff168273ffffffffffffffffffffffffffffffffffffffff1603610b075760009050611134565b7370997970c51812dc3a010c7d01b50e0d17dc79c873ffffffffffffffffffffffffffffffffffffffff168273ffffffffffffffffffffffffffffffffffffffff1603610b575760019050611134565b733c44cdddb6a900fa2b585dd299e03d12fa4293bc73ffffffffffffffffffffffffffffffffffffffff168273ffffffffffffffffffffffffffffffffffffffff1603610ba75760029050611134565b7390f79bf6eb2c4f870365e785982e1f101e93b90673ffffffffffffffffffffffffffffffffffffffff168273ffffffffffffffffffffffffffffffffffffffff1603610bf75760039050611134565b7315d34aaf54267db7d7c367839aaf71a00a2c6a6573ffffffffffffffffffffffffffffffffffffffff168273ffffffffffffffffffffffffffffffffffffffff1603610c475760049050611134565b739965507d1a55bcc2695c58ba16fb37d819b0a4dc73ffffffffffffffffffffffffffffffffffffffff168273ffffffffffffffffffffffffffffffffffffffff1603610c975760059050611134565b73976ea74026e726554db657fa54763abd0c3a0aa973ffffffffffffffffffffffffffffffffffffffff168273ffffffffffffffffffffffffffffffffffffffff1603610ce75760069050611134565b7314dc79964da2c08b23698b3d3cc7ca32193d995573ffffffffffffffffffffffffffffffffffffffff168273ffffffffffffffffffffffffffffffffffffffff1603610d375760079050611134565b7323618e81e3f5cdf7f54c3d65f7fbc0abf5b21e8f73ffffffffffffffffffffffffffffffffffffffff168273ffffffffffffffffffffffffffffffffffffffff1603610d875760089050611134565b73a0ee7a142d267c1f36714e4a8f75612f20a7972073ffffffffffffffffffffffffffffffffffffffff168273ffffffffffffffffffffffffffffffffffffffff1603610dd75760099050611134565b73bcd4042de499d14e55001ccbb24a551f3b95409673ffffffffffffffffffffffffffffffffffffffff168273ffffffffffffffffffffffffffffffffffffffff1603610e2757600a9050611134565b7371be63f3384f5fb98995898a86b02fb2426c578873ffffffffffffffffffffffffffffffffffffffff168273ffffffffffffffffffffffffffffffffffffffff1603610e7757600b9050611134565b73fabb0ac9d68b0b445fb7357272ff202c5651694a73ffffffffffffffffffffffffffffffffffffffff168273ffffffffffffffffffffffffffffffffffffffff1603610ec757600c9050611134565b731cbd3b2770909d4e10f157cabc84c7264073c9ec73ffffffffffffffffffffffffffffffffffffffff168273ffffffffffffffffffffffffffffffffffffffff1603610f1757600d9050611134565b73df3e18d64bc6a983f673ab319ccae4f1a57c709773ffffffffffffffffffffffffffffffffffffffff168273ffffffffffffffffffffffffffffffffffffffff1603610f6757600e9050611134565b73cd3b766ccdd6ae721141f452c550ca635964ce7173ffffffffffffffffffffffffffffffffffffffff168273ffffffffffffffffffffffffffffffffffffffff1603610fb757600f9050611134565b732546bcd3c84621e976d8185a91a922ae77ecec3073ffffffffffffffffffffffffffffffffffffffff168273ffffffffffffffffffffffffffffffffffffffff16036110075760109050611134565b73bda5747bfd65f08deb54cb465eb87d40e51b197e73ffffffffffffffffffffffffffffffffffffffff168273ffffffffffffffffffffffffffffffffffffffff16036110575760119050611134565b73dd2fd4581271e230360230f9337d5c0430bf44c073ffffffffffffffffffffffffffffffffffffffff168273ffffffffffffffffffffffffffffffffffffffff16036110a75760129050611134565b738626f6940e2eb28930efb4cef49b2d1f2c9c119973ffffffffffffffffffffffffffffffffffffffff168273ffffffffffffffffffffffffffffffffffffffff16036110f75760139050611134565b816040517fec459bc000000000000000000000000000000000000000000000000000000000815260040161112b9190613803565b60405180910390fd5b919050565b611141611f38565b606860149054906101000a900460ff1615611188576040517f475a253500000000000000000000000000000000000000000000000000000000815260040160405180910390fd5b606860009054906101000a900473ffffffffffffffffffffffffffffffffffffffff1673ffffffffffffffffffffffffffffffffffffffff166370a08231306040518263ffffffff1660e01b81526004016111e39190613803565b602060405180830381865afa158015611200573d6000803e3d6000fd5b505050506040513d601f19601f820116820180604052508101906112249190613ebb565b606a8190555061123261218a565b606b6000606c6000849190505583919050555050606c54606b54606f6000606660009054906101000a900473ffffffffffffffffffffffffffffffffffffffff1673ffffffffffffffffffffffffffffffffffffffff1673ffffffffffffffffffffffffffffffffffffffff16815260200190815260200160002054606f6000606560009054906101000a900473ffffffffffffffffffffffffffffffffffffffff1673ffffffffffffffffffffffffffffffffffffffff1673ffffffffffffffffffffffffffffffffffffffff1681526020019081526020016000205461131a9190613ee8565b6113249190613e04565b61132e9190613e75565b606d81905550606860009054906101000a900473ffffffffffffffffffffffffffffffffffffffff1673ffffffffffffffffffffffffffffffffffffffff166370a08231306040518263ffffffff1660e01b815260040161138f9190613803565b602060405180830381865afa1580156113ac573d6000803e3d6000fd5b505050506040513d601f19601f820116820180604052508101906113d09190613ebb565b606a819055506001606860146101000a81548160ff021916908315150217905550565b6000806113fe6121a2565b9050600061140b826122b3565b61ffff1690506000810361144b576040517f8552ff3c00000000000000000000000000000000000000000000000000000000815260040160405180910390fd5b6002826114589190613ee8565b915060005b8181101561155d5760006114708461230f565b90506000806068866114829190613ee8565b905060008160003690506114969190613c29565b90508035925060008365ffffffffffff16036114de576040517f336dc9d000000000000000000000000000000000000000000000000000000000815260040160405180910390fd5b600088036114f6578265ffffffffffff169750611538565b878365ffffffffffff1614611537576040517fd9d1f46500000000000000000000000000000000000000000000000000000000815260040160405180910390fd5b5b83876115449190613ee8565b965050505050808061155590613f1c565b91505061145d565b50505090565b61156b611f38565b8060698190555050565b606760009054906101000a900473ffffffffffffffffffffffffffffffffffffffff1681565b6115a3611f38565b6115ad600061234e565b565b60008060019054906101000a900460ff161590508080156115e05750600160008054906101000a900460ff1660ff16105b8061160d57506115ef30612414565b15801561160c5750600160008054906101000a900460ff1660ff16145b5b61164c576040517f08c379a000000000000000000000000000000000000000000000000000000000815260040161164390613fd6565b60405180910390fd5b60016000806101000a81548160ff021916908360ff1602179055508015611689576001600060016101000a81548160ff0219169083151502179055505b611697600087878787612437565b6116a0826124a2565b80156116f95760008060016101000a81548160ff0219169083151502179055507f7f26b83ff96e1f2b6a682f133852f6798a09c465da95921460cefb384740249860016040516116f0919061403b565b60405180910390a15b505050505050565b606860149054906101000a900460ff1681565b6000603360009054906101000a900473ffffffffffffffffffffffffffffffffffffffff16905090565b600061174982611b89565b9050919050565b606860149054906101000a900460ff1615611797576040517f475a253500000000000000000000000000000000000000000000000000000000815260040160405180910390fd5b606560009054906101000a900473ffffffffffffffffffffffffffffffffffffffff1673ffffffffffffffffffffffffffffffffffffffff168273ffffffffffffffffffffffffffffffffffffffff16141580156118435750606660009054906101000a900473ffffffffffffffffffffffffffffffffffffffff1673ffffffffffffffffffffffffffffffffffffffff168273ffffffffffffffffffffffffffffffffffffffff1614155b1561188557816040517f0fe3f57b00000000000000000000000000000000000000000000000000000000815260040161187c9190613803565b60405180910390fd5b6000607060008573ffffffffffffffffffffffffffffffffffffffff1673ffffffffffffffffffffffffffffffffffffffff1681526020019081526020016000209050600081600101541415801561192d57508060000160009054906101000a900473ffffffffffffffffffffffffffffffffffffffff1673ffffffffffffffffffffffffffffffffffffffff168373ffffffffffffffffffffffffffffffffffffffff1614155b1561196f57826040517f6d8b92360000000000000000000000000000000000000000000000000000000081526004016119669190613803565b60405180910390fd5b828160000160006101000a81548173ffffffffffffffffffffffffffffffffffffffff021916908373ffffffffffffffffffffffffffffffffffffffff160217905550818160010160008282546119c69190613ee8565b9250508190555081606f60008573ffffffffffffffffffffffffffffffffffffffff1673ffffffffffffffffffffffffffffffffffffffff1681526020019081526020016000206000828254611a1c9190613ee8565b92505081905550611a2e83858461250e565b8373ffffffffffffffffffffffffffffffffffffffff167ff6764e668f66491117a03c0e0009c5bed5b1aabe82e3ab4d38ff8bdb35094ec18484604051611a76929190613bd1565b60405180910390a250505050565b606b5481565b606560009054906101000a900473ffffffffffffffffffffffffffffffffffffffff1681565b6000611adb7f45544800000000000000000000000000000000000000000000000000000000006125be565b905090565b6000611aeb8261265a565b9050919050565b611afa611f38565b81606860006101000a81548173ffffffffffffffffffffffffffffffffffffffff021916908373ffffffffffffffffffffffffffffffffffffffff16021790555080606e819055505050565b60606040518060400160405280601581526020017f72656473746f6e652d7072696d6172792d70726f640000000000000000000000815250905090565b60695481565b6000738626f6940e2eb28930efb4cef49b2d1f2c9c119973ffffffffffffffffffffffffffffffffffffffff168273ffffffffffffffffffffffffffffffffffffffff1603611c0f57816040517fec459bc0000000000000000000000000000000000000000000000000000000008152600401611c069190613803565b60405180910390fd5b611c1882610ab5565b9050919050565b606860009054906101000a900473ffffffffffffffffffffffffffffffffffffffff1681565b606660009054906101000a900473ffffffffffffffffffffffffffffffffffffffff1681565b611c73611f38565b600073ffffffffffffffffffffffffffffffffffffffff168173ffffffffffffffffffffffffffffffffffffffff1603611ce2576040517f08c379a0000000000000000000000000000000000000000000000000000000008152600401611cd9906140c8565b60405180910390fd5b611ceb8161234e565b50565b60706020528060005260406000206000915090508060000160009054906101000a900473ffffffffffffffffffffffffffffffffffffffff16908060010154905082565b611d3b8161266c565b50565b60006003905090565b6000806000606c54606b548560200151611d619190613e04565b611d6b9190613e75565b90506000606e54600a611d7e9190613db9565b90506000606d5483606a54611d939190613e04565b611d9d9190613e75565b905060006069548385611db09190613e04565b611dba9190613e75565b9050606d5483606954606a54611dd09190613e04565b611dda9190613e75565b10611def578060009550955050505050611e3d565b60006069548484611e009190613e04565b611e0a9190613e75565b85611e159190613c29565b905082606b54606c5483611e299190613e04565b611e339190613e75565b9650965050505050505b915091565b600073ffffffffffffffffffffffffffffffffffffffff168373ffffffffffffffffffffffffffffffffffffffff1603611f075780471015611ebb57806040517f83b9f0ae000000000000000000000000000000000000000000000000000000008152600401611eb291906136aa565b60405180910390fd5b8173ffffffffffffffffffffffffffffffffffffffff166108fc829081150290604051600060405180830381858888f19350505050158015611f01573d6000803e3d6000fd5b50611f33565b611f3282828573ffffffffffffffffffffffffffffffffffffffff166127369092919063ffffffff16565b5b505050565b611f406127bc565b73ffffffffffffffffffffffffffffffffffffffff16611f5e611714565b73ffffffffffffffffffffffffffffffffffffffff1614611fb4576040517f08c379a0000000000000000000000000000000000000000000000000000000008152600401611fab90614134565b60405180910390fd5b565b6000738bb8f32df04c8b654987daaed53d6b6091e3b77473ffffffffffffffffffffffffffffffffffffffff168273ffffffffffffffffffffffffffffffffffffffff16036120085760009050612185565b73deb22f54738d54976c4c0fe5ce6d408e40d8849973ffffffffffffffffffffffffffffffffffffffff168273ffffffffffffffffffffffffffffffffffffffff16036120585760019050612185565b7351ce04be4b3e32572c4ec9135221d0691ba7d20273ffffffffffffffffffffffffffffffffffffffff168273ffffffffffffffffffffffffffffffffffffffff16036120a85760029050612185565b73dd682daec5a90dd295d14da4b0bec9281017b5be73ffffffffffffffffffffffffffffffffffffffff168273ffffffffffffffffffffffffffffffffffffffff16036120f85760039050612185565b739c5ae89c4af6aa32ce58588dbaf90d18a855b6de73ffffffffffffffffffffffffffffffffffffffff168273ffffffffffffffffffffffffffffffffffffffff16036121485760049050612185565b816040517fec459bc000000000000000000000000000000000000000000000000000000000815260040161217c9190613803565b60405180910390fd5b919050565b600080612195611ab0565b6305f5e100915091509091565b60008060203603356602ed57011e000081166602ed57011e000014915050806121f7576040517fe7764c9e00000000000000000000000000000000000000000000000000000000815260040160405180910390fd5b60008036905060291115612237576040517f5796f78a00000000000000000000000000000000000000000000000000000000815260040160405180910390fd5b602936033590506000600960038362ffffff166122549190613ee8565b61225e9190613ee8565b905060003690506002826122729190613ee8565b11156122aa576040517fc30a7bd700000000000000000000000000000000000000000000000000000000815260040160405180910390fd5b80935050505090565b6000806020836122c39190613ee8565b90506000369050811115612303576040517f5796f78a00000000000000000000000000000000000000000000000000000000815260040160405180910390fd5b80360335915050919050565b600080600061231d846127c4565b91509150604e8160206123309190613ee8565b8361233b9190613e04565b6123459190613ee8565b92505050919050565b6000603360009054906101000a900473ffffffffffffffffffffffffffffffffffffffff16905081603360006101000a81548173ffffffffffffffffffffffffffffffffffffffff021916908373ffffffffffffffffffffffffffffffffffffffff1602179055508173ffffffffffffffffffffffffffffffffffffffff168173ffffffffffffffffffffffffffffffffffffffff167f8be0079c531659141344cd1fd0a4f28419497f9722a3daafe3b4186f6b6457e060405160405180910390a35050565b6000808273ffffffffffffffffffffffffffffffffffffffff163b119050919050565b600060019054906101000a900460ff16612486576040517f08c379a000000000000000000000000000000000000000000000000000000000815260040161247d906141c6565b60405180910390fd5b612493858585858561283a565b61249b61299b565b5050505050565b600060019054906101000a900460ff166124f1576040517f08c379a00000000000000000000000000000000000000000000000000000000081526004016124e8906141c6565b60405180910390fd5b80607160006101000a81548160ff02191690831515021790555050565b600073ffffffffffffffffffffffffffffffffffffffff168373ffffffffffffffffffffffffffffffffffffffff160361258b5734811461258657806040517f83b9f0ae00000000000000000000000000000000000000000000000000000000815260040161257d91906136aa565b60405180910390fd5b6125b9565b6125b88230838673ffffffffffffffffffffffffffffffffffffffff166129f4909392919063ffffffff16565b5b505050565b600080600167ffffffffffffffff8111156125dc576125db613964565b5b60405190808252806020026020018201604052801561260a5781602001602082028036833780820191505090505b5090508281600081518110612622576126216141e6565b5b60200260200101818152505061263781612a7d565b60008151811061264a576126496141e6565b5b6020026020010151915050919050565b600061266582612a8f565b9050919050565b60006103e88261267c9190613e75565b9050804210156126de57603c42826126949190613c29565b11156126d95780426040517fb6b0916d0000000000000000000000000000000000000000000000000000000081526004016126d0929190613c5d565b60405180910390fd5b612732565b60b481426126ec9190613c29565b11156127315780426040517f0321d0b5000000000000000000000000000000000000000000000000000000008152600401612728929190613c5d565b60405180910390fd5b5b5050565b6127b78363a9059cbb60e01b8484604051602401612755929190613bd1565b604051602081830303815290604052907bffffffffffffffffffffffffffffffffffffffffffffffffffffffff19166020820180517bffffffffffffffffffffffffffffffffffffffffffffffffffffffff8381831617835250505050612b83565b505050565b600033905090565b60008060008060006041866127d99190613ee8565b905060006128006020836127ed9190613ee8565b6000369050612c4b90919063ffffffff16565b90508035935061281a600382612c4b90919063ffffffff16565b9050803592508362ffffff1695508263ffffffff16945050505050915091565b600060019054906101000a900460ff16612889576040517f08c379a0000000000000000000000000000000000000000000000000000000008152600401612880906141c6565b60405180910390fd5b84606560006101000a81548173ffffffffffffffffffffffffffffffffffffffff021916908373ffffffffffffffffffffffffffffffffffffffff16021790555083606660006101000a81548173ffffffffffffffffffffffffffffffffffffffff021916908373ffffffffffffffffffffffffffffffffffffffff16021790555082606860006101000a81548173ffffffffffffffffffffffffffffffffffffffff021916908373ffffffffffffffffffffffffffffffffffffffff16021790555081606e8190555080606760006101000a81548173ffffffffffffffffffffffffffffffffffffffff021916908373ffffffffffffffffffffffffffffffffffffffff1602179055505050505050565b600060019054906101000a900460ff166129ea576040517f08c379a00000000000000000000000000000000000000000000000000000000081526004016129e1906141c6565b60405180910390fd5b6129f2612c61565b565b612a77846323b872dd60e01b858585604051602401612a1593929190614215565b604051602081830303815290604052907bffffffffffffffffffffffffffffffffffffffffffffffffffffffff19166020820180517bffffffffffffffffffffffffffffffffffffffffffffffffffffffff8381831617835250505050612b83565b50505050565b6060612a8882612cc2565b9050919050565b600080825103612acb576040517f9e198af900000000000000000000000000000000000000000000000000000000815260040160405180910390fd5b612ad482612ed1565b600060028351612ae49190613e75565b9050600060028451612af6919061424c565b03612b5f576000612b4784600184612b0e9190613c29565b81518110612b1f57612b1e6141e6565b5b6020026020010151858481518110612b3a57612b396141e6565b5b6020026020010151612f24565b9050600281612b569190613e75565b92505050612b7e565b828181518110612b7257612b716141e6565b5b60200260200101519150505b919050565b6000612be5826040518060400160405280602081526020017f5361666545524332303a206c6f772d6c6576656c2063616c6c206661696c65648152508573ffffffffffffffffffffffffffffffffffffffff16612f3a9092919063ffffffff16565b9050600081511480612c07575080806020019051810190612c069190614292565b5b612c46576040517f08c379a0000000000000000000000000000000000000000000000000000000008152600401612c3d90614331565b60405180910390fd5b505050565b60008183612c599190613c29565b905092915050565b600060019054906101000a900460ff16612cb0576040517f08c379a0000000000000000000000000000000000000000000000000000000008152600401612ca7906141c6565b60405180910390fd5b612cc0612cbb6127bc565b61234e565b565b60606000825167ffffffffffffffff811115612ce157612ce0613964565b5b604051908082528060200260200182016040528015612d0f5781602001602082028036833780820191505090505b5090506000835167ffffffffffffffff811115612d2f57612d2e613964565b5b604051908082528060200260200182016040528015612d5d5781602001602082028036833780820191505090505b5090506000845167ffffffffffffffff811115612d7d57612d7c613964565b5b604051908082528060200260200182016040528015612db057816020015b6060815260200190600190039081612d9b5790505b50905060005b8551811015612e4357612dc7611d3e565b60ff1667ffffffffffffffff811115612de357612de2613964565b5b604051908082528060200260200182016040528015612e115781602001602082028036833780820191505090505b50828281518110612e2557612e246141e6565b5b60200260200101819052508080612e3b90613f1c565b915050612db6565b506000612e4e6121a2565b90506000612e5b826122b3565b61ffff169050600282612e6e9190613ee8565b91506000604051905060005b82811015612eb9576000612e918a89898989612f52565b90508085612e9f9190613ee8565b945082604052508080612eb190613f1c565b915050612e7a565b50612ec4848761324a565b9650505050505050919050565b805160208201602082028101815b81811015612f1d57825b81811015612f11578151815180821015612f04578084528183525b5050602081019050612ee9565b50602081019050612edf565b5050505050565b60008183612f329190613ee8565b905092915050565b6060612f498484600085613397565b90509392505050565b600080600080612f61856127c4565b91509150600080600060606000600d612f8f602088612f809190613ee8565b8961346490919063ffffffff16565b612f999190613ee8565b90506000612fc060688c612fad9190613ee8565b6000369050612c4b90919063ffffffff16565b90506000612ff28360418e612fd59190613ee8565b612fdf9190613ee8565b6000369050612c4b90919063ffffffff16565b9050612ffe838261302c565b9350826020850120945081359650613048565b60006040519050818152602081019050818101604052919050565b600061303783613011565b838382376020810391505092915050565b6130598765ffffffffffff16611d32565b61306f8560418e61306a9190613ee8565b61347a565b955061307a86610a7d565b60ff1699505050505050505060008060005b848110156132155761309f8885836134f9565b809350819450505060005b8c51811015613201578c81815181106130c6576130c56141e6565b5b602002602001015184036131ee5760008b82815181106130e9576130e86141e6565b5b602002602001015190506130fd818961357f565b15801561312d575061310d611d3e565b60ff168d8381518110613123576131226141e6565b5b6020026020010151105b156131e8578c8281518110613145576131446141e6565b5b60200260200101805180919061315a90613f1c565b81525050838b8381518110613172576131716141e6565b5b602002602001015160018f858151811061318f5761318e6141e6565b5b60200260200101516131a19190613c29565b815181106131b2576131b16141e6565b5b6020026020010181815250506131c88189613598565b8c83815181106131db576131da6141e6565b5b6020026020010181815250505b50613201565b80806131f990613f1c565b9150506130aa565b50808061320d90613f1c565b91505061308c565b505050816020826132269190613ee8565b6132309190613e04565b604e61323c9190613ee8565b935050505095945050505050565b60606000835167ffffffffffffffff81111561326957613268613964565b5b6040519080825280602002602001820160405280156132975781602001602082028036833780820191505090505b50905060006132a4611d3e565b60ff16905060005b855181101561338b57818582815181106132c9576132c86141e6565b5b60200260200101511015613330578481815181106132ea576132e96141e6565b5b6020026020010151826040517f2b13aef5000000000000000000000000000000000000000000000000000000008152600401613327929190613c5d565b60405180910390fd5b6000613355878381518110613348576133476141e6565b5b6020026020010151611ae0565b90508084838151811061336b5761336a6141e6565b5b60200260200101818152505050808061338390613f1c565b9150506132ac565b50819250505092915050565b6060824710156133dc576040517f08c379a00000000000000000000000000000000000000000000000000000000081526004016133d3906143c3565b60405180910390fd5b6000808673ffffffffffffffffffffffffffffffffffffffff168587604051613405919061442a565b60006040518083038185875af1925050503d8060008114613442576040519150601f19603f3d011682016040523d82523d6000602084013e613447565b606091505b5091509150613458878383876135a9565b92505050949350505050565b600081836134729190613e04565b905092915050565b6000806000808436038035935060208101905080359250602081019050803560001a915050600186828585604051600081526020016040526040516134c2949392919061445a565b6020604051602081039080840390855afa1580156134e4573d6000803e3d6000fd5b50505060206040510351935050505092915050565b6000806000604e8661350b9190613ee8565b9050600061354c61353d6020886135229190613ee8565b87600161352f9190613ee8565b61346490919063ffffffff16565b83612f2490919063ffffffff16565b90506000613567826000369050612c4b90919063ffffffff16565b90508035945060208101359350505050935093915050565b600080826001901b841690506000811191505092915050565b6000816001901b8317905092915050565b6060831561360b576000835103613603576135c38561361e565b613602576040517f08c379a00000000000000000000000000000000000000000000000000000000081526004016135f9906144eb565b60405180910390fd5b5b829050613616565b6136158383613641565b5b949350505050565b6000808273ffffffffffffffffffffffffffffffffffffffff163b119050919050565b6000825111156136545781518083602001fd5b806040517f08c379a00000000000000000000000000000000000000000000000000000000081526004016136889190613baf565b60405180910390fd5b6000819050919050565b6136a481613691565b82525050565b60006020820190506136bf600083018461369b565b92915050565b6000604051905090565b600080fd5b600080fd5b600073ffffffffffffffffffffffffffffffffffffffff82169050919050565b6000613704826136d9565b9050919050565b613714816136f9565b811461371f57600080fd5b50565b6000813590506137318161370b565b92915050565b60006020828403121561374d5761374c6136cf565b5b600061375b84828501613722565b91505092915050565b600060ff82169050919050565b61377a81613764565b82525050565b60006020820190506137956000830184613771565b92915050565b6137a481613691565b81146137af57600080fd5b50565b6000813590506137c18161379b565b92915050565b6000602082840312156137dd576137dc6136cf565b5b60006137eb848285016137b2565b91505092915050565b6137fd816136f9565b82525050565b600060208201905061381860008301846137f4565b92915050565b60008115159050919050565b6138338161381e565b811461383e57600080fd5b50565b6000813590506138508161382a565b92915050565b600080600080600060a08688031215613872576138716136cf565b5b600061388088828901613722565b955050602061389188828901613722565b94505060406138a2888289016137b2565b93505060606138b388828901613722565b92505060806138c488828901613841565b9150509295509295909350565b6138da8161381e565b82525050565b60006020820190506138f560008301846138d1565b92915050565b600080600060608486031215613914576139136136cf565b5b600061392286828701613722565b935050602061393386828701613722565b9250506040613944868287016137b2565b9150509250925092565b600080fd5b6000601f19601f8301169050919050565b7f4e487b7100000000000000000000000000000000000000000000000000000000600052604160045260246000fd5b61399c82613953565b810181811067ffffffffffffffff821117156139bb576139ba613964565b5b80604052505050565b60006139ce6136c5565b90506139da8282613993565b919050565b600067ffffffffffffffff8211156139fa576139f9613964565b5b602082029050602081019050919050565b600080fd5b6000613a23613a1e846139df565b6139c4565b90508083825260208201905060208402830185811115613a4657613a45613a0b565b5b835b81811015613a6f5780613a5b88826137b2565b845260208401935050602081019050613a48565b5050509392505050565b600082601f830112613a8e57613a8d61394e565b5b8135613a9e848260208601613a10565b91505092915050565b600060208284031215613abd57613abc6136cf565b5b600082013567ffffffffffffffff811115613adb57613ada6136d4565b5b613ae784828501613a79565b91505092915050565b60008060408385031215613b0757613b066136cf565b5b6000613b1585828601613722565b9250506020613b26858286016137b2565b9150509250929050565b600081519050919050565b600082825260208201905092915050565b60005b83811015613b6a578082015181840152602081019050613b4f565b60008484015250505050565b6000613b8182613b30565b613b8b8185613b3b565b9350613b9b818560208601613b4c565b613ba481613953565b840191505092915050565b60006020820190508181036000830152613bc98184613b76565b905092915050565b6000604082019050613be660008301856137f4565b613bf3602083018461369b565b9392505050565b7f4e487b7100000000000000000000000000000000000000000000000000000000600052601160045260246000fd5b6000613c3482613691565b9150613c3f83613691565b9250828203905081811115613c5757613c56613bfa565b5b92915050565b6000604082019050613c72600083018561369b565b613c7f602083018461369b565b9392505050565b60008160011c9050919050565b6000808291508390505b6001851115613cdd57808604811115613cb957613cb8613bfa565b5b6001851615613cc85780820291505b8081029050613cd685613c86565b9450613c9d565b94509492505050565b600082613cf65760019050613db2565b81613d045760009050613db2565b8160018114613d1a5760028114613d2457613d53565b6001915050613db2565b60ff841115613d3657613d35613bfa565b5b8360020a915084821115613d4d57613d4c613bfa565b5b50613db2565b5060208310610133831016604e8410600b8410161715613d885782820a905083811115613d8357613d82613bfa565b5b613db2565b613d958484846001613c93565b92509050818404811115613dac57613dab613bfa565b5b81810290505b9392505050565b6000613dc482613691565b9150613dcf83613691565b9250613dfc7fffffffffffffffffffffffffffffffffffffffffffffffffffffffffffffffff8484613ce6565b905092915050565b6000613e0f82613691565b9150613e1a83613691565b9250828202613e2881613691565b91508282048414831517613e3f57613e3e613bfa565b5b5092915050565b7f4e487b7100000000000000000000000000000000000000000000000000000000600052601260045260246000fd5b6000613e8082613691565b9150613e8b83613691565b925082613e9b57613e9a613e46565b5b828204905092915050565b600081519050613eb58161379b565b92915050565b600060208284031215613ed157613ed06136cf565b5b6000613edf84828501613ea6565b91505092915050565b6000613ef382613691565b9150613efe83613691565b9250828201905080821115613f1657613f15613bfa565b5b92915050565b6000613f2782613691565b91507fffffffffffffffffffffffffffffffffffffffffffffffffffffffffffffffff8203613f5957613f58613bfa565b5b600182019050919050565b7f496e697469616c697a61626c653a20636f6e747261637420697320616c72656160008201527f647920696e697469616c697a6564000000000000000000000000000000000000602082015250565b6000613fc0602e83613b3b565b9150613fcb82613f64565b604082019050919050565b60006020820190508181036000830152613fef81613fb3565b9050919050565b6000819050919050565b6000819050919050565b600061402561402061401b84613ff6565b614000565b613764565b9050919050565b6140358161400a565b82525050565b6000602082019050614050600083018461402c565b92915050565b7f4f776e61626c653a206e6577206f776e657220697320746865207a65726f206160008201527f6464726573730000000000000000000000000000000000000000000000000000602082015250565b60006140b2602683613b3b565b91506140bd82614056565b604082019050919050565b600060208201905081810360008301526140e1816140a5565b9050919050565b7f4f776e61626c653a2063616c6c6572206973206e6f7420746865206f776e6572600082015250565b600061411e602083613b3b565b9150614129826140e8565b602082019050919050565b6000602082019050818103600083015261414d81614111565b9050919050565b7f496e697469616c697a61626c653a20636f6e7472616374206973206e6f74206960008201527f6e697469616c697a696e67000000000000000000000000000000000000000000602082015250565b60006141b0602b83613b3b565b91506141bb82614154565b604082019050919050565b600060208201905081810360008301526141df816141a3565b9050919050565b7f4e487b7100000000000000000000000000000000000000000000000000000000600052603260045260246000fd5b600060608201905061422a60008301866137f4565b61423760208301856137f4565b614244604083018461369b565b949350505050565b600061425782613691565b915061426283613691565b92508261427257614271613e46565b5b828206905092915050565b60008151905061428c8161382a565b92915050565b6000602082840312156142a8576142a76136cf565b5b60006142b68482850161427d565b91505092915050565b7f5361666545524332303a204552433230206f7065726174696f6e20646964206e60008201527f6f74207375636365656400000000000000000000000000000000000000000000602082015250565b600061431b602a83613b3b565b9150614326826142bf565b604082019050919050565b6000602082019050818103600083015261434a8161430e565b9050919050565b7f416464726573733a20696e73756666696369656e742062616c616e636520666f60008201527f722063616c6c0000000000000000000000000000000000000000000000000000602082015250565b60006143ad602683613b3b565b91506143b882614351565b604082019050919050565b600060208201905081810360008301526143dc816143a0565b9050919050565b600081519050919050565b600081905092915050565b6000614404826143e3565b61440e81856143ee565b935061441e818560208601613b4c565b80840191505092915050565b600061443682846143f9565b915081905092915050565b6000819050919050565b61445481614441565b82525050565b600060808201905061446f600083018761444b565b61447c6020830186613771565b614489604083018561444b565b614496606083018461444b565b95945050505050565b7f416464726573733a2063616c6c20746f206e6f6e2d636f6e7472616374000000600082015250565b60006144d5601d83613b3b565b91506144e08261449f565b602082019050919050565b60006020820190508181036000830152614504816144c8565b905091905056fea26469706673582212206b847d4cfa525f6d6eaa6e2dfb7925e538429eb12fbbcfc4e08b3a42541397d564736f6c63430008140033",
  "devdoc": {
    "events": {
      "Initialized(uint8)": {
        "details": "Triggered when the contract has been initialized or reinitialized."
      }
    },
    "kind": "dev",
    "methods": {
      "aggregateValues(uint256[])": {
        "details": "This function may be overridden by the child consumer contract. It should aggregate values from different signers to a single uint value. By default, it calculates the median value",
        "params": {
          "values": "An array of uint256 values from different signers"
        },
        "returns": {
          "_0": "Result of the aggregation in the form of a single number"
        }
      },
      "getDataServiceId()": {
        "details": "This function must be implemented by the child consumer contract. It should return dataServiceId which DataServiceWrapper will use if not provided explicitly . If not overridden, value will always have to be provided explicitly in DataServiceWrapper.",
        "returns": {
          "_0": "dataServiceId being consumed by contract"
        }
      },
      "getUniqueSignersThreshold()": {
        "details": "This function should be overridden by the child consumer contract.",
        "returns": {
          "_0": "The minimum required value of unique authorised signers"
        }
      },
      "owner()": {
        "details": "Returns the address of the current owner."
      },
      "renounceOwnership()": {
        "details": "Leaves the contract without owner. It will not be possible to call `onlyOwner` functions. Can only be called by the current owner. NOTE: Renouncing ownership will leave the contract without an owner, thereby disabling any functionality that is only available to the owner."
      },
      "setTokenPriceInUSD(uint256)": {
        "params": {
          "price": "usd price of 10 ** decimals of IDO token"
        }
      },
      "transferOwnership(address)": {
        "details": "Transfers ownership of the contract to a new account (`newOwner`). Can only be called by the current owner."
      },
      "validateTimestamp(uint256)": {
        "details": "This function may be overridden by the child consumer contract. It should validate the timestamp against the current time (block.timestamp) It should revert with a helpful message if the timestamp is not valid",
        "params": {
          "receivedTimestampMilliseconds": "Timestamp extracted from calldata"
        }
      }
    },
    "version": 1
  },
  "userdoc": {
    "kind": "user",
    "methods": {
      "getETHPrice()": {
        "notice": "Get ETH pricing from redstone oracles on blast network result is in 8 decimals"
      }
    },
    "version": 1
  },
  "storageLayout": {
    "storage": [
      {
        "astId": 720,
        "contract": "contracts/ido/ETHIDOPool.sol:ETHIDOPool",
        "label": "_initialized",
        "offset": 0,
        "slot": "0",
        "type": "t_uint8"
      },
      {
        "astId": 723,
        "contract": "contracts/ido/ETHIDOPool.sol:ETHIDOPool",
        "label": "_initializing",
        "offset": 1,
        "slot": "0",
        "type": "t_bool"
      },
      {
        "astId": 1262,
        "contract": "contracts/ido/ETHIDOPool.sol:ETHIDOPool",
        "label": "__gap",
        "offset": 0,
        "slot": "1",
        "type": "t_array(t_uint256)50_storage"
      },
      {
        "astId": 592,
        "contract": "contracts/ido/ETHIDOPool.sol:ETHIDOPool",
        "label": "_owner",
        "offset": 0,
        "slot": "51",
        "type": "t_address"
      },
      {
        "astId": 712,
        "contract": "contracts/ido/ETHIDOPool.sol:ETHIDOPool",
        "label": "__gap",
        "offset": 0,
        "slot": "52",
        "type": "t_array(t_uint256)49_storage"
      },
      {
        "astId": 8997,
        "contract": "contracts/ido/ETHIDOPool.sol:ETHIDOPool",
        "label": "buyToken",
        "offset": 0,
        "slot": "101",
        "type": "t_address"
      },
      {
        "astId": 8999,
        "contract": "contracts/ido/ETHIDOPool.sol:ETHIDOPool",
        "label": "fyToken",
        "offset": 0,
        "slot": "102",
        "type": "t_address"
      },
      {
        "astId": 9001,
        "contract": "contracts/ido/ETHIDOPool.sol:ETHIDOPool",
        "label": "treasury",
        "offset": 0,
        "slot": "103",
        "type": "t_address"
      },
      {
        "astId": 9003,
        "contract": "contracts/ido/ETHIDOPool.sol:ETHIDOPool",
        "label": "idoToken",
        "offset": 0,
        "slot": "104",
        "type": "t_address"
      },
      {
        "astId": 9005,
        "contract": "contracts/ido/ETHIDOPool.sol:ETHIDOPool",
        "label": "isFinalized",
        "offset": 20,
        "slot": "104",
        "type": "t_bool"
      },
      {
        "astId": 9007,
        "contract": "contracts/ido/ETHIDOPool.sol:ETHIDOPool",
        "label": "idoPrice",
        "offset": 0,
        "slot": "105",
        "type": "t_uint256"
      },
      {
        "astId": 9009,
        "contract": "contracts/ido/ETHIDOPool.sol:ETHIDOPool",
        "label": "idoSize",
        "offset": 0,
        "slot": "106",
        "type": "t_uint256"
      },
      {
        "astId": 9011,
        "contract": "contracts/ido/ETHIDOPool.sol:ETHIDOPool",
        "label": "snapshotTokenPrice",
        "offset": 0,
        "slot": "107",
        "type": "t_uint256"
      },
      {
        "astId": 9013,
        "contract": "contracts/ido/ETHIDOPool.sol:ETHIDOPool",
        "label": "snapshotPriceDecimals",
        "offset": 0,
        "slot": "108",
        "type": "t_uint256"
      },
      {
        "astId": 9015,
        "contract": "contracts/ido/ETHIDOPool.sol:ETHIDOPool",
        "label": "fundedUSDValue",
        "offset": 0,
        "slot": "109",
        "type": "t_uint256"
      },
      {
        "astId": 9017,
        "contract": "contracts/ido/ETHIDOPool.sol:ETHIDOPool",
        "label": "idoDecimals",
        "offset": 0,
        "slot": "110",
        "type": "t_uint256"
      },
      {
        "astId": 9021,
        "contract": "contracts/ido/ETHIDOPool.sol:ETHIDOPool",
        "label": "totalFunded",
        "offset": 0,
        "slot": "111",
        "type": "t_mapping(t_address,t_uint256)"
      },
      {
        "astId": 9026,
        "contract": "contracts/ido/ETHIDOPool.sol:ETHIDOPool",
        "label": "accountPosition",
        "offset": 0,
        "slot": "112",
        "type": "t_mapping(t_address,t_struct(Position)9784_storage)"
      },
      {
        "astId": 10640,
        "contract": "contracts/ido/ETHIDOPool.sol:ETHIDOPool",
        "label": "mock",
        "offset": 0,
        "slot": "113",
        "type": "t_bool"
      }
    ],
    "types": {
      "t_address": {
        "encoding": "inplace",
        "label": "address",
        "numberOfBytes": "20"
      },
      "t_array(t_uint256)49_storage": {
        "base": "t_uint256",
        "encoding": "inplace",
        "label": "uint256[49]",
        "numberOfBytes": "1568"
      },
      "t_array(t_uint256)50_storage": {
        "base": "t_uint256",
        "encoding": "inplace",
        "label": "uint256[50]",
        "numberOfBytes": "1600"
      },
      "t_bool": {
        "encoding": "inplace",
        "label": "bool",
        "numberOfBytes": "1"
      },
      "t_mapping(t_address,t_struct(Position)9784_storage)": {
        "encoding": "mapping",
        "key": "t_address",
        "label": "mapping(address => struct IIDOPool.Position)",
        "numberOfBytes": "32",
        "value": "t_struct(Position)9784_storage"
      },
      "t_mapping(t_address,t_uint256)": {
        "encoding": "mapping",
        "key": "t_address",
        "label": "mapping(address => uint256)",
        "numberOfBytes": "32",
        "value": "t_uint256"
      },
      "t_struct(Position)9784_storage": {
        "encoding": "inplace",
        "label": "struct IIDOPool.Position",
        "members": [
          {
            "astId": 9781,
            "contract": "contracts/ido/ETHIDOPool.sol:ETHIDOPool",
            "label": "token",
            "offset": 0,
            "slot": "0",
            "type": "t_address"
          },
          {
            "astId": 9783,
            "contract": "contracts/ido/ETHIDOPool.sol:ETHIDOPool",
            "label": "amount",
            "offset": 0,
            "slot": "1",
            "type": "t_uint256"
          }
        ],
        "numberOfBytes": "64"
      },
      "t_uint256": {
        "encoding": "inplace",
        "label": "uint256",
        "numberOfBytes": "32"
      },
      "t_uint8": {
        "encoding": "inplace",
        "label": "uint8",
        "numberOfBytes": "1"
      }
    }
  }
}