{
  "address": "0x6bf8f1ff10F1f82B6fFc89114a9cA4F864E57AFe",
  "abi": [
    {
      "inputs": [
        {
          "internalType": "string",
          "name": "name_",
          "type": "string"
        },
        {
          "internalType": "string",
          "name": "symbol_",
          "type": "string"
        },
        {
          "internalType": "address",
          "name": "roleControl_",
          "type": "address"
        }
      ],
      "stateMutability": "nonpayable",
      "type": "constructor"
    },
    {
      "inputs": [
        {
          "internalType": "address",
          "name": "acc",
          "type": "address"
        }
      ],
      "name": "NotAuthorized",
      "type": "error"
    },
    {
      "inputs": [],
      "name": "NotWhitelisted",
      "type": "error"
    },
    {
      "anonymous": false,
      "inputs": [
        {
          "indexed": true,
          "internalType": "address",
          "name": "owner",
          "type": "address"
        },
        {
          "indexed": true,
          "internalType": "address",
          "name": "spender",
          "type": "address"
        },
        {
          "indexed": false,
          "internalType": "uint256",
          "name": "value",
          "type": "uint256"
        }
      ],
      "name": "Approval",
      "type": "event"
    },
    {
      "anonymous": false,
      "inputs": [
        {
          "indexed": true,
          "internalType": "address",
          "name": "from",
          "type": "address"
        },
        {
          "indexed": true,
          "internalType": "address",
          "name": "to",
          "type": "address"
        },
        {
          "indexed": false,
          "internalType": "uint256",
          "name": "value",
          "type": "uint256"
        }
      ],
      "name": "Transfer",
      "type": "event"
    },
    {
      "inputs": [],
      "name": "MINTING_ROLE",
      "outputs": [
        {
          "internalType": "bytes32",
          "name": "",
          "type": "bytes32"
        }
      ],
      "stateMutability": "view",
      "type": "function"
    },
    {
      "inputs": [],
      "name": "WHITELIST_ADMIN",
      "outputs": [
        {
          "internalType": "bytes32",
          "name": "",
          "type": "bytes32"
        }
      ],
      "stateMutability": "view",
      "type": "function"
    },
    {
      "inputs": [
        {
          "internalType": "address",
          "name": "owner",
          "type": "address"
        },
        {
          "internalType": "address",
          "name": "spender",
          "type": "address"
        }
      ],
      "name": "allowance",
      "outputs": [
        {
          "internalType": "uint256",
          "name": "",
          "type": "uint256"
        }
      ],
      "stateMutability": "view",
      "type": "function"
    },
    {
      "inputs": [
        {
          "internalType": "address",
          "name": "spender",
          "type": "address"
        },
        {
          "internalType": "uint256",
          "name": "amount",
          "type": "uint256"
        }
      ],
      "name": "approve",
      "outputs": [
        {
          "internalType": "bool",
          "name": "",
          "type": "bool"
        }
      ],
      "stateMutability": "nonpayable",
      "type": "function"
    },
    {
      "inputs": [
        {
          "internalType": "address",
          "name": "account",
          "type": "address"
        }
      ],
      "name": "balanceOf",
      "outputs": [
        {
          "internalType": "uint256",
          "name": "",
          "type": "uint256"
        }
      ],
      "stateMutability": "view",
      "type": "function"
    },
    {
      "inputs": [],
      "name": "decimals",
      "outputs": [
        {
          "internalType": "uint8",
          "name": "",
          "type": "uint8"
        }
      ],
      "stateMutability": "view",
      "type": "function"
    },
    {
      "inputs": [
        {
          "internalType": "address",
          "name": "spender",
          "type": "address"
        },
        {
          "internalType": "uint256",
          "name": "subtractedValue",
          "type": "uint256"
        }
      ],
      "name": "decreaseAllowance",
      "outputs": [
        {
          "internalType": "bool",
          "name": "",
          "type": "bool"
        }
      ],
      "stateMutability": "nonpayable",
      "type": "function"
    },
    {
      "inputs": [
        {
          "internalType": "address",
          "name": "spender",
          "type": "address"
        },
        {
          "internalType": "uint256",
          "name": "addedValue",
          "type": "uint256"
        }
      ],
      "name": "increaseAllowance",
      "outputs": [
        {
          "internalType": "bool",
          "name": "",
          "type": "bool"
        }
      ],
      "stateMutability": "nonpayable",
      "type": "function"
    },
    {
      "inputs": [
        {
          "internalType": "address",
          "name": "receipient",
          "type": "address"
        },
        {
          "internalType": "uint256",
          "name": "amount",
          "type": "uint256"
        }
      ],
      "name": "mint",
      "outputs": [],
      "stateMutability": "nonpayable",
      "type": "function"
    },
    {
      "inputs": [],
      "name": "name",
      "outputs": [
        {
          "internalType": "string",
          "name": "",
          "type": "string"
        }
      ],
      "stateMutability": "view",
      "type": "function"
    },
    {
      "inputs": [
        {
          "internalType": "bool",
          "name": "enable",
          "type": "bool"
        }
      ],
      "name": "setEnableWhitelist",
      "outputs": [],
      "stateMutability": "nonpayable",
      "type": "function"
    },
    {
      "inputs": [],
      "name": "symbol",
      "outputs": [
        {
          "internalType": "string",
          "name": "",
          "type": "string"
        }
      ],
      "stateMutability": "view",
      "type": "function"
    },
    {
      "inputs": [],
      "name": "totalSupply",
      "outputs": [
        {
          "internalType": "uint256",
          "name": "",
          "type": "uint256"
        }
      ],
      "stateMutability": "view",
      "type": "function"
    },
    {
      "inputs": [
        {
          "internalType": "address",
          "name": "to",
          "type": "address"
        },
        {
          "internalType": "uint256",
          "name": "amount",
          "type": "uint256"
        }
      ],
      "name": "transfer",
      "outputs": [
        {
          "internalType": "bool",
          "name": "",
          "type": "bool"
        }
      ],
      "stateMutability": "nonpayable",
      "type": "function"
    },
    {
      "inputs": [
        {
          "internalType": "address",
          "name": "from",
          "type": "address"
        },
        {
          "internalType": "address",
          "name": "to",
          "type": "address"
        },
        {
          "internalType": "uint256",
          "name": "amount",
          "type": "uint256"
        }
      ],
      "name": "transferFrom",
      "outputs": [
        {
          "internalType": "bool",
          "name": "",
          "type": "bool"
        }
      ],
      "stateMutability": "nonpayable",
      "type": "function"
    },
    {
      "inputs": [
        {
          "internalType": "address",
          "name": "target",
          "type": "address"
        }
      ],
      "name": "unwhitelistAddress",
      "outputs": [],
      "stateMutability": "nonpayable",
      "type": "function"
    },
    {
      "inputs": [
        {
          "internalType": "address",
          "name": "",
          "type": "address"
        }
      ],
      "name": "whitelist",
      "outputs": [
        {
          "internalType": "bool",
          "name": "",
          "type": "bool"
        }
      ],
      "stateMutability": "view",
      "type": "function"
    },
    {
      "inputs": [
        {
          "internalType": "address",
          "name": "target",
          "type": "address"
        }
      ],
      "name": "whitelistAddress",
      "outputs": [],
      "stateMutability": "nonpayable",
      "type": "function"
    },
    {
      "inputs": [],
      "name": "whitelistEnabled",
      "outputs": [
        {
          "internalType": "bool",
          "name": "",
          "type": "bool"
        }
      ],
      "stateMutability": "view",
      "type": "function"
    }
  ],
  "transactionHash": "0x5af104b3731394e13bedf1b521799e3db0bfee04bb4db94128e847f836e7807b",
  "args": [
    "future yield ETH",
    "fyETH",
    "0x35888756dC3b1b4E4e8ADD4B3f7A471eb6D5aEdc"
  ],
  "numDeployments": 1,
  "solcInputHash": "6d5a7b936f5d98b7cb017ba844209a6f",
  "bytecode": "0x60806040526001600660006101000a81548160ff0219169083151502179055503480156200002c57600080fd5b5060405162002417380380620024178339818101604052810190620000529190620002bc565b82828160039081620000659190620005a1565b508060049081620000779190620005a1565b50505080600660016101000a81548173ffffffffffffffffffffffffffffffffffffffff021916908373ffffffffffffffffffffffffffffffffffffffff16021790555050505062000688565b6000604051905090565b600080fd5b600080fd5b600080fd5b600080fd5b6000601f19601f8301169050919050565b7f4e487b7100000000000000000000000000000000000000000000000000000000600052604160045260246000fd5b6200012d82620000e2565b810181811067ffffffffffffffff821117156200014f576200014e620000f3565b5b80604052505050565b600062000164620000c4565b905062000172828262000122565b919050565b600067ffffffffffffffff821115620001955762000194620000f3565b5b620001a082620000e2565b9050602081019050919050565b60005b83811015620001cd578082015181840152602081019050620001b0565b60008484015250505050565b6000620001f0620001ea8462000177565b62000158565b9050828152602081018484840111156200020f576200020e620000dd565b5b6200021c848285620001ad565b509392505050565b600082601f8301126200023c576200023b620000d8565b5b81516200024e848260208601620001d9565b91505092915050565b600073ffffffffffffffffffffffffffffffffffffffff82169050919050565b6000620002848262000257565b9050919050565b620002968162000277565b8114620002a257600080fd5b50565b600081519050620002b6816200028b565b92915050565b600080600060608486031215620002d857620002d7620000ce565b5b600084015167ffffffffffffffff811115620002f957620002f8620000d3565b5b620003078682870162000224565b935050602084015167ffffffffffffffff8111156200032b576200032a620000d3565b5b620003398682870162000224565b92505060406200034c86828701620002a5565b9150509250925092565b600081519050919050565b7f4e487b7100000000000000000000000000000000000000000000000000000000600052602260045260246000fd5b60006002820490506001821680620003a957607f821691505b602082108103620003bf57620003be62000361565b5b50919050565b60008190508160005260206000209050919050565b60006020601f8301049050919050565b600082821b905092915050565b600060088302620004297fffffffffffffffffffffffffffffffffffffffffffffffffffffffffffffffff82620003ea565b620004358683620003ea565b95508019841693508086168417925050509392505050565b6000819050919050565b6000819050919050565b6000620004826200047c62000476846200044d565b62000457565b6200044d565b9050919050565b6000819050919050565b6200049e8362000461565b620004b6620004ad8262000489565b848454620003f7565b825550505050565b600090565b620004cd620004be565b620004da81848462000493565b505050565b5b818110156200050257620004f6600082620004c3565b600181019050620004e0565b5050565b601f82111562000551576200051b81620003c5565b6200052684620003da565b8101602085101562000536578190505b6200054e6200054585620003da565b830182620004df565b50505b505050565b600082821c905092915050565b6000620005766000198460080262000556565b1980831691505092915050565b600062000591838362000563565b9150826002028217905092915050565b620005ac8262000356565b67ffffffffffffffff811115620005c857620005c7620000f3565b5b620005d4825462000390565b620005e182828562000506565b600060209050601f83116001811462000619576000841562000604578287015190505b62000610858262000583565b86555062000680565b601f1984166200062986620003c5565b60005b8281101562000653578489015182556001820191506020850194506020810190506200062c565b868310156200067357848901516200066f601f89168262000563565b8355505b6001600288020188555050505b505050505050565b611d7f80620006986000396000f3fe608060405234801561001057600080fd5b50600436106101215760003560e01c806351fb012d116100ad5780639d2a8cf0116100715780639d2a8cf01461031e578063a457c2d71461033a578063a9059cbb1461036a578063dd62ed3e1461039a578063f58af7db146103ca57610121565b806351fb012d1461026657806370a082311461028457806378f9ccf2146102b457806395d89b41146102d05780639b19251a146102ee57610121565b8063313ce567116100f4578063313ce567146101c257806338d44a1b146101e057806339509351146101fe57806340c10f191461022e578063415665851461024a57610121565b806306fdde0314610126578063095ea7b31461014457806318160ddd1461017457806323b872dd14610192575b600080fd5b61012e6103e8565b60405161013b91906114ce565b60405180910390f35b61015e60048036038101906101599190611589565b61047a565b60405161016b91906115e4565b60405180910390f35b61017c61049d565b604051610189919061160e565b60405180910390f35b6101ac60048036038101906101a79190611629565b6104a7565b6040516101b991906115e4565b60405180910390f35b6101ca6104d6565b6040516101d79190611698565b60405180910390f35b6101e86104df565b6040516101f591906116cc565b60405180910390f35b61021860048036038101906102139190611589565b610503565b60405161022591906115e4565b60405180910390f35b61024860048036038101906102439190611589565b61053a565b005b610264600480360381019061025f91906116e7565b610655565b005b61026e6107bd565b60405161027b91906115e4565b60405180910390f35b61029e600480360381019061029991906116e7565b6107d0565b6040516102ab919061160e565b60405180910390f35b6102ce60048036038101906102c99190611740565b610818565b005b6102d8610942565b6040516102e591906114ce565b60405180910390f35b610308600480360381019061030391906116e7565b6109d4565b60405161031591906115e4565b60405180910390f35b610338600480360381019061033391906116e7565b6109f4565b005b610354600480360381019061034f9190611589565b610b53565b60405161036191906115e4565b60405180910390f35b610384600480360381019061037f9190611589565b610bca565b60405161039191906115e4565b60405180910390f35b6103b460048036038101906103af919061176d565b610bed565b6040516103c1919061160e565b60405180910390f35b6103d2610c74565b6040516103df91906116cc565b60405180910390f35b6060600380546103f7906117dc565b80601f0160208091040260200160405190810160405280929190818152602001828054610423906117dc565b80156104705780601f1061044557610100808354040283529160200191610470565b820191906000526020600020905b81548152906001019060200180831161045357829003601f168201915b5050505050905090565b600080610485610c98565b9050610492818585610ca0565b600191505092915050565b6000600254905090565b6000806104b2610c98565b90506104bf858285610e69565b6104ca858585610ef5565b60019150509392505050565b60006012905090565b7fa4ec463140e04cceb4c413e3f5471bfb51926664fe46e1ac1de7401783fc6a9a81565b60008061050e610c98565b905061052f8185856105208589610bed565b61052a919061183c565b610ca0565b600191505092915050565b600660019054906101000a900473ffffffffffffffffffffffffffffffffffffffff1673ffffffffffffffffffffffffffffffffffffffff166391d148547fa4ec463140e04cceb4c413e3f5471bfb51926664fe46e1ac1de7401783fc6a9a6105a1610c98565b6040518363ffffffff1660e01b81526004016105be92919061187f565b602060405180830381865afa1580156105db573d6000803e3d6000fd5b505050506040513d601f19601f820116820180604052508101906105ff91906118bd565b6106475761060b610c98565b6040517f4a0bfec100000000000000000000000000000000000000000000000000000000815260040161063e91906118ea565b60405180910390fd5b610651828261116b565b5050565b600660019054906101000a900473ffffffffffffffffffffffffffffffffffffffff1673ffffffffffffffffffffffffffffffffffffffff166391d148547f9cc798953f1657230a000cfd0cfb877f321fc37733bbdaba923c800c0f6f63b66106bc610c98565b6040518363ffffffff1660e01b81526004016106d992919061187f565b602060405180830381865afa1580156106f6573d6000803e3d6000fd5b505050506040513d601f19601f8201168201806040525081019061071a91906118bd565b61076257610726610c98565b6040517f4a0bfec100000000000000000000000000000000000000000000000000000000815260040161075991906118ea565b60405180910390fd5b6001600560008373ffffffffffffffffffffffffffffffffffffffff1673ffffffffffffffffffffffffffffffffffffffff16815260200190815260200160002060006101000a81548160ff02191690831515021790555050565b600660009054906101000a900460ff1681565b60008060008373ffffffffffffffffffffffffffffffffffffffff1673ffffffffffffffffffffffffffffffffffffffff168152602001908152602001600020549050919050565b600660019054906101000a900473ffffffffffffffffffffffffffffffffffffffff1673ffffffffffffffffffffffffffffffffffffffff166391d148547f9cc798953f1657230a000cfd0cfb877f321fc37733bbdaba923c800c0f6f63b661087f610c98565b6040518363ffffffff1660e01b815260040161089c92919061187f565b602060405180830381865afa1580156108b9573d6000803e3d6000fd5b505050506040513d601f19601f820116820180604052508101906108dd91906118bd565b610925576108e9610c98565b6040517f4a0bfec100000000000000000000000000000000000000000000000000000000815260040161091c91906118ea565b60405180910390fd5b80600660006101000a81548160ff02191690831515021790555050565b606060048054610951906117dc565b80601f016020809104026020016040519081016040528092919081815260200182805461097d906117dc565b80156109ca5780601f1061099f576101008083540402835291602001916109ca565b820191906000526020600020905b8154815290600101906020018083116109ad57829003601f168201915b5050505050905090565b60056020528060005260406000206000915054906101000a900460ff1681565b600660019054906101000a900473ffffffffffffffffffffffffffffffffffffffff1673ffffffffffffffffffffffffffffffffffffffff166391d148547f9cc798953f1657230a000cfd0cfb877f321fc37733bbdaba923c800c0f6f63b6610a5b610c98565b6040518363ffffffff1660e01b8152600401610a7892919061187f565b602060405180830381865afa158015610a95573d6000803e3d6000fd5b505050506040513d601f19601f82011682018060405250810190610ab991906118bd565b610b0157610ac5610c98565b6040517f4a0bfec1000000000000000000000000000000000000000000000000000000008152600401610af891906118ea565b60405180910390fd5b600560008273ffffffffffffffffffffffffffffffffffffffff1673ffffffffffffffffffffffffffffffffffffffff16815260200190815260200160002060006101000a81549060ff021916905550565b600080610b5e610c98565b90506000610b6c8286610bed565b905083811015610bb1576040517f08c379a0000000000000000000000000000000000000000000000000000000008152600401610ba890611977565b60405180910390fd5b610bbe8286868403610ca0565b60019250505092915050565b600080610bd5610c98565b9050610be2818585610ef5565b600191505092915050565b6000600160008473ffffffffffffffffffffffffffffffffffffffff1673ffffffffffffffffffffffffffffffffffffffff16815260200190815260200160002060008373ffffffffffffffffffffffffffffffffffffffff1673ffffffffffffffffffffffffffffffffffffffff16815260200190815260200160002054905092915050565b7f9cc798953f1657230a000cfd0cfb877f321fc37733bbdaba923c800c0f6f63b681565b600033905090565b600073ffffffffffffffffffffffffffffffffffffffff168373ffffffffffffffffffffffffffffffffffffffff1603610d0f576040517f08c379a0000000000000000000000000000000000000000000000000000000008152600401610d0690611a09565b60405180910390fd5b600073ffffffffffffffffffffffffffffffffffffffff168273ffffffffffffffffffffffffffffffffffffffff1603610d7e576040517f08c379a0000000000000000000000000000000000000000000000000000000008152600401610d7590611a9b565b60405180910390fd5b80600160008573ffffffffffffffffffffffffffffffffffffffff1673ffffffffffffffffffffffffffffffffffffffff16815260200190815260200160002060008473ffffffffffffffffffffffffffffffffffffffff1673ffffffffffffffffffffffffffffffffffffffff168152602001908152602001600020819055508173ffffffffffffffffffffffffffffffffffffffff168373ffffffffffffffffffffffffffffffffffffffff167f8c5be1e5ebec7d5bd14f71427d1e84f3dd0314c0f7b2291e5b200ac8c7c3b92583604051610e5c919061160e565b60405180910390a3505050565b6000610e758484610bed565b90507fffffffffffffffffffffffffffffffffffffffffffffffffffffffffffffffff8114610eef5781811015610ee1576040517f08c379a0000000000000000000000000000000000000000000000000000000008152600401610ed890611b07565b60405180910390fd5b610eee8484848403610ca0565b5b50505050565b600073ffffffffffffffffffffffffffffffffffffffff168373ffffffffffffffffffffffffffffffffffffffff1603610f64576040517f08c379a0000000000000000000000000000000000000000000000000000000008152600401610f5b90611b99565b60405180910390fd5b600073ffffffffffffffffffffffffffffffffffffffff168273ffffffffffffffffffffffffffffffffffffffff1603610fd3576040517f08c379a0000000000000000000000000000000000000000000000000000000008152600401610fca90611c2b565b60405180910390fd5b610fde8383836112c1565b60008060008573ffffffffffffffffffffffffffffffffffffffff1673ffffffffffffffffffffffffffffffffffffffff16815260200190815260200160002054905081811015611064576040517f08c379a000000000000000000000000000000000000000000000000000000000815260040161105b90611cbd565b60405180910390fd5b8181036000808673ffffffffffffffffffffffffffffffffffffffff1673ffffffffffffffffffffffffffffffffffffffff16815260200190815260200160002081905550816000808573ffffffffffffffffffffffffffffffffffffffff1673ffffffffffffffffffffffffffffffffffffffff168152602001908152602001600020600082825401925050819055508273ffffffffffffffffffffffffffffffffffffffff168473ffffffffffffffffffffffffffffffffffffffff167fddf252ad1be2c89b69c2b068fc378daa952ba7f163c4a11628f55a4df523b3ef84604051611152919061160e565b60405180910390a3611165848484611434565b50505050565b600073ffffffffffffffffffffffffffffffffffffffff168273ffffffffffffffffffffffffffffffffffffffff16036111da576040517f08c379a00000000000000000000000000000000000000000000000000000000081526004016111d190611d29565b60405180910390fd5b6111e6600083836112c1565b80600260008282546111f8919061183c565b92505081905550806000808473ffffffffffffffffffffffffffffffffffffffff1673ffffffffffffffffffffffffffffffffffffffff168152602001908152602001600020600082825401925050819055508173ffffffffffffffffffffffffffffffffffffffff16600073ffffffffffffffffffffffffffffffffffffffff167fddf252ad1be2c89b69c2b068fc378daa952ba7f163c4a11628f55a4df523b3ef836040516112a9919061160e565b60405180910390a36112bd60008383611434565b5050565b600073ffffffffffffffffffffffffffffffffffffffff168373ffffffffffffffffffffffffffffffffffffffff161415801561132b5750600073ffffffffffffffffffffffffffffffffffffffff168273ffffffffffffffffffffffffffffffffffffffff1614155b80156113435750600660009054906101000a900460ff165b80156113ed5750600560008473ffffffffffffffffffffffffffffffffffffffff1673ffffffffffffffffffffffffffffffffffffffff16815260200190815260200160002060009054906101000a900460ff16806113eb5750600560008373ffffffffffffffffffffffffffffffffffffffff1673ffffffffffffffffffffffffffffffffffffffff16815260200190815260200160002060009054906101000a900460ff165b155b15611424576040517f584a793800000000000000000000000000000000000000000000000000000000815260040160405180910390fd5b61142f838383611439565b505050565b505050565b505050565b600081519050919050565b600082825260208201905092915050565b60005b8381101561147857808201518184015260208101905061145d565b60008484015250505050565b6000601f19601f8301169050919050565b60006114a08261143e565b6114aa8185611449565b93506114ba81856020860161145a565b6114c381611484565b840191505092915050565b600060208201905081810360008301526114e88184611495565b905092915050565b600080fd5b600073ffffffffffffffffffffffffffffffffffffffff82169050919050565b6000611520826114f5565b9050919050565b61153081611515565b811461153b57600080fd5b50565b60008135905061154d81611527565b92915050565b6000819050919050565b61156681611553565b811461157157600080fd5b50565b6000813590506115838161155d565b92915050565b600080604083850312156115a05761159f6114f0565b5b60006115ae8582860161153e565b92505060206115bf85828601611574565b9150509250929050565b60008115159050919050565b6115de816115c9565b82525050565b60006020820190506115f960008301846115d5565b92915050565b61160881611553565b82525050565b600060208201905061162360008301846115ff565b92915050565b600080600060608486031215611642576116416114f0565b5b60006116508682870161153e565b93505060206116618682870161153e565b925050604061167286828701611574565b9150509250925092565b600060ff82169050919050565b6116928161167c565b82525050565b60006020820190506116ad6000830184611689565b92915050565b6000819050919050565b6116c6816116b3565b82525050565b60006020820190506116e160008301846116bd565b92915050565b6000602082840312156116fd576116fc6114f0565b5b600061170b8482850161153e565b91505092915050565b61171d816115c9565b811461172857600080fd5b50565b60008135905061173a81611714565b92915050565b600060208284031215611756576117556114f0565b5b60006117648482850161172b565b91505092915050565b60008060408385031215611784576117836114f0565b5b60006117928582860161153e565b92505060206117a38582860161153e565b9150509250929050565b7f4e487b7100000000000000000000000000000000000000000000000000000000600052602260045260246000fd5b600060028204905060018216806117f457607f821691505b602082108103611807576118066117ad565b5b50919050565b7f4e487b7100000000000000000000000000000000000000000000000000000000600052601160045260246000fd5b600061184782611553565b915061185283611553565b925082820190508082111561186a5761186961180d565b5b92915050565b61187981611515565b82525050565b600060408201905061189460008301856116bd565b6118a16020830184611870565b9392505050565b6000815190506118b781611714565b92915050565b6000602082840312156118d3576118d26114f0565b5b60006118e1848285016118a8565b91505092915050565b60006020820190506118ff6000830184611870565b92915050565b7f45524332303a2064656372656173656420616c6c6f77616e63652062656c6f7760008201527f207a65726f000000000000000000000000000000000000000000000000000000602082015250565b6000611961602583611449565b915061196c82611905565b604082019050919050565b6000602082019050818103600083015261199081611954565b9050919050565b7f45524332303a20617070726f76652066726f6d20746865207a65726f2061646460008201527f7265737300000000000000000000000000000000000000000000000000000000602082015250565b60006119f3602483611449565b91506119fe82611997565b604082019050919050565b60006020820190508181036000830152611a22816119e6565b9050919050565b7f45524332303a20617070726f766520746f20746865207a65726f20616464726560008201527f7373000000000000000000000000000000000000000000000000000000000000602082015250565b6000611a85602283611449565b9150611a9082611a29565b604082019050919050565b60006020820190508181036000830152611ab481611a78565b9050919050565b7f45524332303a20696e73756666696369656e7420616c6c6f77616e6365000000600082015250565b6000611af1601d83611449565b9150611afc82611abb565b602082019050919050565b60006020820190508181036000830152611b2081611ae4565b9050919050565b7f45524332303a207472616e736665722066726f6d20746865207a65726f20616460008201527f6472657373000000000000000000000000000000000000000000000000000000602082015250565b6000611b83602583611449565b9150611b8e82611b27565b604082019050919050565b60006020820190508181036000830152611bb281611b76565b9050919050565b7f45524332303a207472616e7366657220746f20746865207a65726f206164647260008201527f6573730000000000000000000000000000000000000000000000000000000000602082015250565b6000611c15602383611449565b9150611c2082611bb9565b604082019050919050565b60006020820190508181036000830152611c4481611c08565b9050919050565b7f45524332303a207472616e7366657220616d6f756e742065786365656473206260008201527f616c616e63650000000000000000000000000000000000000000000000000000602082015250565b6000611ca7602683611449565b9150611cb282611c4b565b604082019050919050565b60006020820190508181036000830152611cd681611c9a565b9050919050565b7f45524332303a206d696e7420746f20746865207a65726f206164647265737300600082015250565b6000611d13601f83611449565b9150611d1e82611cdd565b602082019050919050565b60006020820190508181036000830152611d4281611d06565b905091905056fea26469706673582212203042c2b79ed9df22f8bbd471e1e6fdaf7337c85b8d8e3007a23acce241b728bb64736f6c63430008140033",
  "devdoc": {
    "events": {
      "Approval(address,address,uint256)": {
        "details": "Emitted when the allowance of a `spender` for an `owner` is set by a call to {approve}. `value` is the new allowance."
      },
      "Transfer(address,address,uint256)": {
        "details": "Emitted when `value` tokens are moved from one account (`from`) to another (`to`). Note that `value` may be zero."
      }
    },
    "kind": "dev",
    "methods": {
      "allowance(address,address)": {
        "details": "See {IERC20-allowance}."
      },
      "approve(address,uint256)": {
        "details": "See {IERC20-approve}. NOTE: If `amount` is the maximum `uint256`, the allowance is not updated on `transferFrom`. This is semantically equivalent to an infinite approval. Requirements: - `spender` cannot be the zero address."
      },
      "balanceOf(address)": {
        "details": "See {IERC20-balanceOf}."
      },
      "decimals()": {
        "details": "Returns the number of decimals used to get its user representation. For example, if `decimals` equals `2`, a balance of `505` tokens should be displayed to a user as `5.05` (`505 / 10 ** 2`). Tokens usually opt for a value of 18, imitating the relationship between Ether and Wei. This is the default value returned by this function, unless it's overridden. NOTE: This information is only used for _display_ purposes: it in no way affects any of the arithmetic of the contract, including {IERC20-balanceOf} and {IERC20-transfer}."
      },
      "decreaseAllowance(address,uint256)": {
        "details": "Atomically decreases the allowance granted to `spender` by the caller. This is an alternative to {approve} that can be used as a mitigation for problems described in {IERC20-approve}. Emits an {Approval} event indicating the updated allowance. Requirements: - `spender` cannot be the zero address. - `spender` must have allowance for the caller of at least `subtractedValue`."
      },
      "increaseAllowance(address,uint256)": {
        "details": "Atomically increases the allowance granted to `spender` by the caller. This is an alternative to {approve} that can be used as a mitigation for problems described in {IERC20-approve}. Emits an {Approval} event indicating the updated allowance. Requirements: - `spender` cannot be the zero address."
      },
      "name()": {
        "details": "Returns the name of the token."
      },
      "symbol()": {
        "details": "Returns the symbol of the token, usually a shorter version of the name."
      },
      "totalSupply()": {
        "details": "See {IERC20-totalSupply}."
      },
      "transfer(address,uint256)": {
        "details": "See {IERC20-transfer}. Requirements: - `to` cannot be the zero address. - the caller must have a balance of at least `amount`."
      },
      "transferFrom(address,address,uint256)": {
        "details": "See {IERC20-transferFrom}. Emits an {Approval} event indicating the updated allowance. This is not required by the EIP. See the note at the beginning of {ERC20}. NOTE: Does not update the allowance if the current allowance is the maximum `uint256`. Requirements: - `from` and `to` cannot be the zero address. - `from` must have a balance of at least `amount`. - the caller must have allowance for ``from``'s tokens of at least `amount`."
      }
    },
    "version": 1
  },
  "userdoc": {
    "kind": "user",
    "methods": {},
    "version": 1
  },
  "storageLayout": {
    "storage": [
      {
        "astId": 881,
        "contract": "contracts/YieldToken.sol:YieldToken",
        "label": "_balances",
        "offset": 0,
        "slot": "0",
        "type": "t_mapping(t_address,t_uint256)"
      },
      {
        "astId": 887,
        "contract": "contracts/YieldToken.sol:YieldToken",
        "label": "_allowances",
        "offset": 0,
        "slot": "1",
        "type": "t_mapping(t_address,t_mapping(t_address,t_uint256))"
      },
      {
        "astId": 889,
        "contract": "contracts/YieldToken.sol:YieldToken",
        "label": "_totalSupply",
        "offset": 0,
        "slot": "2",
        "type": "t_uint256"
      },
      {
        "astId": 891,
        "contract": "contracts/YieldToken.sol:YieldToken",
        "label": "_name",
        "offset": 0,
        "slot": "3",
        "type": "t_string_storage"
      },
      {
        "astId": 893,
        "contract": "contracts/YieldToken.sol:YieldToken",
        "label": "_symbol",
        "offset": 0,
        "slot": "4",
        "type": "t_string_storage"
      },
      {
        "astId": 6612,
        "contract": "contracts/YieldToken.sol:YieldToken",
        "label": "whitelist",
        "offset": 0,
        "slot": "5",
        "type": "t_mapping(t_address,t_bool)"
      },
      {
        "astId": 6615,
        "contract": "contracts/YieldToken.sol:YieldToken",
        "label": "whitelistEnabled",
        "offset": 0,
        "slot": "6",
        "type": "t_bool"
      },
      {
        "astId": 6618,
        "contract": "contracts/YieldToken.sol:YieldToken",
        "label": "roleControl",
        "offset": 1,
        "slot": "6",
        "type": "t_contract(IRoleControl)8134"
      }
    ],
    "types": {
      "t_address": {
        "encoding": "inplace",
        "label": "address",
        "numberOfBytes": "20"
      },
      "t_bool": {
        "encoding": "inplace",
        "label": "bool",
        "numberOfBytes": "1"
      },
      "t_contract(IRoleControl)8134": {
        "encoding": "inplace",
        "label": "contract IRoleControl",
        "numberOfBytes": "20"
      },
      "t_mapping(t_address,t_bool)": {
        "encoding": "mapping",
        "key": "t_address",
        "label": "mapping(address => bool)",
        "numberOfBytes": "32",
        "value": "t_bool"
      },
      "t_mapping(t_address,t_mapping(t_address,t_uint256))": {
        "encoding": "mapping",
        "key": "t_address",
        "label": "mapping(address => mapping(address => uint256))",
        "numberOfBytes": "32",
        "value": "t_mapping(t_address,t_uint256)"
      },
      "t_mapping(t_address,t_uint256)": {
        "encoding": "mapping",
        "key": "t_address",
        "label": "mapping(address => uint256)",
        "numberOfBytes": "32",
        "value": "t_uint256"
      },
      "t_string_storage": {
        "encoding": "bytes",
        "label": "string",
        "numberOfBytes": "32"
      },
      "t_uint256": {
        "encoding": "inplace",
        "label": "uint256",
        "numberOfBytes": "32"
      }
    }
  }
}