{
  "address": "0xA43D252F4C90A73681e7e98526cF8A78E06cDf2C",
  "abi": [
    {
      "inputs": [],
      "stateMutability": "nonpayable",
      "type": "constructor"
    },
    {
      "inputs": [],
      "name": "ExceededMaxDuration",
      "type": "error"
    },
    {
      "inputs": [
        {
          "internalType": "uint256",
          "name": "required",
          "type": "uint256"
        }
      ],
      "name": "InsufficientAmount",
      "type": "error"
    },
    {
      "inputs": [],
      "name": "InvalidArguments",
      "type": "error"
    },
    {
      "inputs": [
        {
          "internalType": "uint256",
          "name": "amount",
          "type": "uint256"
        }
      ],
      "name": "InvalidTokenAmounts",
      "type": "error"
    },
    {
      "inputs": [
        {
          "internalType": "uint256",
          "name": "until",
          "type": "uint256"
        }
      ],
      "name": "Locked",
      "type": "error"
    },
    {
      "inputs": [],
      "name": "NoStaking",
      "type": "error"
    },
    {
      "inputs": [
        {
          "internalType": "address",
          "name": "user",
          "type": "address"
        }
      ],
      "name": "NotPoolAdmin",
      "type": "error"
    },
    {
      "inputs": [
        {
          "internalType": "address",
          "name": "user",
          "type": "address"
        }
      ],
      "name": "NotStaker",
      "type": "error"
    },
    {
      "inputs": [
        {
          "internalType": "uint256",
          "name": "id",
          "type": "uint256"
        }
      ],
      "name": "PoolClosed",
      "type": "error"
    },
    {
      "inputs": [
        {
          "internalType": "uint256",
          "name": "id",
          "type": "uint256"
        }
      ],
      "name": "PoolNotExisted",
      "type": "error"
    },
    {
      "inputs": [],
      "name": "TooManyStake",
      "type": "error"
    },
    {
      "anonymous": false,
      "inputs": [
        {
          "indexed": false,
          "internalType": "uint256",
          "name": "id",
          "type": "uint256"
        }
      ],
      "name": "ClosePool",
      "type": "event"
    },
    {
      "anonymous": false,
      "inputs": [
        {
          "indexed": false,
          "internalType": "uint256",
          "name": "poolId",
          "type": "uint256"
        },
        {
          "indexed": false,
          "internalType": "uint256",
          "name": "stakeId",
          "type": "uint256"
        },
        {
          "indexed": false,
          "internalType": "uint256",
          "name": "duration",
          "type": "uint256"
        }
      ],
      "name": "Extend",
      "type": "event"
    },
    {
      "anonymous": false,
      "inputs": [
        {
          "indexed": false,
          "internalType": "uint8",
          "name": "version",
          "type": "uint8"
        }
      ],
      "name": "Initialized",
      "type": "event"
    },
    {
      "anonymous": false,
      "inputs": [
        {
          "indexed": false,
          "internalType": "uint256",
          "name": "id",
          "type": "uint256"
        },
        {
          "indexed": false,
          "internalType": "uint256",
          "name": "timelock",
          "type": "uint256"
        },
        {
          "indexed": false,
          "internalType": "uint256",
          "name": "yieldAPY",
          "type": "uint256"
        },
        {
          "indexed": false,
          "internalType": "address",
          "name": "yieldToken",
          "type": "address"
        },
        {
          "indexed": false,
          "internalType": "address",
          "name": "stakeToken",
          "type": "address"
        }
      ],
      "name": "PoolCreated",
      "type": "event"
    },
    {
      "anonymous": false,
      "inputs": [
        {
          "indexed": false,
          "internalType": "uint256",
          "name": "poolId",
          "type": "uint256"
        },
        {
          "indexed": false,
          "internalType": "uint256",
          "name": "yieldAPY",
          "type": "uint256"
        }
      ],
      "name": "PoolYieldChange",
      "type": "event"
    },
    {
      "anonymous": false,
      "inputs": [
        {
          "indexed": false,
          "internalType": "uint256",
          "name": "poolId",
          "type": "uint256"
        },
        {
          "indexed": false,
          "internalType": "uint256",
          "name": "stakeId",
          "type": "uint256"
        },
        {
          "indexed": false,
          "internalType": "address",
          "name": "token",
          "type": "address"
        },
        {
          "indexed": false,
          "internalType": "uint256",
          "name": "totalStaked",
          "type": "uint256"
        },
        {
          "indexed": false,
          "internalType": "uint256",
          "name": "repayAmount",
          "type": "uint256"
        }
      ],
      "name": "Repay",
      "type": "event"
    },
    {
      "anonymous": false,
      "inputs": [
        {
          "indexed": false,
          "internalType": "uint256",
          "name": "poolId",
          "type": "uint256"
        },
        {
          "indexed": false,
          "internalType": "uint256",
          "name": "stakeId",
          "type": "uint256"
        },
        {
          "indexed": false,
          "internalType": "uint256",
          "name": "timelock",
          "type": "uint256"
        },
        {
          "indexed": false,
          "internalType": "uint256",
          "name": "yield",
          "type": "uint256"
        },
        {
          "indexed": false,
          "internalType": "address",
          "name": "yieldToken",
          "type": "address"
        },
        {
          "indexed": false,
          "internalType": "address",
          "name": "stakeToken",
          "type": "address"
        },
        {
          "indexed": false,
          "internalType": "uint256",
          "name": "amount",
          "type": "uint256"
        }
      ],
      "name": "Stake",
      "type": "event"
    },
    {
      "anonymous": false,
      "inputs": [
        {
          "indexed": false,
          "internalType": "address",
          "name": "newTreasury",
          "type": "address"
        }
      ],
      "name": "TreasuryChange",
      "type": "event"
    },
    {
      "anonymous": false,
      "inputs": [
        {
          "indexed": false,
          "internalType": "uint256",
          "name": "poolId",
          "type": "uint256"
        },
        {
          "indexed": false,
          "internalType": "uint256",
          "name": "stakeId",
          "type": "uint256"
        },
        {
          "indexed": false,
          "internalType": "address",
          "name": "stakeToken",
          "type": "address"
        },
        {
          "indexed": false,
          "internalType": "uint256",
          "name": "totalAmount",
          "type": "uint256"
        }
      ],
      "name": "Unstake",
      "type": "event"
    },
    {
      "inputs": [],
      "name": "POOL_ADMIN_ROLE",
      "outputs": [
        {
          "internalType": "bytes32",
          "name": "",
          "type": "bytes32"
        }
      ],
      "stateMutability": "view",
      "type": "function"
    },
    {
      "inputs": [],
      "name": "USDB",
      "outputs": [
        {
          "internalType": "contract IERC20Rebasing",
          "name": "",
          "type": "address"
        }
      ],
      "stateMutability": "view",
      "type": "function"
    },
    {
      "inputs": [],
      "name": "YIELD_DENOM",
      "outputs": [
        {
          "internalType": "uint256",
          "name": "",
          "type": "uint256"
        }
      ],
      "stateMutability": "view",
      "type": "function"
    },
    {
      "inputs": [
        {
          "internalType": "address",
          "name": "",
          "type": "address"
        }
      ],
      "name": "accYieldPerStaked",
      "outputs": [
        {
          "internalType": "uint256",
          "name": "",
          "type": "uint256"
        }
      ],
      "stateMutability": "view",
      "type": "function"
    },
    {
      "inputs": [
        {
          "internalType": "uint256",
          "name": "timelock",
          "type": "uint256"
        },
        {
          "internalType": "uint256",
          "name": "yieldAPY",
          "type": "uint256"
        },
        {
          "internalType": "address",
          "name": "stakeToken",
          "type": "address"
        }
      ],
      "name": "addLockedPools",
      "outputs": [
        {
          "internalType": "uint256",
          "name": "poolId",
          "type": "uint256"
        }
      ],
      "stateMutability": "nonpayable",
      "type": "function"
    },
    {
      "inputs": [
        {
          "internalType": "address",
          "name": "stakeToken",
          "type": "address"
        },
        {
          "internalType": "address",
          "name": "yieldToken",
          "type": "address"
        }
      ],
      "name": "addSupportYieldTokens",
      "outputs": [],
      "stateMutability": "nonpayable",
      "type": "function"
    },
    {
      "inputs": [],
      "name": "blast",
      "outputs": [
        {
          "internalType": "contract IBlast",
          "name": "",
          "type": "address"
        }
      ],
      "stateMutability": "view",
      "type": "function"
    },
    {
      "inputs": [],
      "name": "claimNativeYield",
      "outputs": [],
      "stateMutability": "nonpayable",
      "type": "function"
    },
    {
      "inputs": [],
      "name": "claimUSDBYield",
      "outputs": [],
      "stateMutability": "nonpayable",
      "type": "function"
    },
    {
      "inputs": [
        {
          "internalType": "uint256",
          "name": "poolId",
          "type": "uint256"
        }
      ],
      "name": "closePool",
      "outputs": [],
      "stateMutability": "nonpayable",
      "type": "function"
    },
    {
      "inputs": [
        {
          "internalType": "address",
          "name": "operator",
          "type": "address"
        },
        {
          "internalType": "address",
          "name": "blastPointAddress",
          "type": "address"
        }
      ],
      "name": "configurePointsOperator",
      "outputs": [],
      "stateMutability": "nonpayable",
      "type": "function"
    },
    {
      "inputs": [
        {
          "internalType": "uint256",
          "name": "poolId",
          "type": "uint256"
        },
        {
          "internalType": "uint256",
          "name": "stakeId",
          "type": "uint256"
        },
        {
          "internalType": "uint256",
          "name": "extraDuration",
          "type": "uint256"
        }
      ],
      "name": "extendsPosition",
      "outputs": [],
      "stateMutability": "nonpayable",
      "type": "function"
    },
    {
      "inputs": [
        {
          "internalType": "uint256",
          "name": "poolId",
          "type": "uint256"
        },
        {
          "internalType": "uint256",
          "name": "stakeId",
          "type": "uint256"
        }
      ],
      "name": "getGeneratedYield",
      "outputs": [
        {
          "internalType": "uint256",
          "name": "",
          "type": "uint256"
        }
      ],
      "stateMutability": "view",
      "type": "function"
    },
    {
      "inputs": [
        {
          "internalType": "uint256",
          "name": "poolId",
          "type": "uint256"
        },
        {
          "internalType": "uint256",
          "name": "stakeId",
          "type": "uint256"
        }
      ],
      "name": "getStakeInfo",
      "outputs": [
        {
          "components": [
            {
              "internalType": "address",
              "name": "user",
              "type": "address"
            },
            {
              "internalType": "uint256",
              "name": "amount",
              "type": "uint256"
            },
            {
              "internalType": "uint256",
              "name": "stakeTime",
              "type": "uint256"
            },
            {
              "internalType": "uint256",
              "name": "unlockTime",
              "type": "uint256"
            },
            {
              "internalType": "uint256",
              "name": "yieldAmount",
              "type": "uint256"
            },
            {
              "internalType": "uint256",
              "name": "yieldDebt",
              "type": "uint256"
            }
          ],
          "internalType": "struct ILockedStaking.StakingInfo",
          "name": "",
          "type": "tuple"
        }
      ],
      "stateMutability": "view",
      "type": "function"
    },
    {
      "inputs": [
        {
          "internalType": "uint256",
          "name": "poolId",
          "type": "uint256"
        },
        {
          "internalType": "address",
          "name": "account",
          "type": "address"
        },
        {
          "internalType": "uint256",
          "name": "index",
          "type": "uint256"
        }
      ],
      "name": "getUserStakeIdByIndex",
      "outputs": [
        {
          "internalType": "uint256",
          "name": "",
          "type": "uint256"
        }
      ],
      "stateMutability": "view",
      "type": "function"
    },
    {
      "inputs": [
        {
          "internalType": "uint256",
          "name": "poolId",
          "type": "uint256"
        },
        {
          "internalType": "address",
          "name": "account",
          "type": "address"
        }
      ],
      "name": "getUserStakesIds",
      "outputs": [
        {
          "internalType": "uint256[]",
          "name": "",
          "type": "uint256[]"
        }
      ],
      "stateMutability": "view",
      "type": "function"
    },
    {
      "inputs": [
        {
          "internalType": "address",
          "name": "roleControl_",
          "type": "address"
        },
        {
          "internalType": "address",
          "name": "treasury_",
          "type": "address"
        }
      ],
      "name": "init",
      "outputs": [],
      "stateMutability": "nonpayable",
      "type": "function"
    },
    {
      "inputs": [
        {
          "internalType": "uint256",
          "name": "",
          "type": "uint256"
        }
      ],
      "name": "noUsersStaked",
      "outputs": [
        {
          "internalType": "uint256",
          "name": "",
          "type": "uint256"
        }
      ],
      "stateMutability": "view",
      "type": "function"
    },
    {
      "inputs": [
        {
          "internalType": "uint256",
          "name": "",
          "type": "uint256"
        }
      ],
      "name": "poolInfo",
      "outputs": [
        {
          "internalType": "uint256",
          "name": "timelock",
          "type": "uint256"
        },
        {
          "internalType": "uint256",
          "name": "yieldAPY",
          "type": "uint256"
        },
        {
          "internalType": "address",
          "name": "yieldToken",
          "type": "address"
        },
        {
          "internalType": "address",
          "name": "stakeToken",
          "type": "address"
        },
        {
          "internalType": "uint256",
          "name": "totalStaked",
          "type": "uint256"
        },
        {
          "internalType": "uint256",
          "name": "nextStakeId",
          "type": "uint256"
        },
        {
          "internalType": "bool",
          "name": "enabled",
          "type": "bool"
        }
      ],
      "stateMutability": "view",
      "type": "function"
    },
    {
      "inputs": [
        {
          "internalType": "uint256",
          "name": "poolId",
          "type": "uint256"
        },
        {
          "internalType": "uint256",
          "name": "stakeId",
          "type": "uint256"
        }
      ],
      "name": "repayWithStakeToken",
      "outputs": [],
      "stateMutability": "payable",
      "type": "function"
    },
    {
      "inputs": [
        {
          "internalType": "uint256",
          "name": "poolId",
          "type": "uint256"
        },
        {
          "internalType": "uint256",
          "name": "stakeId",
          "type": "uint256"
        }
      ],
      "name": "repayWithYieldToken",
      "outputs": [],
      "stateMutability": "nonpayable",
      "type": "function"
    },
    {
      "inputs": [
        {
          "internalType": "address",
          "name": "_blast",
          "type": "address"
        }
      ],
      "name": "setBlast",
      "outputs": [],
      "stateMutability": "nonpayable",
      "type": "function"
    },
    {
      "inputs": [
        {
          "internalType": "uint256",
          "name": "poolId",
          "type": "uint256"
        },
        {
          "internalType": "uint256",
          "name": "yield",
          "type": "uint256"
        }
      ],
      "name": "setPoolYield",
      "outputs": [],
      "stateMutability": "nonpayable",
      "type": "function"
    },
    {
      "inputs": [
        {
          "internalType": "address",
          "name": "_treasury",
          "type": "address"
        }
      ],
      "name": "setTreasury",
      "outputs": [],
      "stateMutability": "nonpayable",
      "type": "function"
    },
    {
      "inputs": [
        {
          "internalType": "address",
          "name": "usdb",
          "type": "address"
        }
      ],
      "name": "setUSDBRebasing",
      "outputs": [],
      "stateMutability": "nonpayable",
      "type": "function"
    },
    {
      "inputs": [
        {
          "internalType": "uint256",
          "name": "poolId",
          "type": "uint256"
        },
        {
          "internalType": "uint256",
          "name": "amount",
          "type": "uint256"
        }
      ],
      "name": "stake",
      "outputs": [],
      "stateMutability": "payable",
      "type": "function"
    },
    {
      "inputs": [
        {
          "internalType": "uint256",
          "name": "poolId",
          "type": "uint256"
        },
        {
          "internalType": "address",
          "name": "account",
          "type": "address"
        }
      ],
      "name": "stakeTimes",
      "outputs": [
        {
          "internalType": "uint256",
          "name": "",
          "type": "uint256"
        }
      ],
      "stateMutability": "view",
      "type": "function"
    },
    {
      "inputs": [
        {
          "internalType": "address",
          "name": "",
          "type": "address"
        }
      ],
      "name": "tokenTotalStaked",
      "outputs": [
        {
          "internalType": "uint256",
          "name": "",
          "type": "uint256"
        }
      ],
      "stateMutability": "view",
      "type": "function"
    },
    {
      "inputs": [],
      "name": "treasury",
      "outputs": [
        {
          "internalType": "address",
          "name": "",
          "type": "address"
        }
      ],
      "stateMutability": "view",
      "type": "function"
    },
    {
      "inputs": [
        {
          "internalType": "uint256",
          "name": "poolId",
          "type": "uint256"
        },
        {
          "internalType": "uint256",
          "name": "stakeId",
          "type": "uint256"
        }
      ],
      "name": "unstake",
      "outputs": [],
      "stateMutability": "nonpayable",
      "type": "function"
    },
    {
      "inputs": [
        {
          "internalType": "address",
          "name": "",
          "type": "address"
        }
      ],
      "name": "yieldTokens",
      "outputs": [
        {
          "internalType": "address",
          "name": "",
          "type": "address"
        }
      ],
      "stateMutability": "view",
      "type": "function"
    }
  ],
  "transactionHash": "0xaaa04d309638c1544387b366dc82be08f8ec8b58d652602bc828e1146b2df061",
  "args": [],
  "numDeployments": 1,
  "solcInputHash": "8f8b955d0424a5196e4c767e82369faf",
  "bytecode": "0x60806040523480156200001157600080fd5b50620000226200002860201b60201c565b620001d2565b600060019054906101000a900460ff16156200007b576040517f08c379a0000000000000000000000000000000000000000000000000000000008152600401620000729062000175565b60405180910390fd5b60ff801660008054906101000a900460ff1660ff1614620000ec5760ff6000806101000a81548160ff021916908360ff1602179055507f7f26b83ff96e1f2b6a682f133852f6798a09c465da95921460cefb384740249860ff604051620000e39190620001b5565b60405180910390a15b565b600082825260208201905092915050565b7f496e697469616c697a61626c653a20636f6e747261637420697320696e69746960008201527f616c697a696e6700000000000000000000000000000000000000000000000000602082015250565b60006200015d602783620000ee565b91506200016a82620000ff565b604082019050919050565b6000602082019050818103600083015262000190816200014e565b9050919050565b600060ff82169050919050565b620001af8162000197565b82525050565b6000602082019050620001cc6000830184620001a4565b92915050565b615c3080620001e26000396000f3fe6080604052600436106101d85760003560e01c80637e880fa611610102578063be22e17b11610095578063ed03cdec11610064578063ed03cdec146106ca578063f09a401614610707578063f0f4426014610730578063f7f72a2514610759576101d8565b8063be22e17b146105fc578063c6cf7c5f14610639578063cf85c2fb14610676578063d22548131461069f576101d8565b8063a2a81aef116100d1578063a2a81aef14610540578063a4951daf1461057d578063b8f6dba714610594578063bd7b108a146105bf576101d8565b80637e880fa61461048857806394caca16146104c55780639a45228f146104ee5780639e2c8a5b14610517576101d8565b806326ea6a8e1161017a57806337de615f1161014957806337de615f146103db5780634302a2f21461040457806361d027b3146104415780637b0472f01461046c576101d8565b806326ea6a8e1461032e5780632b3f7d1c1461035757806331a0edec1461039457806337bb397e146103bf576101d8565b80631526fe27116101b65780631526fe271461026e578063166f3237146102b1578063175e1a7d146102da57806319260c8614610305576101d8565b80630dfe85d8146101dd5780630f5baf611461021a578063125e1c3214610231575b600080fd5b3480156101e957600080fd5b5061020460048036038101906101ff9190614d2f565b610782565b6040516102119190614d6b565b60405180910390f35b34801561022657600080fd5b5061022f61079a565b005b34801561023d57600080fd5b5061025860048036038101906102539190614de4565b61095e565b6040516102659190614ee2565b60405180910390f35b34801561027a57600080fd5b5061029560048036038101906102909190614d2f565b610a07565b6040516102a89796959493929190614f2e565b60405180910390f35b3480156102bd57600080fd5b506102d860048036038101906102d39190614f9d565b610a96565b005b3480156102e657600080fd5b506102ef610c04565b6040516102fc919061503c565b60405180910390f35b34801561031157600080fd5b5061032c60048036038101906103279190615057565b610c2a565b005b34801561033a57600080fd5b5061035560048036038101906103509190615084565b610e0d565b005b34801561036357600080fd5b5061037e60048036038101906103799190615084565b61132d565b60405161038b919061514e565b60405180910390f35b3480156103a057600080fd5b506103a96113f4565b6040516103b6919061518a565b60405180910390f35b6103d960048036038101906103d49190615084565b61141a565b005b3480156103e757600080fd5b5061040260048036038101906103fd9190614d2f565b6119cf565b005b34801561041057600080fd5b5061042b60048036038101906104269190615057565b611b37565b6040516104389190614d6b565b60405180910390f35b34801561044d57600080fd5b50610456611b4f565b60405161046391906151a5565b60405180910390f35b61048660048036038101906104819190615084565b611b75565b005b34801561049457600080fd5b506104af60048036038101906104aa91906151c0565b6121ab565b6040516104bc9190614d6b565b60405180910390f35b3480156104d157600080fd5b506104ec60048036038101906104e79190614f9d565b61256b565b005b3480156104fa57600080fd5b5061051560048036038101906105109190615084565b612781565b005b34801561052357600080fd5b5061053e60048036038101906105399190615084565b612979565b005b34801561054c57600080fd5b5061056760048036038101906105629190614de4565b612e18565b6040516105749190614d6b565b60405180910390f35b34801561058957600080fd5b50610592612e76565b005b3480156105a057600080fd5b506105a96130da565b6040516105b6919061522c565b60405180910390f35b3480156105cb57600080fd5b506105e660048036038101906105e19190615084565b6130fe565b6040516105f39190614d6b565b60405180910390f35b34801561060857600080fd5b50610623600480360381019061061e9190615057565b6133d6565b6040516106309190614d6b565b60405180910390f35b34801561064557600080fd5b50610660600480360381019061065b9190615057565b6133ee565b60405161066d91906151a5565b60405180910390f35b34801561068257600080fd5b5061069d60048036038101906106989190615057565b613421565b005b3480156106ab57600080fd5b506106b46135e6565b6040516106c19190614d6b565b60405180910390f35b3480156106d657600080fd5b506106f160048036038101906106ec9190615247565b6135ed565b6040516106fe9190614d6b565b60405180910390f35b34801561071357600080fd5b5061072e60048036038101906107299190614f9d565b613665565b005b34801561073c57600080fd5b5061075760048036038101906107529190615057565b61381f565b005b34801561076557600080fd5b50610780600480360381019061077b919061529a565b6139ff565b005b60086020528060005260406000206000915090505481565b600260009054906101000a900473ffffffffffffffffffffffffffffffffffffffff1673ffffffffffffffffffffffffffffffffffffffff166391d148547f24e583e35a20f9ecfc1572e7cb66bcc18ad3cd1650ec40dbf6ad2290e553a9fa336040518363ffffffff1660e01b81526004016108179291906152ed565b602060405180830381865afa158015610834573d6000803e3d6000fd5b505050506040513d601f19601f820116820180604052508101906108589190615342565b61089957336040517f7e652f1e00000000000000000000000000000000000000000000000000000000815260040161089091906151a5565b60405180910390fd5b600160009054906101000a900473ffffffffffffffffffffffffffffffffffffffff1673ffffffffffffffffffffffffffffffffffffffff1663860043b630600360009054906101000a900473ffffffffffffffffffffffffffffffffffffffff166040518363ffffffff1660e01b815260040161091892919061536f565b6020604051808303816000875af1158015610937573d6000803e3d6000fd5b505050506040513d601f19601f8201168201806040525081019061095b91906153ad565b50565b60606007600084815260200190815260200160002060008373ffffffffffffffffffffffffffffffffffffffff1673ffffffffffffffffffffffffffffffffffffffff1681526020019081526020016000208054806020026020016040519081016040528092919081815260200182805480156109fa57602002820191906000526020600020905b8154815260200190600101908083116109e6575b5050505050905092915050565b60056020528060005260406000206000915090508060000154908060010154908060020160009054906101000a900473ffffffffffffffffffffffffffffffffffffffff16908060030160009054906101000a900473ffffffffffffffffffffffffffffffffffffffff16908060040154908060050154908060060160009054906101000a900460ff16905087565b600260009054906101000a900473ffffffffffffffffffffffffffffffffffffffff1673ffffffffffffffffffffffffffffffffffffffff166391d148547f24e583e35a20f9ecfc1572e7cb66bcc18ad3cd1650ec40dbf6ad2290e553a9fa336040518363ffffffff1660e01b8152600401610b139291906152ed565b602060405180830381865afa158015610b30573d6000803e3d6000fd5b505050506040513d601f19601f82011682018060405250810190610b549190615342565b610b9557336040517f7e652f1e000000000000000000000000000000000000000000000000000000008152600401610b8c91906151a5565b60405180910390fd5b8073ffffffffffffffffffffffffffffffffffffffff166336b91f2b836040518263ffffffff1660e01b8152600401610bce91906151a5565b600060405180830381600087803b158015610be857600080fd5b505af1158015610bfc573d6000803e3d6000fd5b505050505050565b600160009054906101000a900473ffffffffffffffffffffffffffffffffffffffff1681565b600260009054906101000a900473ffffffffffffffffffffffffffffffffffffffff1673ffffffffffffffffffffffffffffffffffffffff166391d148547f24e583e35a20f9ecfc1572e7cb66bcc18ad3cd1650ec40dbf6ad2290e553a9fa336040518363ffffffff1660e01b8152600401610ca79291906152ed565b602060405180830381865afa158015610cc4573d6000803e3d6000fd5b505050506040513d601f19601f82011682018060405250810190610ce89190615342565b610d2957336040517f7e652f1e000000000000000000000000000000000000000000000000000000008152600401610d2091906151a5565b60405180910390fd5b80600060026101000a81548173ffffffffffffffffffffffffffffffffffffffff021916908373ffffffffffffffffffffffffffffffffffffffff160217905550600060029054906101000a900473ffffffffffffffffffffffffffffffffffffffff1673ffffffffffffffffffffffffffffffffffffffff16631a33757d60026040518263ffffffff1660e01b8152600401610dc69190615451565b6020604051808303816000875af1158015610de5573d6000803e3d6000fd5b505050506040513d601f19601f82011682018060405250810190610e0991906153ad565b5050565b6000600560008481526020019081526020016000206040518060e001604052908160008201548152602001600182015481526020016002820160009054906101000a900473ffffffffffffffffffffffffffffffffffffffff1673ffffffffffffffffffffffffffffffffffffffff1673ffffffffffffffffffffffffffffffffffffffff1681526020016003820160009054906101000a900473ffffffffffffffffffffffffffffffffffffffff1673ffffffffffffffffffffffffffffffffffffffff1673ffffffffffffffffffffffffffffffffffffffff16815260200160048201548152602001600582015481526020016006820160009054906101000a900460ff16151515158152505090506000816000015103610f6757826040517feb0d37cc000000000000000000000000000000000000000000000000000000008152600401610f5e9190614d6b565b60405180910390fd5b60006006600085815260200190815260200160002060008481526020019081526020016000206040518060c00160405290816000820160009054906101000a900473ffffffffffffffffffffffffffffffffffffffff1673ffffffffffffffffffffffffffffffffffffffff1673ffffffffffffffffffffffffffffffffffffffff1681526020016001820154815260200160028201548152602001600382015481526020016004820154815260200160058201548152505090506000816020015103611060576040517fbaa8213400000000000000000000000000000000000000000000000000000000815260040160405180910390fd5b3373ffffffffffffffffffffffffffffffffffffffff16816000015173ffffffffffffffffffffffffffffffffffffffff16146110d85780600001516040517fbf2119490000000000000000000000000000000000000000000000000000000081526004016110cf91906151a5565b60405180910390fd5b6110e58260600151613e7c565b60008160a0015169d3c21bcecceda1000000600b6000866060015173ffffffffffffffffffffffffffffffffffffffff1673ffffffffffffffffffffffffffffffffffffffff16815260200190815260200160002054846020015161114a919061549b565b611154919061550c565b61115e919061553d565b9050600081836080015111156111815781836080015161117e919061553d565b90505b806005600088815260200190815260200160002060040160008282546111a7919061553d565b9250508190555080600a6000866060015173ffffffffffffffffffffffffffffffffffffffff1673ffffffffffffffffffffffffffffffffffffffff1681526020019081526020016000206000828254611201919061553d565b9250508190555060006007600088815260200190815260200160002060003373ffffffffffffffffffffffffffffffffffffffff1673ffffffffffffffffffffffffffffffffffffffff168152602001908152602001600020805490500361128f576001600860008881526020019081526020016000206000828254611287919061553d565b925050819055505b6112998686613f5a565b6112cb846040015133600360009054906101000a900473ffffffffffffffffffffffffffffffffffffffff16846140eb565b6112de8460600151338560200151614236565b7f31623a4b049142fb8415bf5de71a2defe23aa67120cd7b92875f124a6a771bf18686866060015186602001518560405161131d959493929190615571565b60405180910390a1505050505050565b611335614ca8565b6006600084815260200190815260200160002060008381526020019081526020016000206040518060c00160405290816000820160009054906101000a900473ffffffffffffffffffffffffffffffffffffffff1673ffffffffffffffffffffffffffffffffffffffff1673ffffffffffffffffffffffffffffffffffffffff16815260200160018201548152602001600282015481526020016003820154815260200160048201548152602001600582015481525050905092915050565b600060029054906101000a900473ffffffffffffffffffffffffffffffffffffffff1681565b6000600560008481526020019081526020016000206040518060e001604052908160008201548152602001600182015481526020016002820160009054906101000a900473ffffffffffffffffffffffffffffffffffffffff1673ffffffffffffffffffffffffffffffffffffffff1673ffffffffffffffffffffffffffffffffffffffff1681526020016003820160009054906101000a900473ffffffffffffffffffffffffffffffffffffffff1673ffffffffffffffffffffffffffffffffffffffff1673ffffffffffffffffffffffffffffffffffffffff16815260200160048201548152602001600582015481526020016006820160009054906101000a900460ff1615151515815250509050600081600001510361157457826040517feb0d37cc00000000000000000000000000000000000000000000000000000000815260040161156b9190614d6b565b60405180910390fd5b60006006600085815260200190815260200160002060008481526020019081526020016000206040518060c00160405290816000820160009054906101000a900473ffffffffffffffffffffffffffffffffffffffff1673ffffffffffffffffffffffffffffffffffffffff1673ffffffffffffffffffffffffffffffffffffffff168152602001600182015481526020016002820154815260200160038201548152602001600482015481526020016005820154815250509050600081602001510361166d576040517fbaa8213400000000000000000000000000000000000000000000000000000000815260040160405180910390fd5b3373ffffffffffffffffffffffffffffffffffffffff16816000015173ffffffffffffffffffffffffffffffffffffffff16146116e55780600001516040517fbf2119490000000000000000000000000000000000000000000000000000000081526004016116dc91906151a5565b60405180910390fd5b6116f28260600151613e7c565b60008160a0015169d3c21bcecceda1000000600b6000866060015173ffffffffffffffffffffffffffffffffffffffff1673ffffffffffffffffffffffffffffffffffffffff168152602001908152602001600020548460200151611757919061549b565b611761919061550c565b61176b919061553d565b90506000818360800151111561178e5781836080015161178b919061553d565b90505b600073ffffffffffffffffffffffffffffffffffffffff16846060015173ffffffffffffffffffffffffffffffffffffffff161480156117cd57508034105b1561180f57806040517f77b8dde30000000000000000000000000000000000000000000000000000000081526004016118069190614d6b565b60405180910390fd5b826080015181111561182357826080015190505b80600560008881526020019081526020016000206004016000828254611849919061553d565b9250508190555080600a6000866060015173ffffffffffffffffffffffffffffffffffffffff1673ffffffffffffffffffffffffffffffffffffffff16815260200190815260200160002060008282546118a3919061553d565b9250508190555060006007600088815260200190815260200160002060003373ffffffffffffffffffffffffffffffffffffffff1673ffffffffffffffffffffffffffffffffffffffff1681526020019081526020016000208054905003611931576001600860008881526020019081526020016000206000828254611929919061553d565b925050819055505b61193b8686613f5a565b61196d846060015133600360009054906101000a900473ffffffffffffffffffffffffffffffffffffffff16846140eb565b6119808460600151338560200151614236565b7f31623a4b049142fb8415bf5de71a2defe23aa67120cd7b92875f124a6a771bf1868686606001518660200151856040516119bf959493929190615571565b60405180910390a1505050505050565b600260009054906101000a900473ffffffffffffffffffffffffffffffffffffffff1673ffffffffffffffffffffffffffffffffffffffff166391d148547f24e583e35a20f9ecfc1572e7cb66bcc18ad3cd1650ec40dbf6ad2290e553a9fa336040518363ffffffff1660e01b8152600401611a4c9291906152ed565b602060405180830381865afa158015611a69573d6000803e3d6000fd5b505050506040513d601f19601f82011682018060405250810190611a8d9190615342565b611ace57336040517f7e652f1e000000000000000000000000000000000000000000000000000000008152600401611ac591906151a5565b60405180910390fd5b60006005600083815260200190815260200160002060060160006101000a81548160ff0219169083151502179055507f8e9bbc2f2753f85979baa207cd8bb3593aa61ae2d58a2766b2f629ba3f1e8c4181604051611b2c9190614d6b565b60405180910390a150565b600a6020528060005260406000206000915090505481565b600360009054906101000a900473ffffffffffffffffffffffffffffffffffffffff1681565b60008103611baf576040517f5f6f132c00000000000000000000000000000000000000000000000000000000815260040160405180910390fd5b60646007600084815260200190815260200160002060003373ffffffffffffffffffffffffffffffffffffffff1673ffffffffffffffffffffffffffffffffffffffff168152602001908152602001600020805490501115611c3d576040517fea83602800000000000000000000000000000000000000000000000000000000815260040160405180910390fd5b6000600560008481526020019081526020016000206040518060e001604052908160008201548152602001600182015481526020016002820160009054906101000a900473ffffffffffffffffffffffffffffffffffffffff1673ffffffffffffffffffffffffffffffffffffffff1673ffffffffffffffffffffffffffffffffffffffff1681526020016003820160009054906101000a900473ffffffffffffffffffffffffffffffffffffffff1673ffffffffffffffffffffffffffffffffffffffff1673ffffffffffffffffffffffffffffffffffffffff16815260200160048201548152602001600582015481526020016006820160009054906101000a900460ff1615151515815250509050600081600001511480611d695750600015158160c001511515145b15611dab57826040517f925a1975000000000000000000000000000000000000000000000000000000008152600401611da29190614d6b565b60405180910390fd5b611db88160600151613e7c565b60006201518061016d620186a08460000151856020015187611dda919061549b565b611de4919061549b565b611dee919061550c565b611df8919061550c565b611e02919061550c565b9050600069d3c21bcecceda1000000600b6000856060015173ffffffffffffffffffffffffffffffffffffffff1673ffffffffffffffffffffffffffffffffffffffff1681526020019081526020016000205485611e60919061549b565b611e6a919061550c565b905060006040518060c001604052803373ffffffffffffffffffffffffffffffffffffffff168152602001868152602001428152602001856000015142611eb191906155c4565b81526020018481526020018381525090506000600560008881526020019081526020016000206005015490506001600560008981526020019081526020016000206005016000828254611f0491906155c4565b925050819055508160066000898152602001908152602001600020600083815260200190815260200160002060008201518160000160006101000a81548173ffffffffffffffffffffffffffffffffffffffff021916908373ffffffffffffffffffffffffffffffffffffffff1602179055506020820151816001015560408201518160020155606082015181600301556080820151816004015560a0820151816005015590505085600560008981526020019081526020016000206004016000828254611fd291906155c4565b9250508190555060006007600089815260200190815260200160002060003373ffffffffffffffffffffffffffffffffffffffff1673ffffffffffffffffffffffffffffffffffffffff168152602001908152602001600020805490500361206057600160086000898152602001908152602001600020600082825461205891906155c4565b925050819055505b6007600088815260200190815260200160002060003373ffffffffffffffffffffffffffffffffffffffff1673ffffffffffffffffffffffffffffffffffffffff16815260200190815260200160002081908060018154018082558091505060019003906000526020600020016000909190919091505585600a6000876060015173ffffffffffffffffffffffffffffffffffffffff1673ffffffffffffffffffffffffffffffffffffffff168152602001908152602001600020600082825461212a91906155c4565b925050819055506121408560600151338861432c565b61214f856040015133866143dc565b7f744c88218bcd76ee9dc8a3b547422d17df0ff9b373dbde60d6efec9bf1ce26e387828760000151886020015189604001518a606001518c60405161219a97969594939291906155f8565b60405180910390a150505050505050565b6000600260009054906101000a900473ffffffffffffffffffffffffffffffffffffffff1673ffffffffffffffffffffffffffffffffffffffff166391d148547f24e583e35a20f9ecfc1572e7cb66bcc18ad3cd1650ec40dbf6ad2290e553a9fa336040518363ffffffff1660e01b815260040161222a9291906152ed565b602060405180830381865afa158015612247573d6000803e3d6000fd5b505050506040513d601f19601f8201168201806040525081019061226b9190615342565b6122ac57336040517f7e652f1e0000000000000000000000000000000000000000000000000000000081526004016122a391906151a5565b60405180910390fd5b60008414806122bb5750600083145b156122f2576040517f5f6f132c00000000000000000000000000000000000000000000000000000000815260040160405180910390fd5b6000600960008473ffffffffffffffffffffffffffffffffffffffff1673ffffffffffffffffffffffffffffffffffffffff16815260200190815260200160002060009054906101000a900473ffffffffffffffffffffffffffffffffffffffff169050600073ffffffffffffffffffffffffffffffffffffffff168173ffffffffffffffffffffffffffffffffffffffff16036123bc576040517f5f6f132c00000000000000000000000000000000000000000000000000000000815260040160405180910390fd5b60045491506040518060e001604052808681526020018581526020018273ffffffffffffffffffffffffffffffffffffffff1681526020018473ffffffffffffffffffffffffffffffffffffffff16815260200160008152602001600081526020016001151581525060056000848152602001908152602001600020600082015181600001556020820151816001015560408201518160020160006101000a81548173ffffffffffffffffffffffffffffffffffffffff021916908373ffffffffffffffffffffffffffffffffffffffff16021790555060608201518160030160006101000a81548173ffffffffffffffffffffffffffffffffffffffff021916908373ffffffffffffffffffffffffffffffffffffffff1602179055506080820151816004015560a0820151816005015560c08201518160060160006101000a81548160ff02191690831515021790555090505060018261251e91906155c4565b6004819055507faec16eea69e3a8763af09e92376830a1b7d14ea846be92dc9998f419c5f03a1e828686848760405161255b959493929190615667565b60405180910390a1509392505050565b600260009054906101000a900473ffffffffffffffffffffffffffffffffffffffff1673ffffffffffffffffffffffffffffffffffffffff166391d148547f24e583e35a20f9ecfc1572e7cb66bcc18ad3cd1650ec40dbf6ad2290e553a9fa336040518363ffffffff1660e01b81526004016125e89291906152ed565b602060405180830381865afa158015612605573d6000803e3d6000fd5b505050506040513d601f19601f820116820180604052508101906126299190615342565b61266a57336040517f7e652f1e00000000000000000000000000000000000000000000000000000000815260040161266191906151a5565b60405180910390fd5b600073ffffffffffffffffffffffffffffffffffffffff168273ffffffffffffffffffffffffffffffffffffffff16141580156126f55750600060029054906101000a900473ffffffffffffffffffffffffffffffffffffffff1673ffffffffffffffffffffffffffffffffffffffff168273ffffffffffffffffffffffffffffffffffffffff1614155b156126ff57600080fd5b80600960008473ffffffffffffffffffffffffffffffffffffffff1673ffffffffffffffffffffffffffffffffffffffff16815260200190815260200160002060006101000a81548173ffffffffffffffffffffffffffffffffffffffff021916908373ffffffffffffffffffffffffffffffffffffffff1602179055505050565b600260009054906101000a900473ffffffffffffffffffffffffffffffffffffffff1673ffffffffffffffffffffffffffffffffffffffff166391d148547f24e583e35a20f9ecfc1572e7cb66bcc18ad3cd1650ec40dbf6ad2290e553a9fa336040518363ffffffff1660e01b81526004016127fe9291906152ed565b602060405180830381865afa15801561281b573d6000803e3d6000fd5b505050506040513d601f19601f8201168201806040525081019061283f9190615342565b61288057336040517f7e652f1e00000000000000000000000000000000000000000000000000000000815260040161287791906151a5565b60405180910390fd5b600082148061288f5750600081145b156128c6576040517f5f6f132c00000000000000000000000000000000000000000000000000000000815260040160405180910390fd5b600060056000848152602001908152602001600020600001540361292157816040517feb0d37cc0000000000000000000000000000000000000000000000000000000081526004016129189190614d6b565b60405180910390fd5b8060056000848152602001908152602001600020600101819055507fcd5b123da263672a54d85369dd6d4686414c76ff047da811033d4612444735fa828260405161296d9291906156ba565b60405180910390a15050565b6000600560008481526020019081526020016000206040518060e001604052908160008201548152602001600182015481526020016002820160009054906101000a900473ffffffffffffffffffffffffffffffffffffffff1673ffffffffffffffffffffffffffffffffffffffff1673ffffffffffffffffffffffffffffffffffffffff1681526020016003820160009054906101000a900473ffffffffffffffffffffffffffffffffffffffff1673ffffffffffffffffffffffffffffffffffffffff1673ffffffffffffffffffffffffffffffffffffffff16815260200160048201548152602001600582015481526020016006820160009054906101000a900460ff16151515158152505090506000816000015103612ad357826040517feb0d37cc000000000000000000000000000000000000000000000000000000008152600401612aca9190614d6b565b60405180910390fd5b612ae08160600151613e7c565b60006006600085815260200190815260200160002060008481526020019081526020016000206040518060c00160405290816000820160009054906101000a900473ffffffffffffffffffffffffffffffffffffffff1673ffffffffffffffffffffffffffffffffffffffff1673ffffffffffffffffffffffffffffffffffffffff1681526020016001820154815260200160028201548152602001600382015481526020016004820154815260200160058201548152505090506000816020015103612bd9576040517fbaa8213400000000000000000000000000000000000000000000000000000000815260040160405180910390fd5b4281606001511115612c265780606001516040517f032bc66b000000000000000000000000000000000000000000000000000000008152600401612c1d9190614d6b565b60405180910390fd5b3373ffffffffffffffffffffffffffffffffffffffff16816000015173ffffffffffffffffffffffffffffffffffffffff1614612c9a57336040517fbf211949000000000000000000000000000000000000000000000000000000008152600401612c9191906151a5565b60405180910390fd5b8060200151600560008681526020019081526020016000206004016000828254612cc4919061553d565b925050819055508060200151600a6000846060015173ffffffffffffffffffffffffffffffffffffffff1673ffffffffffffffffffffffffffffffffffffffff1681526020019081526020016000206000828254612d22919061553d565b92505081905550612d338484613f5a565b60006007600086815260200190815260200160002060003373ffffffffffffffffffffffffffffffffffffffff1673ffffffffffffffffffffffffffffffffffffffff1681526020019081526020016000208054905003612dba576001600860008681526020019081526020016000206000828254612db2919061553d565b925050819055505b612dcd8260600151338360200151614236565b7fa1a24eca1af5deeccac6dbbfb5446f9520a2f7a5c8c5a8ffc5418937543e62fc848484606001518460200151604051612e0a94939291906156e3565b60405180910390a150505050565b60006007600084815260200190815260200160002060008373ffffffffffffffffffffffffffffffffffffffff1673ffffffffffffffffffffffffffffffffffffffff16815260200190815260200160002080549050905092915050565b600260009054906101000a900473ffffffffffffffffffffffffffffffffffffffff1673ffffffffffffffffffffffffffffffffffffffff166391d148547f24e583e35a20f9ecfc1572e7cb66bcc18ad3cd1650ec40dbf6ad2290e553a9fa336040518363ffffffff1660e01b8152600401612ef39291906152ed565b602060405180830381865afa158015612f10573d6000803e3d6000fd5b505050506040513d601f19601f82011682018060405250810190612f349190615342565b612f7557336040517f7e652f1e000000000000000000000000000000000000000000000000000000008152600401612f6c91906151a5565b60405180910390fd5b60008060029054906101000a900473ffffffffffffffffffffffffffffffffffffffff1673ffffffffffffffffffffffffffffffffffffffff1663e12f3a61306040518263ffffffff1660e01b8152600401612fd191906151a5565b602060405180830381865afa158015612fee573d6000803e3d6000fd5b505050506040513d601f19601f8201168201806040525081019061301291906153ad565b9050600060029054906101000a900473ffffffffffffffffffffffffffffffffffffffff1673ffffffffffffffffffffffffffffffffffffffff1663aad3ec96600360009054906101000a900473ffffffffffffffffffffffffffffffffffffffff16836040518363ffffffff1660e01b8152600401613093929190615728565b6020604051808303816000875af11580156130b2573d6000803e3d6000fd5b505050506040513d601f19601f820116820180604052508101906130d691906153ad565b5050565b7f24e583e35a20f9ecfc1572e7cb66bcc18ad3cd1650ec40dbf6ad2290e553a9fa81565b6000806006600085815260200190815260200160002060008481526020019081526020016000206040518060c00160405290816000820160009054906101000a900473ffffffffffffffffffffffffffffffffffffffff1673ffffffffffffffffffffffffffffffffffffffff1673ffffffffffffffffffffffffffffffffffffffff1681526020016001820154815260200160028201548152602001600382015481526020016004820154815260200160058201548152505090506000600560008681526020019081526020016000206040518060e001604052908160008201548152602001600182015481526020016002820160009054906101000a900473ffffffffffffffffffffffffffffffffffffffff1673ffffffffffffffffffffffffffffffffffffffff1673ffffffffffffffffffffffffffffffffffffffff1681526020016003820160009054906101000a900473ffffffffffffffffffffffffffffffffffffffff1673ffffffffffffffffffffffffffffffffffffffff1673ffffffffffffffffffffffffffffffffffffffff16815260200160048201548152602001600582015481526020016006820160009054906101000a900460ff161515151581525050905060006132da826060015161444e565b90506000600b6000846060015173ffffffffffffffffffffffffffffffffffffffff1673ffffffffffffffffffffffffffffffffffffffff168152602001908152602001600020549050600a6000846060015173ffffffffffffffffffffffffffffffffffffffff1673ffffffffffffffffffffffffffffffffffffffff168152602001908152602001600020546a084595161401484a0000008361337f919061549b565b613389919061550c565b8161339491906155c4565b90508360a0015169d3c21bcecceda10000008286602001516133b6919061549b565b6133c0919061550c565b6133ca919061553d565b94505050505092915050565b600b6020528060005260406000206000915090505481565b60096020528060005260406000206000915054906101000a900473ffffffffffffffffffffffffffffffffffffffff1681565b600260009054906101000a900473ffffffffffffffffffffffffffffffffffffffff1673ffffffffffffffffffffffffffffffffffffffff166391d148547f24e583e35a20f9ecfc1572e7cb66bcc18ad3cd1650ec40dbf6ad2290e553a9fa336040518363ffffffff1660e01b815260040161349e9291906152ed565b602060405180830381865afa1580156134bb573d6000803e3d6000fd5b505050506040513d601f19601f820116820180604052508101906134df9190615342565b61352057336040517f7e652f1e00000000000000000000000000000000000000000000000000000000815260040161351791906151a5565b60405180910390fd5b80600160006101000a81548173ffffffffffffffffffffffffffffffffffffffff021916908373ffffffffffffffffffffffffffffffffffffffff160217905550600160009054906101000a900473ffffffffffffffffffffffffffffffffffffffff1673ffffffffffffffffffffffffffffffffffffffff1663f098767a6040518163ffffffff1660e01b8152600401600060405180830381600087803b1580156135cb57600080fd5b505af11580156135df573d6000803e3d6000fd5b5050505050565b620186a081565b60006007600085815260200190815260200160002060008473ffffffffffffffffffffffffffffffffffffffff1673ffffffffffffffffffffffffffffffffffffffff168152602001908152602001600020828154811061365157613650615751565b5b906000526020600020015490509392505050565b60008060019054906101000a900460ff161590508080156136965750600160008054906101000a900460ff1660ff16105b806136c357506136a530614628565b1580156136c25750600160008054906101000a900460ff1660ff16145b5b613702576040517f08c379a00000000000000000000000000000000000000000000000000000000081526004016136f990615803565b60405180910390fd5b60016000806101000a81548160ff021916908360ff160217905550801561373f576001600060016101000a81548160ff0219169083151502179055505b82600260006101000a81548173ffffffffffffffffffffffffffffffffffffffff021916908373ffffffffffffffffffffffffffffffffffffffff16021790555081600360006101000a81548173ffffffffffffffffffffffffffffffffffffffff021916908373ffffffffffffffffffffffffffffffffffffffff160217905550801561381a5760008060016101000a81548160ff0219169083151502179055507f7f26b83ff96e1f2b6a682f133852f6798a09c465da95921460cefb38474024986001604051613811919061586b565b60405180910390a15b505050565b600260009054906101000a900473ffffffffffffffffffffffffffffffffffffffff1673ffffffffffffffffffffffffffffffffffffffff166391d148547f24e583e35a20f9ecfc1572e7cb66bcc18ad3cd1650ec40dbf6ad2290e553a9fa336040518363ffffffff1660e01b815260040161389c9291906152ed565b602060405180830381865afa1580156138b9573d6000803e3d6000fd5b505050506040513d601f19601f820116820180604052508101906138dd9190615342565b61391e57336040517f7e652f1e00000000000000000000000000000000000000000000000000000000815260040161391591906151a5565b60405180910390fd5b600073ffffffffffffffffffffffffffffffffffffffff168173ffffffffffffffffffffffffffffffffffffffff1603613984576040517f5f6f132c00000000000000000000000000000000000000000000000000000000815260040160405180910390fd5b80600360006101000a81548173ffffffffffffffffffffffffffffffffffffffff021916908373ffffffffffffffffffffffffffffffffffffffff1602179055507f1ac54af2084ba0e4b86b7bc54b978ce7dd4ca046d3dec89d7c8963873820c0bb816040516139f491906151a5565b60405180910390a150565b6000600560008581526020019081526020016000206040518060e001604052908160008201548152602001600182015481526020016002820160009054906101000a900473ffffffffffffffffffffffffffffffffffffffff1673ffffffffffffffffffffffffffffffffffffffff1673ffffffffffffffffffffffffffffffffffffffff1681526020016003820160009054906101000a900473ffffffffffffffffffffffffffffffffffffffff1673ffffffffffffffffffffffffffffffffffffffff1673ffffffffffffffffffffffffffffffffffffffff16815260200160048201548152602001600582015481526020016006820160009054906101000a900460ff16151515158152505090506000816000015103613b5957836040517feb0d37cc000000000000000000000000000000000000000000000000000000008152600401613b509190614d6b565b60405180910390fd5b613b668160600151613e7c565b600060066000868152602001908152602001600020600085815260200190815260200160002090506000816001015403613bcc576040517fbaa8213400000000000000000000000000000000000000000000000000000000815260040160405180910390fd5b3373ffffffffffffffffffffffffffffffffffffffff168160000160009054906101000a900473ffffffffffffffffffffffffffffffffffffffff1673ffffffffffffffffffffffffffffffffffffffff1614613c6057336040517fbf211949000000000000000000000000000000000000000000000000000000008152600401613c5791906151a5565b60405180910390fd5b6000816005015469d3c21bcecceda1000000600b6000866060015173ffffffffffffffffffffffffffffffffffffffff1673ffffffffffffffffffffffffffffffffffffffff168152602001908152602001600020548460010154613cc5919061549b565b613ccf919061550c565b613cd9919061553d565b905083826003016000828254613cef91906155c4565b925050819055506312cc030082600201548360030154613d0f919061553d565b1115613d47576040517fd902924300000000000000000000000000000000000000000000000000000000815260040160405180910390fd5b60006201518061016d620186a08787602001518760010154613d69919061549b565b613d73919061549b565b613d7d919061550c565b613d87919061550c565b613d91919061550c565b905080836004016000828254613da791906155c4565b925050819055508169d3c21bcecceda1000000600b6000876060015173ffffffffffffffffffffffffffffffffffffffff1673ffffffffffffffffffffffffffffffffffffffff168152602001908152602001600020548560010154613e0d919061549b565b613e17919061550c565b613e21919061553d565b8360050181905550613e38846040015133836143dc565b7f3480fc0f279df6d05a679eb53cce25283477e940aca754409538b72485edfb29878787604051613e6b93929190615886565b60405180910390a150505050505050565b6000600a60008373ffffffffffffffffffffffffffffffffffffffff1673ffffffffffffffffffffffffffffffffffffffff16815260200190815260200160002054905060008114613f4d576000613ed38361444e565b90508169d3c21bcecceda100000082613eec919061549b565b613ef6919061550c565b600b60008573ffffffffffffffffffffffffffffffffffffffff1673ffffffffffffffffffffffffffffffffffffffff1681526020019081526020016000206000828254613f4491906155c4565b92505081905550505b613f568261464b565b5050565b600660008381526020019081526020016000206000828152602001908152602001600020600080820160006101000a81549073ffffffffffffffffffffffffffffffffffffffff021916905560018201600090556002820160009055600382016000905560048201600090556005820160009055505060006007600084815260200190815260200160002060003373ffffffffffffffffffffffffffffffffffffffff1673ffffffffffffffffffffffffffffffffffffffff168152602001908152602001600020905060005b81805490508110156140e5578282828154811061404757614046615751565b5b9060005260206000200154036140d2578160018380549050614069919061553d565b8154811061407a57614079615751565b5b906000526020600020015482828154811061409857614097615751565b5b9060005260206000200181905550818054806140b7576140b66158bd565b5b600190038181906000526020600020016000905590556140e5565b80806140dd906158ec565b915050614027565b50505050565b600073ffffffffffffffffffffffffffffffffffffffff168473ffffffffffffffffffffffffffffffffffffffff1603614202573481111561416457806040517f83b9f0ae00000000000000000000000000000000000000000000000000000000815260040161415b9190614d6b565b60405180910390fd5b8173ffffffffffffffffffffffffffffffffffffffff166108fc829081150290604051600060405180830381858888f193505050501580156141aa573d6000803e3d6000fd5b508273ffffffffffffffffffffffffffffffffffffffff166108fc82346141d1919061553d565b9081150290604051600060405180830381858888f193505050501580156141fc573d6000803e3d6000fd5b50614230565b61422f8383838773ffffffffffffffffffffffffffffffffffffffff16614904909392919063ffffffff16565b5b50505050565b600073ffffffffffffffffffffffffffffffffffffffff168373ffffffffffffffffffffffffffffffffffffffff16036142fb57804710156142af57806040517f83b9f0ae0000000000000000000000000000000000000000000000000000000081526004016142a69190614d6b565b60405180910390fd5b8173ffffffffffffffffffffffffffffffffffffffff166108fc829081150290604051600060405180830381858888f193505050501580156142f5573d6000803e3d6000fd5b50614327565b61432682828573ffffffffffffffffffffffffffffffffffffffff1661498d9092919063ffffffff16565b5b505050565b600073ffffffffffffffffffffffffffffffffffffffff168373ffffffffffffffffffffffffffffffffffffffff16036143a9573481146143a457806040517f83b9f0ae00000000000000000000000000000000000000000000000000000000815260040161439b9190614d6b565b60405180910390fd5b6143d7565b6143d68230838673ffffffffffffffffffffffffffffffffffffffff16614904909392919063ffffffff16565b5b505050565b8273ffffffffffffffffffffffffffffffffffffffff166340c10f1983836040518363ffffffff1660e01b8152600401614417929190615728565b600060405180830381600087803b15801561443157600080fd5b505af1158015614445573d6000803e3d6000fd5b50505050505050565b60008073ffffffffffffffffffffffffffffffffffffffff168273ffffffffffffffffffffffffffffffffffffffff160361452657600160009054906101000a900473ffffffffffffffffffffffffffffffffffffffff1673ffffffffffffffffffffffffffffffffffffffff1663ec3278e8306040518263ffffffff1660e01b81526004016144de91906151a5565b602060405180830381865afa1580156144fb573d6000803e3d6000fd5b505050506040513d601f19601f8201168201806040525081019061451f91906153ad565b9050614623565b600060029054906101000a900473ffffffffffffffffffffffffffffffffffffffff1673ffffffffffffffffffffffffffffffffffffffff168273ffffffffffffffffffffffffffffffffffffffff160361461e57600060029054906101000a900473ffffffffffffffffffffffffffffffffffffffff1673ffffffffffffffffffffffffffffffffffffffff1663e12f3a61306040518263ffffffff1660e01b81526004016145d691906151a5565b602060405180830381865afa1580156145f3573d6000803e3d6000fd5b505050506040513d601f19601f8201168201806040525081019061461791906153ad565b9050614623565b600090505b919050565b6000808273ffffffffffffffffffffffffffffffffffffffff163b119050919050565b600073ffffffffffffffffffffffffffffffffffffffff168173ffffffffffffffffffffffffffffffffffffffff160361474757600160009054906101000a900473ffffffffffffffffffffffffffffffffffffffff1673ffffffffffffffffffffffffffffffffffffffff1663860043b630600360009054906101000a900473ffffffffffffffffffffffffffffffffffffffff166040518363ffffffff1660e01b81526004016146fe92919061536f565b6020604051808303816000875af115801561471d573d6000803e3d6000fd5b505050506040513d601f19601f8201168201806040525081019061474191906153ad565b50614901565b600060029054906101000a900473ffffffffffffffffffffffffffffffffffffffff1673ffffffffffffffffffffffffffffffffffffffff168173ffffffffffffffffffffffffffffffffffffffff16036149005760008060029054906101000a900473ffffffffffffffffffffffffffffffffffffffff1673ffffffffffffffffffffffffffffffffffffffff1663e12f3a61306040518263ffffffff1660e01b81526004016147f891906151a5565b602060405180830381865afa158015614815573d6000803e3d6000fd5b505050506040513d601f19601f8201168201806040525081019061483991906153ad565b9050600060029054906101000a900473ffffffffffffffffffffffffffffffffffffffff1673ffffffffffffffffffffffffffffffffffffffff1663aad3ec96600360009054906101000a900473ffffffffffffffffffffffffffffffffffffffff16836040518363ffffffff1660e01b81526004016148ba929190615728565b6020604051808303816000875af11580156148d9573d6000803e3d6000fd5b505050506040513d601f19601f820116820180604052508101906148fd91906153ad565b50505b5b50565b614987846323b872dd60e01b85858560405160240161492593929190615934565b604051602081830303815290604052907bffffffffffffffffffffffffffffffffffffffffffffffffffffffff19166020820180517bffffffffffffffffffffffffffffffffffffffffffffffffffffffff8381831617835250505050614a13565b50505050565b614a0e8363a9059cbb60e01b84846040516024016149ac929190615728565b604051602081830303815290604052907bffffffffffffffffffffffffffffffffffffffffffffffffffffffff19166020820180517bffffffffffffffffffffffffffffffffffffffffffffffffffffffff8381831617835250505050614a13565b505050565b6000614a75826040518060400160405280602081526020017f5361666545524332303a206c6f772d6c6576656c2063616c6c206661696c65648152508573ffffffffffffffffffffffffffffffffffffffff16614adb9092919063ffffffff16565b9050600081511480614a97575080806020019051810190614a969190615342565b5b614ad6576040517f08c379a0000000000000000000000000000000000000000000000000000000008152600401614acd906159dd565b60405180910390fd5b505050565b6060614aea8484600085614af3565b90509392505050565b606082471015614b38576040517f08c379a0000000000000000000000000000000000000000000000000000000008152600401614b2f90615a6f565b60405180910390fd5b6000808673ffffffffffffffffffffffffffffffffffffffff168587604051614b619190615b00565b60006040518083038185875af1925050503d8060008114614b9e576040519150601f19603f3d011682016040523d82523d6000602084013e614ba3565b606091505b5091509150614bb487838387614bc0565b92505050949350505050565b60608315614c22576000835103614c1a57614bda85614c35565b614c19576040517f08c379a0000000000000000000000000000000000000000000000000000000008152600401614c1090615b63565b60405180910390fd5b5b829050614c2d565b614c2c8383614c58565b5b949350505050565b6000808273ffffffffffffffffffffffffffffffffffffffff163b119050919050565b600082511115614c6b5781518083602001fd5b806040517f08c379a0000000000000000000000000000000000000000000000000000000008152600401614c9f9190615bd8565b60405180910390fd5b6040518060c00160405280600073ffffffffffffffffffffffffffffffffffffffff16815260200160008152602001600081526020016000815260200160008152602001600081525090565b600080fd5b6000819050919050565b614d0c81614cf9565b8114614d1757600080fd5b50565b600081359050614d2981614d03565b92915050565b600060208284031215614d4557614d44614cf4565b5b6000614d5384828501614d1a565b91505092915050565b614d6581614cf9565b82525050565b6000602082019050614d806000830184614d5c565b92915050565b600073ffffffffffffffffffffffffffffffffffffffff82169050919050565b6000614db182614d86565b9050919050565b614dc181614da6565b8114614dcc57600080fd5b50565b600081359050614dde81614db8565b92915050565b60008060408385031215614dfb57614dfa614cf4565b5b6000614e0985828601614d1a565b9250506020614e1a85828601614dcf565b9150509250929050565b600081519050919050565b600082825260208201905092915050565b6000819050602082019050919050565b614e5981614cf9565b82525050565b6000614e6b8383614e50565b60208301905092915050565b6000602082019050919050565b6000614e8f82614e24565b614e998185614e2f565b9350614ea483614e40565b8060005b83811015614ed5578151614ebc8882614e5f565b9750614ec783614e77565b925050600181019050614ea8565b5085935050505092915050565b60006020820190508181036000830152614efc8184614e84565b905092915050565b614f0d81614da6565b82525050565b60008115159050919050565b614f2881614f13565b82525050565b600060e082019050614f43600083018a614d5c565b614f506020830189614d5c565b614f5d6040830188614f04565b614f6a6060830187614f04565b614f776080830186614d5c565b614f8460a0830185614d5c565b614f9160c0830184614f1f565b98975050505050505050565b60008060408385031215614fb457614fb3614cf4565b5b6000614fc285828601614dcf565b9250506020614fd385828601614dcf565b9150509250929050565b6000819050919050565b6000615002614ffd614ff884614d86565b614fdd565b614d86565b9050919050565b600061501482614fe7565b9050919050565b600061502682615009565b9050919050565b6150368161501b565b82525050565b6000602082019050615051600083018461502d565b92915050565b60006020828403121561506d5761506c614cf4565b5b600061507b84828501614dcf565b91505092915050565b6000806040838503121561509b5761509a614cf4565b5b60006150a985828601614d1a565b92505060206150ba85828601614d1a565b9150509250929050565b6150cd81614da6565b82525050565b60c0820160008201516150e960008501826150c4565b5060208201516150fc6020850182614e50565b50604082015161510f6040850182614e50565b5060608201516151226060850182614e50565b5060808201516151356080850182614e50565b5060a082015161514860a0850182614e50565b50505050565b600060c08201905061516360008301846150d3565b92915050565b600061517482615009565b9050919050565b61518481615169565b82525050565b600060208201905061519f600083018461517b565b92915050565b60006020820190506151ba6000830184614f04565b92915050565b6000806000606084860312156151d9576151d8614cf4565b5b60006151e786828701614d1a565b93505060206151f886828701614d1a565b925050604061520986828701614dcf565b9150509250925092565b6000819050919050565b61522681615213565b82525050565b6000602082019050615241600083018461521d565b92915050565b6000806000606084860312156152605761525f614cf4565b5b600061526e86828701614d1a565b935050602061527f86828701614dcf565b925050604061529086828701614d1a565b9150509250925092565b6000806000606084860312156152b3576152b2614cf4565b5b60006152c186828701614d1a565b93505060206152d286828701614d1a565b92505060406152e386828701614d1a565b9150509250925092565b6000604082019050615302600083018561521d565b61530f6020830184614f04565b9392505050565b61531f81614f13565b811461532a57600080fd5b50565b60008151905061533c81615316565b92915050565b60006020828403121561535857615357614cf4565b5b60006153668482850161532d565b91505092915050565b60006040820190506153846000830185614f04565b6153916020830184614f04565b9392505050565b6000815190506153a781614d03565b92915050565b6000602082840312156153c3576153c2614cf4565b5b60006153d184828501615398565b91505092915050565b7f4e487b7100000000000000000000000000000000000000000000000000000000600052602160045260246000fd5b6003811061541a576154196153da565b5b50565b600081905061542b82615409565b919050565b600061543b8261541d565b9050919050565b61544b81615430565b82525050565b60006020820190506154666000830184615442565b92915050565b7f4e487b7100000000000000000000000000000000000000000000000000000000600052601160045260246000fd5b60006154a682614cf9565b91506154b183614cf9565b92508282026154bf81614cf9565b915082820484148315176154d6576154d561546c565b5b5092915050565b7f4e487b7100000000000000000000000000000000000000000000000000000000600052601260045260246000fd5b600061551782614cf9565b915061552283614cf9565b925082615532576155316154dd565b5b828204905092915050565b600061554882614cf9565b915061555383614cf9565b925082820390508181111561556b5761556a61546c565b5b92915050565b600060a0820190506155866000830188614d5c565b6155936020830187614d5c565b6155a06040830186614f04565b6155ad6060830185614d5c565b6155ba6080830184614d5c565b9695505050505050565b60006155cf82614cf9565b91506155da83614cf9565b92508282019050808211156155f2576155f161546c565b5b92915050565b600060e08201905061560d600083018a614d5c565b61561a6020830189614d5c565b6156276040830188614d5c565b6156346060830187614d5c565b6156416080830186614f04565b61564e60a0830185614f04565b61565b60c0830184614d5c565b98975050505050505050565b600060a08201905061567c6000830188614d5c565b6156896020830187614d5c565b6156966040830186614d5c565b6156a36060830185614f04565b6156b06080830184614f04565b9695505050505050565b60006040820190506156cf6000830185614d5c565b6156dc6020830184614d5c565b9392505050565b60006080820190506156f86000830187614d5c565b6157056020830186614d5c565b6157126040830185614f04565b61571f6060830184614d5c565b95945050505050565b600060408201905061573d6000830185614f04565b61574a6020830184614d5c565b9392505050565b7f4e487b7100000000000000000000000000000000000000000000000000000000600052603260045260246000fd5b600082825260208201905092915050565b7f496e697469616c697a61626c653a20636f6e747261637420697320616c72656160008201527f647920696e697469616c697a6564000000000000000000000000000000000000602082015250565b60006157ed602e83615780565b91506157f882615791565b604082019050919050565b6000602082019050818103600083015261581c816157e0565b9050919050565b6000819050919050565b600060ff82169050919050565b600061585561585061584b84615823565b614fdd565b61582d565b9050919050565b6158658161583a565b82525050565b6000602082019050615880600083018461585c565b92915050565b600060608201905061589b6000830186614d5c565b6158a86020830185614d5c565b6158b56040830184614d5c565b949350505050565b7f4e487b7100000000000000000000000000000000000000000000000000000000600052603160045260246000fd5b60006158f782614cf9565b91507fffffffffffffffffffffffffffffffffffffffffffffffffffffffffffffffff82036159295761592861546c565b5b600182019050919050565b60006060820190506159496000830186614f04565b6159566020830185614f04565b6159636040830184614d5c565b949350505050565b7f5361666545524332303a204552433230206f7065726174696f6e20646964206e60008201527f6f74207375636365656400000000000000000000000000000000000000000000602082015250565b60006159c7602a83615780565b91506159d28261596b565b604082019050919050565b600060208201905081810360008301526159f6816159ba565b9050919050565b7f416464726573733a20696e73756666696369656e742062616c616e636520666f60008201527f722063616c6c0000000000000000000000000000000000000000000000000000602082015250565b6000615a59602683615780565b9150615a64826159fd565b604082019050919050565b60006020820190508181036000830152615a8881615a4c565b9050919050565b600081519050919050565b600081905092915050565b60005b83811015615ac3578082015181840152602081019050615aa8565b60008484015250505050565b6000615ada82615a8f565b615ae48185615a9a565b9350615af4818560208601615aa5565b80840191505092915050565b6000615b0c8284615acf565b915081905092915050565b7f416464726573733a2063616c6c20746f206e6f6e2d636f6e7472616374000000600082015250565b6000615b4d601d83615780565b9150615b5882615b17565b602082019050919050565b60006020820190508181036000830152615b7c81615b40565b9050919050565b600081519050919050565b6000601f19601f8301169050919050565b6000615baa82615b83565b615bb48185615780565b9350615bc4818560208601615aa5565b615bcd81615b8e565b840191505092915050565b60006020820190508181036000830152615bf28184615b9f565b90509291505056fea2646970667358221220e1929fc0337c14ca41bdd68a0fe514c91b2cc5c2a493ed2bfb5035c8b076c6fe64736f6c63430008140033",
  "devdoc": {
    "details": "Lock staking pool contract",
    "events": {
      "Initialized(uint8)": {
        "details": "Triggered when the contract has been initialized or reinitialized."
      }
    },
    "kind": "dev",
    "methods": {
      "addLockedPools(uint256,uint256,address)": {
        "details": "Admin only - add new staking pool",
        "params": {
          "stakeToken": "token address use for staking",
          "timelock": "staking lock time in seconds",
          "yieldAPY": "yieldAPY"
        }
      },
      "addSupportYieldTokens(address,address)": {
        "details": "Admin only - add stake and future yield token pair",
        "params": {
          "stakeToken": "address of token used to stake, `address(0)` for ETH",
          "yieldToken": "address of fyETH or fyUSDB token"
        }
      },
      "closePool(uint256)": {
        "details": "Admin only - close staking pools Closed pool will not accept new staking",
        "params": {
          "poolId": "poolId"
        }
      },
      "getGeneratedYield(uint256,uint256)": {
        "details": "get amount of yield token generated by staking position",
        "params": {
          "poolId": "poolId",
          "stakeId": "staking Id"
        }
      },
      "getStakeInfo(uint256,uint256)": {
        "details": "get staking position info",
        "params": {
          "poolId": "poolId",
          "stakeId": "stakeId"
        }
      },
      "getUserStakesIds(uint256,address)": {
        "details": "get user stake ids ",
        "params": {
          "account": "account address",
          "poolId": "poolId"
        }
      },
      "repayWithStakeToken(uint256,uint256)": {
        "details": "repay to unlock position prematurely by staking token the amount of token need to be repay will be: stakeInfo.yieldAmount - yieldGeneratedByStakePosition if repay using ETH, any spares amount will be returned to `msg.sender`",
        "params": {
          "poolId": "pool id",
          "stakeId": "position id"
        }
      },
      "repayWithYieldToken(uint256,uint256)": {
        "details": "repay to unlock position prematurely by future yield token the amount of token need to be repay will be: stakeInfo.yieldAmount - yieldGeneratedByStakePosition",
        "params": {
          "poolId": "pool id",
          "stakeId": "position id"
        }
      },
      "setBlast(address)": {
        "params": {
          "_blast": "blast address"
        }
      },
      "setPoolYield(uint256,uint256)": {
        "details": "Admin only - set pool yield APY",
        "params": {
          "poolId": "poolId",
          "yield": "yieldAPY"
        }
      },
      "setTreasury(address)": {
        "params": {
          "_treasury": "treasury wallet address"
        }
      },
      "setUSDBRebasing(address)": {
        "params": {
          "usdb": "USDB token address"
        }
      },
      "stake(uint256,uint256)": {
        "details": "stake token into an pool with `poolId`",
        "params": {
          "amount": "staking amount",
          "poolId": "poolId"
        }
      },
      "stakeTimes(uint256,address)": {
        "details": "get number of staking times of an account in a pool",
        "params": {
          "account": "account address",
          "poolId": "poolId"
        }
      },
      "unstake(uint256,uint256)": {
        "details": "unstake postion when locked time is passed",
        "params": {
          "poolId": "poolId",
          "stakeId": "stake position id"
        }
      }
    },
    "version": 1
  },
  "userdoc": {
    "kind": "user",
    "methods": {
      "claimNativeYield()": {
        "notice": "Admin claims native yield and send to treasury address"
      },
      "claimUSDBYield()": {
        "notice": "Admin claims native USDB yield and send to treasury address"
      },
      "setBlast(address)": {
        "notice": "set native blast contract"
      },
      "setPoolYield(uint256,uint256)": {
        "notice": "do not change pool APY after user start staking in the pool"
      },
      "setTreasury(address)": {
        "notice": "set treasury address Treasury is the wallet used to receive all native yield"
      },
      "setUSDBRebasing(address)": {
        "notice": "set USDB token address"
      },
      "stake(uint256,uint256)": {
        "notice": "if staking ETH, amount of wei send to contract must be equal to `amount` param"
      }
    },
    "version": 1
  },
  "storageLayout": {
    "storage": [
      {
        "astId": 6,
        "contract": "contracts/LockedStakingPools.sol:LockedStakingPools",
        "label": "_initialized",
        "offset": 0,
        "slot": "0",
        "type": "t_uint8"
      },
      {
        "astId": 9,
        "contract": "contracts/LockedStakingPools.sol:LockedStakingPools",
        "label": "_initializing",
        "offset": 1,
        "slot": "0",
        "type": "t_bool"
      },
      {
        "astId": 1425,
        "contract": "contracts/LockedStakingPools.sol:LockedStakingPools",
        "label": "USDB",
        "offset": 2,
        "slot": "0",
        "type": "t_contract(IERC20Rebasing)3198"
      },
      {
        "astId": 1428,
        "contract": "contracts/LockedStakingPools.sol:LockedStakingPools",
        "label": "blast",
        "offset": 0,
        "slot": "1",
        "type": "t_contract(IBlast)3151"
      },
      {
        "astId": 1431,
        "contract": "contracts/LockedStakingPools.sol:LockedStakingPools",
        "label": "roleControl",
        "offset": 0,
        "slot": "2",
        "type": "t_contract(IRoleControl)3376"
      },
      {
        "astId": 1433,
        "contract": "contracts/LockedStakingPools.sol:LockedStakingPools",
        "label": "treasury",
        "offset": 0,
        "slot": "3",
        "type": "t_address"
      },
      {
        "astId": 1435,
        "contract": "contracts/LockedStakingPools.sol:LockedStakingPools",
        "label": "nextPoolId",
        "offset": 0,
        "slot": "4",
        "type": "t_uint256"
      },
      {
        "astId": 1440,
        "contract": "contracts/LockedStakingPools.sol:LockedStakingPools",
        "label": "poolInfo",
        "offset": 0,
        "slot": "5",
        "type": "t_mapping(t_uint256,t_struct(LockedPoolInfo)3247_storage)"
      },
      {
        "astId": 1447,
        "contract": "contracts/LockedStakingPools.sol:LockedStakingPools",
        "label": "stakeInfo",
        "offset": 0,
        "slot": "6",
        "type": "t_mapping(t_uint256,t_mapping(t_uint256,t_struct(StakingInfo)3260_storage))"
      },
      {
        "astId": 1454,
        "contract": "contracts/LockedStakingPools.sol:LockedStakingPools",
        "label": "userStakeIds",
        "offset": 0,
        "slot": "7",
        "type": "t_mapping(t_uint256,t_mapping(t_address,t_array(t_uint256)dyn_storage))"
      },
      {
        "astId": 1458,
        "contract": "contracts/LockedStakingPools.sol:LockedStakingPools",
        "label": "noUsersStaked",
        "offset": 0,
        "slot": "8",
        "type": "t_mapping(t_uint256,t_uint256)"
      },
      {
        "astId": 1462,
        "contract": "contracts/LockedStakingPools.sol:LockedStakingPools",
        "label": "yieldTokens",
        "offset": 0,
        "slot": "9",
        "type": "t_mapping(t_address,t_address)"
      },
      {
        "astId": 1466,
        "contract": "contracts/LockedStakingPools.sol:LockedStakingPools",
        "label": "tokenTotalStaked",
        "offset": 0,
        "slot": "10",
        "type": "t_mapping(t_address,t_uint256)"
      },
      {
        "astId": 1470,
        "contract": "contracts/LockedStakingPools.sol:LockedStakingPools",
        "label": "accYieldPerStaked",
        "offset": 0,
        "slot": "11",
        "type": "t_mapping(t_address,t_uint256)"
      }
    ],
    "types": {
      "t_address": {
        "encoding": "inplace",
        "label": "address",
        "numberOfBytes": "20"
      },
      "t_array(t_uint256)dyn_storage": {
        "base": "t_uint256",
        "encoding": "dynamic_array",
        "label": "uint256[]",
        "numberOfBytes": "32"
      },
      "t_bool": {
        "encoding": "inplace",
        "label": "bool",
        "numberOfBytes": "1"
      },
      "t_contract(IBlast)3151": {
        "encoding": "inplace",
        "label": "contract IBlast",
        "numberOfBytes": "20"
      },
      "t_contract(IERC20Rebasing)3198": {
        "encoding": "inplace",
        "label": "contract IERC20Rebasing",
        "numberOfBytes": "20"
      },
      "t_contract(IRoleControl)3376": {
        "encoding": "inplace",
        "label": "contract IRoleControl",
        "numberOfBytes": "20"
      },
      "t_mapping(t_address,t_address)": {
        "encoding": "mapping",
        "key": "t_address",
        "label": "mapping(address => address)",
        "numberOfBytes": "32",
        "value": "t_address"
      },
      "t_mapping(t_address,t_array(t_uint256)dyn_storage)": {
        "encoding": "mapping",
        "key": "t_address",
        "label": "mapping(address => uint256[])",
        "numberOfBytes": "32",
        "value": "t_array(t_uint256)dyn_storage"
      },
      "t_mapping(t_address,t_uint256)": {
        "encoding": "mapping",
        "key": "t_address",
        "label": "mapping(address => uint256)",
        "numberOfBytes": "32",
        "value": "t_uint256"
      },
      "t_mapping(t_uint256,t_mapping(t_address,t_array(t_uint256)dyn_storage))": {
        "encoding": "mapping",
        "key": "t_uint256",
        "label": "mapping(uint256 => mapping(address => uint256[]))",
        "numberOfBytes": "32",
        "value": "t_mapping(t_address,t_array(t_uint256)dyn_storage)"
      },
      "t_mapping(t_uint256,t_mapping(t_uint256,t_struct(StakingInfo)3260_storage))": {
        "encoding": "mapping",
        "key": "t_uint256",
        "label": "mapping(uint256 => mapping(uint256 => struct ILockedStaking.StakingInfo))",
        "numberOfBytes": "32",
        "value": "t_mapping(t_uint256,t_struct(StakingInfo)3260_storage)"
      },
      "t_mapping(t_uint256,t_struct(LockedPoolInfo)3247_storage)": {
        "encoding": "mapping",
        "key": "t_uint256",
        "label": "mapping(uint256 => struct ILockedStaking.LockedPoolInfo)",
        "numberOfBytes": "32",
        "value": "t_struct(LockedPoolInfo)3247_storage"
      },
      "t_mapping(t_uint256,t_struct(StakingInfo)3260_storage)": {
        "encoding": "mapping",
        "key": "t_uint256",
        "label": "mapping(uint256 => struct ILockedStaking.StakingInfo)",
        "numberOfBytes": "32",
        "value": "t_struct(StakingInfo)3260_storage"
      },
      "t_mapping(t_uint256,t_uint256)": {
        "encoding": "mapping",
        "key": "t_uint256",
        "label": "mapping(uint256 => uint256)",
        "numberOfBytes": "32",
        "value": "t_uint256"
      },
      "t_struct(LockedPoolInfo)3247_storage": {
        "encoding": "inplace",
        "label": "struct ILockedStaking.LockedPoolInfo",
        "members": [
          {
            "astId": 3234,
            "contract": "contracts/LockedStakingPools.sol:LockedStakingPools",
            "label": "timelock",
            "offset": 0,
            "slot": "0",
            "type": "t_uint256"
          },
          {
            "astId": 3236,
            "contract": "contracts/LockedStakingPools.sol:LockedStakingPools",
            "label": "yieldAPY",
            "offset": 0,
            "slot": "1",
            "type": "t_uint256"
          },
          {
            "astId": 3238,
            "contract": "contracts/LockedStakingPools.sol:LockedStakingPools",
            "label": "yieldToken",
            "offset": 0,
            "slot": "2",
            "type": "t_address"
          },
          {
            "astId": 3240,
            "contract": "contracts/LockedStakingPools.sol:LockedStakingPools",
            "label": "stakeToken",
            "offset": 0,
            "slot": "3",
            "type": "t_address"
          },
          {
            "astId": 3242,
            "contract": "contracts/LockedStakingPools.sol:LockedStakingPools",
            "label": "totalStaked",
            "offset": 0,
            "slot": "4",
            "type": "t_uint256"
          },
          {
            "astId": 3244,
            "contract": "contracts/LockedStakingPools.sol:LockedStakingPools",
            "label": "nextStakeId",
            "offset": 0,
            "slot": "5",
            "type": "t_uint256"
          },
          {
            "astId": 3246,
            "contract": "contracts/LockedStakingPools.sol:LockedStakingPools",
            "label": "enabled",
            "offset": 0,
            "slot": "6",
            "type": "t_bool"
          }
        ],
        "numberOfBytes": "224"
      },
      "t_struct(StakingInfo)3260_storage": {
        "encoding": "inplace",
        "label": "struct ILockedStaking.StakingInfo",
        "members": [
          {
            "astId": 3249,
            "contract": "contracts/LockedStakingPools.sol:LockedStakingPools",
            "label": "user",
            "offset": 0,
            "slot": "0",
            "type": "t_address"
          },
          {
            "astId": 3251,
            "contract": "contracts/LockedStakingPools.sol:LockedStakingPools",
            "label": "amount",
            "offset": 0,
            "slot": "1",
            "type": "t_uint256"
          },
          {
            "astId": 3253,
            "contract": "contracts/LockedStakingPools.sol:LockedStakingPools",
            "label": "stakeTime",
            "offset": 0,
            "slot": "2",
            "type": "t_uint256"
          },
          {
            "astId": 3255,
            "contract": "contracts/LockedStakingPools.sol:LockedStakingPools",
            "label": "unlockTime",
            "offset": 0,
            "slot": "3",
            "type": "t_uint256"
          },
          {
            "astId": 3257,
            "contract": "contracts/LockedStakingPools.sol:LockedStakingPools",
            "label": "yieldAmount",
            "offset": 0,
            "slot": "4",
            "type": "t_uint256"
          },
          {
            "astId": 3259,
            "contract": "contracts/LockedStakingPools.sol:LockedStakingPools",
            "label": "yieldDebt",
            "offset": 0,
            "slot": "5",
            "type": "t_uint256"
          }
        ],
        "numberOfBytes": "192"
      },
      "t_uint256": {
        "encoding": "inplace",
        "label": "uint256",
        "numberOfBytes": "32"
      },
      "t_uint8": {
        "encoding": "inplace",
        "label": "uint8",
        "numberOfBytes": "1"
      }
    }
  }
}