{
  "address": "0xBac78FE62706Ba883Bc075a0F940Ec4D19C3dB7e",
  "abi": [
    {
      "inputs": [],
      "name": "ExceededMaxDuration",
      "type": "error"
    },
    {
      "inputs": [
        {
          "internalType": "uint256",
          "name": "required",
          "type": "uint256"
        }
      ],
      "name": "InsufficientAmount",
      "type": "error"
    },
    {
      "inputs": [],
      "name": "InvalidArguments",
      "type": "error"
    },
    {
      "inputs": [
        {
          "internalType": "uint256",
          "name": "amount",
          "type": "uint256"
        }
      ],
      "name": "InvalidTokenAmounts",
      "type": "error"
    },
    {
      "inputs": [
        {
          "internalType": "uint256",
          "name": "until",
          "type": "uint256"
        }
      ],
      "name": "Locked",
      "type": "error"
    },
    {
      "inputs": [],
      "name": "NoStaking",
      "type": "error"
    },
    {
      "inputs": [
        {
          "internalType": "address",
          "name": "user",
          "type": "address"
        }
      ],
      "name": "NotPoolAdmin",
      "type": "error"
    },
    {
      "inputs": [
        {
          "internalType": "address",
          "name": "user",
          "type": "address"
        }
      ],
      "name": "NotStaker",
      "type": "error"
    },
    {
      "inputs": [
        {
          "internalType": "uint256",
          "name": "id",
          "type": "uint256"
        }
      ],
      "name": "PoolClosed",
      "type": "error"
    },
    {
      "inputs": [
        {
          "internalType": "uint256",
          "name": "id",
          "type": "uint256"
        }
      ],
      "name": "PoolNotExisted",
      "type": "error"
    },
    {
      "inputs": [],
      "name": "TooManyStake",
      "type": "error"
    },
    {
      "anonymous": false,
      "inputs": [
        {
          "indexed": false,
          "internalType": "uint256",
          "name": "poolId",
          "type": "uint256"
        },
        {
          "indexed": false,
          "internalType": "uint256",
          "name": "stakeId",
          "type": "uint256"
        },
        {
          "indexed": false,
          "internalType": "uint256",
          "name": "duration",
          "type": "uint256"
        }
      ],
      "name": "Extend",
      "type": "event"
    },
    {
      "anonymous": false,
      "inputs": [
        {
          "indexed": false,
          "internalType": "uint8",
          "name": "version",
          "type": "uint8"
        }
      ],
      "name": "Initialized",
      "type": "event"
    },
    {
      "anonymous": false,
      "inputs": [
        {
          "indexed": false,
          "internalType": "uint256",
          "name": "id",
          "type": "uint256"
        },
        {
          "indexed": false,
          "internalType": "uint256",
          "name": "timelock",
          "type": "uint256"
        },
        {
          "indexed": false,
          "internalType": "uint256",
          "name": "yieldAPY",
          "type": "uint256"
        },
        {
          "indexed": false,
          "internalType": "address",
          "name": "yieldToken",
          "type": "address"
        },
        {
          "indexed": false,
          "internalType": "address",
          "name": "stakeToken",
          "type": "address"
        }
      ],
      "name": "PoolCreated",
      "type": "event"
    },
    {
      "anonymous": false,
      "inputs": [
        {
          "indexed": false,
          "internalType": "uint256",
          "name": "poolId",
          "type": "uint256"
        },
        {
          "indexed": false,
          "internalType": "uint256",
          "name": "stakeId",
          "type": "uint256"
        },
        {
          "indexed": false,
          "internalType": "address",
          "name": "token",
          "type": "address"
        },
        {
          "indexed": false,
          "internalType": "uint256",
          "name": "totalStaked",
          "type": "uint256"
        },
        {
          "indexed": false,
          "internalType": "uint256",
          "name": "repayAmount",
          "type": "uint256"
        }
      ],
      "name": "Repay",
      "type": "event"
    },
    {
      "anonymous": false,
      "inputs": [
        {
          "indexed": false,
          "internalType": "uint256",
          "name": "poolId",
          "type": "uint256"
        },
        {
          "indexed": false,
          "internalType": "uint256",
          "name": "stakeId",
          "type": "uint256"
        },
        {
          "indexed": false,
          "internalType": "uint256",
          "name": "timelock",
          "type": "uint256"
        },
        {
          "indexed": false,
          "internalType": "uint256",
          "name": "yield",
          "type": "uint256"
        },
        {
          "indexed": false,
          "internalType": "address",
          "name": "yieldToken",
          "type": "address"
        },
        {
          "indexed": false,
          "internalType": "address",
          "name": "stakeToken",
          "type": "address"
        },
        {
          "indexed": false,
          "internalType": "uint256",
          "name": "amount",
          "type": "uint256"
        }
      ],
      "name": "Stake",
      "type": "event"
    },
    {
      "anonymous": false,
      "inputs": [
        {
          "indexed": false,
          "internalType": "uint256",
          "name": "poolId",
          "type": "uint256"
        },
        {
          "indexed": false,
          "internalType": "uint256",
          "name": "stakeId",
          "type": "uint256"
        },
        {
          "indexed": false,
          "internalType": "address",
          "name": "stakeToken",
          "type": "address"
        },
        {
          "indexed": false,
          "internalType": "uint256",
          "name": "totalAmount",
          "type": "uint256"
        }
      ],
      "name": "Unstake",
      "type": "event"
    },
    {
      "inputs": [],
      "name": "POOL_ADMIN_ROLE",
      "outputs": [
        {
          "internalType": "bytes32",
          "name": "",
          "type": "bytes32"
        }
      ],
      "stateMutability": "view",
      "type": "function"
    },
    {
      "inputs": [],
      "name": "USDB",
      "outputs": [
        {
          "internalType": "contract IERC20Rebasing",
          "name": "",
          "type": "address"
        }
      ],
      "stateMutability": "view",
      "type": "function"
    },
    {
      "inputs": [],
      "name": "YIELD_DENOM",
      "outputs": [
        {
          "internalType": "uint256",
          "name": "",
          "type": "uint256"
        }
      ],
      "stateMutability": "view",
      "type": "function"
    },
    {
      "inputs": [
        {
          "internalType": "address",
          "name": "",
          "type": "address"
        }
      ],
      "name": "accYieldPerStaked",
      "outputs": [
        {
          "internalType": "uint256",
          "name": "",
          "type": "uint256"
        }
      ],
      "stateMutability": "view",
      "type": "function"
    },
    {
      "inputs": [
        {
          "internalType": "uint256",
          "name": "timelock",
          "type": "uint256"
        },
        {
          "internalType": "uint256",
          "name": "yieldAPY",
          "type": "uint256"
        },
        {
          "internalType": "address",
          "name": "stakeToken",
          "type": "address"
        }
      ],
      "name": "addLockedPools",
      "outputs": [
        {
          "internalType": "uint256",
          "name": "poolId",
          "type": "uint256"
        }
      ],
      "stateMutability": "nonpayable",
      "type": "function"
    },
    {
      "inputs": [
        {
          "internalType": "address",
          "name": "stakeToken",
          "type": "address"
        },
        {
          "internalType": "address",
          "name": "yieldToken",
          "type": "address"
        }
      ],
      "name": "addSupportYieldTokens",
      "outputs": [],
      "stateMutability": "nonpayable",
      "type": "function"
    },
    {
      "inputs": [],
      "name": "blast",
      "outputs": [
        {
          "internalType": "contract IBlast",
          "name": "",
          "type": "address"
        }
      ],
      "stateMutability": "view",
      "type": "function"
    },
    {
      "inputs": [],
      "name": "claimNativeYield",
      "outputs": [],
      "stateMutability": "nonpayable",
      "type": "function"
    },
    {
      "inputs": [],
      "name": "claimUSDBYield",
      "outputs": [],
      "stateMutability": "nonpayable",
      "type": "function"
    },
    {
      "inputs": [
        {
          "internalType": "uint256",
          "name": "poolId",
          "type": "uint256"
        }
      ],
      "name": "closePool",
      "outputs": [],
      "stateMutability": "nonpayable",
      "type": "function"
    },
    {
      "inputs": [
        {
          "internalType": "uint256",
          "name": "poolId",
          "type": "uint256"
        },
        {
          "internalType": "uint256",
          "name": "stakeId",
          "type": "uint256"
        },
        {
          "internalType": "uint256",
          "name": "extraDuration",
          "type": "uint256"
        }
      ],
      "name": "extendsPosition",
      "outputs": [],
      "stateMutability": "nonpayable",
      "type": "function"
    },
    {
      "inputs": [
        {
          "internalType": "uint256",
          "name": "poolId",
          "type": "uint256"
        },
        {
          "internalType": "uint256",
          "name": "stakeId",
          "type": "uint256"
        }
      ],
      "name": "getGeneratedYield",
      "outputs": [
        {
          "internalType": "uint256",
          "name": "",
          "type": "uint256"
        }
      ],
      "stateMutability": "view",
      "type": "function"
    },
    {
      "inputs": [
        {
          "internalType": "uint256",
          "name": "poolId",
          "type": "uint256"
        },
        {
          "internalType": "uint256",
          "name": "stakeId",
          "type": "uint256"
        }
      ],
      "name": "getStakeInfo",
      "outputs": [
        {
          "components": [
            {
              "internalType": "address",
              "name": "user",
              "type": "address"
            },
            {
              "internalType": "uint256",
              "name": "amount",
              "type": "uint256"
            },
            {
              "internalType": "uint256",
              "name": "stakeTime",
              "type": "uint256"
            },
            {
              "internalType": "uint256",
              "name": "unlockTime",
              "type": "uint256"
            },
            {
              "internalType": "uint256",
              "name": "yieldAmount",
              "type": "uint256"
            },
            {
              "internalType": "uint256",
              "name": "yieldDebt",
              "type": "uint256"
            }
          ],
          "internalType": "struct ILockedStaking.StakingInfo",
          "name": "",
          "type": "tuple"
        }
      ],
      "stateMutability": "view",
      "type": "function"
    },
    {
      "inputs": [
        {
          "internalType": "address",
          "name": "roleControl_",
          "type": "address"
        },
        {
          "internalType": "address",
          "name": "treasury_",
          "type": "address"
        }
      ],
      "name": "init",
      "outputs": [],
      "stateMutability": "nonpayable",
      "type": "function"
    },
    {
      "inputs": [
        {
          "internalType": "uint256",
          "name": "",
          "type": "uint256"
        }
      ],
      "name": "noUsersStaked",
      "outputs": [
        {
          "internalType": "uint256",
          "name": "",
          "type": "uint256"
        }
      ],
      "stateMutability": "view",
      "type": "function"
    },
    {
      "inputs": [
        {
          "internalType": "uint256",
          "name": "",
          "type": "uint256"
        }
      ],
      "name": "poolInfo",
      "outputs": [
        {
          "internalType": "uint256",
          "name": "timelock",
          "type": "uint256"
        },
        {
          "internalType": "uint256",
          "name": "yieldAPY",
          "type": "uint256"
        },
        {
          "internalType": "address",
          "name": "yieldToken",
          "type": "address"
        },
        {
          "internalType": "address",
          "name": "stakeToken",
          "type": "address"
        },
        {
          "internalType": "uint256",
          "name": "totalStaked",
          "type": "uint256"
        },
        {
          "internalType": "uint256",
          "name": "nextStakeId",
          "type": "uint256"
        },
        {
          "internalType": "bool",
          "name": "enabled",
          "type": "bool"
        }
      ],
      "stateMutability": "view",
      "type": "function"
    },
    {
      "inputs": [
        {
          "internalType": "uint256",
          "name": "poolId",
          "type": "uint256"
        },
        {
          "internalType": "uint256",
          "name": "stakeId",
          "type": "uint256"
        }
      ],
      "name": "repayWithStakeToken",
      "outputs": [],
      "stateMutability": "payable",
      "type": "function"
    },
    {
      "inputs": [
        {
          "internalType": "uint256",
          "name": "poolId",
          "type": "uint256"
        },
        {
          "internalType": "uint256",
          "name": "stakeId",
          "type": "uint256"
        }
      ],
      "name": "repayWithYieldToken",
      "outputs": [],
      "stateMutability": "nonpayable",
      "type": "function"
    },
    {
      "inputs": [
        {
          "internalType": "address",
          "name": "_blast",
          "type": "address"
        }
      ],
      "name": "setBlast",
      "outputs": [],
      "stateMutability": "nonpayable",
      "type": "function"
    },
    {
      "inputs": [
        {
          "internalType": "uint256",
          "name": "poolId",
          "type": "uint256"
        },
        {
          "internalType": "uint256",
          "name": "yield",
          "type": "uint256"
        }
      ],
      "name": "setPoolYield",
      "outputs": [],
      "stateMutability": "nonpayable",
      "type": "function"
    },
    {
      "inputs": [
        {
          "internalType": "address",
          "name": "_treasury",
          "type": "address"
        }
      ],
      "name": "setTreasury",
      "outputs": [],
      "stateMutability": "nonpayable",
      "type": "function"
    },
    {
      "inputs": [
        {
          "internalType": "address",
          "name": "usdb",
          "type": "address"
        }
      ],
      "name": "setUSDBRebasing",
      "outputs": [],
      "stateMutability": "nonpayable",
      "type": "function"
    },
    {
      "inputs": [
        {
          "internalType": "uint256",
          "name": "poolId",
          "type": "uint256"
        },
        {
          "internalType": "uint256",
          "name": "amount",
          "type": "uint256"
        }
      ],
      "name": "stake",
      "outputs": [],
      "stateMutability": "payable",
      "type": "function"
    },
    {
      "inputs": [
        {
          "internalType": "uint256",
          "name": "poolId",
          "type": "uint256"
        },
        {
          "internalType": "address",
          "name": "account",
          "type": "address"
        }
      ],
      "name": "stakeTimes",
      "outputs": [
        {
          "internalType": "uint256",
          "name": "",
          "type": "uint256"
        }
      ],
      "stateMutability": "view",
      "type": "function"
    },
    {
      "inputs": [
        {
          "internalType": "address",
          "name": "",
          "type": "address"
        }
      ],
      "name": "tokenTotalStaked",
      "outputs": [
        {
          "internalType": "uint256",
          "name": "",
          "type": "uint256"
        }
      ],
      "stateMutability": "view",
      "type": "function"
    },
    {
      "inputs": [],
      "name": "treasury",
      "outputs": [
        {
          "internalType": "address",
          "name": "",
          "type": "address"
        }
      ],
      "stateMutability": "view",
      "type": "function"
    },
    {
      "inputs": [
        {
          "internalType": "uint256",
          "name": "poolId",
          "type": "uint256"
        },
        {
          "internalType": "uint256",
          "name": "stakeId",
          "type": "uint256"
        }
      ],
      "name": "unstake",
      "outputs": [],
      "stateMutability": "nonpayable",
      "type": "function"
    },
    {
      "inputs": [
        {
          "internalType": "address",
          "name": "",
          "type": "address"
        }
      ],
      "name": "yieldTokens",
      "outputs": [
        {
          "internalType": "address",
          "name": "",
          "type": "address"
        }
      ],
      "stateMutability": "view",
      "type": "function"
    }
  ],
  "transactionHash": "0x5156245ff91159602eac5f152d73ee0c61ab00abd5c99868dc1821969bb03433",
  "args": [],
  "numDeployments": 1,
  "solcInputHash": "cae8cb29bcfa77b569b812f486e7b9c9",
  "bytecode": "0x608060405234801561001057600080fd5b5061560b80620000216000396000f3fe6080604052600436106101b75760003560e01c806394caca16116100ec578063be22e17b1161008a578063d225481311610064578063d225481314610618578063f09a401614610643578063f0f442601461066c578063f7f72a2514610695576101b7565b8063be22e17b14610575578063c6cf7c5f146105b2578063cf85c2fb146105ef576101b7565b8063a2a81aef116100c6578063a2a81aef146104b9578063a4951daf146104f6578063b8f6dba71461050d578063bd7b108a14610538576101b7565b806394caca161461043e5780639a45228f146104675780639e2c8a5b14610490576101b7565b806331a0edec116101595780634302a2f2116101335780634302a2f21461037d57806361d027b3146103ba5780637b0472f0146103e55780637e880fa614610401576101b7565b806331a0edec1461030d57806337bb397e1461033857806337de615f14610354576101b7565b8063175e1a7d11610195578063175e1a7d1461025357806319260c861461027e57806326ea6a8e146102a75780632b3f7d1c146102d0576101b7565b80630dfe85d8146101bc5780630f5baf61146101f95780631526fe2714610210575b600080fd5b3480156101c857600080fd5b506101e360048036038101906101de9190614857565b6106be565b6040516101f09190614893565b60405180910390f35b34801561020557600080fd5b5061020e6106d6565b005b34801561021c57600080fd5b5061023760048036038101906102329190614857565b61089a565b60405161024a979695949392919061490a565b60405180910390f35b34801561025f57600080fd5b50610268610929565b60405161027591906149d8565b60405180910390f35b34801561028a57600080fd5b506102a560048036038101906102a09190614a1f565b61094f565b005b3480156102b357600080fd5b506102ce60048036038101906102c99190614a4c565b610b32565b005b3480156102dc57600080fd5b506102f760048036038101906102f29190614a4c565b611052565b6040516103049190614b25565b60405180910390f35b34801561031957600080fd5b50610322611119565b60405161032f9190614b61565b60405180910390f35b610352600480360381019061034d9190614a4c565b61113f565b005b34801561036057600080fd5b5061037b60048036038101906103769190614857565b61167c565b005b34801561038957600080fd5b506103a4600480360381019061039f9190614a1f565b6117ad565b6040516103b19190614893565b60405180910390f35b3480156103c657600080fd5b506103cf6117c5565b6040516103dc9190614b7c565b60405180910390f35b6103ff60048036038101906103fa9190614a4c565b6117eb565b005b34801561040d57600080fd5b5061042860048036038101906104239190614b97565b611e21565b6040516104359190614893565b60405180910390f35b34801561044a57600080fd5b5061046560048036038101906104609190614bea565b6121e1565b005b34801561047357600080fd5b5061048e60048036038101906104899190614a4c565b6123f7565b005b34801561049c57600080fd5b506104b760048036038101906104b29190614a4c565b6125b6565b005b3480156104c557600080fd5b506104e060048036038101906104db9190614c2a565b612a55565b6040516104ed9190614893565b60405180910390f35b34801561050257600080fd5b5061050b612ab3565b005b34801561051957600080fd5b50610522612d17565b60405161052f9190614c83565b60405180910390f35b34801561054457600080fd5b5061055f600480360381019061055a9190614a4c565b612d3b565b60405161056c9190614893565b60405180910390f35b34801561058157600080fd5b5061059c60048036038101906105979190614a1f565b613013565b6040516105a99190614893565b60405180910390f35b3480156105be57600080fd5b506105d960048036038101906105d49190614a1f565b61302b565b6040516105e69190614b7c565b60405180910390f35b3480156105fb57600080fd5b5061061660048036038101906106119190614a1f565b61305e565b005b34801561062457600080fd5b5061062d613223565b60405161063a9190614893565b60405180910390f35b34801561064f57600080fd5b5061066a60048036038101906106659190614bea565b61322a565b005b34801561067857600080fd5b50610693600480360381019061068e9190614a1f565b6133e4565b005b3480156106a157600080fd5b506106bc60048036038101906106b79190614c9e565b613527565b005b60086020528060005260406000206000915090505481565b600260009054906101000a900473ffffffffffffffffffffffffffffffffffffffff1673ffffffffffffffffffffffffffffffffffffffff166391d148547f24e583e35a20f9ecfc1572e7cb66bcc18ad3cd1650ec40dbf6ad2290e553a9fa336040518363ffffffff1660e01b8152600401610753929190614cf1565b602060405180830381865afa158015610770573d6000803e3d6000fd5b505050506040513d601f19601f820116820180604052508101906107949190614d46565b6107d557336040517f7e652f1e0000000000000000000000000000000000000000000000000000000081526004016107cc9190614b7c565b60405180910390fd5b600160009054906101000a900473ffffffffffffffffffffffffffffffffffffffff1673ffffffffffffffffffffffffffffffffffffffff1663860043b630600360009054906101000a900473ffffffffffffffffffffffffffffffffffffffff166040518363ffffffff1660e01b8152600401610854929190614d73565b6020604051808303816000875af1158015610873573d6000803e3d6000fd5b505050506040513d601f19601f820116820180604052508101906108979190614db1565b50565b60056020528060005260406000206000915090508060000154908060010154908060020160009054906101000a900473ffffffffffffffffffffffffffffffffffffffff16908060030160009054906101000a900473ffffffffffffffffffffffffffffffffffffffff16908060040154908060050154908060060160009054906101000a900460ff16905087565b600160009054906101000a900473ffffffffffffffffffffffffffffffffffffffff1681565b600260009054906101000a900473ffffffffffffffffffffffffffffffffffffffff1673ffffffffffffffffffffffffffffffffffffffff166391d148547f24e583e35a20f9ecfc1572e7cb66bcc18ad3cd1650ec40dbf6ad2290e553a9fa336040518363ffffffff1660e01b81526004016109cc929190614cf1565b602060405180830381865afa1580156109e9573d6000803e3d6000fd5b505050506040513d601f19601f82011682018060405250810190610a0d9190614d46565b610a4e57336040517f7e652f1e000000000000000000000000000000000000000000000000000000008152600401610a459190614b7c565b60405180910390fd5b80600060026101000a81548173ffffffffffffffffffffffffffffffffffffffff021916908373ffffffffffffffffffffffffffffffffffffffff160217905550600060029054906101000a900473ffffffffffffffffffffffffffffffffffffffff1673ffffffffffffffffffffffffffffffffffffffff16631a33757d60026040518263ffffffff1660e01b8152600401610aeb9190614e55565b6020604051808303816000875af1158015610b0a573d6000803e3d6000fd5b505050506040513d601f19601f82011682018060405250810190610b2e9190614db1565b5050565b6000600560008481526020019081526020016000206040518060e001604052908160008201548152602001600182015481526020016002820160009054906101000a900473ffffffffffffffffffffffffffffffffffffffff1673ffffffffffffffffffffffffffffffffffffffff1673ffffffffffffffffffffffffffffffffffffffff1681526020016003820160009054906101000a900473ffffffffffffffffffffffffffffffffffffffff1673ffffffffffffffffffffffffffffffffffffffff1673ffffffffffffffffffffffffffffffffffffffff16815260200160048201548152602001600582015481526020016006820160009054906101000a900460ff16151515158152505090506000816000015103610c8c57826040517feb0d37cc000000000000000000000000000000000000000000000000000000008152600401610c839190614893565b60405180910390fd5b60006006600085815260200190815260200160002060008481526020019081526020016000206040518060c00160405290816000820160009054906101000a900473ffffffffffffffffffffffffffffffffffffffff1673ffffffffffffffffffffffffffffffffffffffff1673ffffffffffffffffffffffffffffffffffffffff1681526020016001820154815260200160028201548152602001600382015481526020016004820154815260200160058201548152505090506000816020015103610d85576040517fbaa8213400000000000000000000000000000000000000000000000000000000815260040160405180910390fd5b3373ffffffffffffffffffffffffffffffffffffffff16816000015173ffffffffffffffffffffffffffffffffffffffff1614610dfd5780600001516040517fbf211949000000000000000000000000000000000000000000000000000000008152600401610df49190614b7c565b60405180910390fd5b610e0a82606001516139a4565b60008160a0015169d3c21bcecceda1000000600b6000866060015173ffffffffffffffffffffffffffffffffffffffff1673ffffffffffffffffffffffffffffffffffffffff168152602001908152602001600020548460200151610e6f9190614e9f565b610e799190614f10565b610e839190614f41565b905060008183608001511115610ea657818360800151610ea39190614f41565b90505b80600560008881526020019081526020016000206004016000828254610ecc9190614f41565b9250508190555080600a6000866060015173ffffffffffffffffffffffffffffffffffffffff1673ffffffffffffffffffffffffffffffffffffffff1681526020019081526020016000206000828254610f269190614f41565b9250508190555060006007600088815260200190815260200160002060003373ffffffffffffffffffffffffffffffffffffffff1673ffffffffffffffffffffffffffffffffffffffff1681526020019081526020016000208054905003610fb4576001600860008881526020019081526020016000206000828254610fac9190614f41565b925050819055505b610fbe8686613a82565b610ff0846040015133600360009054906101000a900473ffffffffffffffffffffffffffffffffffffffff1684613c13565b6110038460600151338560200151613d5e565b7f31623a4b049142fb8415bf5de71a2defe23aa67120cd7b92875f124a6a771bf186868660600151866020015185604051611042959493929190614f75565b60405180910390a1505050505050565b61105a6147d0565b6006600084815260200190815260200160002060008381526020019081526020016000206040518060c00160405290816000820160009054906101000a900473ffffffffffffffffffffffffffffffffffffffff1673ffffffffffffffffffffffffffffffffffffffff1673ffffffffffffffffffffffffffffffffffffffff16815260200160018201548152602001600282015481526020016003820154815260200160048201548152602001600582015481525050905092915050565b600060029054906101000a900473ffffffffffffffffffffffffffffffffffffffff1681565b6000600560008481526020019081526020016000206040518060e001604052908160008201548152602001600182015481526020016002820160009054906101000a900473ffffffffffffffffffffffffffffffffffffffff1673ffffffffffffffffffffffffffffffffffffffff1673ffffffffffffffffffffffffffffffffffffffff1681526020016003820160009054906101000a900473ffffffffffffffffffffffffffffffffffffffff1673ffffffffffffffffffffffffffffffffffffffff1673ffffffffffffffffffffffffffffffffffffffff16815260200160048201548152602001600582015481526020016006820160009054906101000a900460ff1615151515815250509050600081600001510361129957826040517feb0d37cc0000000000000000000000000000000000000000000000000000000081526004016112909190614893565b60405180910390fd5b60006006600085815260200190815260200160002060008481526020019081526020016000206040518060c00160405290816000820160009054906101000a900473ffffffffffffffffffffffffffffffffffffffff1673ffffffffffffffffffffffffffffffffffffffff1673ffffffffffffffffffffffffffffffffffffffff1681526020016001820154815260200160028201548152602001600382015481526020016004820154815260200160058201548152505090506000816020015103611392576040517fbaa8213400000000000000000000000000000000000000000000000000000000815260040160405180910390fd5b61139f82606001516139a4565b60008160a0015169d3c21bcecceda1000000600b6000866060015173ffffffffffffffffffffffffffffffffffffffff1673ffffffffffffffffffffffffffffffffffffffff1681526020019081526020016000205484602001516114049190614e9f565b61140e9190614f10565b6114189190614f41565b90506000818360800151111561143b578183608001516114389190614f41565b90505b600073ffffffffffffffffffffffffffffffffffffffff16846060015173ffffffffffffffffffffffffffffffffffffffff1614801561147a57508034105b156114bc57806040517f77b8dde30000000000000000000000000000000000000000000000000000000081526004016114b39190614893565b60405180910390fd5b82608001518111156114d057826080015190505b806005600088815260200190815260200160002060040160008282546114f69190614f41565b9250508190555080600a6000866060015173ffffffffffffffffffffffffffffffffffffffff1673ffffffffffffffffffffffffffffffffffffffff16815260200190815260200160002060008282546115509190614f41565b9250508190555060006007600088815260200190815260200160002060003373ffffffffffffffffffffffffffffffffffffffff1673ffffffffffffffffffffffffffffffffffffffff16815260200190815260200160002080549050036115de5760016008600088815260200190815260200160002060008282546115d69190614f41565b925050819055505b6115e88686613a82565b61161a846060015133600360009054906101000a900473ffffffffffffffffffffffffffffffffffffffff1684613c13565b61162d8460600151338560200151613d5e565b7f31623a4b049142fb8415bf5de71a2defe23aa67120cd7b92875f124a6a771bf18686866060015186602001518560405161166c959493929190614f75565b60405180910390a1505050505050565b600260009054906101000a900473ffffffffffffffffffffffffffffffffffffffff1673ffffffffffffffffffffffffffffffffffffffff166391d148547f24e583e35a20f9ecfc1572e7cb66bcc18ad3cd1650ec40dbf6ad2290e553a9fa336040518363ffffffff1660e01b81526004016116f9929190614cf1565b602060405180830381865afa158015611716573d6000803e3d6000fd5b505050506040513d601f19601f8201168201806040525081019061173a9190614d46565b61177b57336040517f7e652f1e0000000000000000000000000000000000000000000000000000000081526004016117729190614b7c565b60405180910390fd5b60006005600083815260200190815260200160002060060160006101000a81548160ff02191690831515021790555050565b600a6020528060005260406000206000915090505481565b600360009054906101000a900473ffffffffffffffffffffffffffffffffffffffff1681565b60008103611825576040517f5f6f132c00000000000000000000000000000000000000000000000000000000815260040160405180910390fd5b6000600560008481526020019081526020016000206040518060e001604052908160008201548152602001600182015481526020016002820160009054906101000a900473ffffffffffffffffffffffffffffffffffffffff1673ffffffffffffffffffffffffffffffffffffffff1673ffffffffffffffffffffffffffffffffffffffff1681526020016003820160009054906101000a900473ffffffffffffffffffffffffffffffffffffffff1673ffffffffffffffffffffffffffffffffffffffff1673ffffffffffffffffffffffffffffffffffffffff16815260200160048201548152602001600582015481526020016006820160009054906101000a900460ff16151515158152505090506000816000015114806119515750600015158160c001511515145b1561199357826040517f925a197500000000000000000000000000000000000000000000000000000000815260040161198a9190614893565b60405180910390fd5b6119a081606001516139a4565b60006201518061016d620186a084600001518560200151876119c29190614e9f565b6119cc9190614e9f565b6119d69190614f10565b6119e09190614f10565b6119ea9190614f10565b9050600069d3c21bcecceda1000000600b6000856060015173ffffffffffffffffffffffffffffffffffffffff1673ffffffffffffffffffffffffffffffffffffffff1681526020019081526020016000205485611a489190614e9f565b611a529190614f10565b905060006040518060c001604052803373ffffffffffffffffffffffffffffffffffffffff168152602001868152602001428152602001856000015142611a999190614fc8565b81526020018481526020018381525090506000600560008881526020019081526020016000206005015490506001600560008981526020019081526020016000206005016000828254611aec9190614fc8565b925050819055508160066000898152602001908152602001600020600083815260200190815260200160002060008201518160000160006101000a81548173ffffffffffffffffffffffffffffffffffffffff021916908373ffffffffffffffffffffffffffffffffffffffff1602179055506020820151816001015560408201518160020155606082015181600301556080820151816004015560a0820151816005015590505085600560008981526020019081526020016000206004016000828254611bba9190614fc8565b9250508190555060006007600089815260200190815260200160002060003373ffffffffffffffffffffffffffffffffffffffff1673ffffffffffffffffffffffffffffffffffffffff1681526020019081526020016000208054905003611cd65760646007600089815260200190815260200160002060003373ffffffffffffffffffffffffffffffffffffffff1673ffffffffffffffffffffffffffffffffffffffff168152602001908152602001600020805490501115611caa576040517fea83602800000000000000000000000000000000000000000000000000000000815260040160405180910390fd5b6001600860008981526020019081526020016000206000828254611cce9190614fc8565b925050819055505b6007600088815260200190815260200160002060003373ffffffffffffffffffffffffffffffffffffffff1673ffffffffffffffffffffffffffffffffffffffff16815260200190815260200160002081908060018154018082558091505060019003906000526020600020016000909190919091505585600a6000876060015173ffffffffffffffffffffffffffffffffffffffff1673ffffffffffffffffffffffffffffffffffffffff1681526020019081526020016000206000828254611da09190614fc8565b92505081905550611db685606001513388613e54565b611dc585604001513386613f04565b7f744c88218bcd76ee9dc8a3b547422d17df0ff9b373dbde60d6efec9bf1ce26e387828760000151886020015189604001518a606001518c604051611e109796959493929190614ffc565b60405180910390a150505050505050565b6000600260009054906101000a900473ffffffffffffffffffffffffffffffffffffffff1673ffffffffffffffffffffffffffffffffffffffff166391d148547f24e583e35a20f9ecfc1572e7cb66bcc18ad3cd1650ec40dbf6ad2290e553a9fa336040518363ffffffff1660e01b8152600401611ea0929190614cf1565b602060405180830381865afa158015611ebd573d6000803e3d6000fd5b505050506040513d601f19601f82011682018060405250810190611ee19190614d46565b611f2257336040517f7e652f1e000000000000000000000000000000000000000000000000000000008152600401611f199190614b7c565b60405180910390fd5b6000841480611f315750600083145b15611f68576040517f5f6f132c00000000000000000000000000000000000000000000000000000000815260040160405180910390fd5b6000600960008473ffffffffffffffffffffffffffffffffffffffff1673ffffffffffffffffffffffffffffffffffffffff16815260200190815260200160002060009054906101000a900473ffffffffffffffffffffffffffffffffffffffff169050600073ffffffffffffffffffffffffffffffffffffffff168173ffffffffffffffffffffffffffffffffffffffff1603612032576040517f5f6f132c00000000000000000000000000000000000000000000000000000000815260040160405180910390fd5b60045491506040518060e001604052808681526020018581526020018273ffffffffffffffffffffffffffffffffffffffff1681526020018473ffffffffffffffffffffffffffffffffffffffff16815260200160008152602001600081526020016001151581525060056000848152602001908152602001600020600082015181600001556020820151816001015560408201518160020160006101000a81548173ffffffffffffffffffffffffffffffffffffffff021916908373ffffffffffffffffffffffffffffffffffffffff16021790555060608201518160030160006101000a81548173ffffffffffffffffffffffffffffffffffffffff021916908373ffffffffffffffffffffffffffffffffffffffff1602179055506080820151816004015560a0820151816005015560c08201518160060160006101000a81548160ff0219169083151502179055509050506001826121949190614fc8565b6004819055507faec16eea69e3a8763af09e92376830a1b7d14ea846be92dc9998f419c5f03a1e82868684876040516121d195949392919061506b565b60405180910390a1509392505050565b600260009054906101000a900473ffffffffffffffffffffffffffffffffffffffff1673ffffffffffffffffffffffffffffffffffffffff166391d148547f24e583e35a20f9ecfc1572e7cb66bcc18ad3cd1650ec40dbf6ad2290e553a9fa336040518363ffffffff1660e01b815260040161225e929190614cf1565b602060405180830381865afa15801561227b573d6000803e3d6000fd5b505050506040513d601f19601f8201168201806040525081019061229f9190614d46565b6122e057336040517f7e652f1e0000000000000000000000000000000000000000000000000000000081526004016122d79190614b7c565b60405180910390fd5b600073ffffffffffffffffffffffffffffffffffffffff168273ffffffffffffffffffffffffffffffffffffffff161415801561236b5750600060029054906101000a900473ffffffffffffffffffffffffffffffffffffffff1673ffffffffffffffffffffffffffffffffffffffff168273ffffffffffffffffffffffffffffffffffffffff1614155b1561237557600080fd5b80600960008473ffffffffffffffffffffffffffffffffffffffff1673ffffffffffffffffffffffffffffffffffffffff16815260200190815260200160002060006101000a81548173ffffffffffffffffffffffffffffffffffffffff021916908373ffffffffffffffffffffffffffffffffffffffff1602179055505050565b600260009054906101000a900473ffffffffffffffffffffffffffffffffffffffff1673ffffffffffffffffffffffffffffffffffffffff166391d148547f24e583e35a20f9ecfc1572e7cb66bcc18ad3cd1650ec40dbf6ad2290e553a9fa336040518363ffffffff1660e01b8152600401612474929190614cf1565b602060405180830381865afa158015612491573d6000803e3d6000fd5b505050506040513d601f19601f820116820180604052508101906124b59190614d46565b6124f657336040517f7e652f1e0000000000000000000000000000000000000000000000000000000081526004016124ed9190614b7c565b60405180910390fd5b60008214806125055750600081145b1561253c576040517f5f6f132c00000000000000000000000000000000000000000000000000000000815260040160405180910390fd5b600060056000848152602001908152602001600020600001540361259757816040517feb0d37cc00000000000000000000000000000000000000000000000000000000815260040161258e9190614893565b60405180910390fd5b8060056000848152602001908152602001600020600101819055505050565b6000600560008481526020019081526020016000206040518060e001604052908160008201548152602001600182015481526020016002820160009054906101000a900473ffffffffffffffffffffffffffffffffffffffff1673ffffffffffffffffffffffffffffffffffffffff1673ffffffffffffffffffffffffffffffffffffffff1681526020016003820160009054906101000a900473ffffffffffffffffffffffffffffffffffffffff1673ffffffffffffffffffffffffffffffffffffffff1673ffffffffffffffffffffffffffffffffffffffff16815260200160048201548152602001600582015481526020016006820160009054906101000a900460ff1615151515815250509050600081600001510361271057826040517feb0d37cc0000000000000000000000000000000000000000000000000000000081526004016127079190614893565b60405180910390fd5b61271d81606001516139a4565b60006006600085815260200190815260200160002060008481526020019081526020016000206040518060c00160405290816000820160009054906101000a900473ffffffffffffffffffffffffffffffffffffffff1673ffffffffffffffffffffffffffffffffffffffff1673ffffffffffffffffffffffffffffffffffffffff1681526020016001820154815260200160028201548152602001600382015481526020016004820154815260200160058201548152505090506000816020015103612816576040517fbaa8213400000000000000000000000000000000000000000000000000000000815260040160405180910390fd5b42816060015111156128635780606001516040517f032bc66b00000000000000000000000000000000000000000000000000000000815260040161285a9190614893565b60405180910390fd5b3373ffffffffffffffffffffffffffffffffffffffff16816000015173ffffffffffffffffffffffffffffffffffffffff16146128d757336040517fbf2119490000000000000000000000000000000000000000000000000000000081526004016128ce9190614b7c565b60405180910390fd5b80602001516005600086815260200190815260200160002060040160008282546129019190614f41565b925050819055508060200151600a6000846060015173ffffffffffffffffffffffffffffffffffffffff1673ffffffffffffffffffffffffffffffffffffffff168152602001908152602001600020600082825461295f9190614f41565b925050819055506129708484613a82565b60006007600086815260200190815260200160002060003373ffffffffffffffffffffffffffffffffffffffff1673ffffffffffffffffffffffffffffffffffffffff16815260200190815260200160002080549050036129f75760016008600086815260200190815260200160002060008282546129ef9190614f41565b925050819055505b612a0a8260600151338360200151613d5e565b7fa1a24eca1af5deeccac6dbbfb5446f9520a2f7a5c8c5a8ffc5418937543e62fc848484606001518460200151604051612a4794939291906150be565b60405180910390a150505050565b60006007600084815260200190815260200160002060008373ffffffffffffffffffffffffffffffffffffffff1673ffffffffffffffffffffffffffffffffffffffff16815260200190815260200160002080549050905092915050565b600260009054906101000a900473ffffffffffffffffffffffffffffffffffffffff1673ffffffffffffffffffffffffffffffffffffffff166391d148547f24e583e35a20f9ecfc1572e7cb66bcc18ad3cd1650ec40dbf6ad2290e553a9fa336040518363ffffffff1660e01b8152600401612b30929190614cf1565b602060405180830381865afa158015612b4d573d6000803e3d6000fd5b505050506040513d601f19601f82011682018060405250810190612b719190614d46565b612bb257336040517f7e652f1e000000000000000000000000000000000000000000000000000000008152600401612ba99190614b7c565b60405180910390fd5b60008060029054906101000a900473ffffffffffffffffffffffffffffffffffffffff1673ffffffffffffffffffffffffffffffffffffffff1663e12f3a61306040518263ffffffff1660e01b8152600401612c0e9190614b7c565b602060405180830381865afa158015612c2b573d6000803e3d6000fd5b505050506040513d601f19601f82011682018060405250810190612c4f9190614db1565b9050600060029054906101000a900473ffffffffffffffffffffffffffffffffffffffff1673ffffffffffffffffffffffffffffffffffffffff1663aad3ec96600360009054906101000a900473ffffffffffffffffffffffffffffffffffffffff16836040518363ffffffff1660e01b8152600401612cd0929190615103565b6020604051808303816000875af1158015612cef573d6000803e3d6000fd5b505050506040513d601f19601f82011682018060405250810190612d139190614db1565b5050565b7f24e583e35a20f9ecfc1572e7cb66bcc18ad3cd1650ec40dbf6ad2290e553a9fa81565b6000806006600085815260200190815260200160002060008481526020019081526020016000206040518060c00160405290816000820160009054906101000a900473ffffffffffffffffffffffffffffffffffffffff1673ffffffffffffffffffffffffffffffffffffffff1673ffffffffffffffffffffffffffffffffffffffff1681526020016001820154815260200160028201548152602001600382015481526020016004820154815260200160058201548152505090506000600560008681526020019081526020016000206040518060e001604052908160008201548152602001600182015481526020016002820160009054906101000a900473ffffffffffffffffffffffffffffffffffffffff1673ffffffffffffffffffffffffffffffffffffffff1673ffffffffffffffffffffffffffffffffffffffff1681526020016003820160009054906101000a900473ffffffffffffffffffffffffffffffffffffffff1673ffffffffffffffffffffffffffffffffffffffff1673ffffffffffffffffffffffffffffffffffffffff16815260200160048201548152602001600582015481526020016006820160009054906101000a900460ff16151515158152505090506000612f178260600151613f76565b90506000600b6000846060015173ffffffffffffffffffffffffffffffffffffffff1673ffffffffffffffffffffffffffffffffffffffff168152602001908152602001600020549050600a6000846060015173ffffffffffffffffffffffffffffffffffffffff1673ffffffffffffffffffffffffffffffffffffffff168152602001908152602001600020546a084595161401484a00000083612fbc9190614e9f565b612fc69190614f10565b81612fd19190614fc8565b90508360a0015169d3c21bcecceda1000000828660200151612ff39190614e9f565b612ffd9190614f10565b6130079190614f41565b94505050505092915050565b600b6020528060005260406000206000915090505481565b60096020528060005260406000206000915054906101000a900473ffffffffffffffffffffffffffffffffffffffff1681565b600260009054906101000a900473ffffffffffffffffffffffffffffffffffffffff1673ffffffffffffffffffffffffffffffffffffffff166391d148547f24e583e35a20f9ecfc1572e7cb66bcc18ad3cd1650ec40dbf6ad2290e553a9fa336040518363ffffffff1660e01b81526004016130db929190614cf1565b602060405180830381865afa1580156130f8573d6000803e3d6000fd5b505050506040513d601f19601f8201168201806040525081019061311c9190614d46565b61315d57336040517f7e652f1e0000000000000000000000000000000000000000000000000000000081526004016131549190614b7c565b60405180910390fd5b80600160006101000a81548173ffffffffffffffffffffffffffffffffffffffff021916908373ffffffffffffffffffffffffffffffffffffffff160217905550600160009054906101000a900473ffffffffffffffffffffffffffffffffffffffff1673ffffffffffffffffffffffffffffffffffffffff1663f098767a6040518163ffffffff1660e01b8152600401600060405180830381600087803b15801561320857600080fd5b505af115801561321c573d6000803e3d6000fd5b5050505050565b620186a081565b60008060019054906101000a900460ff1615905080801561325b5750600160008054906101000a900460ff1660ff16105b80613288575061326a30614150565b1580156132875750600160008054906101000a900460ff1660ff16145b5b6132c7576040517f08c379a00000000000000000000000000000000000000000000000000000000081526004016132be906151af565b60405180910390fd5b60016000806101000a81548160ff021916908360ff1602179055508015613304576001600060016101000a81548160ff0219169083151502179055505b82600260006101000a81548173ffffffffffffffffffffffffffffffffffffffff021916908373ffffffffffffffffffffffffffffffffffffffff16021790555081600360006101000a81548173ffffffffffffffffffffffffffffffffffffffff021916908373ffffffffffffffffffffffffffffffffffffffff16021790555080156133df5760008060016101000a81548160ff0219169083151502179055507f7f26b83ff96e1f2b6a682f133852f6798a09c465da95921460cefb384740249860016040516133d69190615217565b60405180910390a15b505050565b600260009054906101000a900473ffffffffffffffffffffffffffffffffffffffff1673ffffffffffffffffffffffffffffffffffffffff166391d148547f24e583e35a20f9ecfc1572e7cb66bcc18ad3cd1650ec40dbf6ad2290e553a9fa336040518363ffffffff1660e01b8152600401613461929190614cf1565b602060405180830381865afa15801561347e573d6000803e3d6000fd5b505050506040513d601f19601f820116820180604052508101906134a29190614d46565b6134e357336040517f7e652f1e0000000000000000000000000000000000000000000000000000000081526004016134da9190614b7c565b60405180910390fd5b80600360006101000a81548173ffffffffffffffffffffffffffffffffffffffff021916908373ffffffffffffffffffffffffffffffffffffffff16021790555050565b6000600560008581526020019081526020016000206040518060e001604052908160008201548152602001600182015481526020016002820160009054906101000a900473ffffffffffffffffffffffffffffffffffffffff1673ffffffffffffffffffffffffffffffffffffffff1673ffffffffffffffffffffffffffffffffffffffff1681526020016003820160009054906101000a900473ffffffffffffffffffffffffffffffffffffffff1673ffffffffffffffffffffffffffffffffffffffff1673ffffffffffffffffffffffffffffffffffffffff16815260200160048201548152602001600582015481526020016006820160009054906101000a900460ff1615151515815250509050600081600001510361368157836040517feb0d37cc0000000000000000000000000000000000000000000000000000000081526004016136789190614893565b60405180910390fd5b61368e81606001516139a4565b6000600660008681526020019081526020016000206000858152602001908152602001600020905060008160010154036136f4576040517fbaa8213400000000000000000000000000000000000000000000000000000000815260040160405180910390fd5b3373ffffffffffffffffffffffffffffffffffffffff168160000160009054906101000a900473ffffffffffffffffffffffffffffffffffffffff1673ffffffffffffffffffffffffffffffffffffffff161461378857336040517fbf21194900000000000000000000000000000000000000000000000000000000815260040161377f9190614b7c565b60405180910390fd5b6000816005015469d3c21bcecceda1000000600b6000866060015173ffffffffffffffffffffffffffffffffffffffff1673ffffffffffffffffffffffffffffffffffffffff1681526020019081526020016000205484600101546137ed9190614e9f565b6137f79190614f10565b6138019190614f41565b9050838260030160008282546138179190614fc8565b925050819055506312cc0300826002015483600301546138379190614f41565b111561386f576040517fd902924300000000000000000000000000000000000000000000000000000000815260040160405180910390fd5b60006201518061016d620186a087876020015187600101546138919190614e9f565b61389b9190614e9f565b6138a59190614f10565b6138af9190614f10565b6138b99190614f10565b9050808360040160008282546138cf9190614fc8565b925050819055508169d3c21bcecceda1000000600b6000876060015173ffffffffffffffffffffffffffffffffffffffff1673ffffffffffffffffffffffffffffffffffffffff1681526020019081526020016000205485600101546139359190614e9f565b61393f9190614f10565b6139499190614f41565b836005018190555061396084604001513383613f04565b7f3480fc0f279df6d05a679eb53cce25283477e940aca754409538b72485edfb2987878760405161399393929190615232565b60405180910390a150505050505050565b6000600a60008373ffffffffffffffffffffffffffffffffffffffff1673ffffffffffffffffffffffffffffffffffffffff16815260200190815260200160002054905060008114613a755760006139fb83613f76565b90508169d3c21bcecceda100000082613a149190614e9f565b613a1e9190614f10565b600b60008573ffffffffffffffffffffffffffffffffffffffff1673ffffffffffffffffffffffffffffffffffffffff1681526020019081526020016000206000828254613a6c9190614fc8565b92505081905550505b613a7e82614173565b5050565b600660008381526020019081526020016000206000828152602001908152602001600020600080820160006101000a81549073ffffffffffffffffffffffffffffffffffffffff021916905560018201600090556002820160009055600382016000905560048201600090556005820160009055505060006007600084815260200190815260200160002060003373ffffffffffffffffffffffffffffffffffffffff1673ffffffffffffffffffffffffffffffffffffffff168152602001908152602001600020905060005b8180549050811015613c0d5782828281548110613b6f57613b6e615269565b5b906000526020600020015403613bfa578160018380549050613b919190614f41565b81548110613ba257613ba1615269565b5b9060005260206000200154828281548110613bc057613bbf615269565b5b906000526020600020018190555081805480613bdf57613bde615298565b5b60019003818190600052602060002001600090559055613c0d565b8080613c05906152c7565b915050613b4f565b50505050565b600073ffffffffffffffffffffffffffffffffffffffff168473ffffffffffffffffffffffffffffffffffffffff1603613d2a5734811115613c8c57806040517f83b9f0ae000000000000000000000000000000000000000000000000000000008152600401613c839190614893565b60405180910390fd5b8173ffffffffffffffffffffffffffffffffffffffff166108fc829081150290604051600060405180830381858888f19350505050158015613cd2573d6000803e3d6000fd5b508273ffffffffffffffffffffffffffffffffffffffff166108fc8234613cf99190614f41565b9081150290604051600060405180830381858888f19350505050158015613d24573d6000803e3d6000fd5b50613d58565b613d578383838773ffffffffffffffffffffffffffffffffffffffff1661442c909392919063ffffffff16565b5b50505050565b600073ffffffffffffffffffffffffffffffffffffffff168373ffffffffffffffffffffffffffffffffffffffff1603613e235780471015613dd757806040517f83b9f0ae000000000000000000000000000000000000000000000000000000008152600401613dce9190614893565b60405180910390fd5b8173ffffffffffffffffffffffffffffffffffffffff166108fc829081150290604051600060405180830381858888f19350505050158015613e1d573d6000803e3d6000fd5b50613e4f565b613e4e82828573ffffffffffffffffffffffffffffffffffffffff166144b59092919063ffffffff16565b5b505050565b600073ffffffffffffffffffffffffffffffffffffffff168373ffffffffffffffffffffffffffffffffffffffff1603613ed157348114613ecc57806040517f83b9f0ae000000000000000000000000000000000000000000000000000000008152600401613ec39190614893565b60405180910390fd5b613eff565b613efe8230838673ffffffffffffffffffffffffffffffffffffffff1661442c909392919063ffffffff16565b5b505050565b8273ffffffffffffffffffffffffffffffffffffffff166340c10f1983836040518363ffffffff1660e01b8152600401613f3f929190615103565b600060405180830381600087803b158015613f5957600080fd5b505af1158015613f6d573d6000803e3d6000fd5b50505050505050565b60008073ffffffffffffffffffffffffffffffffffffffff168273ffffffffffffffffffffffffffffffffffffffff160361404e57600160009054906101000a900473ffffffffffffffffffffffffffffffffffffffff1673ffffffffffffffffffffffffffffffffffffffff1663ec3278e8306040518263ffffffff1660e01b81526004016140069190614b7c565b602060405180830381865afa158015614023573d6000803e3d6000fd5b505050506040513d601f19601f820116820180604052508101906140479190614db1565b905061414b565b600060029054906101000a900473ffffffffffffffffffffffffffffffffffffffff1673ffffffffffffffffffffffffffffffffffffffff168273ffffffffffffffffffffffffffffffffffffffff160361414657600060029054906101000a900473ffffffffffffffffffffffffffffffffffffffff1673ffffffffffffffffffffffffffffffffffffffff1663e12f3a61306040518263ffffffff1660e01b81526004016140fe9190614b7c565b602060405180830381865afa15801561411b573d6000803e3d6000fd5b505050506040513d601f19601f8201168201806040525081019061413f9190614db1565b905061414b565b600090505b919050565b6000808273ffffffffffffffffffffffffffffffffffffffff163b119050919050565b600073ffffffffffffffffffffffffffffffffffffffff168173ffffffffffffffffffffffffffffffffffffffff160361426f57600160009054906101000a900473ffffffffffffffffffffffffffffffffffffffff1673ffffffffffffffffffffffffffffffffffffffff1663860043b630600360009054906101000a900473ffffffffffffffffffffffffffffffffffffffff166040518363ffffffff1660e01b8152600401614226929190614d73565b6020604051808303816000875af1158015614245573d6000803e3d6000fd5b505050506040513d601f19601f820116820180604052508101906142699190614db1565b50614429565b600060029054906101000a900473ffffffffffffffffffffffffffffffffffffffff1673ffffffffffffffffffffffffffffffffffffffff168173ffffffffffffffffffffffffffffffffffffffff16036144285760008060029054906101000a900473ffffffffffffffffffffffffffffffffffffffff1673ffffffffffffffffffffffffffffffffffffffff1663e12f3a61306040518263ffffffff1660e01b81526004016143209190614b7c565b602060405180830381865afa15801561433d573d6000803e3d6000fd5b505050506040513d601f19601f820116820180604052508101906143619190614db1565b9050600060029054906101000a900473ffffffffffffffffffffffffffffffffffffffff1673ffffffffffffffffffffffffffffffffffffffff1663aad3ec96600360009054906101000a900473ffffffffffffffffffffffffffffffffffffffff16836040518363ffffffff1660e01b81526004016143e2929190615103565b6020604051808303816000875af1158015614401573d6000803e3d6000fd5b505050506040513d601f19601f820116820180604052508101906144259190614db1565b50505b5b50565b6144af846323b872dd60e01b85858560405160240161444d9392919061530f565b604051602081830303815290604052907bffffffffffffffffffffffffffffffffffffffffffffffffffffffff19166020820180517bffffffffffffffffffffffffffffffffffffffffffffffffffffffff838183161783525050505061453b565b50505050565b6145368363a9059cbb60e01b84846040516024016144d4929190615103565b604051602081830303815290604052907bffffffffffffffffffffffffffffffffffffffffffffffffffffffff19166020820180517bffffffffffffffffffffffffffffffffffffffffffffffffffffffff838183161783525050505061453b565b505050565b600061459d826040518060400160405280602081526020017f5361666545524332303a206c6f772d6c6576656c2063616c6c206661696c65648152508573ffffffffffffffffffffffffffffffffffffffff166146039092919063ffffffff16565b90506000815114806145bf5750808060200190518101906145be9190614d46565b5b6145fe576040517f08c379a00000000000000000000000000000000000000000000000000000000081526004016145f5906153b8565b60405180910390fd5b505050565b6060614612848460008561461b565b90509392505050565b606082471015614660576040517f08c379a00000000000000000000000000000000000000000000000000000000081526004016146579061544a565b60405180910390fd5b6000808673ffffffffffffffffffffffffffffffffffffffff16858760405161468991906154db565b60006040518083038185875af1925050503d80600081146146c6576040519150601f19603f3d011682016040523d82523d6000602084013e6146cb565b606091505b50915091506146dc878383876146e8565b92505050949350505050565b6060831561474a576000835103614742576147028561475d565b614741576040517f08c379a00000000000000000000000000000000000000000000000000000000081526004016147389061553e565b60405180910390fd5b5b829050614755565b6147548383614780565b5b949350505050565b6000808273ffffffffffffffffffffffffffffffffffffffff163b119050919050565b6000825111156147935781518083602001fd5b806040517f08c379a00000000000000000000000000000000000000000000000000000000081526004016147c791906155b3565b60405180910390fd5b6040518060c00160405280600073ffffffffffffffffffffffffffffffffffffffff16815260200160008152602001600081526020016000815260200160008152602001600081525090565b600080fd5b6000819050919050565b61483481614821565b811461483f57600080fd5b50565b6000813590506148518161482b565b92915050565b60006020828403121561486d5761486c61481c565b5b600061487b84828501614842565b91505092915050565b61488d81614821565b82525050565b60006020820190506148a86000830184614884565b92915050565b600073ffffffffffffffffffffffffffffffffffffffff82169050919050565b60006148d9826148ae565b9050919050565b6148e9816148ce565b82525050565b60008115159050919050565b614904816148ef565b82525050565b600060e08201905061491f600083018a614884565b61492c6020830189614884565b61493960408301886148e0565b61494660608301876148e0565b6149536080830186614884565b61496060a0830185614884565b61496d60c08301846148fb565b98975050505050505050565b6000819050919050565b600061499e614999614994846148ae565b614979565b6148ae565b9050919050565b60006149b082614983565b9050919050565b60006149c2826149a5565b9050919050565b6149d2816149b7565b82525050565b60006020820190506149ed60008301846149c9565b92915050565b6149fc816148ce565b8114614a0757600080fd5b50565b600081359050614a19816149f3565b92915050565b600060208284031215614a3557614a3461481c565b5b6000614a4384828501614a0a565b91505092915050565b60008060408385031215614a6357614a6261481c565b5b6000614a7185828601614842565b9250506020614a8285828601614842565b9150509250929050565b614a95816148ce565b82525050565b614aa481614821565b82525050565b60c082016000820151614ac06000850182614a8c565b506020820151614ad36020850182614a9b565b506040820151614ae66040850182614a9b565b506060820151614af96060850182614a9b565b506080820151614b0c6080850182614a9b565b5060a0820151614b1f60a0850182614a9b565b50505050565b600060c082019050614b3a6000830184614aaa565b92915050565b6000614b4b826149a5565b9050919050565b614b5b81614b40565b82525050565b6000602082019050614b766000830184614b52565b92915050565b6000602082019050614b9160008301846148e0565b92915050565b600080600060608486031215614bb057614baf61481c565b5b6000614bbe86828701614842565b9350506020614bcf86828701614842565b9250506040614be086828701614a0a565b9150509250925092565b60008060408385031215614c0157614c0061481c565b5b6000614c0f85828601614a0a565b9250506020614c2085828601614a0a565b9150509250929050565b60008060408385031215614c4157614c4061481c565b5b6000614c4f85828601614842565b9250506020614c6085828601614a0a565b9150509250929050565b6000819050919050565b614c7d81614c6a565b82525050565b6000602082019050614c986000830184614c74565b92915050565b600080600060608486031215614cb757614cb661481c565b5b6000614cc586828701614842565b9350506020614cd686828701614842565b9250506040614ce786828701614842565b9150509250925092565b6000604082019050614d066000830185614c74565b614d1360208301846148e0565b9392505050565b614d23816148ef565b8114614d2e57600080fd5b50565b600081519050614d4081614d1a565b92915050565b600060208284031215614d5c57614d5b61481c565b5b6000614d6a84828501614d31565b91505092915050565b6000604082019050614d8860008301856148e0565b614d9560208301846148e0565b9392505050565b600081519050614dab8161482b565b92915050565b600060208284031215614dc757614dc661481c565b5b6000614dd584828501614d9c565b91505092915050565b7f4e487b7100000000000000000000000000000000000000000000000000000000600052602160045260246000fd5b60038110614e1e57614e1d614dde565b5b50565b6000819050614e2f82614e0d565b919050565b6000614e3f82614e21565b9050919050565b614e4f81614e34565b82525050565b6000602082019050614e6a6000830184614e46565b92915050565b7f4e487b7100000000000000000000000000000000000000000000000000000000600052601160045260246000fd5b6000614eaa82614821565b9150614eb583614821565b9250828202614ec381614821565b91508282048414831517614eda57614ed9614e70565b5b5092915050565b7f4e487b7100000000000000000000000000000000000000000000000000000000600052601260045260246000fd5b6000614f1b82614821565b9150614f2683614821565b925082614f3657614f35614ee1565b5b828204905092915050565b6000614f4c82614821565b9150614f5783614821565b9250828203905081811115614f6f57614f6e614e70565b5b92915050565b600060a082019050614f8a6000830188614884565b614f976020830187614884565b614fa460408301866148e0565b614fb16060830185614884565b614fbe6080830184614884565b9695505050505050565b6000614fd382614821565b9150614fde83614821565b9250828201905080821115614ff657614ff5614e70565b5b92915050565b600060e082019050615011600083018a614884565b61501e6020830189614884565b61502b6040830188614884565b6150386060830187614884565b61504560808301866148e0565b61505260a08301856148e0565b61505f60c0830184614884565b98975050505050505050565b600060a0820190506150806000830188614884565b61508d6020830187614884565b61509a6040830186614884565b6150a760608301856148e0565b6150b460808301846148e0565b9695505050505050565b60006080820190506150d36000830187614884565b6150e06020830186614884565b6150ed60408301856148e0565b6150fa6060830184614884565b95945050505050565b600060408201905061511860008301856148e0565b6151256020830184614884565b9392505050565b600082825260208201905092915050565b7f496e697469616c697a61626c653a20636f6e747261637420697320616c72656160008201527f647920696e697469616c697a6564000000000000000000000000000000000000602082015250565b6000615199602e8361512c565b91506151a48261513d565b604082019050919050565b600060208201905081810360008301526151c88161518c565b9050919050565b6000819050919050565b600060ff82169050919050565b60006152016151fc6151f7846151cf565b614979565b6151d9565b9050919050565b615211816151e6565b82525050565b600060208201905061522c6000830184615208565b92915050565b60006060820190506152476000830186614884565b6152546020830185614884565b6152616040830184614884565b949350505050565b7f4e487b7100000000000000000000000000000000000000000000000000000000600052603260045260246000fd5b7f4e487b7100000000000000000000000000000000000000000000000000000000600052603160045260246000fd5b60006152d282614821565b91507fffffffffffffffffffffffffffffffffffffffffffffffffffffffffffffffff820361530457615303614e70565b5b600182019050919050565b600060608201905061532460008301866148e0565b61533160208301856148e0565b61533e6040830184614884565b949350505050565b7f5361666545524332303a204552433230206f7065726174696f6e20646964206e60008201527f6f74207375636365656400000000000000000000000000000000000000000000602082015250565b60006153a2602a8361512c565b91506153ad82615346565b604082019050919050565b600060208201905081810360008301526153d181615395565b9050919050565b7f416464726573733a20696e73756666696369656e742062616c616e636520666f60008201527f722063616c6c0000000000000000000000000000000000000000000000000000602082015250565b600061543460268361512c565b915061543f826153d8565b604082019050919050565b6000602082019050818103600083015261546381615427565b9050919050565b600081519050919050565b600081905092915050565b60005b8381101561549e578082015181840152602081019050615483565b60008484015250505050565b60006154b58261546a565b6154bf8185615475565b93506154cf818560208601615480565b80840191505092915050565b60006154e782846154aa565b915081905092915050565b7f416464726573733a2063616c6c20746f206e6f6e2d636f6e7472616374000000600082015250565b6000615528601d8361512c565b9150615533826154f2565b602082019050919050565b600060208201905081810360008301526155578161551b565b9050919050565b600081519050919050565b6000601f19601f8301169050919050565b60006155858261555e565b61558f818561512c565b935061559f818560208601615480565b6155a881615569565b840191505092915050565b600060208201905081810360008301526155cd818461557a565b90509291505056fea2646970667358221220a5d42ff452b21b848638c8200db9dfe8b124a90623c9473c01fa949c579c70f564736f6c63430008140033",
  "devdoc": {
    "details": "Lock staking pool contract",
    "events": {
      "Initialized(uint8)": {
        "details": "Triggered when the contract has been initialized or reinitialized."
      }
    },
    "kind": "dev",
    "methods": {
      "addLockedPools(uint256,uint256,address)": {
        "details": "Admin only - add new staking pool",
        "params": {
          "stakeToken": "token address use for staking",
          "timelock": "staking lock time in seconds",
          "yieldAPY": "yieldAPY"
        }
      },
      "addSupportYieldTokens(address,address)": {
        "details": "Admin only - add stake and future yield token pair",
        "params": {
          "stakeToken": "address of token used to stake, `address(0)` for ETH",
          "yieldToken": "address of fyETH or fyUSDB token"
        }
      },
      "closePool(uint256)": {
        "details": "Admin only - close staking pools Closed pool will not accept new staking",
        "params": {
          "poolId": "poolId"
        }
      },
      "getGeneratedYield(uint256,uint256)": {
        "details": "get amount of yield token generated by staking position",
        "params": {
          "poolId": "poolId",
          "stakeId": "staking Id"
        }
      },
      "getStakeInfo(uint256,uint256)": {
        "details": "get staking position info",
        "params": {
          "poolId": "poolId",
          "stakeId": "stakeId"
        }
      },
      "repayWithStakeToken(uint256,uint256)": {
        "details": "repay to unlock position prematurely by staking token the amount of token need to be repay will be: stakeInfo.yieldAmount - yieldGeneratedByStakePosition if repay using ETH, any spares amount will be returned to `msg.sender`",
        "params": {
          "poolId": "pool id",
          "stakeId": "position id"
        }
      },
      "repayWithYieldToken(uint256,uint256)": {
        "details": "repay to unlock position prematurely by future yield token the amount of token need to be repay will be: stakeInfo.yieldAmount - yieldGeneratedByStakePosition",
        "params": {
          "poolId": "pool id",
          "stakeId": "position id"
        }
      },
      "setBlast(address)": {
        "params": {
          "_blast": "blast address"
        }
      },
      "setPoolYield(uint256,uint256)": {
        "details": "Admin only - set pool yield APY",
        "params": {
          "poolId": "poolId",
          "yield": "yieldAPY"
        }
      },
      "setTreasury(address)": {
        "params": {
          "_treasury": "treasury wallet address"
        }
      },
      "setUSDBRebasing(address)": {
        "params": {
          "usdb": "USDB token address"
        }
      },
      "stake(uint256,uint256)": {
        "details": "stake token into an pool with `poolId`",
        "params": {
          "amount": "staking amount",
          "poolId": "poolId"
        }
      },
      "stakeTimes(uint256,address)": {
        "details": "get number of staking times of an account in a pool",
        "params": {
          "account": "account address",
          "poolId": "poolId"
        }
      },
      "unstake(uint256,uint256)": {
        "details": "unstake postion when locked time is passed",
        "params": {
          "poolId": "poolId",
          "stakeId": "stake position id"
        }
      }
    },
    "version": 1
  },
  "userdoc": {
    "kind": "user",
    "methods": {
      "claimNativeYield()": {
        "notice": "Admin claims native yield and send to treasury address"
      },
      "claimUSDBYield()": {
        "notice": "Admin claims native USDB yield and send to treasury address"
      },
      "setBlast(address)": {
        "notice": "set native blast contract"
      },
      "setPoolYield(uint256,uint256)": {
        "notice": "do not change pool APY after user start staking in the pool"
      },
      "setTreasury(address)": {
        "notice": "set treasury address Treasury is the wallet used to receive all native yield"
      },
      "setUSDBRebasing(address)": {
        "notice": "set USDB token address"
      },
      "stake(uint256,uint256)": {
        "notice": "if staking ETH, amount of wei send to contract must be equal to `amount` param"
      }
    },
    "version": 1
  },
  "storageLayout": {
    "storage": [
      {
        "astId": 720,
        "contract": "contracts/LockedStakingPools.sol:LockedStakingPools",
        "label": "_initialized",
        "offset": 0,
        "slot": "0",
        "type": "t_uint8"
      },
      {
        "astId": 723,
        "contract": "contracts/LockedStakingPools.sol:LockedStakingPools",
        "label": "_initializing",
        "offset": 1,
        "slot": "0",
        "type": "t_bool"
      },
      {
        "astId": 6613,
        "contract": "contracts/LockedStakingPools.sol:LockedStakingPools",
        "label": "USDB",
        "offset": 2,
        "slot": "0",
        "type": "t_contract(IERC20Rebasing)9759"
      },
      {
        "astId": 6616,
        "contract": "contracts/LockedStakingPools.sol:LockedStakingPools",
        "label": "blast",
        "offset": 0,
        "slot": "1",
        "type": "t_contract(IBlast)9712"
      },
      {
        "astId": 6619,
        "contract": "contracts/LockedStakingPools.sol:LockedStakingPools",
        "label": "roleControl",
        "offset": 0,
        "slot": "2",
        "type": "t_contract(IRoleControl)10073"
      },
      {
        "astId": 6621,
        "contract": "contracts/LockedStakingPools.sol:LockedStakingPools",
        "label": "treasury",
        "offset": 0,
        "slot": "3",
        "type": "t_address"
      },
      {
        "astId": 6623,
        "contract": "contracts/LockedStakingPools.sol:LockedStakingPools",
        "label": "nextPoolId",
        "offset": 0,
        "slot": "4",
        "type": "t_uint256"
      },
      {
        "astId": 6628,
        "contract": "contracts/LockedStakingPools.sol:LockedStakingPools",
        "label": "poolInfo",
        "offset": 0,
        "slot": "5",
        "type": "t_mapping(t_uint256,t_struct(LockedPoolInfo)9864_storage)"
      },
      {
        "astId": 6635,
        "contract": "contracts/LockedStakingPools.sol:LockedStakingPools",
        "label": "stakeInfo",
        "offset": 0,
        "slot": "6",
        "type": "t_mapping(t_uint256,t_mapping(t_uint256,t_struct(StakingInfo)9877_storage))"
      },
      {
        "astId": 6642,
        "contract": "contracts/LockedStakingPools.sol:LockedStakingPools",
        "label": "userStakeIds",
        "offset": 0,
        "slot": "7",
        "type": "t_mapping(t_uint256,t_mapping(t_address,t_array(t_uint256)dyn_storage))"
      },
      {
        "astId": 6646,
        "contract": "contracts/LockedStakingPools.sol:LockedStakingPools",
        "label": "noUsersStaked",
        "offset": 0,
        "slot": "8",
        "type": "t_mapping(t_uint256,t_uint256)"
      },
      {
        "astId": 6650,
        "contract": "contracts/LockedStakingPools.sol:LockedStakingPools",
        "label": "yieldTokens",
        "offset": 0,
        "slot": "9",
        "type": "t_mapping(t_address,t_address)"
      },
      {
        "astId": 6654,
        "contract": "contracts/LockedStakingPools.sol:LockedStakingPools",
        "label": "tokenTotalStaked",
        "offset": 0,
        "slot": "10",
        "type": "t_mapping(t_address,t_uint256)"
      },
      {
        "astId": 6658,
        "contract": "contracts/LockedStakingPools.sol:LockedStakingPools",
        "label": "accYieldPerStaked",
        "offset": 0,
        "slot": "11",
        "type": "t_mapping(t_address,t_uint256)"
      }
    ],
    "types": {
      "t_address": {
        "encoding": "inplace",
        "label": "address",
        "numberOfBytes": "20"
      },
      "t_array(t_uint256)dyn_storage": {
        "base": "t_uint256",
        "encoding": "dynamic_array",
        "label": "uint256[]",
        "numberOfBytes": "32"
      },
      "t_bool": {
        "encoding": "inplace",
        "label": "bool",
        "numberOfBytes": "1"
      },
      "t_contract(IBlast)9712": {
        "encoding": "inplace",
        "label": "contract IBlast",
        "numberOfBytes": "20"
      },
      "t_contract(IERC20Rebasing)9759": {
        "encoding": "inplace",
        "label": "contract IERC20Rebasing",
        "numberOfBytes": "20"
      },
      "t_contract(IRoleControl)10073": {
        "encoding": "inplace",
        "label": "contract IRoleControl",
        "numberOfBytes": "20"
      },
      "t_mapping(t_address,t_address)": {
        "encoding": "mapping",
        "key": "t_address",
        "label": "mapping(address => address)",
        "numberOfBytes": "32",
        "value": "t_address"
      },
      "t_mapping(t_address,t_array(t_uint256)dyn_storage)": {
        "encoding": "mapping",
        "key": "t_address",
        "label": "mapping(address => uint256[])",
        "numberOfBytes": "32",
        "value": "t_array(t_uint256)dyn_storage"
      },
      "t_mapping(t_address,t_uint256)": {
        "encoding": "mapping",
        "key": "t_address",
        "label": "mapping(address => uint256)",
        "numberOfBytes": "32",
        "value": "t_uint256"
      },
      "t_mapping(t_uint256,t_mapping(t_address,t_array(t_uint256)dyn_storage))": {
        "encoding": "mapping",
        "key": "t_uint256",
        "label": "mapping(uint256 => mapping(address => uint256[]))",
        "numberOfBytes": "32",
        "value": "t_mapping(t_address,t_array(t_uint256)dyn_storage)"
      },
      "t_mapping(t_uint256,t_mapping(t_uint256,t_struct(StakingInfo)9877_storage))": {
        "encoding": "mapping",
        "key": "t_uint256",
        "label": "mapping(uint256 => mapping(uint256 => struct ILockedStaking.StakingInfo))",
        "numberOfBytes": "32",
        "value": "t_mapping(t_uint256,t_struct(StakingInfo)9877_storage)"
      },
      "t_mapping(t_uint256,t_struct(LockedPoolInfo)9864_storage)": {
        "encoding": "mapping",
        "key": "t_uint256",
        "label": "mapping(uint256 => struct ILockedStaking.LockedPoolInfo)",
        "numberOfBytes": "32",
        "value": "t_struct(LockedPoolInfo)9864_storage"
      },
      "t_mapping(t_uint256,t_struct(StakingInfo)9877_storage)": {
        "encoding": "mapping",
        "key": "t_uint256",
        "label": "mapping(uint256 => struct ILockedStaking.StakingInfo)",
        "numberOfBytes": "32",
        "value": "t_struct(StakingInfo)9877_storage"
      },
      "t_mapping(t_uint256,t_uint256)": {
        "encoding": "mapping",
        "key": "t_uint256",
        "label": "mapping(uint256 => uint256)",
        "numberOfBytes": "32",
        "value": "t_uint256"
      },
      "t_struct(LockedPoolInfo)9864_storage": {
        "encoding": "inplace",
        "label": "struct ILockedStaking.LockedPoolInfo",
        "members": [
          {
            "astId": 9851,
            "contract": "contracts/LockedStakingPools.sol:LockedStakingPools",
            "label": "timelock",
            "offset": 0,
            "slot": "0",
            "type": "t_uint256"
          },
          {
            "astId": 9853,
            "contract": "contracts/LockedStakingPools.sol:LockedStakingPools",
            "label": "yieldAPY",
            "offset": 0,
            "slot": "1",
            "type": "t_uint256"
          },
          {
            "astId": 9855,
            "contract": "contracts/LockedStakingPools.sol:LockedStakingPools",
            "label": "yieldToken",
            "offset": 0,
            "slot": "2",
            "type": "t_address"
          },
          {
            "astId": 9857,
            "contract": "contracts/LockedStakingPools.sol:LockedStakingPools",
            "label": "stakeToken",
            "offset": 0,
            "slot": "3",
            "type": "t_address"
          },
          {
            "astId": 9859,
            "contract": "contracts/LockedStakingPools.sol:LockedStakingPools",
            "label": "totalStaked",
            "offset": 0,
            "slot": "4",
            "type": "t_uint256"
          },
          {
            "astId": 9861,
            "contract": "contracts/LockedStakingPools.sol:LockedStakingPools",
            "label": "nextStakeId",
            "offset": 0,
            "slot": "5",
            "type": "t_uint256"
          },
          {
            "astId": 9863,
            "contract": "contracts/LockedStakingPools.sol:LockedStakingPools",
            "label": "enabled",
            "offset": 0,
            "slot": "6",
            "type": "t_bool"
          }
        ],
        "numberOfBytes": "224"
      },
      "t_struct(StakingInfo)9877_storage": {
        "encoding": "inplace",
        "label": "struct ILockedStaking.StakingInfo",
        "members": [
          {
            "astId": 9866,
            "contract": "contracts/LockedStakingPools.sol:LockedStakingPools",
            "label": "user",
            "offset": 0,
            "slot": "0",
            "type": "t_address"
          },
          {
            "astId": 9868,
            "contract": "contracts/LockedStakingPools.sol:LockedStakingPools",
            "label": "amount",
            "offset": 0,
            "slot": "1",
            "type": "t_uint256"
          },
          {
            "astId": 9870,
            "contract": "contracts/LockedStakingPools.sol:LockedStakingPools",
            "label": "stakeTime",
            "offset": 0,
            "slot": "2",
            "type": "t_uint256"
          },
          {
            "astId": 9872,
            "contract": "contracts/LockedStakingPools.sol:LockedStakingPools",
            "label": "unlockTime",
            "offset": 0,
            "slot": "3",
            "type": "t_uint256"
          },
          {
            "astId": 9874,
            "contract": "contracts/LockedStakingPools.sol:LockedStakingPools",
            "label": "yieldAmount",
            "offset": 0,
            "slot": "4",
            "type": "t_uint256"
          },
          {
            "astId": 9876,
            "contract": "contracts/LockedStakingPools.sol:LockedStakingPools",
            "label": "yieldDebt",
            "offset": 0,
            "slot": "5",
            "type": "t_uint256"
          }
        ],
        "numberOfBytes": "192"
      },
      "t_uint256": {
        "encoding": "inplace",
        "label": "uint256",
        "numberOfBytes": "32"
      },
      "t_uint8": {
        "encoding": "inplace",
        "label": "uint8",
        "numberOfBytes": "1"
      }
    }
  }
}