{
  "address": "0x436F3b3eb6C58f033C555d3E611147Ef15978f86",
  "abi": [
    {
      "inputs": [],
      "stateMutability": "nonpayable",
      "type": "constructor"
    },
    {
      "inputs": [],
      "name": "ExceededMaxDuration",
      "type": "error"
    },
    {
      "inputs": [
        {
          "internalType": "uint256",
          "name": "required",
          "type": "uint256"
        }
      ],
      "name": "InsufficientAmount",
      "type": "error"
    },
    {
      "inputs": [],
      "name": "InvalidArguments",
      "type": "error"
    },
    {
      "inputs": [
        {
          "internalType": "uint256",
          "name": "amount",
          "type": "uint256"
        }
      ],
      "name": "InvalidTokenAmounts",
      "type": "error"
    },
    {
      "inputs": [
        {
          "internalType": "uint256",
          "name": "until",
          "type": "uint256"
        }
      ],
      "name": "Locked",
      "type": "error"
    },
    {
      "inputs": [],
      "name": "NoStaking",
      "type": "error"
    },
    {
      "inputs": [
        {
          "internalType": "address",
          "name": "user",
          "type": "address"
        }
      ],
      "name": "NotPoolAdmin",
      "type": "error"
    },
    {
      "inputs": [
        {
          "internalType": "address",
          "name": "user",
          "type": "address"
        }
      ],
      "name": "NotStaker",
      "type": "error"
    },
    {
      "inputs": [
        {
          "internalType": "uint256",
          "name": "id",
          "type": "uint256"
        }
      ],
      "name": "PoolClosed",
      "type": "error"
    },
    {
      "inputs": [
        {
          "internalType": "uint256",
          "name": "id",
          "type": "uint256"
        }
      ],
      "name": "PoolNotExisted",
      "type": "error"
    },
    {
      "inputs": [],
      "name": "TooManyStake",
      "type": "error"
    },
    {
      "anonymous": false,
      "inputs": [
        {
          "indexed": false,
          "internalType": "uint256",
          "name": "poolId",
          "type": "uint256"
        },
        {
          "indexed": false,
          "internalType": "uint256",
          "name": "stakeId",
          "type": "uint256"
        },
        {
          "indexed": false,
          "internalType": "uint256",
          "name": "duration",
          "type": "uint256"
        }
      ],
      "name": "Extend",
      "type": "event"
    },
    {
      "anonymous": false,
      "inputs": [
        {
          "indexed": false,
          "internalType": "uint8",
          "name": "version",
          "type": "uint8"
        }
      ],
      "name": "Initialized",
      "type": "event"
    },
    {
      "anonymous": false,
      "inputs": [
        {
          "indexed": false,
          "internalType": "uint256",
          "name": "id",
          "type": "uint256"
        },
        {
          "indexed": false,
          "internalType": "uint256",
          "name": "timelock",
          "type": "uint256"
        },
        {
          "indexed": false,
          "internalType": "uint256",
          "name": "yieldAPY",
          "type": "uint256"
        },
        {
          "indexed": false,
          "internalType": "address",
          "name": "yieldToken",
          "type": "address"
        },
        {
          "indexed": false,
          "internalType": "address",
          "name": "stakeToken",
          "type": "address"
        }
      ],
      "name": "PoolCreated",
      "type": "event"
    },
    {
      "anonymous": false,
      "inputs": [
        {
          "indexed": false,
          "internalType": "uint256",
          "name": "poolId",
          "type": "uint256"
        },
        {
          "indexed": false,
          "internalType": "uint256",
          "name": "stakeId",
          "type": "uint256"
        },
        {
          "indexed": false,
          "internalType": "address",
          "name": "token",
          "type": "address"
        },
        {
          "indexed": false,
          "internalType": "uint256",
          "name": "totalStaked",
          "type": "uint256"
        },
        {
          "indexed": false,
          "internalType": "uint256",
          "name": "repayAmount",
          "type": "uint256"
        }
      ],
      "name": "Repay",
      "type": "event"
    },
    {
      "anonymous": false,
      "inputs": [
        {
          "indexed": false,
          "internalType": "uint256",
          "name": "poolId",
          "type": "uint256"
        },
        {
          "indexed": false,
          "internalType": "uint256",
          "name": "stakeId",
          "type": "uint256"
        },
        {
          "indexed": false,
          "internalType": "uint256",
          "name": "timelock",
          "type": "uint256"
        },
        {
          "indexed": false,
          "internalType": "uint256",
          "name": "yield",
          "type": "uint256"
        },
        {
          "indexed": false,
          "internalType": "address",
          "name": "yieldToken",
          "type": "address"
        },
        {
          "indexed": false,
          "internalType": "address",
          "name": "stakeToken",
          "type": "address"
        },
        {
          "indexed": false,
          "internalType": "uint256",
          "name": "amount",
          "type": "uint256"
        }
      ],
      "name": "Stake",
      "type": "event"
    },
    {
      "anonymous": false,
      "inputs": [
        {
          "indexed": false,
          "internalType": "uint256",
          "name": "poolId",
          "type": "uint256"
        },
        {
          "indexed": false,
          "internalType": "uint256",
          "name": "stakeId",
          "type": "uint256"
        },
        {
          "indexed": false,
          "internalType": "address",
          "name": "stakeToken",
          "type": "address"
        },
        {
          "indexed": false,
          "internalType": "uint256",
          "name": "totalAmount",
          "type": "uint256"
        }
      ],
      "name": "Unstake",
      "type": "event"
    },
    {
      "inputs": [],
      "name": "POOL_ADMIN_ROLE",
      "outputs": [
        {
          "internalType": "bytes32",
          "name": "",
          "type": "bytes32"
        }
      ],
      "stateMutability": "view",
      "type": "function"
    },
    {
      "inputs": [],
      "name": "USDB",
      "outputs": [
        {
          "internalType": "contract IERC20Rebasing",
          "name": "",
          "type": "address"
        }
      ],
      "stateMutability": "view",
      "type": "function"
    },
    {
      "inputs": [],
      "name": "YIELD_DENOM",
      "outputs": [
        {
          "internalType": "uint256",
          "name": "",
          "type": "uint256"
        }
      ],
      "stateMutability": "view",
      "type": "function"
    },
    {
      "inputs": [
        {
          "internalType": "address",
          "name": "",
          "type": "address"
        }
      ],
      "name": "accYieldPerStaked",
      "outputs": [
        {
          "internalType": "uint256",
          "name": "",
          "type": "uint256"
        }
      ],
      "stateMutability": "view",
      "type": "function"
    },
    {
      "inputs": [
        {
          "internalType": "uint256",
          "name": "timelock",
          "type": "uint256"
        },
        {
          "internalType": "uint256",
          "name": "yieldAPY",
          "type": "uint256"
        },
        {
          "internalType": "address",
          "name": "stakeToken",
          "type": "address"
        }
      ],
      "name": "addLockedPools",
      "outputs": [
        {
          "internalType": "uint256",
          "name": "poolId",
          "type": "uint256"
        }
      ],
      "stateMutability": "nonpayable",
      "type": "function"
    },
    {
      "inputs": [
        {
          "internalType": "address",
          "name": "stakeToken",
          "type": "address"
        },
        {
          "internalType": "address",
          "name": "yieldToken",
          "type": "address"
        }
      ],
      "name": "addSupportYieldTokens",
      "outputs": [],
      "stateMutability": "nonpayable",
      "type": "function"
    },
    {
      "inputs": [],
      "name": "blast",
      "outputs": [
        {
          "internalType": "contract IBlast",
          "name": "",
          "type": "address"
        }
      ],
      "stateMutability": "view",
      "type": "function"
    },
    {
      "inputs": [],
      "name": "claimNativeYield",
      "outputs": [],
      "stateMutability": "nonpayable",
      "type": "function"
    },
    {
      "inputs": [],
      "name": "claimUSDBYield",
      "outputs": [],
      "stateMutability": "nonpayable",
      "type": "function"
    },
    {
      "inputs": [
        {
          "internalType": "uint256",
          "name": "poolId",
          "type": "uint256"
        }
      ],
      "name": "closePool",
      "outputs": [],
      "stateMutability": "nonpayable",
      "type": "function"
    },
    {
      "inputs": [
        {
          "internalType": "address",
          "name": "operator",
          "type": "address"
        },
        {
          "internalType": "address",
          "name": "blastPointAddress",
          "type": "address"
        }
      ],
      "name": "configurePointsOperator",
      "outputs": [],
      "stateMutability": "nonpayable",
      "type": "function"
    },
    {
      "inputs": [
        {
          "internalType": "uint256",
          "name": "poolId",
          "type": "uint256"
        },
        {
          "internalType": "uint256",
          "name": "stakeId",
          "type": "uint256"
        },
        {
          "internalType": "uint256",
          "name": "extraDuration",
          "type": "uint256"
        }
      ],
      "name": "extendsPosition",
      "outputs": [],
      "stateMutability": "nonpayable",
      "type": "function"
    },
    {
      "inputs": [
        {
          "internalType": "uint256",
          "name": "poolId",
          "type": "uint256"
        },
        {
          "internalType": "uint256",
          "name": "stakeId",
          "type": "uint256"
        }
      ],
      "name": "getGeneratedYield",
      "outputs": [
        {
          "internalType": "uint256",
          "name": "",
          "type": "uint256"
        }
      ],
      "stateMutability": "view",
      "type": "function"
    },
    {
      "inputs": [
        {
          "internalType": "uint256",
          "name": "poolId",
          "type": "uint256"
        },
        {
          "internalType": "uint256",
          "name": "stakeId",
          "type": "uint256"
        }
      ],
      "name": "getStakeInfo",
      "outputs": [
        {
          "components": [
            {
              "internalType": "address",
              "name": "user",
              "type": "address"
            },
            {
              "internalType": "uint256",
              "name": "amount",
              "type": "uint256"
            },
            {
              "internalType": "uint256",
              "name": "stakeTime",
              "type": "uint256"
            },
            {
              "internalType": "uint256",
              "name": "unlockTime",
              "type": "uint256"
            },
            {
              "internalType": "uint256",
              "name": "yieldAmount",
              "type": "uint256"
            },
            {
              "internalType": "uint256",
              "name": "yieldDebt",
              "type": "uint256"
            }
          ],
          "internalType": "struct ILockedStaking.StakingInfo",
          "name": "",
          "type": "tuple"
        }
      ],
      "stateMutability": "view",
      "type": "function"
    },
    {
      "inputs": [
        {
          "internalType": "uint256",
          "name": "poolId",
          "type": "uint256"
        },
        {
          "internalType": "address",
          "name": "account",
          "type": "address"
        },
        {
          "internalType": "uint256",
          "name": "index",
          "type": "uint256"
        }
      ],
      "name": "getUserStakeIdByIndex",
      "outputs": [
        {
          "internalType": "uint256",
          "name": "",
          "type": "uint256"
        }
      ],
      "stateMutability": "view",
      "type": "function"
    },
    {
      "inputs": [
        {
          "internalType": "uint256",
          "name": "poolId",
          "type": "uint256"
        },
        {
          "internalType": "address",
          "name": "account",
          "type": "address"
        }
      ],
      "name": "getUserStakesIds",
      "outputs": [
        {
          "internalType": "uint256[]",
          "name": "",
          "type": "uint256[]"
        }
      ],
      "stateMutability": "view",
      "type": "function"
    },
    {
      "inputs": [
        {
          "internalType": "address",
          "name": "roleControl_",
          "type": "address"
        },
        {
          "internalType": "address",
          "name": "treasury_",
          "type": "address"
        }
      ],
      "name": "init",
      "outputs": [],
      "stateMutability": "nonpayable",
      "type": "function"
    },
    {
      "inputs": [
        {
          "internalType": "uint256",
          "name": "",
          "type": "uint256"
        }
      ],
      "name": "noUsersStaked",
      "outputs": [
        {
          "internalType": "uint256",
          "name": "",
          "type": "uint256"
        }
      ],
      "stateMutability": "view",
      "type": "function"
    },
    {
      "inputs": [
        {
          "internalType": "uint256",
          "name": "",
          "type": "uint256"
        }
      ],
      "name": "poolInfo",
      "outputs": [
        {
          "internalType": "uint256",
          "name": "timelock",
          "type": "uint256"
        },
        {
          "internalType": "uint256",
          "name": "yieldAPY",
          "type": "uint256"
        },
        {
          "internalType": "address",
          "name": "yieldToken",
          "type": "address"
        },
        {
          "internalType": "address",
          "name": "stakeToken",
          "type": "address"
        },
        {
          "internalType": "uint256",
          "name": "totalStaked",
          "type": "uint256"
        },
        {
          "internalType": "uint256",
          "name": "nextStakeId",
          "type": "uint256"
        },
        {
          "internalType": "bool",
          "name": "enabled",
          "type": "bool"
        }
      ],
      "stateMutability": "view",
      "type": "function"
    },
    {
      "inputs": [
        {
          "internalType": "uint256",
          "name": "poolId",
          "type": "uint256"
        },
        {
          "internalType": "uint256",
          "name": "stakeId",
          "type": "uint256"
        }
      ],
      "name": "repayWithStakeToken",
      "outputs": [],
      "stateMutability": "payable",
      "type": "function"
    },
    {
      "inputs": [
        {
          "internalType": "uint256",
          "name": "poolId",
          "type": "uint256"
        },
        {
          "internalType": "uint256",
          "name": "stakeId",
          "type": "uint256"
        }
      ],
      "name": "repayWithYieldToken",
      "outputs": [],
      "stateMutability": "nonpayable",
      "type": "function"
    },
    {
      "inputs": [
        {
          "internalType": "address",
          "name": "_blast",
          "type": "address"
        }
      ],
      "name": "setBlast",
      "outputs": [],
      "stateMutability": "nonpayable",
      "type": "function"
    },
    {
      "inputs": [
        {
          "internalType": "uint256",
          "name": "poolId",
          "type": "uint256"
        },
        {
          "internalType": "uint256",
          "name": "yield",
          "type": "uint256"
        }
      ],
      "name": "setPoolYield",
      "outputs": [],
      "stateMutability": "nonpayable",
      "type": "function"
    },
    {
      "inputs": [
        {
          "internalType": "address",
          "name": "_treasury",
          "type": "address"
        }
      ],
      "name": "setTreasury",
      "outputs": [],
      "stateMutability": "nonpayable",
      "type": "function"
    },
    {
      "inputs": [
        {
          "internalType": "address",
          "name": "usdb",
          "type": "address"
        }
      ],
      "name": "setUSDBRebasing",
      "outputs": [],
      "stateMutability": "nonpayable",
      "type": "function"
    },
    {
      "inputs": [
        {
          "internalType": "uint256",
          "name": "poolId",
          "type": "uint256"
        },
        {
          "internalType": "uint256",
          "name": "amount",
          "type": "uint256"
        }
      ],
      "name": "stake",
      "outputs": [],
      "stateMutability": "payable",
      "type": "function"
    },
    {
      "inputs": [
        {
          "internalType": "uint256",
          "name": "poolId",
          "type": "uint256"
        },
        {
          "internalType": "address",
          "name": "account",
          "type": "address"
        }
      ],
      "name": "stakeTimes",
      "outputs": [
        {
          "internalType": "uint256",
          "name": "",
          "type": "uint256"
        }
      ],
      "stateMutability": "view",
      "type": "function"
    },
    {
      "inputs": [
        {
          "internalType": "address",
          "name": "",
          "type": "address"
        }
      ],
      "name": "tokenTotalStaked",
      "outputs": [
        {
          "internalType": "uint256",
          "name": "",
          "type": "uint256"
        }
      ],
      "stateMutability": "view",
      "type": "function"
    },
    {
      "inputs": [],
      "name": "treasury",
      "outputs": [
        {
          "internalType": "address",
          "name": "",
          "type": "address"
        }
      ],
      "stateMutability": "view",
      "type": "function"
    },
    {
      "inputs": [
        {
          "internalType": "uint256",
          "name": "poolId",
          "type": "uint256"
        },
        {
          "internalType": "uint256",
          "name": "stakeId",
          "type": "uint256"
        }
      ],
      "name": "unstake",
      "outputs": [],
      "stateMutability": "nonpayable",
      "type": "function"
    },
    {
      "inputs": [
        {
          "internalType": "address",
          "name": "",
          "type": "address"
        }
      ],
      "name": "yieldTokens",
      "outputs": [
        {
          "internalType": "address",
          "name": "",
          "type": "address"
        }
      ],
      "stateMutability": "view",
      "type": "function"
    }
  ],
  "transactionHash": "0x0cb2602ed7f61da0f89f8ca1cb86f894529458b8be7baf88178d96cd33a3d36a",
  "args": [],
  "numDeployments": 2,
  "solcInputHash": "9d4dd20077c4bcb2e87f3b7bce2098c9",
  "bytecode": "0x60806040523480156200001157600080fd5b50620000226200002860201b60201c565b620001d2565b600060019054906101000a900460ff16156200007b576040517f08c379a0000000000000000000000000000000000000000000000000000000008152600401620000729062000175565b60405180910390fd5b60ff801660008054906101000a900460ff1660ff1614620000ec5760ff6000806101000a81548160ff021916908360ff1602179055507f7f26b83ff96e1f2b6a682f133852f6798a09c465da95921460cefb384740249860ff604051620000e39190620001b5565b60405180910390a15b565b600082825260208201905092915050565b7f496e697469616c697a61626c653a20636f6e747261637420697320696e69746960008201527f616c697a696e6700000000000000000000000000000000000000000000000000602082015250565b60006200015d602783620000ee565b91506200016a82620000ff565b604082019050919050565b6000602082019050818103600083015262000190816200014e565b9050919050565b600060ff82169050919050565b620001af8162000197565b82525050565b6000602082019050620001cc6000830184620001a4565b92915050565b615a8280620001e26000396000f3fe6080604052600436106101d85760003560e01c80637e880fa611610102578063be22e17b11610095578063ed03cdec11610064578063ed03cdec146106ca578063f09a401614610707578063f0f4426014610730578063f7f72a2514610759576101d8565b8063be22e17b146105fc578063c6cf7c5f14610639578063cf85c2fb14610676578063d22548131461069f576101d8565b8063a2a81aef116100d1578063a2a81aef14610540578063a4951daf1461057d578063b8f6dba714610594578063bd7b108a146105bf576101d8565b80637e880fa61461048857806394caca16146104c55780639a45228f146104ee5780639e2c8a5b14610517576101d8565b806326ea6a8e1161017a57806337de615f1161014957806337de615f146103db5780634302a2f21461040457806361d027b3146104415780637b0472f01461046c576101d8565b806326ea6a8e1461032e5780632b3f7d1c1461035757806331a0edec1461039457806337bb397e146103bf576101d8565b80631526fe27116101b65780631526fe271461026e578063166f3237146102b1578063175e1a7d146102da57806319260c8614610305576101d8565b80630dfe85d8146101dd5780630f5baf611461021a578063125e1c3214610231575b600080fd5b3480156101e957600080fd5b5061020460048036038101906101ff9190614baa565b610782565b6040516102119190614be6565b60405180910390f35b34801561022657600080fd5b5061022f61079a565b005b34801561023d57600080fd5b5061025860048036038101906102539190614c5f565b61095e565b6040516102659190614d5d565b60405180910390f35b34801561027a57600080fd5b5061029560048036038101906102909190614baa565b610a07565b6040516102a89796959493929190614da9565b60405180910390f35b3480156102bd57600080fd5b506102d860048036038101906102d39190614e18565b610a96565b005b3480156102e657600080fd5b506102ef610c04565b6040516102fc9190614eb7565b60405180910390f35b34801561031157600080fd5b5061032c60048036038101906103279190614ed2565b610c2a565b005b34801561033a57600080fd5b5061035560048036038101906103509190614eff565b610e0d565b005b34801561036357600080fd5b5061037e60048036038101906103799190614eff565b61132d565b60405161038b9190614fc9565b60405180910390f35b3480156103a057600080fd5b506103a96113f4565b6040516103b69190615005565b60405180910390f35b6103d960048036038101906103d49190614eff565b61141a565b005b3480156103e757600080fd5b5061040260048036038101906103fd9190614baa565b611957565b005b34801561041057600080fd5b5061042b60048036038101906104269190614ed2565b611a88565b6040516104389190614be6565b60405180910390f35b34801561044d57600080fd5b50610456611aa0565b6040516104639190615020565b60405180910390f35b61048660048036038101906104819190614eff565b611ac6565b005b34801561049457600080fd5b506104af60048036038101906104aa919061503b565b6120fc565b6040516104bc9190614be6565b60405180910390f35b3480156104d157600080fd5b506104ec60048036038101906104e79190614e18565b6124bc565b005b3480156104fa57600080fd5b5061051560048036038101906105109190614eff565b6126d2565b005b34801561052357600080fd5b5061053e60048036038101906105399190614eff565b612891565b005b34801561054c57600080fd5b5061056760048036038101906105629190614c5f565b612d30565b6040516105749190614be6565b60405180910390f35b34801561058957600080fd5b50610592612d8e565b005b3480156105a057600080fd5b506105a9612ff2565b6040516105b691906150a7565b60405180910390f35b3480156105cb57600080fd5b506105e660048036038101906105e19190614eff565b613016565b6040516105f39190614be6565b60405180910390f35b34801561060857600080fd5b50610623600480360381019061061e9190614ed2565b6132ee565b6040516106309190614be6565b60405180910390f35b34801561064557600080fd5b50610660600480360381019061065b9190614ed2565b613306565b60405161066d9190615020565b60405180910390f35b34801561068257600080fd5b5061069d60048036038101906106989190614ed2565b613339565b005b3480156106ab57600080fd5b506106b46134fe565b6040516106c19190614be6565b60405180910390f35b3480156106d657600080fd5b506106f160048036038101906106ec91906150c2565b613505565b6040516106fe9190614be6565b60405180910390f35b34801561071357600080fd5b5061072e60048036038101906107299190614e18565b61357d565b005b34801561073c57600080fd5b5061075760048036038101906107529190614ed2565b613737565b005b34801561076557600080fd5b50610780600480360381019061077b9190615115565b61387a565b005b60086020528060005260406000206000915090505481565b600260009054906101000a900473ffffffffffffffffffffffffffffffffffffffff1673ffffffffffffffffffffffffffffffffffffffff166391d148547f24e583e35a20f9ecfc1572e7cb66bcc18ad3cd1650ec40dbf6ad2290e553a9fa336040518363ffffffff1660e01b8152600401610817929190615168565b602060405180830381865afa158015610834573d6000803e3d6000fd5b505050506040513d601f19601f8201168201806040525081019061085891906151bd565b61089957336040517f7e652f1e0000000000000000000000000000000000000000000000000000000081526004016108909190615020565b60405180910390fd5b600160009054906101000a900473ffffffffffffffffffffffffffffffffffffffff1673ffffffffffffffffffffffffffffffffffffffff1663860043b630600360009054906101000a900473ffffffffffffffffffffffffffffffffffffffff166040518363ffffffff1660e01b81526004016109189291906151ea565b6020604051808303816000875af1158015610937573d6000803e3d6000fd5b505050506040513d601f19601f8201168201806040525081019061095b9190615228565b50565b60606007600084815260200190815260200160002060008373ffffffffffffffffffffffffffffffffffffffff1673ffffffffffffffffffffffffffffffffffffffff1681526020019081526020016000208054806020026020016040519081016040528092919081815260200182805480156109fa57602002820191906000526020600020905b8154815260200190600101908083116109e6575b5050505050905092915050565b60056020528060005260406000206000915090508060000154908060010154908060020160009054906101000a900473ffffffffffffffffffffffffffffffffffffffff16908060030160009054906101000a900473ffffffffffffffffffffffffffffffffffffffff16908060040154908060050154908060060160009054906101000a900460ff16905087565b600260009054906101000a900473ffffffffffffffffffffffffffffffffffffffff1673ffffffffffffffffffffffffffffffffffffffff166391d148547f24e583e35a20f9ecfc1572e7cb66bcc18ad3cd1650ec40dbf6ad2290e553a9fa336040518363ffffffff1660e01b8152600401610b13929190615168565b602060405180830381865afa158015610b30573d6000803e3d6000fd5b505050506040513d601f19601f82011682018060405250810190610b5491906151bd565b610b9557336040517f7e652f1e000000000000000000000000000000000000000000000000000000008152600401610b8c9190615020565b60405180910390fd5b8073ffffffffffffffffffffffffffffffffffffffff166336b91f2b836040518263ffffffff1660e01b8152600401610bce9190615020565b600060405180830381600087803b158015610be857600080fd5b505af1158015610bfc573d6000803e3d6000fd5b505050505050565b600160009054906101000a900473ffffffffffffffffffffffffffffffffffffffff1681565b600260009054906101000a900473ffffffffffffffffffffffffffffffffffffffff1673ffffffffffffffffffffffffffffffffffffffff166391d148547f24e583e35a20f9ecfc1572e7cb66bcc18ad3cd1650ec40dbf6ad2290e553a9fa336040518363ffffffff1660e01b8152600401610ca7929190615168565b602060405180830381865afa158015610cc4573d6000803e3d6000fd5b505050506040513d601f19601f82011682018060405250810190610ce891906151bd565b610d2957336040517f7e652f1e000000000000000000000000000000000000000000000000000000008152600401610d209190615020565b60405180910390fd5b80600060026101000a81548173ffffffffffffffffffffffffffffffffffffffff021916908373ffffffffffffffffffffffffffffffffffffffff160217905550600060029054906101000a900473ffffffffffffffffffffffffffffffffffffffff1673ffffffffffffffffffffffffffffffffffffffff16631a33757d60026040518263ffffffff1660e01b8152600401610dc691906152cc565b6020604051808303816000875af1158015610de5573d6000803e3d6000fd5b505050506040513d601f19601f82011682018060405250810190610e099190615228565b5050565b6000600560008481526020019081526020016000206040518060e001604052908160008201548152602001600182015481526020016002820160009054906101000a900473ffffffffffffffffffffffffffffffffffffffff1673ffffffffffffffffffffffffffffffffffffffff1673ffffffffffffffffffffffffffffffffffffffff1681526020016003820160009054906101000a900473ffffffffffffffffffffffffffffffffffffffff1673ffffffffffffffffffffffffffffffffffffffff1673ffffffffffffffffffffffffffffffffffffffff16815260200160048201548152602001600582015481526020016006820160009054906101000a900460ff16151515158152505090506000816000015103610f6757826040517feb0d37cc000000000000000000000000000000000000000000000000000000008152600401610f5e9190614be6565b60405180910390fd5b60006006600085815260200190815260200160002060008481526020019081526020016000206040518060c00160405290816000820160009054906101000a900473ffffffffffffffffffffffffffffffffffffffff1673ffffffffffffffffffffffffffffffffffffffff1673ffffffffffffffffffffffffffffffffffffffff1681526020016001820154815260200160028201548152602001600382015481526020016004820154815260200160058201548152505090506000816020015103611060576040517fbaa8213400000000000000000000000000000000000000000000000000000000815260040160405180910390fd5b3373ffffffffffffffffffffffffffffffffffffffff16816000015173ffffffffffffffffffffffffffffffffffffffff16146110d85780600001516040517fbf2119490000000000000000000000000000000000000000000000000000000081526004016110cf9190615020565b60405180910390fd5b6110e58260600151613cf7565b60008160a0015169d3c21bcecceda1000000600b6000866060015173ffffffffffffffffffffffffffffffffffffffff1673ffffffffffffffffffffffffffffffffffffffff16815260200190815260200160002054846020015161114a9190615316565b6111549190615387565b61115e91906153b8565b9050600081836080015111156111815781836080015161117e91906153b8565b90505b806005600088815260200190815260200160002060040160008282546111a791906153b8565b9250508190555080600a6000866060015173ffffffffffffffffffffffffffffffffffffffff1673ffffffffffffffffffffffffffffffffffffffff168152602001908152602001600020600082825461120191906153b8565b9250508190555060006007600088815260200190815260200160002060003373ffffffffffffffffffffffffffffffffffffffff1673ffffffffffffffffffffffffffffffffffffffff168152602001908152602001600020805490500361128f57600160086000888152602001908152602001600020600082825461128791906153b8565b925050819055505b6112998686613dd5565b6112cb846040015133600360009054906101000a900473ffffffffffffffffffffffffffffffffffffffff1684613f66565b6112de84606001513385602001516140b1565b7f31623a4b049142fb8415bf5de71a2defe23aa67120cd7b92875f124a6a771bf18686866060015186602001518560405161131d9594939291906153ec565b60405180910390a1505050505050565b611335614b23565b6006600084815260200190815260200160002060008381526020019081526020016000206040518060c00160405290816000820160009054906101000a900473ffffffffffffffffffffffffffffffffffffffff1673ffffffffffffffffffffffffffffffffffffffff1673ffffffffffffffffffffffffffffffffffffffff16815260200160018201548152602001600282015481526020016003820154815260200160048201548152602001600582015481525050905092915050565b600060029054906101000a900473ffffffffffffffffffffffffffffffffffffffff1681565b6000600560008481526020019081526020016000206040518060e001604052908160008201548152602001600182015481526020016002820160009054906101000a900473ffffffffffffffffffffffffffffffffffffffff1673ffffffffffffffffffffffffffffffffffffffff1673ffffffffffffffffffffffffffffffffffffffff1681526020016003820160009054906101000a900473ffffffffffffffffffffffffffffffffffffffff1673ffffffffffffffffffffffffffffffffffffffff1673ffffffffffffffffffffffffffffffffffffffff16815260200160048201548152602001600582015481526020016006820160009054906101000a900460ff1615151515815250509050600081600001510361157457826040517feb0d37cc00000000000000000000000000000000000000000000000000000000815260040161156b9190614be6565b60405180910390fd5b60006006600085815260200190815260200160002060008481526020019081526020016000206040518060c00160405290816000820160009054906101000a900473ffffffffffffffffffffffffffffffffffffffff1673ffffffffffffffffffffffffffffffffffffffff1673ffffffffffffffffffffffffffffffffffffffff168152602001600182015481526020016002820154815260200160038201548152602001600482015481526020016005820154815250509050600081602001510361166d576040517fbaa8213400000000000000000000000000000000000000000000000000000000815260040160405180910390fd5b61167a8260600151613cf7565b60008160a0015169d3c21bcecceda1000000600b6000866060015173ffffffffffffffffffffffffffffffffffffffff1673ffffffffffffffffffffffffffffffffffffffff1681526020019081526020016000205484602001516116df9190615316565b6116e99190615387565b6116f391906153b8565b9050600081836080015111156117165781836080015161171391906153b8565b90505b600073ffffffffffffffffffffffffffffffffffffffff16846060015173ffffffffffffffffffffffffffffffffffffffff1614801561175557508034105b1561179757806040517f77b8dde300000000000000000000000000000000000000000000000000000000815260040161178e9190614be6565b60405180910390fd5b82608001518111156117ab57826080015190505b806005600088815260200190815260200160002060040160008282546117d191906153b8565b9250508190555080600a6000866060015173ffffffffffffffffffffffffffffffffffffffff1673ffffffffffffffffffffffffffffffffffffffff168152602001908152602001600020600082825461182b91906153b8565b9250508190555060006007600088815260200190815260200160002060003373ffffffffffffffffffffffffffffffffffffffff1673ffffffffffffffffffffffffffffffffffffffff16815260200190815260200160002080549050036118b95760016008600088815260200190815260200160002060008282546118b191906153b8565b925050819055505b6118c38686613dd5565b6118f5846060015133600360009054906101000a900473ffffffffffffffffffffffffffffffffffffffff1684613f66565b61190884606001513385602001516140b1565b7f31623a4b049142fb8415bf5de71a2defe23aa67120cd7b92875f124a6a771bf1868686606001518660200151856040516119479594939291906153ec565b60405180910390a1505050505050565b600260009054906101000a900473ffffffffffffffffffffffffffffffffffffffff1673ffffffffffffffffffffffffffffffffffffffff166391d148547f24e583e35a20f9ecfc1572e7cb66bcc18ad3cd1650ec40dbf6ad2290e553a9fa336040518363ffffffff1660e01b81526004016119d4929190615168565b602060405180830381865afa1580156119f1573d6000803e3d6000fd5b505050506040513d601f19601f82011682018060405250810190611a1591906151bd565b611a5657336040517f7e652f1e000000000000000000000000000000000000000000000000000000008152600401611a4d9190615020565b60405180910390fd5b60006005600083815260200190815260200160002060060160006101000a81548160ff02191690831515021790555050565b600a6020528060005260406000206000915090505481565b600360009054906101000a900473ffffffffffffffffffffffffffffffffffffffff1681565b60008103611b00576040517f5f6f132c00000000000000000000000000000000000000000000000000000000815260040160405180910390fd5b60646007600084815260200190815260200160002060003373ffffffffffffffffffffffffffffffffffffffff1673ffffffffffffffffffffffffffffffffffffffff168152602001908152602001600020805490501115611b8e576040517fea83602800000000000000000000000000000000000000000000000000000000815260040160405180910390fd5b6000600560008481526020019081526020016000206040518060e001604052908160008201548152602001600182015481526020016002820160009054906101000a900473ffffffffffffffffffffffffffffffffffffffff1673ffffffffffffffffffffffffffffffffffffffff1673ffffffffffffffffffffffffffffffffffffffff1681526020016003820160009054906101000a900473ffffffffffffffffffffffffffffffffffffffff1673ffffffffffffffffffffffffffffffffffffffff1673ffffffffffffffffffffffffffffffffffffffff16815260200160048201548152602001600582015481526020016006820160009054906101000a900460ff1615151515815250509050600081600001511480611cba5750600015158160c001511515145b15611cfc57826040517f925a1975000000000000000000000000000000000000000000000000000000008152600401611cf39190614be6565b60405180910390fd5b611d098160600151613cf7565b60006201518061016d620186a08460000151856020015187611d2b9190615316565b611d359190615316565b611d3f9190615387565b611d499190615387565b611d539190615387565b9050600069d3c21bcecceda1000000600b6000856060015173ffffffffffffffffffffffffffffffffffffffff1673ffffffffffffffffffffffffffffffffffffffff1681526020019081526020016000205485611db19190615316565b611dbb9190615387565b905060006040518060c001604052803373ffffffffffffffffffffffffffffffffffffffff168152602001868152602001428152602001856000015142611e02919061543f565b81526020018481526020018381525090506000600560008881526020019081526020016000206005015490506001600560008981526020019081526020016000206005016000828254611e55919061543f565b925050819055508160066000898152602001908152602001600020600083815260200190815260200160002060008201518160000160006101000a81548173ffffffffffffffffffffffffffffffffffffffff021916908373ffffffffffffffffffffffffffffffffffffffff1602179055506020820151816001015560408201518160020155606082015181600301556080820151816004015560a0820151816005015590505085600560008981526020019081526020016000206004016000828254611f23919061543f565b9250508190555060006007600089815260200190815260200160002060003373ffffffffffffffffffffffffffffffffffffffff1673ffffffffffffffffffffffffffffffffffffffff1681526020019081526020016000208054905003611fb1576001600860008981526020019081526020016000206000828254611fa9919061543f565b925050819055505b6007600088815260200190815260200160002060003373ffffffffffffffffffffffffffffffffffffffff1673ffffffffffffffffffffffffffffffffffffffff16815260200190815260200160002081908060018154018082558091505060019003906000526020600020016000909190919091505585600a6000876060015173ffffffffffffffffffffffffffffffffffffffff1673ffffffffffffffffffffffffffffffffffffffff168152602001908152602001600020600082825461207b919061543f565b92505081905550612091856060015133886141a7565b6120a085604001513386614257565b7f744c88218bcd76ee9dc8a3b547422d17df0ff9b373dbde60d6efec9bf1ce26e387828760000151886020015189604001518a606001518c6040516120eb9796959493929190615473565b60405180910390a150505050505050565b6000600260009054906101000a900473ffffffffffffffffffffffffffffffffffffffff1673ffffffffffffffffffffffffffffffffffffffff166391d148547f24e583e35a20f9ecfc1572e7cb66bcc18ad3cd1650ec40dbf6ad2290e553a9fa336040518363ffffffff1660e01b815260040161217b929190615168565b602060405180830381865afa158015612198573d6000803e3d6000fd5b505050506040513d601f19601f820116820180604052508101906121bc91906151bd565b6121fd57336040517f7e652f1e0000000000000000000000000000000000000000000000000000000081526004016121f49190615020565b60405180910390fd5b600084148061220c5750600083145b15612243576040517f5f6f132c00000000000000000000000000000000000000000000000000000000815260040160405180910390fd5b6000600960008473ffffffffffffffffffffffffffffffffffffffff1673ffffffffffffffffffffffffffffffffffffffff16815260200190815260200160002060009054906101000a900473ffffffffffffffffffffffffffffffffffffffff169050600073ffffffffffffffffffffffffffffffffffffffff168173ffffffffffffffffffffffffffffffffffffffff160361230d576040517f5f6f132c00000000000000000000000000000000000000000000000000000000815260040160405180910390fd5b60045491506040518060e001604052808681526020018581526020018273ffffffffffffffffffffffffffffffffffffffff1681526020018473ffffffffffffffffffffffffffffffffffffffff16815260200160008152602001600081526020016001151581525060056000848152602001908152602001600020600082015181600001556020820151816001015560408201518160020160006101000a81548173ffffffffffffffffffffffffffffffffffffffff021916908373ffffffffffffffffffffffffffffffffffffffff16021790555060608201518160030160006101000a81548173ffffffffffffffffffffffffffffffffffffffff021916908373ffffffffffffffffffffffffffffffffffffffff1602179055506080820151816004015560a0820151816005015560c08201518160060160006101000a81548160ff02191690831515021790555090505060018261246f919061543f565b6004819055507faec16eea69e3a8763af09e92376830a1b7d14ea846be92dc9998f419c5f03a1e82868684876040516124ac9594939291906154e2565b60405180910390a1509392505050565b600260009054906101000a900473ffffffffffffffffffffffffffffffffffffffff1673ffffffffffffffffffffffffffffffffffffffff166391d148547f24e583e35a20f9ecfc1572e7cb66bcc18ad3cd1650ec40dbf6ad2290e553a9fa336040518363ffffffff1660e01b8152600401612539929190615168565b602060405180830381865afa158015612556573d6000803e3d6000fd5b505050506040513d601f19601f8201168201806040525081019061257a91906151bd565b6125bb57336040517f7e652f1e0000000000000000000000000000000000000000000000000000000081526004016125b29190615020565b60405180910390fd5b600073ffffffffffffffffffffffffffffffffffffffff168273ffffffffffffffffffffffffffffffffffffffff16141580156126465750600060029054906101000a900473ffffffffffffffffffffffffffffffffffffffff1673ffffffffffffffffffffffffffffffffffffffff168273ffffffffffffffffffffffffffffffffffffffff1614155b1561265057600080fd5b80600960008473ffffffffffffffffffffffffffffffffffffffff1673ffffffffffffffffffffffffffffffffffffffff16815260200190815260200160002060006101000a81548173ffffffffffffffffffffffffffffffffffffffff021916908373ffffffffffffffffffffffffffffffffffffffff1602179055505050565b600260009054906101000a900473ffffffffffffffffffffffffffffffffffffffff1673ffffffffffffffffffffffffffffffffffffffff166391d148547f24e583e35a20f9ecfc1572e7cb66bcc18ad3cd1650ec40dbf6ad2290e553a9fa336040518363ffffffff1660e01b815260040161274f929190615168565b602060405180830381865afa15801561276c573d6000803e3d6000fd5b505050506040513d601f19601f8201168201806040525081019061279091906151bd565b6127d157336040517f7e652f1e0000000000000000000000000000000000000000000000000000000081526004016127c89190615020565b60405180910390fd5b60008214806127e05750600081145b15612817576040517f5f6f132c00000000000000000000000000000000000000000000000000000000815260040160405180910390fd5b600060056000848152602001908152602001600020600001540361287257816040517feb0d37cc0000000000000000000000000000000000000000000000000000000081526004016128699190614be6565b60405180910390fd5b8060056000848152602001908152602001600020600101819055505050565b6000600560008481526020019081526020016000206040518060e001604052908160008201548152602001600182015481526020016002820160009054906101000a900473ffffffffffffffffffffffffffffffffffffffff1673ffffffffffffffffffffffffffffffffffffffff1673ffffffffffffffffffffffffffffffffffffffff1681526020016003820160009054906101000a900473ffffffffffffffffffffffffffffffffffffffff1673ffffffffffffffffffffffffffffffffffffffff1673ffffffffffffffffffffffffffffffffffffffff16815260200160048201548152602001600582015481526020016006820160009054906101000a900460ff161515151581525050905060008160000151036129eb57826040517feb0d37cc0000000000000000000000000000000000000000000000000000000081526004016129e29190614be6565b60405180910390fd5b6129f88160600151613cf7565b60006006600085815260200190815260200160002060008481526020019081526020016000206040518060c00160405290816000820160009054906101000a900473ffffffffffffffffffffffffffffffffffffffff1673ffffffffffffffffffffffffffffffffffffffff1673ffffffffffffffffffffffffffffffffffffffff1681526020016001820154815260200160028201548152602001600382015481526020016004820154815260200160058201548152505090506000816020015103612af1576040517fbaa8213400000000000000000000000000000000000000000000000000000000815260040160405180910390fd5b4281606001511115612b3e5780606001516040517f032bc66b000000000000000000000000000000000000000000000000000000008152600401612b359190614be6565b60405180910390fd5b3373ffffffffffffffffffffffffffffffffffffffff16816000015173ffffffffffffffffffffffffffffffffffffffff1614612bb257336040517fbf211949000000000000000000000000000000000000000000000000000000008152600401612ba99190615020565b60405180910390fd5b8060200151600560008681526020019081526020016000206004016000828254612bdc91906153b8565b925050819055508060200151600a6000846060015173ffffffffffffffffffffffffffffffffffffffff1673ffffffffffffffffffffffffffffffffffffffff1681526020019081526020016000206000828254612c3a91906153b8565b92505081905550612c4b8484613dd5565b60006007600086815260200190815260200160002060003373ffffffffffffffffffffffffffffffffffffffff1673ffffffffffffffffffffffffffffffffffffffff1681526020019081526020016000208054905003612cd2576001600860008681526020019081526020016000206000828254612cca91906153b8565b925050819055505b612ce582606001513383602001516140b1565b7fa1a24eca1af5deeccac6dbbfb5446f9520a2f7a5c8c5a8ffc5418937543e62fc848484606001518460200151604051612d229493929190615535565b60405180910390a150505050565b60006007600084815260200190815260200160002060008373ffffffffffffffffffffffffffffffffffffffff1673ffffffffffffffffffffffffffffffffffffffff16815260200190815260200160002080549050905092915050565b600260009054906101000a900473ffffffffffffffffffffffffffffffffffffffff1673ffffffffffffffffffffffffffffffffffffffff166391d148547f24e583e35a20f9ecfc1572e7cb66bcc18ad3cd1650ec40dbf6ad2290e553a9fa336040518363ffffffff1660e01b8152600401612e0b929190615168565b602060405180830381865afa158015612e28573d6000803e3d6000fd5b505050506040513d601f19601f82011682018060405250810190612e4c91906151bd565b612e8d57336040517f7e652f1e000000000000000000000000000000000000000000000000000000008152600401612e849190615020565b60405180910390fd5b60008060029054906101000a900473ffffffffffffffffffffffffffffffffffffffff1673ffffffffffffffffffffffffffffffffffffffff1663e12f3a61306040518263ffffffff1660e01b8152600401612ee99190615020565b602060405180830381865afa158015612f06573d6000803e3d6000fd5b505050506040513d601f19601f82011682018060405250810190612f2a9190615228565b9050600060029054906101000a900473ffffffffffffffffffffffffffffffffffffffff1673ffffffffffffffffffffffffffffffffffffffff1663aad3ec96600360009054906101000a900473ffffffffffffffffffffffffffffffffffffffff16836040518363ffffffff1660e01b8152600401612fab92919061557a565b6020604051808303816000875af1158015612fca573d6000803e3d6000fd5b505050506040513d601f19601f82011682018060405250810190612fee9190615228565b5050565b7f24e583e35a20f9ecfc1572e7cb66bcc18ad3cd1650ec40dbf6ad2290e553a9fa81565b6000806006600085815260200190815260200160002060008481526020019081526020016000206040518060c00160405290816000820160009054906101000a900473ffffffffffffffffffffffffffffffffffffffff1673ffffffffffffffffffffffffffffffffffffffff1673ffffffffffffffffffffffffffffffffffffffff1681526020016001820154815260200160028201548152602001600382015481526020016004820154815260200160058201548152505090506000600560008681526020019081526020016000206040518060e001604052908160008201548152602001600182015481526020016002820160009054906101000a900473ffffffffffffffffffffffffffffffffffffffff1673ffffffffffffffffffffffffffffffffffffffff1673ffffffffffffffffffffffffffffffffffffffff1681526020016003820160009054906101000a900473ffffffffffffffffffffffffffffffffffffffff1673ffffffffffffffffffffffffffffffffffffffff1673ffffffffffffffffffffffffffffffffffffffff16815260200160048201548152602001600582015481526020016006820160009054906101000a900460ff161515151581525050905060006131f282606001516142c9565b90506000600b6000846060015173ffffffffffffffffffffffffffffffffffffffff1673ffffffffffffffffffffffffffffffffffffffff168152602001908152602001600020549050600a6000846060015173ffffffffffffffffffffffffffffffffffffffff1673ffffffffffffffffffffffffffffffffffffffff168152602001908152602001600020546a084595161401484a000000836132979190615316565b6132a19190615387565b816132ac919061543f565b90508360a0015169d3c21bcecceda10000008286602001516132ce9190615316565b6132d89190615387565b6132e291906153b8565b94505050505092915050565b600b6020528060005260406000206000915090505481565b60096020528060005260406000206000915054906101000a900473ffffffffffffffffffffffffffffffffffffffff1681565b600260009054906101000a900473ffffffffffffffffffffffffffffffffffffffff1673ffffffffffffffffffffffffffffffffffffffff166391d148547f24e583e35a20f9ecfc1572e7cb66bcc18ad3cd1650ec40dbf6ad2290e553a9fa336040518363ffffffff1660e01b81526004016133b6929190615168565b602060405180830381865afa1580156133d3573d6000803e3d6000fd5b505050506040513d601f19601f820116820180604052508101906133f791906151bd565b61343857336040517f7e652f1e00000000000000000000000000000000000000000000000000000000815260040161342f9190615020565b60405180910390fd5b80600160006101000a81548173ffffffffffffffffffffffffffffffffffffffff021916908373ffffffffffffffffffffffffffffffffffffffff160217905550600160009054906101000a900473ffffffffffffffffffffffffffffffffffffffff1673ffffffffffffffffffffffffffffffffffffffff1663f098767a6040518163ffffffff1660e01b8152600401600060405180830381600087803b1580156134e357600080fd5b505af11580156134f7573d6000803e3d6000fd5b5050505050565b620186a081565b60006007600085815260200190815260200160002060008473ffffffffffffffffffffffffffffffffffffffff1673ffffffffffffffffffffffffffffffffffffffff1681526020019081526020016000208281548110613569576135686155a3565b5b906000526020600020015490509392505050565b60008060019054906101000a900460ff161590508080156135ae5750600160008054906101000a900460ff1660ff16105b806135db57506135bd306144a3565b1580156135da5750600160008054906101000a900460ff1660ff16145b5b61361a576040517f08c379a000000000000000000000000000000000000000000000000000000000815260040161361190615655565b60405180910390fd5b60016000806101000a81548160ff021916908360ff1602179055508015613657576001600060016101000a81548160ff0219169083151502179055505b82600260006101000a81548173ffffffffffffffffffffffffffffffffffffffff021916908373ffffffffffffffffffffffffffffffffffffffff16021790555081600360006101000a81548173ffffffffffffffffffffffffffffffffffffffff021916908373ffffffffffffffffffffffffffffffffffffffff16021790555080156137325760008060016101000a81548160ff0219169083151502179055507f7f26b83ff96e1f2b6a682f133852f6798a09c465da95921460cefb3847402498600160405161372991906156bd565b60405180910390a15b505050565b600260009054906101000a900473ffffffffffffffffffffffffffffffffffffffff1673ffffffffffffffffffffffffffffffffffffffff166391d148547f24e583e35a20f9ecfc1572e7cb66bcc18ad3cd1650ec40dbf6ad2290e553a9fa336040518363ffffffff1660e01b81526004016137b4929190615168565b602060405180830381865afa1580156137d1573d6000803e3d6000fd5b505050506040513d601f19601f820116820180604052508101906137f591906151bd565b61383657336040517f7e652f1e00000000000000000000000000000000000000000000000000000000815260040161382d9190615020565b60405180910390fd5b80600360006101000a81548173ffffffffffffffffffffffffffffffffffffffff021916908373ffffffffffffffffffffffffffffffffffffffff16021790555050565b6000600560008581526020019081526020016000206040518060e001604052908160008201548152602001600182015481526020016002820160009054906101000a900473ffffffffffffffffffffffffffffffffffffffff1673ffffffffffffffffffffffffffffffffffffffff1673ffffffffffffffffffffffffffffffffffffffff1681526020016003820160009054906101000a900473ffffffffffffffffffffffffffffffffffffffff1673ffffffffffffffffffffffffffffffffffffffff1673ffffffffffffffffffffffffffffffffffffffff16815260200160048201548152602001600582015481526020016006820160009054906101000a900460ff161515151581525050905060008160000151036139d457836040517feb0d37cc0000000000000000000000000000000000000000000000000000000081526004016139cb9190614be6565b60405180910390fd5b6139e18160600151613cf7565b600060066000868152602001908152602001600020600085815260200190815260200160002090506000816001015403613a47576040517fbaa8213400000000000000000000000000000000000000000000000000000000815260040160405180910390fd5b3373ffffffffffffffffffffffffffffffffffffffff168160000160009054906101000a900473ffffffffffffffffffffffffffffffffffffffff1673ffffffffffffffffffffffffffffffffffffffff1614613adb57336040517fbf211949000000000000000000000000000000000000000000000000000000008152600401613ad29190615020565b60405180910390fd5b6000816005015469d3c21bcecceda1000000600b6000866060015173ffffffffffffffffffffffffffffffffffffffff1673ffffffffffffffffffffffffffffffffffffffff168152602001908152602001600020548460010154613b409190615316565b613b4a9190615387565b613b5491906153b8565b905083826003016000828254613b6a919061543f565b925050819055506312cc030082600201548360030154613b8a91906153b8565b1115613bc2576040517fd902924300000000000000000000000000000000000000000000000000000000815260040160405180910390fd5b60006201518061016d620186a08787602001518760010154613be49190615316565b613bee9190615316565b613bf89190615387565b613c029190615387565b613c0c9190615387565b905080836004016000828254613c22919061543f565b925050819055508169d3c21bcecceda1000000600b6000876060015173ffffffffffffffffffffffffffffffffffffffff1673ffffffffffffffffffffffffffffffffffffffff168152602001908152602001600020548560010154613c889190615316565b613c929190615387565b613c9c91906153b8565b8360050181905550613cb384604001513383614257565b7f3480fc0f279df6d05a679eb53cce25283477e940aca754409538b72485edfb29878787604051613ce6939291906156d8565b60405180910390a150505050505050565b6000600a60008373ffffffffffffffffffffffffffffffffffffffff1673ffffffffffffffffffffffffffffffffffffffff16815260200190815260200160002054905060008114613dc8576000613d4e836142c9565b90508169d3c21bcecceda100000082613d679190615316565b613d719190615387565b600b60008573ffffffffffffffffffffffffffffffffffffffff1673ffffffffffffffffffffffffffffffffffffffff1681526020019081526020016000206000828254613dbf919061543f565b92505081905550505b613dd1826144c6565b5050565b600660008381526020019081526020016000206000828152602001908152602001600020600080820160006101000a81549073ffffffffffffffffffffffffffffffffffffffff021916905560018201600090556002820160009055600382016000905560048201600090556005820160009055505060006007600084815260200190815260200160002060003373ffffffffffffffffffffffffffffffffffffffff1673ffffffffffffffffffffffffffffffffffffffff168152602001908152602001600020905060005b8180549050811015613f605782828281548110613ec257613ec16155a3565b5b906000526020600020015403613f4d578160018380549050613ee491906153b8565b81548110613ef557613ef46155a3565b5b9060005260206000200154828281548110613f1357613f126155a3565b5b906000526020600020018190555081805480613f3257613f3161570f565b5b60019003818190600052602060002001600090559055613f60565b8080613f589061573e565b915050613ea2565b50505050565b600073ffffffffffffffffffffffffffffffffffffffff168473ffffffffffffffffffffffffffffffffffffffff160361407d5734811115613fdf57806040517f83b9f0ae000000000000000000000000000000000000000000000000000000008152600401613fd69190614be6565b60405180910390fd5b8173ffffffffffffffffffffffffffffffffffffffff166108fc829081150290604051600060405180830381858888f19350505050158015614025573d6000803e3d6000fd5b508273ffffffffffffffffffffffffffffffffffffffff166108fc823461404c91906153b8565b9081150290604051600060405180830381858888f19350505050158015614077573d6000803e3d6000fd5b506140ab565b6140aa8383838773ffffffffffffffffffffffffffffffffffffffff1661477f909392919063ffffffff16565b5b50505050565b600073ffffffffffffffffffffffffffffffffffffffff168373ffffffffffffffffffffffffffffffffffffffff1603614176578047101561412a57806040517f83b9f0ae0000000000000000000000000000000000000000000000000000000081526004016141219190614be6565b60405180910390fd5b8173ffffffffffffffffffffffffffffffffffffffff166108fc829081150290604051600060405180830381858888f19350505050158015614170573d6000803e3d6000fd5b506141a2565b6141a182828573ffffffffffffffffffffffffffffffffffffffff166148089092919063ffffffff16565b5b505050565b600073ffffffffffffffffffffffffffffffffffffffff168373ffffffffffffffffffffffffffffffffffffffff16036142245734811461421f57806040517f83b9f0ae0000000000000000000000000000000000000000000000000000000081526004016142169190614be6565b60405180910390fd5b614252565b6142518230838673ffffffffffffffffffffffffffffffffffffffff1661477f909392919063ffffffff16565b5b505050565b8273ffffffffffffffffffffffffffffffffffffffff166340c10f1983836040518363ffffffff1660e01b815260040161429292919061557a565b600060405180830381600087803b1580156142ac57600080fd5b505af11580156142c0573d6000803e3d6000fd5b50505050505050565b60008073ffffffffffffffffffffffffffffffffffffffff168273ffffffffffffffffffffffffffffffffffffffff16036143a157600160009054906101000a900473ffffffffffffffffffffffffffffffffffffffff1673ffffffffffffffffffffffffffffffffffffffff1663ec3278e8306040518263ffffffff1660e01b81526004016143599190615020565b602060405180830381865afa158015614376573d6000803e3d6000fd5b505050506040513d601f19601f8201168201806040525081019061439a9190615228565b905061449e565b600060029054906101000a900473ffffffffffffffffffffffffffffffffffffffff1673ffffffffffffffffffffffffffffffffffffffff168273ffffffffffffffffffffffffffffffffffffffff160361449957600060029054906101000a900473ffffffffffffffffffffffffffffffffffffffff1673ffffffffffffffffffffffffffffffffffffffff1663e12f3a61306040518263ffffffff1660e01b81526004016144519190615020565b602060405180830381865afa15801561446e573d6000803e3d6000fd5b505050506040513d601f19601f820116820180604052508101906144929190615228565b905061449e565b600090505b919050565b6000808273ffffffffffffffffffffffffffffffffffffffff163b119050919050565b600073ffffffffffffffffffffffffffffffffffffffff168173ffffffffffffffffffffffffffffffffffffffff16036145c257600160009054906101000a900473ffffffffffffffffffffffffffffffffffffffff1673ffffffffffffffffffffffffffffffffffffffff1663860043b630600360009054906101000a900473ffffffffffffffffffffffffffffffffffffffff166040518363ffffffff1660e01b81526004016145799291906151ea565b6020604051808303816000875af1158015614598573d6000803e3d6000fd5b505050506040513d601f19601f820116820180604052508101906145bc9190615228565b5061477c565b600060029054906101000a900473ffffffffffffffffffffffffffffffffffffffff1673ffffffffffffffffffffffffffffffffffffffff168173ffffffffffffffffffffffffffffffffffffffff160361477b5760008060029054906101000a900473ffffffffffffffffffffffffffffffffffffffff1673ffffffffffffffffffffffffffffffffffffffff1663e12f3a61306040518263ffffffff1660e01b81526004016146739190615020565b602060405180830381865afa158015614690573d6000803e3d6000fd5b505050506040513d601f19601f820116820180604052508101906146b49190615228565b9050600060029054906101000a900473ffffffffffffffffffffffffffffffffffffffff1673ffffffffffffffffffffffffffffffffffffffff1663aad3ec96600360009054906101000a900473ffffffffffffffffffffffffffffffffffffffff16836040518363ffffffff1660e01b815260040161473592919061557a565b6020604051808303816000875af1158015614754573d6000803e3d6000fd5b505050506040513d601f19601f820116820180604052508101906147789190615228565b50505b5b50565b614802846323b872dd60e01b8585856040516024016147a093929190615786565b604051602081830303815290604052907bffffffffffffffffffffffffffffffffffffffffffffffffffffffff19166020820180517bffffffffffffffffffffffffffffffffffffffffffffffffffffffff838183161783525050505061488e565b50505050565b6148898363a9059cbb60e01b848460405160240161482792919061557a565b604051602081830303815290604052907bffffffffffffffffffffffffffffffffffffffffffffffffffffffff19166020820180517bffffffffffffffffffffffffffffffffffffffffffffffffffffffff838183161783525050505061488e565b505050565b60006148f0826040518060400160405280602081526020017f5361666545524332303a206c6f772d6c6576656c2063616c6c206661696c65648152508573ffffffffffffffffffffffffffffffffffffffff166149569092919063ffffffff16565b905060008151148061491257508080602001905181019061491191906151bd565b5b614951576040517f08c379a00000000000000000000000000000000000000000000000000000000081526004016149489061582f565b60405180910390fd5b505050565b6060614965848460008561496e565b90509392505050565b6060824710156149b3576040517f08c379a00000000000000000000000000000000000000000000000000000000081526004016149aa906158c1565b60405180910390fd5b6000808673ffffffffffffffffffffffffffffffffffffffff1685876040516149dc9190615952565b60006040518083038185875af1925050503d8060008114614a19576040519150601f19603f3d011682016040523d82523d6000602084013e614a1e565b606091505b5091509150614a2f87838387614a3b565b92505050949350505050565b60608315614a9d576000835103614a9557614a5585614ab0565b614a94576040517f08c379a0000000000000000000000000000000000000000000000000000000008152600401614a8b906159b5565b60405180910390fd5b5b829050614aa8565b614aa78383614ad3565b5b949350505050565b6000808273ffffffffffffffffffffffffffffffffffffffff163b119050919050565b600082511115614ae65781518083602001fd5b806040517f08c379a0000000000000000000000000000000000000000000000000000000008152600401614b1a9190615a2a565b60405180910390fd5b6040518060c00160405280600073ffffffffffffffffffffffffffffffffffffffff16815260200160008152602001600081526020016000815260200160008152602001600081525090565b600080fd5b6000819050919050565b614b8781614b74565b8114614b9257600080fd5b50565b600081359050614ba481614b7e565b92915050565b600060208284031215614bc057614bbf614b6f565b5b6000614bce84828501614b95565b91505092915050565b614be081614b74565b82525050565b6000602082019050614bfb6000830184614bd7565b92915050565b600073ffffffffffffffffffffffffffffffffffffffff82169050919050565b6000614c2c82614c01565b9050919050565b614c3c81614c21565b8114614c4757600080fd5b50565b600081359050614c5981614c33565b92915050565b60008060408385031215614c7657614c75614b6f565b5b6000614c8485828601614b95565b9250506020614c9585828601614c4a565b9150509250929050565b600081519050919050565b600082825260208201905092915050565b6000819050602082019050919050565b614cd481614b74565b82525050565b6000614ce68383614ccb565b60208301905092915050565b6000602082019050919050565b6000614d0a82614c9f565b614d148185614caa565b9350614d1f83614cbb565b8060005b83811015614d50578151614d378882614cda565b9750614d4283614cf2565b925050600181019050614d23565b5085935050505092915050565b60006020820190508181036000830152614d778184614cff565b905092915050565b614d8881614c21565b82525050565b60008115159050919050565b614da381614d8e565b82525050565b600060e082019050614dbe600083018a614bd7565b614dcb6020830189614bd7565b614dd86040830188614d7f565b614de56060830187614d7f565b614df26080830186614bd7565b614dff60a0830185614bd7565b614e0c60c0830184614d9a565b98975050505050505050565b60008060408385031215614e2f57614e2e614b6f565b5b6000614e3d85828601614c4a565b9250506020614e4e85828601614c4a565b9150509250929050565b6000819050919050565b6000614e7d614e78614e7384614c01565b614e58565b614c01565b9050919050565b6000614e8f82614e62565b9050919050565b6000614ea182614e84565b9050919050565b614eb181614e96565b82525050565b6000602082019050614ecc6000830184614ea8565b92915050565b600060208284031215614ee857614ee7614b6f565b5b6000614ef684828501614c4a565b91505092915050565b60008060408385031215614f1657614f15614b6f565b5b6000614f2485828601614b95565b9250506020614f3585828601614b95565b9150509250929050565b614f4881614c21565b82525050565b60c082016000820151614f646000850182614f3f565b506020820151614f776020850182614ccb565b506040820151614f8a6040850182614ccb565b506060820151614f9d6060850182614ccb565b506080820151614fb06080850182614ccb565b5060a0820151614fc360a0850182614ccb565b50505050565b600060c082019050614fde6000830184614f4e565b92915050565b6000614fef82614e84565b9050919050565b614fff81614fe4565b82525050565b600060208201905061501a6000830184614ff6565b92915050565b60006020820190506150356000830184614d7f565b92915050565b60008060006060848603121561505457615053614b6f565b5b600061506286828701614b95565b935050602061507386828701614b95565b925050604061508486828701614c4a565b9150509250925092565b6000819050919050565b6150a18161508e565b82525050565b60006020820190506150bc6000830184615098565b92915050565b6000806000606084860312156150db576150da614b6f565b5b60006150e986828701614b95565b93505060206150fa86828701614c4a565b925050604061510b86828701614b95565b9150509250925092565b60008060006060848603121561512e5761512d614b6f565b5b600061513c86828701614b95565b935050602061514d86828701614b95565b925050604061515e86828701614b95565b9150509250925092565b600060408201905061517d6000830185615098565b61518a6020830184614d7f565b9392505050565b61519a81614d8e565b81146151a557600080fd5b50565b6000815190506151b781615191565b92915050565b6000602082840312156151d3576151d2614b6f565b5b60006151e1848285016151a8565b91505092915050565b60006040820190506151ff6000830185614d7f565b61520c6020830184614d7f565b9392505050565b60008151905061522281614b7e565b92915050565b60006020828403121561523e5761523d614b6f565b5b600061524c84828501615213565b91505092915050565b7f4e487b7100000000000000000000000000000000000000000000000000000000600052602160045260246000fd5b6003811061529557615294615255565b5b50565b60008190506152a682615284565b919050565b60006152b682615298565b9050919050565b6152c6816152ab565b82525050565b60006020820190506152e160008301846152bd565b92915050565b7f4e487b7100000000000000000000000000000000000000000000000000000000600052601160045260246000fd5b600061532182614b74565b915061532c83614b74565b925082820261533a81614b74565b91508282048414831517615351576153506152e7565b5b5092915050565b7f4e487b7100000000000000000000000000000000000000000000000000000000600052601260045260246000fd5b600061539282614b74565b915061539d83614b74565b9250826153ad576153ac615358565b5b828204905092915050565b60006153c382614b74565b91506153ce83614b74565b92508282039050818111156153e6576153e56152e7565b5b92915050565b600060a0820190506154016000830188614bd7565b61540e6020830187614bd7565b61541b6040830186614d7f565b6154286060830185614bd7565b6154356080830184614bd7565b9695505050505050565b600061544a82614b74565b915061545583614b74565b925082820190508082111561546d5761546c6152e7565b5b92915050565b600060e082019050615488600083018a614bd7565b6154956020830189614bd7565b6154a26040830188614bd7565b6154af6060830187614bd7565b6154bc6080830186614d7f565b6154c960a0830185614d7f565b6154d660c0830184614bd7565b98975050505050505050565b600060a0820190506154f76000830188614bd7565b6155046020830187614bd7565b6155116040830186614bd7565b61551e6060830185614d7f565b61552b6080830184614d7f565b9695505050505050565b600060808201905061554a6000830187614bd7565b6155576020830186614bd7565b6155646040830185614d7f565b6155716060830184614bd7565b95945050505050565b600060408201905061558f6000830185614d7f565b61559c6020830184614bd7565b9392505050565b7f4e487b7100000000000000000000000000000000000000000000000000000000600052603260045260246000fd5b600082825260208201905092915050565b7f496e697469616c697a61626c653a20636f6e747261637420697320616c72656160008201527f647920696e697469616c697a6564000000000000000000000000000000000000602082015250565b600061563f602e836155d2565b915061564a826155e3565b604082019050919050565b6000602082019050818103600083015261566e81615632565b9050919050565b6000819050919050565b600060ff82169050919050565b60006156a76156a261569d84615675565b614e58565b61567f565b9050919050565b6156b78161568c565b82525050565b60006020820190506156d260008301846156ae565b92915050565b60006060820190506156ed6000830186614bd7565b6156fa6020830185614bd7565b6157076040830184614bd7565b949350505050565b7f4e487b7100000000000000000000000000000000000000000000000000000000600052603160045260246000fd5b600061574982614b74565b91507fffffffffffffffffffffffffffffffffffffffffffffffffffffffffffffffff820361577b5761577a6152e7565b5b600182019050919050565b600060608201905061579b6000830186614d7f565b6157a86020830185614d7f565b6157b56040830184614bd7565b949350505050565b7f5361666545524332303a204552433230206f7065726174696f6e20646964206e60008201527f6f74207375636365656400000000000000000000000000000000000000000000602082015250565b6000615819602a836155d2565b9150615824826157bd565b604082019050919050565b600060208201905081810360008301526158488161580c565b9050919050565b7f416464726573733a20696e73756666696369656e742062616c616e636520666f60008201527f722063616c6c0000000000000000000000000000000000000000000000000000602082015250565b60006158ab6026836155d2565b91506158b68261584f565b604082019050919050565b600060208201905081810360008301526158da8161589e565b9050919050565b600081519050919050565b600081905092915050565b60005b838110156159155780820151818401526020810190506158fa565b60008484015250505050565b600061592c826158e1565b61593681856158ec565b93506159468185602086016158f7565b80840191505092915050565b600061595e8284615921565b915081905092915050565b7f416464726573733a2063616c6c20746f206e6f6e2d636f6e7472616374000000600082015250565b600061599f601d836155d2565b91506159aa82615969565b602082019050919050565b600060208201905081810360008301526159ce81615992565b9050919050565b600081519050919050565b6000601f19601f8301169050919050565b60006159fc826159d5565b615a0681856155d2565b9350615a168185602086016158f7565b615a1f816159e0565b840191505092915050565b60006020820190508181036000830152615a4481846159f1565b90509291505056fea26469706673582212206c843c81fa49d1452fcca6829d719dc424a3a26436f19fa8d03e068d9584a61564736f6c63430008140033",
  "devdoc": {
    "details": "Lock staking pool contract",
    "events": {
      "Initialized(uint8)": {
        "details": "Triggered when the contract has been initialized or reinitialized."
      }
    },
    "kind": "dev",
    "methods": {
      "addLockedPools(uint256,uint256,address)": {
        "details": "Admin only - add new staking pool",
        "params": {
          "stakeToken": "token address use for staking",
          "timelock": "staking lock time in seconds",
          "yieldAPY": "yieldAPY"
        }
      },
      "addSupportYieldTokens(address,address)": {
        "details": "Admin only - add stake and future yield token pair",
        "params": {
          "stakeToken": "address of token used to stake, `address(0)` for ETH",
          "yieldToken": "address of fyETH or fyUSDB token"
        }
      },
      "closePool(uint256)": {
        "details": "Admin only - close staking pools Closed pool will not accept new staking",
        "params": {
          "poolId": "poolId"
        }
      },
      "getGeneratedYield(uint256,uint256)": {
        "details": "get amount of yield token generated by staking position",
        "params": {
          "poolId": "poolId",
          "stakeId": "staking Id"
        }
      },
      "getStakeInfo(uint256,uint256)": {
        "details": "get staking position info",
        "params": {
          "poolId": "poolId",
          "stakeId": "stakeId"
        }
      },
      "getUserStakesIds(uint256,address)": {
        "details": "get user stake ids ",
        "params": {
          "account": "account address",
          "poolId": "poolId"
        }
      },
      "repayWithStakeToken(uint256,uint256)": {
        "details": "repay to unlock position prematurely by staking token the amount of token need to be repay will be: stakeInfo.yieldAmount - yieldGeneratedByStakePosition if repay using ETH, any spares amount will be returned to `msg.sender`",
        "params": {
          "poolId": "pool id",
          "stakeId": "position id"
        }
      },
      "repayWithYieldToken(uint256,uint256)": {
        "details": "repay to unlock position prematurely by future yield token the amount of token need to be repay will be: stakeInfo.yieldAmount - yieldGeneratedByStakePosition",
        "params": {
          "poolId": "pool id",
          "stakeId": "position id"
        }
      },
      "setBlast(address)": {
        "params": {
          "_blast": "blast address"
        }
      },
      "setPoolYield(uint256,uint256)": {
        "details": "Admin only - set pool yield APY",
        "params": {
          "poolId": "poolId",
          "yield": "yieldAPY"
        }
      },
      "setTreasury(address)": {
        "params": {
          "_treasury": "treasury wallet address"
        }
      },
      "setUSDBRebasing(address)": {
        "params": {
          "usdb": "USDB token address"
        }
      },
      "stake(uint256,uint256)": {
        "details": "stake token into an pool with `poolId`",
        "params": {
          "amount": "staking amount",
          "poolId": "poolId"
        }
      },
      "stakeTimes(uint256,address)": {
        "details": "get number of staking times of an account in a pool",
        "params": {
          "account": "account address",
          "poolId": "poolId"
        }
      },
      "unstake(uint256,uint256)": {
        "details": "unstake postion when locked time is passed",
        "params": {
          "poolId": "poolId",
          "stakeId": "stake position id"
        }
      }
    },
    "version": 1
  },
  "userdoc": {
    "kind": "user",
    "methods": {
      "claimNativeYield()": {
        "notice": "Admin claims native yield and send to treasury address"
      },
      "claimUSDBYield()": {
        "notice": "Admin claims native USDB yield and send to treasury address"
      },
      "setBlast(address)": {
        "notice": "set native blast contract"
      },
      "setPoolYield(uint256,uint256)": {
        "notice": "do not change pool APY after user start staking in the pool"
      },
      "setTreasury(address)": {
        "notice": "set treasury address Treasury is the wallet used to receive all native yield"
      },
      "setUSDBRebasing(address)": {
        "notice": "set USDB token address"
      },
      "stake(uint256,uint256)": {
        "notice": "if staking ETH, amount of wei send to contract must be equal to `amount` param"
      }
    },
    "version": 1
  },
  "storageLayout": {
    "storage": [
      {
        "astId": 827,
        "contract": "contracts/LockedStakingPools.sol:LockedStakingPools",
        "label": "_initialized",
        "offset": 0,
        "slot": "0",
        "type": "t_uint8"
      },
      {
        "astId": 830,
        "contract": "contracts/LockedStakingPools.sol:LockedStakingPools",
        "label": "_initializing",
        "offset": 1,
        "slot": "0",
        "type": "t_bool"
      },
      {
        "astId": 6084,
        "contract": "contracts/LockedStakingPools.sol:LockedStakingPools",
        "label": "USDB",
        "offset": 2,
        "slot": "0",
        "type": "t_contract(IERC20Rebasing)9178"
      },
      {
        "astId": 6087,
        "contract": "contracts/LockedStakingPools.sol:LockedStakingPools",
        "label": "blast",
        "offset": 0,
        "slot": "1",
        "type": "t_contract(IBlast)9131"
      },
      {
        "astId": 6090,
        "contract": "contracts/LockedStakingPools.sol:LockedStakingPools",
        "label": "roleControl",
        "offset": 0,
        "slot": "2",
        "type": "t_contract(IRoleControl)9496"
      },
      {
        "astId": 6092,
        "contract": "contracts/LockedStakingPools.sol:LockedStakingPools",
        "label": "treasury",
        "offset": 0,
        "slot": "3",
        "type": "t_address"
      },
      {
        "astId": 6094,
        "contract": "contracts/LockedStakingPools.sol:LockedStakingPools",
        "label": "nextPoolId",
        "offset": 0,
        "slot": "4",
        "type": "t_uint256"
      },
      {
        "astId": 6099,
        "contract": "contracts/LockedStakingPools.sol:LockedStakingPools",
        "label": "poolInfo",
        "offset": 0,
        "slot": "5",
        "type": "t_mapping(t_uint256,t_struct(LockedPoolInfo)9287_storage)"
      },
      {
        "astId": 6106,
        "contract": "contracts/LockedStakingPools.sol:LockedStakingPools",
        "label": "stakeInfo",
        "offset": 0,
        "slot": "6",
        "type": "t_mapping(t_uint256,t_mapping(t_uint256,t_struct(StakingInfo)9300_storage))"
      },
      {
        "astId": 6113,
        "contract": "contracts/LockedStakingPools.sol:LockedStakingPools",
        "label": "userStakeIds",
        "offset": 0,
        "slot": "7",
        "type": "t_mapping(t_uint256,t_mapping(t_address,t_array(t_uint256)dyn_storage))"
      },
      {
        "astId": 6117,
        "contract": "contracts/LockedStakingPools.sol:LockedStakingPools",
        "label": "noUsersStaked",
        "offset": 0,
        "slot": "8",
        "type": "t_mapping(t_uint256,t_uint256)"
      },
      {
        "astId": 6121,
        "contract": "contracts/LockedStakingPools.sol:LockedStakingPools",
        "label": "yieldTokens",
        "offset": 0,
        "slot": "9",
        "type": "t_mapping(t_address,t_address)"
      },
      {
        "astId": 6125,
        "contract": "contracts/LockedStakingPools.sol:LockedStakingPools",
        "label": "tokenTotalStaked",
        "offset": 0,
        "slot": "10",
        "type": "t_mapping(t_address,t_uint256)"
      },
      {
        "astId": 6129,
        "contract": "contracts/LockedStakingPools.sol:LockedStakingPools",
        "label": "accYieldPerStaked",
        "offset": 0,
        "slot": "11",
        "type": "t_mapping(t_address,t_uint256)"
      }
    ],
    "types": {
      "t_address": {
        "encoding": "inplace",
        "label": "address",
        "numberOfBytes": "20"
      },
      "t_array(t_uint256)dyn_storage": {
        "base": "t_uint256",
        "encoding": "dynamic_array",
        "label": "uint256[]",
        "numberOfBytes": "32"
      },
      "t_bool": {
        "encoding": "inplace",
        "label": "bool",
        "numberOfBytes": "1"
      },
      "t_contract(IBlast)9131": {
        "encoding": "inplace",
        "label": "contract IBlast",
        "numberOfBytes": "20"
      },
      "t_contract(IERC20Rebasing)9178": {
        "encoding": "inplace",
        "label": "contract IERC20Rebasing",
        "numberOfBytes": "20"
      },
      "t_contract(IRoleControl)9496": {
        "encoding": "inplace",
        "label": "contract IRoleControl",
        "numberOfBytes": "20"
      },
      "t_mapping(t_address,t_address)": {
        "encoding": "mapping",
        "key": "t_address",
        "label": "mapping(address => address)",
        "numberOfBytes": "32",
        "value": "t_address"
      },
      "t_mapping(t_address,t_array(t_uint256)dyn_storage)": {
        "encoding": "mapping",
        "key": "t_address",
        "label": "mapping(address => uint256[])",
        "numberOfBytes": "32",
        "value": "t_array(t_uint256)dyn_storage"
      },
      "t_mapping(t_address,t_uint256)": {
        "encoding": "mapping",
        "key": "t_address",
        "label": "mapping(address => uint256)",
        "numberOfBytes": "32",
        "value": "t_uint256"
      },
      "t_mapping(t_uint256,t_mapping(t_address,t_array(t_uint256)dyn_storage))": {
        "encoding": "mapping",
        "key": "t_uint256",
        "label": "mapping(uint256 => mapping(address => uint256[]))",
        "numberOfBytes": "32",
        "value": "t_mapping(t_address,t_array(t_uint256)dyn_storage)"
      },
      "t_mapping(t_uint256,t_mapping(t_uint256,t_struct(StakingInfo)9300_storage))": {
        "encoding": "mapping",
        "key": "t_uint256",
        "label": "mapping(uint256 => mapping(uint256 => struct ILockedStaking.StakingInfo))",
        "numberOfBytes": "32",
        "value": "t_mapping(t_uint256,t_struct(StakingInfo)9300_storage)"
      },
      "t_mapping(t_uint256,t_struct(LockedPoolInfo)9287_storage)": {
        "encoding": "mapping",
        "key": "t_uint256",
        "label": "mapping(uint256 => struct ILockedStaking.LockedPoolInfo)",
        "numberOfBytes": "32",
        "value": "t_struct(LockedPoolInfo)9287_storage"
      },
      "t_mapping(t_uint256,t_struct(StakingInfo)9300_storage)": {
        "encoding": "mapping",
        "key": "t_uint256",
        "label": "mapping(uint256 => struct ILockedStaking.StakingInfo)",
        "numberOfBytes": "32",
        "value": "t_struct(StakingInfo)9300_storage"
      },
      "t_mapping(t_uint256,t_uint256)": {
        "encoding": "mapping",
        "key": "t_uint256",
        "label": "mapping(uint256 => uint256)",
        "numberOfBytes": "32",
        "value": "t_uint256"
      },
      "t_struct(LockedPoolInfo)9287_storage": {
        "encoding": "inplace",
        "label": "struct ILockedStaking.LockedPoolInfo",
        "members": [
          {
            "astId": 9274,
            "contract": "contracts/LockedStakingPools.sol:LockedStakingPools",
            "label": "timelock",
            "offset": 0,
            "slot": "0",
            "type": "t_uint256"
          },
          {
            "astId": 9276,
            "contract": "contracts/LockedStakingPools.sol:LockedStakingPools",
            "label": "yieldAPY",
            "offset": 0,
            "slot": "1",
            "type": "t_uint256"
          },
          {
            "astId": 9278,
            "contract": "contracts/LockedStakingPools.sol:LockedStakingPools",
            "label": "yieldToken",
            "offset": 0,
            "slot": "2",
            "type": "t_address"
          },
          {
            "astId": 9280,
            "contract": "contracts/LockedStakingPools.sol:LockedStakingPools",
            "label": "stakeToken",
            "offset": 0,
            "slot": "3",
            "type": "t_address"
          },
          {
            "astId": 9282,
            "contract": "contracts/LockedStakingPools.sol:LockedStakingPools",
            "label": "totalStaked",
            "offset": 0,
            "slot": "4",
            "type": "t_uint256"
          },
          {
            "astId": 9284,
            "contract": "contracts/LockedStakingPools.sol:LockedStakingPools",
            "label": "nextStakeId",
            "offset": 0,
            "slot": "5",
            "type": "t_uint256"
          },
          {
            "astId": 9286,
            "contract": "contracts/LockedStakingPools.sol:LockedStakingPools",
            "label": "enabled",
            "offset": 0,
            "slot": "6",
            "type": "t_bool"
          }
        ],
        "numberOfBytes": "224"
      },
      "t_struct(StakingInfo)9300_storage": {
        "encoding": "inplace",
        "label": "struct ILockedStaking.StakingInfo",
        "members": [
          {
            "astId": 9289,
            "contract": "contracts/LockedStakingPools.sol:LockedStakingPools",
            "label": "user",
            "offset": 0,
            "slot": "0",
            "type": "t_address"
          },
          {
            "astId": 9291,
            "contract": "contracts/LockedStakingPools.sol:LockedStakingPools",
            "label": "amount",
            "offset": 0,
            "slot": "1",
            "type": "t_uint256"
          },
          {
            "astId": 9293,
            "contract": "contracts/LockedStakingPools.sol:LockedStakingPools",
            "label": "stakeTime",
            "offset": 0,
            "slot": "2",
            "type": "t_uint256"
          },
          {
            "astId": 9295,
            "contract": "contracts/LockedStakingPools.sol:LockedStakingPools",
            "label": "unlockTime",
            "offset": 0,
            "slot": "3",
            "type": "t_uint256"
          },
          {
            "astId": 9297,
            "contract": "contracts/LockedStakingPools.sol:LockedStakingPools",
            "label": "yieldAmount",
            "offset": 0,
            "slot": "4",
            "type": "t_uint256"
          },
          {
            "astId": 9299,
            "contract": "contracts/LockedStakingPools.sol:LockedStakingPools",
            "label": "yieldDebt",
            "offset": 0,
            "slot": "5",
            "type": "t_uint256"
          }
        ],
        "numberOfBytes": "192"
      },
      "t_uint256": {
        "encoding": "inplace",
        "label": "uint256",
        "numberOfBytes": "32"
      },
      "t_uint8": {
        "encoding": "inplace",
        "label": "uint8",
        "numberOfBytes": "1"
      }
    }
  }
}