{
  "address": "0xA173305c6278B8DD10634524aAF37B7D16DC8Fad",
  "abi": [
    {
      "inputs": [],
      "name": "InvalidArguments",
      "type": "error"
    },
    {
      "inputs": [
        {
          "internalType": "uint256",
          "name": "amount",
          "type": "uint256"
        }
      ],
      "name": "InvalidTokenAmounts",
      "type": "error"
    },
    {
      "inputs": [],
      "name": "NoStaking",
      "type": "error"
    },
    {
      "inputs": [
        {
          "internalType": "address",
          "name": "user",
          "type": "address"
        }
      ],
      "name": "NotPoolAdmin",
      "type": "error"
    },
    {
      "inputs": [
        {
          "internalType": "uint256",
          "name": "id",
          "type": "uint256"
        }
      ],
      "name": "PoolClosed",
      "type": "error"
    },
    {
      "inputs": [
        {
          "internalType": "uint256",
          "name": "id",
          "type": "uint256"
        }
      ],
      "name": "PoolNotExisted",
      "type": "error"
    },
    {
      "anonymous": false,
      "inputs": [
        {
          "indexed": false,
          "internalType": "uint8",
          "name": "version",
          "type": "uint8"
        }
      ],
      "name": "Initialized",
      "type": "event"
    },
    {
      "anonymous": false,
      "inputs": [
        {
          "indexed": false,
          "internalType": "uint256",
          "name": "id",
          "type": "uint256"
        },
        {
          "indexed": false,
          "internalType": "uint256",
          "name": "yieldAPY",
          "type": "uint256"
        },
        {
          "indexed": false,
          "internalType": "address",
          "name": "yieldToken",
          "type": "address"
        },
        {
          "indexed": false,
          "internalType": "address",
          "name": "stakeToken",
          "type": "address"
        }
      ],
      "name": "PoolCreated",
      "type": "event"
    },
    {
      "anonymous": false,
      "inputs": [
        {
          "indexed": false,
          "internalType": "uint256",
          "name": "poolId",
          "type": "uint256"
        },
        {
          "indexed": false,
          "internalType": "address",
          "name": "stakeToken",
          "type": "address"
        },
        {
          "indexed": false,
          "internalType": "uint256",
          "name": "rewardAmount",
          "type": "uint256"
        }
      ],
      "name": "RewardClaim",
      "type": "event"
    },
    {
      "anonymous": false,
      "inputs": [
        {
          "indexed": false,
          "internalType": "uint256",
          "name": "poolId",
          "type": "uint256"
        },
        {
          "indexed": false,
          "internalType": "uint256",
          "name": "yield",
          "type": "uint256"
        },
        {
          "indexed": false,
          "internalType": "address",
          "name": "yieldToken",
          "type": "address"
        },
        {
          "indexed": false,
          "internalType": "address",
          "name": "stakeToken",
          "type": "address"
        },
        {
          "indexed": false,
          "internalType": "uint256",
          "name": "amount",
          "type": "uint256"
        }
      ],
      "name": "Stake",
      "type": "event"
    },
    {
      "anonymous": false,
      "inputs": [
        {
          "indexed": false,
          "internalType": "uint256",
          "name": "poolId",
          "type": "uint256"
        },
        {
          "indexed": false,
          "internalType": "address",
          "name": "stakeToken",
          "type": "address"
        },
        {
          "indexed": false,
          "internalType": "uint256",
          "name": "totalAmount",
          "type": "uint256"
        },
        {
          "indexed": false,
          "internalType": "uint256",
          "name": "rewardAmount",
          "type": "uint256"
        }
      ],
      "name": "Unstake",
      "type": "event"
    },
    {
      "inputs": [],
      "name": "POOL_ADMIN_ROLE",
      "outputs": [
        {
          "internalType": "bytes32",
          "name": "",
          "type": "bytes32"
        }
      ],
      "stateMutability": "view",
      "type": "function"
    },
    {
      "inputs": [],
      "name": "YIELD_DENOM",
      "outputs": [
        {
          "internalType": "uint256",
          "name": "",
          "type": "uint256"
        }
      ],
      "stateMutability": "view",
      "type": "function"
    },
    {
      "inputs": [
        {
          "internalType": "uint256",
          "name": "yieldAPY",
          "type": "uint256"
        },
        {
          "internalType": "address",
          "name": "stakeToken",
          "type": "address"
        }
      ],
      "name": "addPool",
      "outputs": [
        {
          "internalType": "uint256",
          "name": "poolId",
          "type": "uint256"
        }
      ],
      "stateMutability": "nonpayable",
      "type": "function"
    },
    {
      "inputs": [
        {
          "internalType": "address",
          "name": "stakeToken",
          "type": "address"
        },
        {
          "internalType": "address",
          "name": "yieldToken",
          "type": "address"
        }
      ],
      "name": "addSupportYieldTokens",
      "outputs": [],
      "stateMutability": "nonpayable",
      "type": "function"
    },
    {
      "inputs": [],
      "name": "claimNativeYield",
      "outputs": [],
      "stateMutability": "nonpayable",
      "type": "function"
    },
    {
      "inputs": [
        {
          "internalType": "uint256",
          "name": "poolId",
          "type": "uint256"
        }
      ],
      "name": "claimPendingReward",
      "outputs": [],
      "stateMutability": "nonpayable",
      "type": "function"
    },
    {
      "inputs": [
        {
          "internalType": "uint256",
          "name": "poolId",
          "type": "uint256"
        }
      ],
      "name": "closePool",
      "outputs": [],
      "stateMutability": "nonpayable",
      "type": "function"
    },
    {
      "inputs": [
        {
          "internalType": "uint256",
          "name": "poolId",
          "type": "uint256"
        },
        {
          "internalType": "address",
          "name": "account",
          "type": "address"
        }
      ],
      "name": "getUserStakePosition",
      "outputs": [
        {
          "components": [
            {
              "internalType": "uint256",
              "name": "amount",
              "type": "uint256"
            },
            {
              "internalType": "uint256",
              "name": "lastCalcTs",
              "type": "uint256"
            },
            {
              "internalType": "uint256",
              "name": "pendingReward",
              "type": "uint256"
            }
          ],
          "internalType": "struct INonLockStaking.StakePosition",
          "name": "",
          "type": "tuple"
        }
      ],
      "stateMutability": "view",
      "type": "function"
    },
    {
      "inputs": [
        {
          "internalType": "address",
          "name": "roleControl_",
          "type": "address"
        },
        {
          "internalType": "address",
          "name": "treasury_",
          "type": "address"
        }
      ],
      "name": "init",
      "outputs": [],
      "stateMutability": "nonpayable",
      "type": "function"
    },
    {
      "inputs": [
        {
          "internalType": "uint256",
          "name": "",
          "type": "uint256"
        }
      ],
      "name": "poolInfo",
      "outputs": [
        {
          "internalType": "uint256",
          "name": "yieldAPY",
          "type": "uint256"
        },
        {
          "internalType": "address",
          "name": "yieldToken",
          "type": "address"
        },
        {
          "internalType": "address",
          "name": "stakeToken",
          "type": "address"
        },
        {
          "internalType": "uint256",
          "name": "totalStaked",
          "type": "uint256"
        },
        {
          "internalType": "bool",
          "name": "enabled",
          "type": "bool"
        }
      ],
      "stateMutability": "view",
      "type": "function"
    },
    {
      "inputs": [
        {
          "internalType": "uint256",
          "name": "poolId",
          "type": "uint256"
        },
        {
          "internalType": "uint256",
          "name": "yield",
          "type": "uint256"
        }
      ],
      "name": "setPoolYield",
      "outputs": [],
      "stateMutability": "nonpayable",
      "type": "function"
    },
    {
      "inputs": [
        {
          "internalType": "address",
          "name": "_treasury",
          "type": "address"
        }
      ],
      "name": "setTreasury",
      "outputs": [],
      "stateMutability": "nonpayable",
      "type": "function"
    },
    {
      "inputs": [
        {
          "internalType": "uint256",
          "name": "poolId",
          "type": "uint256"
        },
        {
          "internalType": "uint256",
          "name": "amount",
          "type": "uint256"
        }
      ],
      "name": "stake",
      "outputs": [],
      "stateMutability": "payable",
      "type": "function"
    },
    {
      "inputs": [],
      "name": "treasury",
      "outputs": [
        {
          "internalType": "address",
          "name": "",
          "type": "address"
        }
      ],
      "stateMutability": "view",
      "type": "function"
    },
    {
      "inputs": [
        {
          "internalType": "uint256",
          "name": "poolId",
          "type": "uint256"
        }
      ],
      "name": "unstake",
      "outputs": [],
      "stateMutability": "nonpayable",
      "type": "function"
    },
    {
      "inputs": [
        {
          "internalType": "address",
          "name": "",
          "type": "address"
        }
      ],
      "name": "yieldTokens",
      "outputs": [
        {
          "internalType": "address",
          "name": "",
          "type": "address"
        }
      ],
      "stateMutability": "view",
      "type": "function"
    }
  ],
  "transactionHash": "0x110f15939b4f596711c92f83cd91a2695057a827c69e728603bece3859222a0b",
  "args": [],
  "numDeployments": 1,
  "solcInputHash": "cae8cb29bcfa77b569b812f486e7b9c9",
  "bytecode": "0x608060405234801561001057600080fd5b50612d4f806100206000396000f3fe6080604052600436106100f35760003560e01c806385036b6c1161008a578063c6cf7c5f11610059578063c6cf7c5f14610309578063d225481314610346578063f09a401614610371578063f0f442601461039a576100f3565b806385036b6c1461024f57806394caca161461028c5780639a45228f146102b5578063b8f6dba7146102de576100f3565b806337de615f116100c657806337de615f146101b65780633959aaef146101df57806361d027b3146102085780637b0472f014610233576100f3565b80630f5baf61146100f85780631526fe271461010f5780632e17de781461015057806333ba888214610179575b600080fd5b34801561010457600080fd5b5061010d6103c3565b005b34801561011b57600080fd5b5061013660048036038101906101319190612306565b610579565b60405161014795949392919061239e565b60405180910390f35b34801561015c57600080fd5b5061017760048036038101906101729190612306565b6105fc565b005b34801561018557600080fd5b506101a0600480360381019061019b919061241d565b6109a5565b6040516101ad919061245d565b60405180910390f35b3480156101c257600080fd5b506101dd60048036038101906101d89190612306565b610d34565b005b3480156101eb57600080fd5b5061020660048036038101906102019190612306565b610e81565b005b34801561021457600080fd5b5061021d611162565b60405161022a9190612478565b60405180910390f35b61024d60048036038101906102489190612493565b611188565b005b34801561025b57600080fd5b506102766004803603810190610271919061241d565b6114ed565b6040516102839190612524565b60405180910390f35b34801561029857600080fd5b506102b360048036038101906102ae919061253f565b611576565b005b3480156102c157600080fd5b506102dc60048036038101906102d79190612493565b6116f7565b005b3480156102ea57600080fd5b506102f36118c7565b6040516103009190612598565b60405180910390f35b34801561031557600080fd5b50610330600480360381019061032b91906125b3565b6118eb565b60405161033d9190612478565b60405180910390f35b34801561035257600080fd5b5061035b61191e565b604051610368919061245d565b60405180910390f35b34801561037d57600080fd5b506103986004803603810190610393919061253f565b611925565b005b3480156103a657600080fd5b506103c160048036038101906103bc91906125b3565b611b88565b005b600060029054906101000a900473ffffffffffffffffffffffffffffffffffffffff1673ffffffffffffffffffffffffffffffffffffffff166391d148547f24e583e35a20f9ecfc1572e7cb66bcc18ad3cd1650ec40dbf6ad2290e553a9fa336040518363ffffffff1660e01b81526004016104409291906125e0565b602060405180830381865afa15801561045d573d6000803e3d6000fd5b505050506040513d601f19601f820116820180604052508101906104819190612635565b6104c257336040517f7e652f1e0000000000000000000000000000000000000000000000000000000081526004016104b99190612478565b60405180910390fd5b73430000000000000000000000000000000000000273ffffffffffffffffffffffffffffffffffffffff1663860043b630600160009054906101000a900473ffffffffffffffffffffffffffffffffffffffff166040518363ffffffff1660e01b8152600401610533929190612662565b6020604051808303816000875af1158015610552573d6000803e3d6000fd5b505050506040513d601f19601f8201168201806040525081019061057691906126a0565b50565b60046020528060005260406000206000915090508060000154908060010160009054906101000a900473ffffffffffffffffffffffffffffffffffffffff16908060020160009054906101000a900473ffffffffffffffffffffffffffffffffffffffff16908060030154908060040160009054906101000a900460ff16905085565b6000600460008381526020019081526020016000206040518060a0016040529081600082015481526020016001820160009054906101000a900473ffffffffffffffffffffffffffffffffffffffff1673ffffffffffffffffffffffffffffffffffffffff1673ffffffffffffffffffffffffffffffffffffffff1681526020016002820160009054906101000a900473ffffffffffffffffffffffffffffffffffffffff1673ffffffffffffffffffffffffffffffffffffffff1673ffffffffffffffffffffffffffffffffffffffff168152602001600382015481526020016004820160009054906101000a900460ff1615151515815250509050600073ffffffffffffffffffffffffffffffffffffffff16816020015173ffffffffffffffffffffffffffffffffffffffff160361076e57816040517feb0d37cc000000000000000000000000000000000000000000000000000000008152600401610765919061245d565b60405180910390fd5b60006005600084815260200190815260200160002060003373ffffffffffffffffffffffffffffffffffffffff1673ffffffffffffffffffffffffffffffffffffffff1681526020019081526020016000206040518060600160405290816000820154815260200160018201548152602001600282015481525050905060006201518061016d620186a08560000151856000015186602001514261081291906126fc565b61081c9190612730565b6108269190612730565b61083091906127a1565b61083a91906127a1565b61084491906127a1565b9050600082604001518261085891906127d2565b90506000836000015190506005600087815260200190815260200160002060003373ffffffffffffffffffffffffffffffffffffffff1673ffffffffffffffffffffffffffffffffffffffff168152602001908152602001600020600080820160009055600182016000905560028201600090555050806004600088815260200190815260200160002060030160008282546108f491906126fc565b9250508190555061090a85604001513383611ccb565b61091985602001513384611dc1565b7ff8a016136ec23af173a9a6d969a9fa0582a5099a74e1b53d91328789f14577f38686604001518460405161095093929190612806565b60405180910390a17fc1e00202ee2c06861d326fc6374026b751863ff64218ccbaa38c3e603a8e72c2868660400151866000015185604051610995949392919061283d565b60405180910390a1505050505050565b60008060029054906101000a900473ffffffffffffffffffffffffffffffffffffffff1673ffffffffffffffffffffffffffffffffffffffff166391d148547f24e583e35a20f9ecfc1572e7cb66bcc18ad3cd1650ec40dbf6ad2290e553a9fa336040518363ffffffff1660e01b8152600401610a239291906125e0565b602060405180830381865afa158015610a40573d6000803e3d6000fd5b505050506040513d601f19601f82011682018060405250810190610a649190612635565b610aa557336040517f7e652f1e000000000000000000000000000000000000000000000000000000008152600401610a9c9190612478565b60405180910390fd5b60008303610adf576040517f5f6f132c00000000000000000000000000000000000000000000000000000000815260040160405180910390fd5b6000600360008473ffffffffffffffffffffffffffffffffffffffff1673ffffffffffffffffffffffffffffffffffffffff16815260200190815260200160002060009054906101000a900473ffffffffffffffffffffffffffffffffffffffff169050600073ffffffffffffffffffffffffffffffffffffffff168173ffffffffffffffffffffffffffffffffffffffff1603610ba9576040517f5f6f132c00000000000000000000000000000000000000000000000000000000815260040160405180910390fd5b60025491506040518060a001604052808581526020018273ffffffffffffffffffffffffffffffffffffffff1681526020018473ffffffffffffffffffffffffffffffffffffffff1681526020016000815260200160011515815250600460008481526020019081526020016000206000820151816000015560208201518160010160006101000a81548173ffffffffffffffffffffffffffffffffffffffff021916908373ffffffffffffffffffffffffffffffffffffffff16021790555060408201518160020160006101000a81548173ffffffffffffffffffffffffffffffffffffffff021916908373ffffffffffffffffffffffffffffffffffffffff1602179055506060820151816003015560808201518160040160006101000a81548160ff021916908315150217905550905050600182610cea91906127d2565b6002819055507fdf8d6ed0cc461638776b3ca70e85e07a489b1843721ce48af5e1edd7ceadd5fe82858386604051610d259493929190612882565b60405180910390a15092915050565b600060029054906101000a900473ffffffffffffffffffffffffffffffffffffffff1673ffffffffffffffffffffffffffffffffffffffff166391d148547f24e583e35a20f9ecfc1572e7cb66bcc18ad3cd1650ec40dbf6ad2290e553a9fa336040518363ffffffff1660e01b8152600401610db19291906125e0565b602060405180830381865afa158015610dce573d6000803e3d6000fd5b505050506040513d601f19601f82011682018060405250810190610df29190612635565b610e3357336040517f7e652f1e000000000000000000000000000000000000000000000000000000008152600401610e2a9190612478565b60405180910390fd5b60006004600083815260200190815260200160002060040160006101000a81548160ff0219169083151502179055506000600460008381526020019081526020016000206000018190555050565b6000600460008381526020019081526020016000206040518060a0016040529081600082015481526020016001820160009054906101000a900473ffffffffffffffffffffffffffffffffffffffff1673ffffffffffffffffffffffffffffffffffffffff1673ffffffffffffffffffffffffffffffffffffffff1681526020016002820160009054906101000a900473ffffffffffffffffffffffffffffffffffffffff1673ffffffffffffffffffffffffffffffffffffffff1673ffffffffffffffffffffffffffffffffffffffff168152602001600382015481526020016004820160009054906101000a900460ff1615151515815250509050600073ffffffffffffffffffffffffffffffffffffffff16816020015173ffffffffffffffffffffffffffffffffffffffff1603610ff357816040517feb0d37cc000000000000000000000000000000000000000000000000000000008152600401610fea919061245d565b60405180910390fd5b60006005600084815260200190815260200160002060003373ffffffffffffffffffffffffffffffffffffffff1673ffffffffffffffffffffffffffffffffffffffff16815260200190815260200160002090506000816000015403611085576040517fbaa8213400000000000000000000000000000000000000000000000000000000815260040160405180910390fd5b60008160000154905060006201518061016d620186a08660000151858760010154426110b191906126fc565b6110bb9190612730565b6110c59190612730565b6110cf91906127a1565b6110d991906127a1565b6110e391906127a1565b905060008360020154826110f791906127d2565b90506000846002018190555042846001018190555061111b85602001513383611dc1565b7ff8a016136ec23af173a9a6d969a9fa0582a5099a74e1b53d91328789f14577f38686604001518360405161115293929190612806565b60405180910390a1505050505050565b600160009054906101000a900473ffffffffffffffffffffffffffffffffffffffff1681565b6000600460008481526020019081526020016000206040518060a0016040529081600082015481526020016001820160009054906101000a900473ffffffffffffffffffffffffffffffffffffffff1673ffffffffffffffffffffffffffffffffffffffff1673ffffffffffffffffffffffffffffffffffffffff1681526020016002820160009054906101000a900473ffffffffffffffffffffffffffffffffffffffff1673ffffffffffffffffffffffffffffffffffffffff1673ffffffffffffffffffffffffffffffffffffffff168152602001600382015481526020016004820160009054906101000a900460ff16151515158152505090506000151581608001511515036112d257826040517feb0d37cc0000000000000000000000000000000000000000000000000000000081526004016112c9919061245d565b60405180910390fd5b60006005600085815260200190815260200160002060003373ffffffffffffffffffffffffffffffffffffffff1673ffffffffffffffffffffffffffffffffffffffff168152602001908152602001600020905060008160000154036113c457604051806060016040528084815260200142815260200160008152506005600086815260200190815260200160002060003373ffffffffffffffffffffffffffffffffffffffff1673ffffffffffffffffffffffffffffffffffffffff168152602001908152602001600020600082015181600001556020820151816001015560408201518160020155905050611460565b60006201518061016d620186a0856000015185600001548660010154426113eb91906126fc565b6113f59190612730565b6113ff9190612730565b61140991906127a1565b61141391906127a1565b61141d91906127a1565b90504282600101819055508082600201600082825461143c91906127d2565b925050819055508382600001600082825461145791906127d2565b92505081905550505b8260046000868152602001908152602001600020600301600082825461148691906127d2565b9250508190555061149c82604001513085611e33565b7f8cbcc18badd6d14ded750186c5461cc995c9b0311cf89a7d0c4f40f9e9a5f75784836000015184602001518560400151876040516114df9594939291906128c7565b60405180910390a150505050565b6114f56122aa565b6005600084815260200190815260200160002060008373ffffffffffffffffffffffffffffffffffffffff1673ffffffffffffffffffffffffffffffffffffffff1681526020019081526020016000206040518060600160405290816000820154815260200160018201548152602001600282015481525050905092915050565b600060029054906101000a900473ffffffffffffffffffffffffffffffffffffffff1673ffffffffffffffffffffffffffffffffffffffff166391d148547f24e583e35a20f9ecfc1572e7cb66bcc18ad3cd1650ec40dbf6ad2290e553a9fa336040518363ffffffff1660e01b81526004016115f39291906125e0565b602060405180830381865afa158015611610573d6000803e3d6000fd5b505050506040513d601f19601f820116820180604052508101906116349190612635565b61167557336040517f7e652f1e00000000000000000000000000000000000000000000000000000000815260040161166c9190612478565b60405180910390fd5b80600360008473ffffffffffffffffffffffffffffffffffffffff1673ffffffffffffffffffffffffffffffffffffffff16815260200190815260200160002060006101000a81548173ffffffffffffffffffffffffffffffffffffffff021916908373ffffffffffffffffffffffffffffffffffffffff1602179055505050565b600060029054906101000a900473ffffffffffffffffffffffffffffffffffffffff1673ffffffffffffffffffffffffffffffffffffffff166391d148547f24e583e35a20f9ecfc1572e7cb66bcc18ad3cd1650ec40dbf6ad2290e553a9fa336040518363ffffffff1660e01b81526004016117749291906125e0565b602060405180830381865afa158015611791573d6000803e3d6000fd5b505050506040513d601f19601f820116820180604052508101906117b59190612635565b6117f657336040517f7e652f1e0000000000000000000000000000000000000000000000000000000081526004016117ed9190612478565b60405180910390fd5b60008214806118055750600081145b1561183c576040517f5f6f132c00000000000000000000000000000000000000000000000000000000815260040160405180910390fd5b600015156004600084815260200190815260200160002060040160009054906101000a900460ff161515036118a857816040517feb0d37cc00000000000000000000000000000000000000000000000000000000815260040161189f919061245d565b60405180910390fd5b8060046000848152602001908152602001600020600001819055505050565b7f24e583e35a20f9ecfc1572e7cb66bcc18ad3cd1650ec40dbf6ad2290e553a9fa81565b60036020528060005260406000206000915054906101000a900473ffffffffffffffffffffffffffffffffffffffff1681565b620186a081565b60008060019054906101000a900460ff161590508080156119565750600160008054906101000a900460ff1660ff16105b80611983575061196530611ee3565b1580156119825750600160008054906101000a900460ff1660ff16145b5b6119c2576040517f08c379a00000000000000000000000000000000000000000000000000000000081526004016119b99061299d565b60405180910390fd5b60016000806101000a81548160ff021916908360ff16021790555080156119ff576001600060016101000a81548160ff0219169083151502179055505b82600060026101000a81548173ffffffffffffffffffffffffffffffffffffffff021916908373ffffffffffffffffffffffffffffffffffffffff160217905550600073ffffffffffffffffffffffffffffffffffffffff168273ffffffffffffffffffffffffffffffffffffffff1614611b2a5781600160006101000a81548173ffffffffffffffffffffffffffffffffffffffff021916908373ffffffffffffffffffffffffffffffffffffffff16021790555073430000000000000000000000000000000000000273ffffffffffffffffffffffffffffffffffffffff1663f098767a6040518163ffffffff1660e01b8152600401600060405180830381600087803b158015611b1157600080fd5b505af1158015611b25573d6000803e3d6000fd5b505050505b8015611b835760008060016101000a81548160ff0219169083151502179055507f7f26b83ff96e1f2b6a682f133852f6798a09c465da95921460cefb38474024986001604051611b7a9190612a0f565b60405180910390a15b505050565b600060029054906101000a900473ffffffffffffffffffffffffffffffffffffffff1673ffffffffffffffffffffffffffffffffffffffff166391d148547f24e583e35a20f9ecfc1572e7cb66bcc18ad3cd1650ec40dbf6ad2290e553a9fa336040518363ffffffff1660e01b8152600401611c059291906125e0565b602060405180830381865afa158015611c22573d6000803e3d6000fd5b505050506040513d601f19601f82011682018060405250810190611c469190612635565b611c8757336040517f7e652f1e000000000000000000000000000000000000000000000000000000008152600401611c7e9190612478565b60405180910390fd5b80600160006101000a81548173ffffffffffffffffffffffffffffffffffffffff021916908373ffffffffffffffffffffffffffffffffffffffff16021790555050565b600073ffffffffffffffffffffffffffffffffffffffff168373ffffffffffffffffffffffffffffffffffffffff1603611d905780471015611d4457806040517f83b9f0ae000000000000000000000000000000000000000000000000000000008152600401611d3b919061245d565b60405180910390fd5b8173ffffffffffffffffffffffffffffffffffffffff166108fc829081150290604051600060405180830381858888f19350505050158015611d8a573d6000803e3d6000fd5b50611dbc565b611dbb82828573ffffffffffffffffffffffffffffffffffffffff16611f069092919063ffffffff16565b5b505050565b8273ffffffffffffffffffffffffffffffffffffffff166340c10f1983836040518363ffffffff1660e01b8152600401611dfc929190612a2a565b600060405180830381600087803b158015611e1657600080fd5b505af1158015611e2a573d6000803e3d6000fd5b50505050505050565b600073ffffffffffffffffffffffffffffffffffffffff168373ffffffffffffffffffffffffffffffffffffffff1603611eb057348114611eab57806040517f83b9f0ae000000000000000000000000000000000000000000000000000000008152600401611ea2919061245d565b60405180910390fd5b611ede565b611edd8230838673ffffffffffffffffffffffffffffffffffffffff16611f8c909392919063ffffffff16565b5b505050565b6000808273ffffffffffffffffffffffffffffffffffffffff163b119050919050565b611f878363a9059cbb60e01b8484604051602401611f25929190612a2a565b604051602081830303815290604052907bffffffffffffffffffffffffffffffffffffffffffffffffffffffff19166020820180517bffffffffffffffffffffffffffffffffffffffffffffffffffffffff8381831617835250505050612015565b505050565b61200f846323b872dd60e01b858585604051602401611fad93929190612a53565b604051602081830303815290604052907bffffffffffffffffffffffffffffffffffffffffffffffffffffffff19166020820180517bffffffffffffffffffffffffffffffffffffffffffffffffffffffff8381831617835250505050612015565b50505050565b6000612077826040518060400160405280602081526020017f5361666545524332303a206c6f772d6c6576656c2063616c6c206661696c65648152508573ffffffffffffffffffffffffffffffffffffffff166120dd9092919063ffffffff16565b90506000815114806120995750808060200190518101906120989190612635565b5b6120d8576040517f08c379a00000000000000000000000000000000000000000000000000000000081526004016120cf90612afc565b60405180910390fd5b505050565b60606120ec84846000856120f5565b90509392505050565b60608247101561213a576040517f08c379a000000000000000000000000000000000000000000000000000000000815260040161213190612b8e565b60405180910390fd5b6000808673ffffffffffffffffffffffffffffffffffffffff1685876040516121639190612c1f565b60006040518083038185875af1925050503d80600081146121a0576040519150601f19603f3d011682016040523d82523d6000602084013e6121a5565b606091505b50915091506121b6878383876121c2565b92505050949350505050565b6060831561222457600083510361221c576121dc85612237565b61221b576040517f08c379a000000000000000000000000000000000000000000000000000000000815260040161221290612c82565b60405180910390fd5b5b82905061222f565b61222e838361225a565b5b949350505050565b6000808273ffffffffffffffffffffffffffffffffffffffff163b119050919050565b60008251111561226d5781518083602001fd5b806040517f08c379a00000000000000000000000000000000000000000000000000000000081526004016122a19190612cf7565b60405180910390fd5b60405180606001604052806000815260200160008152602001600081525090565b600080fd5b6000819050919050565b6122e3816122d0565b81146122ee57600080fd5b50565b600081359050612300816122da565b92915050565b60006020828403121561231c5761231b6122cb565b5b600061232a848285016122f1565b91505092915050565b61233c816122d0565b82525050565b600073ffffffffffffffffffffffffffffffffffffffff82169050919050565b600061236d82612342565b9050919050565b61237d81612362565b82525050565b60008115159050919050565b61239881612383565b82525050565b600060a0820190506123b36000830188612333565b6123c06020830187612374565b6123cd6040830186612374565b6123da6060830185612333565b6123e7608083018461238f565b9695505050505050565b6123fa81612362565b811461240557600080fd5b50565b600081359050612417816123f1565b92915050565b60008060408385031215612434576124336122cb565b5b6000612442858286016122f1565b925050602061245385828601612408565b9150509250929050565b60006020820190506124726000830184612333565b92915050565b600060208201905061248d6000830184612374565b92915050565b600080604083850312156124aa576124a96122cb565b5b60006124b8858286016122f1565b92505060206124c9858286016122f1565b9150509250929050565b6124dc816122d0565b82525050565b6060820160008201516124f860008501826124d3565b50602082015161250b60208501826124d3565b50604082015161251e60408501826124d3565b50505050565b600060608201905061253960008301846124e2565b92915050565b60008060408385031215612556576125556122cb565b5b600061256485828601612408565b925050602061257585828601612408565b9150509250929050565b6000819050919050565b6125928161257f565b82525050565b60006020820190506125ad6000830184612589565b92915050565b6000602082840312156125c9576125c86122cb565b5b60006125d784828501612408565b91505092915050565b60006040820190506125f56000830185612589565b6126026020830184612374565b9392505050565b61261281612383565b811461261d57600080fd5b50565b60008151905061262f81612609565b92915050565b60006020828403121561264b5761264a6122cb565b5b600061265984828501612620565b91505092915050565b60006040820190506126776000830185612374565b6126846020830184612374565b9392505050565b60008151905061269a816122da565b92915050565b6000602082840312156126b6576126b56122cb565b5b60006126c48482850161268b565b91505092915050565b7f4e487b7100000000000000000000000000000000000000000000000000000000600052601160045260246000fd5b6000612707826122d0565b9150612712836122d0565b925082820390508181111561272a576127296126cd565b5b92915050565b600061273b826122d0565b9150612746836122d0565b9250828202612754816122d0565b9150828204841483151761276b5761276a6126cd565b5b5092915050565b7f4e487b7100000000000000000000000000000000000000000000000000000000600052601260045260246000fd5b60006127ac826122d0565b91506127b7836122d0565b9250826127c7576127c6612772565b5b828204905092915050565b60006127dd826122d0565b91506127e8836122d0565b9250828201905080821115612800576127ff6126cd565b5b92915050565b600060608201905061281b6000830186612333565b6128286020830185612374565b6128356040830184612333565b949350505050565b60006080820190506128526000830187612333565b61285f6020830186612374565b61286c6040830185612333565b6128796060830184612333565b95945050505050565b60006080820190506128976000830187612333565b6128a46020830186612333565b6128b16040830185612374565b6128be6060830184612374565b95945050505050565b600060a0820190506128dc6000830188612333565b6128e96020830187612333565b6128f66040830186612374565b6129036060830185612374565b6129106080830184612333565b9695505050505050565b600082825260208201905092915050565b7f496e697469616c697a61626c653a20636f6e747261637420697320616c72656160008201527f647920696e697469616c697a6564000000000000000000000000000000000000602082015250565b6000612987602e8361291a565b91506129928261292b565b604082019050919050565b600060208201905081810360008301526129b68161297a565b9050919050565b6000819050919050565b600060ff82169050919050565b6000819050919050565b60006129f96129f46129ef846129bd565b6129d4565b6129c7565b9050919050565b612a09816129de565b82525050565b6000602082019050612a246000830184612a00565b92915050565b6000604082019050612a3f6000830185612374565b612a4c6020830184612333565b9392505050565b6000606082019050612a686000830186612374565b612a756020830185612374565b612a826040830184612333565b949350505050565b7f5361666545524332303a204552433230206f7065726174696f6e20646964206e60008201527f6f74207375636365656400000000000000000000000000000000000000000000602082015250565b6000612ae6602a8361291a565b9150612af182612a8a565b604082019050919050565b60006020820190508181036000830152612b1581612ad9565b9050919050565b7f416464726573733a20696e73756666696369656e742062616c616e636520666f60008201527f722063616c6c0000000000000000000000000000000000000000000000000000602082015250565b6000612b7860268361291a565b9150612b8382612b1c565b604082019050919050565b60006020820190508181036000830152612ba781612b6b565b9050919050565b600081519050919050565b600081905092915050565b60005b83811015612be2578082015181840152602081019050612bc7565b60008484015250505050565b6000612bf982612bae565b612c038185612bb9565b9350612c13818560208601612bc4565b80840191505092915050565b6000612c2b8284612bee565b915081905092915050565b7f416464726573733a2063616c6c20746f206e6f6e2d636f6e7472616374000000600082015250565b6000612c6c601d8361291a565b9150612c7782612c36565b602082019050919050565b60006020820190508181036000830152612c9b81612c5f565b9050919050565b600081519050919050565b6000601f19601f8301169050919050565b6000612cc982612ca2565b612cd3818561291a565b9350612ce3818560208601612bc4565b612cec81612cad565b840191505092915050565b60006020820190508181036000830152612d118184612cbe565b90509291505056fea26469706673582212200abc5ed7e22cb90f679bf6b76d15b9e342723510160a4f822ff7afdfa512c62c64736f6c63430008140033",
  "devdoc": {
    "events": {
      "Initialized(uint8)": {
        "details": "Triggered when the contract has been initialized or reinitialized."
      }
    },
    "kind": "dev",
    "methods": {},
    "version": 1
  },
  "userdoc": {
    "kind": "user",
    "methods": {},
    "version": 1
  },
  "storageLayout": {
    "storage": [
      {
        "astId": 720,
        "contract": "contracts/NonLockStakingPools.sol:NonLockStakingPools",
        "label": "_initialized",
        "offset": 0,
        "slot": "0",
        "type": "t_uint8"
      },
      {
        "astId": 723,
        "contract": "contracts/NonLockStakingPools.sol:NonLockStakingPools",
        "label": "_initializing",
        "offset": 1,
        "slot": "0",
        "type": "t_bool"
      },
      {
        "astId": 8093,
        "contract": "contracts/NonLockStakingPools.sol:NonLockStakingPools",
        "label": "roleControl",
        "offset": 2,
        "slot": "0",
        "type": "t_contract(IRoleControl)10073"
      },
      {
        "astId": 8095,
        "contract": "contracts/NonLockStakingPools.sol:NonLockStakingPools",
        "label": "treasury",
        "offset": 0,
        "slot": "1",
        "type": "t_address"
      },
      {
        "astId": 8097,
        "contract": "contracts/NonLockStakingPools.sol:NonLockStakingPools",
        "label": "nextPoolId",
        "offset": 0,
        "slot": "2",
        "type": "t_uint256"
      },
      {
        "astId": 8101,
        "contract": "contracts/NonLockStakingPools.sol:NonLockStakingPools",
        "label": "yieldTokens",
        "offset": 0,
        "slot": "3",
        "type": "t_mapping(t_address,t_address)"
      },
      {
        "astId": 8106,
        "contract": "contracts/NonLockStakingPools.sol:NonLockStakingPools",
        "label": "poolInfo",
        "offset": 0,
        "slot": "4",
        "type": "t_mapping(t_uint256,t_struct(PoolInfo)10009_storage)"
      },
      {
        "astId": 8113,
        "contract": "contracts/NonLockStakingPools.sol:NonLockStakingPools",
        "label": "userStakes",
        "offset": 0,
        "slot": "5",
        "type": "t_mapping(t_uint256,t_mapping(t_address,t_struct(StakePosition)9998_storage))"
      },
      {
        "astId": 8118,
        "contract": "contracts/NonLockStakingPools.sol:NonLockStakingPools",
        "label": "listUsers",
        "offset": 0,
        "slot": "6",
        "type": "t_mapping(t_uint256,t_array(t_address)dyn_storage)"
      }
    ],
    "types": {
      "t_address": {
        "encoding": "inplace",
        "label": "address",
        "numberOfBytes": "20"
      },
      "t_array(t_address)dyn_storage": {
        "base": "t_address",
        "encoding": "dynamic_array",
        "label": "address[]",
        "numberOfBytes": "32"
      },
      "t_bool": {
        "encoding": "inplace",
        "label": "bool",
        "numberOfBytes": "1"
      },
      "t_contract(IRoleControl)10073": {
        "encoding": "inplace",
        "label": "contract IRoleControl",
        "numberOfBytes": "20"
      },
      "t_mapping(t_address,t_address)": {
        "encoding": "mapping",
        "key": "t_address",
        "label": "mapping(address => address)",
        "numberOfBytes": "32",
        "value": "t_address"
      },
      "t_mapping(t_address,t_struct(StakePosition)9998_storage)": {
        "encoding": "mapping",
        "key": "t_address",
        "label": "mapping(address => struct INonLockStaking.StakePosition)",
        "numberOfBytes": "32",
        "value": "t_struct(StakePosition)9998_storage"
      },
      "t_mapping(t_uint256,t_array(t_address)dyn_storage)": {
        "encoding": "mapping",
        "key": "t_uint256",
        "label": "mapping(uint256 => address[])",
        "numberOfBytes": "32",
        "value": "t_array(t_address)dyn_storage"
      },
      "t_mapping(t_uint256,t_mapping(t_address,t_struct(StakePosition)9998_storage))": {
        "encoding": "mapping",
        "key": "t_uint256",
        "label": "mapping(uint256 => mapping(address => struct INonLockStaking.StakePosition))",
        "numberOfBytes": "32",
        "value": "t_mapping(t_address,t_struct(StakePosition)9998_storage)"
      },
      "t_mapping(t_uint256,t_struct(PoolInfo)10009_storage)": {
        "encoding": "mapping",
        "key": "t_uint256",
        "label": "mapping(uint256 => struct INonLockStaking.PoolInfo)",
        "numberOfBytes": "32",
        "value": "t_struct(PoolInfo)10009_storage"
      },
      "t_struct(PoolInfo)10009_storage": {
        "encoding": "inplace",
        "label": "struct INonLockStaking.PoolInfo",
        "members": [
          {
            "astId": 10000,
            "contract": "contracts/NonLockStakingPools.sol:NonLockStakingPools",
            "label": "yieldAPY",
            "offset": 0,
            "slot": "0",
            "type": "t_uint256"
          },
          {
            "astId": 10002,
            "contract": "contracts/NonLockStakingPools.sol:NonLockStakingPools",
            "label": "yieldToken",
            "offset": 0,
            "slot": "1",
            "type": "t_address"
          },
          {
            "astId": 10004,
            "contract": "contracts/NonLockStakingPools.sol:NonLockStakingPools",
            "label": "stakeToken",
            "offset": 0,
            "slot": "2",
            "type": "t_address"
          },
          {
            "astId": 10006,
            "contract": "contracts/NonLockStakingPools.sol:NonLockStakingPools",
            "label": "totalStaked",
            "offset": 0,
            "slot": "3",
            "type": "t_uint256"
          },
          {
            "astId": 10008,
            "contract": "contracts/NonLockStakingPools.sol:NonLockStakingPools",
            "label": "enabled",
            "offset": 0,
            "slot": "4",
            "type": "t_bool"
          }
        ],
        "numberOfBytes": "160"
      },
      "t_struct(StakePosition)9998_storage": {
        "encoding": "inplace",
        "label": "struct INonLockStaking.StakePosition",
        "members": [
          {
            "astId": 9993,
            "contract": "contracts/NonLockStakingPools.sol:NonLockStakingPools",
            "label": "amount",
            "offset": 0,
            "slot": "0",
            "type": "t_uint256"
          },
          {
            "astId": 9995,
            "contract": "contracts/NonLockStakingPools.sol:NonLockStakingPools",
            "label": "lastCalcTs",
            "offset": 0,
            "slot": "1",
            "type": "t_uint256"
          },
          {
            "astId": 9997,
            "contract": "contracts/NonLockStakingPools.sol:NonLockStakingPools",
            "label": "pendingReward",
            "offset": 0,
            "slot": "2",
            "type": "t_uint256"
          }
        ],
        "numberOfBytes": "96"
      },
      "t_uint256": {
        "encoding": "inplace",
        "label": "uint256",
        "numberOfBytes": "32"
      },
      "t_uint8": {
        "encoding": "inplace",
        "label": "uint8",
        "numberOfBytes": "1"
      }
    }
  }
}