{
  "address": "0x9A3C4aB8d0E2C8Fe9ACbd2D032a9e63Aaa2d32E9",
  "abi": [
    {
      "inputs": [],
      "name": "AlreadyFinalized",
      "type": "error"
    },
    {
      "inputs": [],
      "name": "AlreadyStarted",
      "type": "error"
    },
    {
      "inputs": [],
      "name": "FudingGoalNotReached",
      "type": "error"
    },
    {
      "inputs": [],
      "name": "IDONotEnded",
      "type": "error"
    },
    {
      "inputs": [
        {
          "internalType": "address",
          "name": "token",
          "type": "address"
        }
      ],
      "name": "InvalidParticipateToken",
      "type": "error"
    },
    {
      "inputs": [
        {
          "internalType": "uint256",
          "name": "amount",
          "type": "uint256"
        }
      ],
      "name": "InvalidTokenAmounts",
      "type": "error"
    },
    {
      "inputs": [],
      "name": "NoStaking",
      "type": "error"
    },
    {
      "inputs": [],
      "name": "NotClaimable",
      "type": "error"
    },
    {
      "inputs": [],
      "name": "NotFinalized",
      "type": "error"
    },
    {
      "inputs": [
        {
          "internalType": "address",
          "name": "",
          "type": "address"
        }
      ],
      "name": "NotStaker",
      "type": "error"
    },
    {
      "inputs": [],
      "name": "NotStarted",
      "type": "error"
    },
    {
      "inputs": [
        {
          "internalType": "address",
          "name": "token",
          "type": "address"
        }
      ],
      "name": "ParticipateWithDifferentToken",
      "type": "error"
    },
    {
      "anonymous": false,
      "inputs": [
        {
          "indexed": true,
          "internalType": "address",
          "name": "account",
          "type": "address"
        },
        {
          "indexed": false,
          "internalType": "uint256",
          "name": "idoAmount",
          "type": "uint256"
        },
        {
          "indexed": false,
          "internalType": "uint256",
          "name": "refundAmount",
          "type": "uint256"
        }
      ],
      "name": "Claim",
      "type": "event"
    },
    {
      "anonymous": false,
      "inputs": [
        {
          "indexed": false,
          "internalType": "uint8",
          "name": "version",
          "type": "uint8"
        }
      ],
      "name": "Initialized",
      "type": "event"
    },
    {
      "anonymous": false,
      "inputs": [
        {
          "indexed": true,
          "internalType": "address",
          "name": "previousOwner",
          "type": "address"
        },
        {
          "indexed": true,
          "internalType": "address",
          "name": "newOwner",
          "type": "address"
        }
      ],
      "name": "OwnershipTransferStarted",
      "type": "event"
    },
    {
      "anonymous": false,
      "inputs": [
        {
          "indexed": true,
          "internalType": "address",
          "name": "previousOwner",
          "type": "address"
        },
        {
          "indexed": true,
          "internalType": "address",
          "name": "newOwner",
          "type": "address"
        }
      ],
      "name": "OwnershipTransferred",
      "type": "event"
    },
    {
      "anonymous": false,
      "inputs": [
        {
          "indexed": true,
          "internalType": "address",
          "name": "account",
          "type": "address"
        },
        {
          "indexed": false,
          "internalType": "address",
          "name": "token",
          "type": "address"
        },
        {
          "indexed": false,
          "internalType": "uint256",
          "name": "amount",
          "type": "uint256"
        }
      ],
      "name": "Participation",
      "type": "event"
    },
    {
      "inputs": [],
      "name": "acceptOwnership",
      "outputs": [],
      "stateMutability": "nonpayable",
      "type": "function"
    },
    {
      "inputs": [
        {
          "internalType": "address",
          "name": "",
          "type": "address"
        }
      ],
      "name": "accountPosition",
      "outputs": [
        {
          "internalType": "uint256",
          "name": "fyAmount",
          "type": "uint256"
        },
        {
          "internalType": "uint256",
          "name": "amount",
          "type": "uint256"
        }
      ],
      "stateMutability": "view",
      "type": "function"
    },
    {
      "inputs": [],
      "name": "buyToken",
      "outputs": [
        {
          "internalType": "address",
          "name": "",
          "type": "address"
        }
      ],
      "stateMutability": "view",
      "type": "function"
    },
    {
      "inputs": [
        {
          "internalType": "address",
          "name": "staker",
          "type": "address"
        }
      ],
      "name": "claim",
      "outputs": [],
      "stateMutability": "nonpayable",
      "type": "function"
    },
    {
      "inputs": [],
      "name": "claimableTime",
      "outputs": [
        {
          "internalType": "uint256",
          "name": "",
          "type": "uint256"
        }
      ],
      "stateMutability": "view",
      "type": "function"
    },
    {
      "inputs": [],
      "name": "finalize",
      "outputs": [],
      "stateMutability": "nonpayable",
      "type": "function"
    },
    {
      "inputs": [],
      "name": "fyToken",
      "outputs": [
        {
          "internalType": "address",
          "name": "",
          "type": "address"
        }
      ],
      "stateMutability": "view",
      "type": "function"
    },
    {
      "inputs": [],
      "name": "idoEndTime",
      "outputs": [
        {
          "internalType": "uint256",
          "name": "",
          "type": "uint256"
        }
      ],
      "stateMutability": "view",
      "type": "function"
    },
    {
      "inputs": [],
      "name": "idoPrice",
      "outputs": [
        {
          "internalType": "uint256",
          "name": "",
          "type": "uint256"
        }
      ],
      "stateMutability": "view",
      "type": "function"
    },
    {
      "inputs": [],
      "name": "idoSize",
      "outputs": [
        {
          "internalType": "uint256",
          "name": "",
          "type": "uint256"
        }
      ],
      "stateMutability": "view",
      "type": "function"
    },
    {
      "inputs": [],
      "name": "idoStartTime",
      "outputs": [
        {
          "internalType": "uint256",
          "name": "",
          "type": "uint256"
        }
      ],
      "stateMutability": "view",
      "type": "function"
    },
    {
      "inputs": [],
      "name": "idoToken",
      "outputs": [
        {
          "internalType": "address",
          "name": "",
          "type": "address"
        }
      ],
      "stateMutability": "view",
      "type": "function"
    },
    {
      "inputs": [
        {
          "internalType": "address",
          "name": "usdb_",
          "type": "address"
        },
        {
          "internalType": "address",
          "name": "fyUSD_",
          "type": "address"
        },
        {
          "internalType": "address",
          "name": "idoToken_",
          "type": "address"
        },
        {
          "internalType": "uint256",
          "name": "idoDecimals_",
          "type": "uint256"
        },
        {
          "internalType": "address",
          "name": "treasury_",
          "type": "address"
        },
        {
          "internalType": "uint256",
          "name": "idoStartTime_",
          "type": "uint256"
        },
        {
          "internalType": "uint256",
          "name": "idoEndTime_",
          "type": "uint256"
        },
        {
          "internalType": "uint256",
          "name": "minimumFundingGoal_",
          "type": "uint256"
        },
        {
          "internalType": "uint256",
          "name": "idoPrice_",
          "type": "uint256"
        }
      ],
      "name": "init",
      "outputs": [],
      "stateMutability": "nonpayable",
      "type": "function"
    },
    {
      "inputs": [],
      "name": "isClaimable",
      "outputs": [
        {
          "internalType": "bool",
          "name": "",
          "type": "bool"
        }
      ],
      "stateMutability": "view",
      "type": "function"
    },
    {
      "inputs": [],
      "name": "isFinalized",
      "outputs": [
        {
          "internalType": "bool",
          "name": "",
          "type": "bool"
        }
      ],
      "stateMutability": "view",
      "type": "function"
    },
    {
      "inputs": [],
      "name": "minimumFundingGoal",
      "outputs": [
        {
          "internalType": "uint256",
          "name": "",
          "type": "uint256"
        }
      ],
      "stateMutability": "view",
      "type": "function"
    },
    {
      "inputs": [],
      "name": "owner",
      "outputs": [
        {
          "internalType": "address",
          "name": "",
          "type": "address"
        }
      ],
      "stateMutability": "view",
      "type": "function"
    },
    {
      "inputs": [
        {
          "internalType": "address",
          "name": "receipient",
          "type": "address"
        },
        {
          "internalType": "address",
          "name": "token",
          "type": "address"
        },
        {
          "internalType": "uint256",
          "name": "amount",
          "type": "uint256"
        }
      ],
      "name": "participate",
      "outputs": [],
      "stateMutability": "payable",
      "type": "function"
    },
    {
      "inputs": [],
      "name": "pendingOwner",
      "outputs": [
        {
          "internalType": "address",
          "name": "",
          "type": "address"
        }
      ],
      "stateMutability": "view",
      "type": "function"
    },
    {
      "inputs": [],
      "name": "renounceOwnership",
      "outputs": [],
      "stateMutability": "nonpayable",
      "type": "function"
    },
    {
      "inputs": [
        {
          "internalType": "address",
          "name": "_token",
          "type": "address"
        },
        {
          "internalType": "uint256",
          "name": "_idoDecimals",
          "type": "uint256"
        }
      ],
      "name": "setIDOToken",
      "outputs": [],
      "stateMutability": "nonpayable",
      "type": "function"
    },
    {
      "inputs": [],
      "name": "snapshotPriceDecimals",
      "outputs": [
        {
          "internalType": "uint256",
          "name": "",
          "type": "uint256"
        }
      ],
      "stateMutability": "view",
      "type": "function"
    },
    {
      "inputs": [],
      "name": "snapshotTokenPrice",
      "outputs": [
        {
          "internalType": "uint256",
          "name": "",
          "type": "uint256"
        }
      ],
      "stateMutability": "view",
      "type": "function"
    },
    {
      "inputs": [
        {
          "internalType": "address",
          "name": "newOwner",
          "type": "address"
        }
      ],
      "name": "transferOwnership",
      "outputs": [],
      "stateMutability": "nonpayable",
      "type": "function"
    },
    {
      "inputs": [],
      "name": "treasury",
      "outputs": [
        {
          "internalType": "address",
          "name": "",
          "type": "address"
        }
      ],
      "stateMutability": "view",
      "type": "function"
    },
    {
      "inputs": [],
      "name": "withdrawSpareIDO",
      "outputs": [],
      "stateMutability": "nonpayable",
      "type": "function"
    }
  ],
  "transactionHash": "0x2ea909daa7955ae6701f012f9fc872ba612cf9c9226f03fbbb1875269d0f6892",
  "args": [],
  "numDeployments": 2,
  "solcInputHash": "6d5a7b936f5d98b7cb017ba844209a6f",
  "bytecode": "0x608060405234801561001057600080fd5b50612b95806100206000396000f3fe6080604052600436106101815760003560e01c806379ba5097116100d1578063bf9c83ce1161008a578063dc3bfba911610064578063dc3bfba9146104d3578063e30c3978146104fe578063f2fde38b14610529578063f46cf7f01461055257610181565b8063bf9c83ce14610454578063cd80fe0d1461047d578063d6cd82bc146104a857610181565b806379ba5097146103755780638d4e40831461038c5780638da5cb5b146103b75780639653cc7a146103e2578063997ccc7e146103fe578063a48217191461042957610181565b80635ff56f6e1161013e57806370a6dea81161011857806370a6dea8146102df578063715018a61461030a57806374478bb314610321578063791839041461034c57610181565b80635ff56f6e1461025e57806361d027b3146102895780636d3185db146102b457610181565b806310a120531461018657806313f4e977146101b15780631dcd8ae5146101dc5780631e83409a1461020757806335f567be146102305780634bb278f314610247575b600080fd5b34801561019257600080fd5b5061019b610590565b6040516101a89190611f55565b60405180910390f35b3480156101bd57600080fd5b506101c6610596565b6040516101d39190611f55565b60405180910390f35b3480156101e857600080fd5b506101f161059c565b6040516101fe9190611f55565b60405180910390f35b34801561021357600080fd5b5061022e60048036038101906102299190611fd3565b6105a2565b005b34801561023c57600080fd5b506102456107be565b005b34801561025357600080fd5b5061025c6108ae565b005b34801561026a57600080fd5b50610273610b40565b6040516102809190611f55565b60405180910390f35b34801561029557600080fd5b5061029e610b46565b6040516102ab919061200f565b60405180910390f35b3480156102c057600080fd5b506102c9610b6c565b6040516102d69190611f55565b60405180910390f35b3480156102eb57600080fd5b506102f4610b72565b6040516103019190611f55565b60405180910390f35b34801561031657600080fd5b5061031f610b78565b005b34801561032d57600080fd5b50610336610b8c565b6040516103439190612045565b60405180910390f35b34801561035857600080fd5b50610373600480360381019061036e919061208c565b610b9f565b005b34801561038157600080fd5b5061038a610cef565b005b34801561039857600080fd5b506103a1610d7c565b6040516103ae9190612045565b60405180910390f35b3480156103c357600080fd5b506103cc610d8f565b6040516103d9919061200f565b60405180910390f35b6103fc60048036038101906103f79190612156565b610db9565b005b34801561040a57600080fd5b506104136110b0565b6040516104209190611f55565b60405180910390f35b34801561043557600080fd5b5061043e6110b6565b60405161044b919061200f565b60405180910390f35b34801561046057600080fd5b5061047b600480360381019061047691906121a9565b6110dc565b005b34801561048957600080fd5b50610492611180565b60405161049f9190611f55565b60405180910390f35b3480156104b457600080fd5b506104bd611186565b6040516104ca919061200f565b60405180910390f35b3480156104df57600080fd5b506104e86111ac565b6040516104f5919061200f565b60405180910390f35b34801561050a57600080fd5b506105136111d2565b604051610520919061200f565b60405180910390f35b34801561053557600080fd5b50610550600480360381019061054b9190611fd3565b6111fc565b005b34801561055e57600080fd5b5061057960048036038101906105749190611fd3565b6112a9565b6040516105879291906121e9565b60405180910390f35b609e5481565b60a75481565b60a05481565b609a60149054906101000a900460ff166105e8576040517f1bee0d5a00000000000000000000000000000000000000000000000000000000815260040160405180910390fd5b609b54421015610624576040517f6247a84e00000000000000000000000000000000000000000000000000000000815260040160405180910390fd5b600060a460008373ffffffffffffffffffffffffffffffffffffffff1673ffffffffffffffffffffffffffffffffffffffff16815260200190815260200160002060405180604001604052908160008201548152602001600182015481525050905060008160200151036106c4576040517fbaa8213400000000000000000000000000000000000000000000000000000000815260040160405180910390fd5b6000806106d0836112cd565b9150915060a460008573ffffffffffffffffffffffffffffffffffffffff1673ffffffffffffffffffffffffffffffffffffffff16815260200190815260200160002060008082016000905560018201600090555050600081111561073b5761073a8385836113c8565b5b610768609a60009054906101000a900473ffffffffffffffffffffffffffffffffffffffff168584611596565b8373ffffffffffffffffffffffffffffffffffffffff167f34fcbac0073d7c3d388e51312faf357774904998eeb8fca628b9e6f65ee1cbf783836040516107b09291906121e9565b60405180910390a250505050565b609a60149054906101000a900460ff16610804576040517f1bee0d5a00000000000000000000000000000000000000000000000000000000815260040160405180910390fd5b61080c61168c565b600060a254600a61081d9190612374565b609d54609e5461082d91906123bf565b6108379190612430565b905060a154811061084857506108ac565b6000609f5460a05460a15461085d91906123bf565b6108679190612430565b9050600081609e546108799190612461565b90506108a8609a60009054906101000a900473ffffffffffffffffffffffffffffffffffffffff163383611596565b5050505b565b6108b661168c565b609a60149054906101000a900460ff16156108fd576040517f475a253500000000000000000000000000000000000000000000000000000000815260040160405180910390fd5b60a654421015610939576040517f2dbbc8f700000000000000000000000000000000000000000000000000000000815260040160405180910390fd5b60a754609e541015610977576040517f7473e65600000000000000000000000000000000000000000000000000000000815260040160405180910390fd5b61097f61170a565b609f600060a0600084919050558391905055505060a054609f5460a36000609860009054906101000a900473ffffffffffffffffffffffffffffffffffffffff1673ffffffffffffffffffffffffffffffffffffffff1673ffffffffffffffffffffffffffffffffffffffff1681526020019081526020016000205460a36000609760009054906101000a900473ffffffffffffffffffffffffffffffffffffffff1673ffffffffffffffffffffffffffffffffffffffff1673ffffffffffffffffffffffffffffffffffffffff16815260200190815260200160002054610a679190612495565b610a7191906123bf565b610a7b9190612430565b60a181905550609a60009054906101000a900473ffffffffffffffffffffffffffffffffffffffff1673ffffffffffffffffffffffffffffffffffffffff166370a08231306040518263ffffffff1660e01b8152600401610adc919061200f565b602060405180830381865afa158015610af9573d6000803e3d6000fd5b505050506040513d601f19601f82011682018060405250810190610b1d91906124de565b609e819055506001609a60146101000a81548160ff021916908315150217905550565b60a65481565b609960009054906101000a900473ffffffffffffffffffffffffffffffffffffffff1681565b609b5481565b60a55481565b610b8061168c565b610b8a6000611718565b565b609c60009054906101000a900460ff1681565b60008060019054906101000a900460ff16159050808015610bd05750600160008054906101000a900460ff1660ff16105b80610bfd5750610bdf30611749565b158015610bfc5750600160008054906101000a900460ff1660ff16145b5b610c3c576040517f08c379a0000000000000000000000000000000000000000000000000000000008152600401610c339061258e565b60405180910390fd5b60016000806101000a81548160ff021916908360ff1602179055508015610c79576001600060016101000a81548160ff0219169083151502179055505b610c8a8a8a8a8a8a8a8a8a8a61176c565b8015610ce35760008060016101000a81548160ff0219169083151502179055507f7f26b83ff96e1f2b6a682f133852f6798a09c465da95921460cefb38474024986001604051610cda9190612600565b60405180910390a15b50505050505050505050565b6000610cf96117df565b90508073ffffffffffffffffffffffffffffffffffffffff16610d1a6111d2565b73ffffffffffffffffffffffffffffffffffffffff1614610d70576040517f08c379a0000000000000000000000000000000000000000000000000000000008152600401610d679061268d565b60405180910390fd5b610d7981611718565b50565b609a60149054906101000a900460ff1681565b6000603360009054906101000a900473ffffffffffffffffffffffffffffffffffffffff16905090565b609a60149054906101000a900460ff1615610e00576040517f475a253500000000000000000000000000000000000000000000000000000000815260040160405180910390fd5b60a554421015610e3c576040517f6f312cbd00000000000000000000000000000000000000000000000000000000815260040160405180910390fd5b609760009054906101000a900473ffffffffffffffffffffffffffffffffffffffff1673ffffffffffffffffffffffffffffffffffffffff168273ffffffffffffffffffffffffffffffffffffffff1614158015610ee85750609860009054906101000a900473ffffffffffffffffffffffffffffffffffffffff1673ffffffffffffffffffffffffffffffffffffffff168273ffffffffffffffffffffffffffffffffffffffff1614155b15610f2a57816040517f0fe3f57b000000000000000000000000000000000000000000000000000000008152600401610f21919061200f565b60405180910390fd5b600060a460008573ffffffffffffffffffffffffffffffffffffffff1673ffffffffffffffffffffffffffffffffffffffff1681526020019081526020016000209050609860009054906101000a900473ffffffffffffffffffffffffffffffffffffffff1673ffffffffffffffffffffffffffffffffffffffff168373ffffffffffffffffffffffffffffffffffffffff1603610fde5781816000016000828254610fd69190612495565b925050819055505b81816001016000828254610ff29190612495565b925050819055508160a360008573ffffffffffffffffffffffffffffffffffffffff1673ffffffffffffffffffffffffffffffffffffffff16815260200190815260200160002060008282546110489190612495565b9250508190555061105a8333846117e7565b8373ffffffffffffffffffffffffffffffffffffffff167ff6764e668f66491117a03c0e0009c5bed5b1aabe82e3ab4d38ff8bdb35094ec184846040516110a29291906126ad565b60405180910390a250505050565b609f5481565b609760009054906101000a900473ffffffffffffffffffffffffffffffffffffffff1681565b6110e461168c565b609a60149054906101000a900460ff1615611134576040517f08c379a000000000000000000000000000000000000000000000000000000000815260040161112b90612722565b60405180910390fd5b81609a60006101000a81548173ffffffffffffffffffffffffffffffffffffffff021916908373ffffffffffffffffffffffffffffffffffffffff1602179055508060a2819055505050565b609d5481565b609a60009054906101000a900473ffffffffffffffffffffffffffffffffffffffff1681565b609860009054906101000a900473ffffffffffffffffffffffffffffffffffffffff1681565b6000606560009054906101000a900473ffffffffffffffffffffffffffffffffffffffff16905090565b61120461168c565b80606560006101000a81548173ffffffffffffffffffffffffffffffffffffffff021916908373ffffffffffffffffffffffffffffffffffffffff1602179055508073ffffffffffffffffffffffffffffffffffffffff16611264610d8f565b73ffffffffffffffffffffffffffffffffffffffff167f38d16b8cac22d99fc7c124b9cd0de2d3fa1faef420bfe791d8c362d765e2270060405160405180910390a350565b60a46020528060005260406000206000915090508060000154908060010154905082565b600080600060a054609f5485602001516112e791906123bf565b6112f19190612430565b9050600060a254600a6113049190612374565b9050600060a15483609e5461131991906123bf565b6113239190612430565b90506000609d54838561133691906123bf565b6113409190612430565b905060a15483609d54609e5461135691906123bf565b6113609190612430565b106113755780600095509550505050506113c3565b6000609d54848461138691906123bf565b6113909190612430565b8561139b9190612461565b905082609f5460a054836113af91906123bf565b6113b99190612430565b9650965050505050505b915091565b826000015181116114c557611400609860009054906101000a900473ffffffffffffffffffffffffffffffffffffffff168383611596565b61145e609860009054906101000a900473ffffffffffffffffffffffffffffffffffffffff16609960009054906101000a900473ffffffffffffffffffffffffffffffffffffffff168386600001516114599190612461565b611596565b6114c0609760009054906101000a900473ffffffffffffffffffffffffffffffffffffffff16609960009054906101000a900473ffffffffffffffffffffffffffffffffffffffff16856000015186602001516114bb9190612461565b611596565b611591565b6114f6609860009054906101000a900473ffffffffffffffffffffffffffffffffffffffff16838560000151611596565b611532609760009054906101000a900473ffffffffffffffffffffffffffffffffffffffff168385600001518461152d9190612461565b611596565b611590609760009054906101000a900473ffffffffffffffffffffffffffffffffffffffff16609960009054906101000a900473ffffffffffffffffffffffffffffffffffffffff1683866020015161158b9190612461565b611596565b5b505050565b600073ffffffffffffffffffffffffffffffffffffffff168373ffffffffffffffffffffffffffffffffffffffff160361165b578047101561160f57806040517f83b9f0ae0000000000000000000000000000000000000000000000000000000081526004016116069190611f55565b60405180910390fd5b8173ffffffffffffffffffffffffffffffffffffffff166108fc829081150290604051600060405180830381858888f19350505050158015611655573d6000803e3d6000fd5b50611687565b61168682828573ffffffffffffffffffffffffffffffffffffffff166118979092919063ffffffff16565b5b505050565b6116946117df565b73ffffffffffffffffffffffffffffffffffffffff166116b2610d8f565b73ffffffffffffffffffffffffffffffffffffffff1614611708576040517f08c379a00000000000000000000000000000000000000000000000000000000081526004016116ff9061278e565b60405180910390fd5b565b600080600180915091509091565b606560006101000a81549073ffffffffffffffffffffffffffffffffffffffff02191690556117468161191d565b50565b6000808273ffffffffffffffffffffffffffffffffffffffff163b119050919050565b600060019054906101000a900460ff166117bb576040517f08c379a00000000000000000000000000000000000000000000000000000000081526004016117b290612820565b60405180910390fd5b6117cc8989898989898989896119e3565b6117d4611b64565b505050505050505050565b600033905090565b600073ffffffffffffffffffffffffffffffffffffffff168373ffffffffffffffffffffffffffffffffffffffff16036118645734811461185f57806040517f83b9f0ae0000000000000000000000000000000000000000000000000000000081526004016118569190611f55565b60405180910390fd5b611892565b6118918230838673ffffffffffffffffffffffffffffffffffffffff16611bbd909392919063ffffffff16565b5b505050565b6119188363a9059cbb60e01b84846040516024016118b69291906126ad565b604051602081830303815290604052907bffffffffffffffffffffffffffffffffffffffffffffffffffffffff19166020820180517bffffffffffffffffffffffffffffffffffffffffffffffffffffffff8381831617835250505050611c46565b505050565b6000603360009054906101000a900473ffffffffffffffffffffffffffffffffffffffff16905081603360006101000a81548173ffffffffffffffffffffffffffffffffffffffff021916908373ffffffffffffffffffffffffffffffffffffffff1602179055508173ffffffffffffffffffffffffffffffffffffffff168173ffffffffffffffffffffffffffffffffffffffff167f8be0079c531659141344cd1fd0a4f28419497f9722a3daafe3b4186f6b6457e060405160405180910390a35050565b600060019054906101000a900460ff16611a32576040517f08c379a0000000000000000000000000000000000000000000000000000000008152600401611a2990612820565b60405180910390fd5b88609760006101000a81548173ffffffffffffffffffffffffffffffffffffffff021916908373ffffffffffffffffffffffffffffffffffffffff16021790555087609860006101000a81548173ffffffffffffffffffffffffffffffffffffffff021916908373ffffffffffffffffffffffffffffffffffffffff16021790555086609a60006101000a81548173ffffffffffffffffffffffffffffffffffffffff021916908373ffffffffffffffffffffffffffffffffffffffff1602179055508560a28190555084609960006101000a81548173ffffffffffffffffffffffffffffffffffffffff021916908373ffffffffffffffffffffffffffffffffffffffff1602179055508360a5819055508260a6819055508160a78190555080609d81905550505050505050505050565b600060019054906101000a900460ff16611bb3576040517f08c379a0000000000000000000000000000000000000000000000000000000008152600401611baa90612820565b60405180910390fd5b611bbb611d0e565b565b611c40846323b872dd60e01b858585604051602401611bde93929190612840565b604051602081830303815290604052907bffffffffffffffffffffffffffffffffffffffffffffffffffffffff19166020820180517bffffffffffffffffffffffffffffffffffffffffffffffffffffffff8381831617835250505050611c46565b50505050565b6000611ca8826040518060400160405280602081526020017f5361666545524332303a206c6f772d6c6576656c2063616c6c206661696c65648152508573ffffffffffffffffffffffffffffffffffffffff16611d6f9092919063ffffffff16565b9050600081511480611cca575080806020019051810190611cc991906128a3565b5b611d09576040517f08c379a0000000000000000000000000000000000000000000000000000000008152600401611d0090612942565b60405180910390fd5b505050565b600060019054906101000a900460ff16611d5d576040517f08c379a0000000000000000000000000000000000000000000000000000000008152600401611d5490612820565b60405180910390fd5b611d6d611d686117df565b611718565b565b6060611d7e8484600085611d87565b90509392505050565b606082471015611dcc576040517f08c379a0000000000000000000000000000000000000000000000000000000008152600401611dc3906129d4565b60405180910390fd5b6000808673ffffffffffffffffffffffffffffffffffffffff168587604051611df59190612a65565b60006040518083038185875af1925050503d8060008114611e32576040519150601f19603f3d011682016040523d82523d6000602084013e611e37565b606091505b5091509150611e4887838387611e54565b92505050949350505050565b60608315611eb6576000835103611eae57611e6e85611ec9565b611ead576040517f08c379a0000000000000000000000000000000000000000000000000000000008152600401611ea490612ac8565b60405180910390fd5b5b829050611ec1565b611ec08383611eec565b5b949350505050565b6000808273ffffffffffffffffffffffffffffffffffffffff163b119050919050565b600082511115611eff5781518083602001fd5b806040517f08c379a0000000000000000000000000000000000000000000000000000000008152600401611f339190612b3d565b60405180910390fd5b6000819050919050565b611f4f81611f3c565b82525050565b6000602082019050611f6a6000830184611f46565b92915050565b600080fd5b600073ffffffffffffffffffffffffffffffffffffffff82169050919050565b6000611fa082611f75565b9050919050565b611fb081611f95565b8114611fbb57600080fd5b50565b600081359050611fcd81611fa7565b92915050565b600060208284031215611fe957611fe8611f70565b5b6000611ff784828501611fbe565b91505092915050565b61200981611f95565b82525050565b60006020820190506120246000830184612000565b92915050565b60008115159050919050565b61203f8161202a565b82525050565b600060208201905061205a6000830184612036565b92915050565b61206981611f3c565b811461207457600080fd5b50565b60008135905061208681612060565b92915050565b60008060008060008060008060006101208a8c0312156120af576120ae611f70565b5b60006120bd8c828d01611fbe565b99505060206120ce8c828d01611fbe565b98505060406120df8c828d01611fbe565b97505060606120f08c828d01612077565b96505060806121018c828d01611fbe565b95505060a06121128c828d01612077565b94505060c06121238c828d01612077565b93505060e06121348c828d01612077565b9250506101006121468c828d01612077565b9150509295985092959850929598565b60008060006060848603121561216f5761216e611f70565b5b600061217d86828701611fbe565b935050602061218e86828701611fbe565b925050604061219f86828701612077565b9150509250925092565b600080604083850312156121c0576121bf611f70565b5b60006121ce85828601611fbe565b92505060206121df85828601612077565b9150509250929050565b60006040820190506121fe6000830185611f46565b61220b6020830184611f46565b9392505050565b7f4e487b7100000000000000000000000000000000000000000000000000000000600052601160045260246000fd5b60008160011c9050919050565b6000808291508390505b60018511156122985780860481111561227457612273612212565b5b60018516156122835780820291505b808102905061229185612241565b9450612258565b94509492505050565b6000826122b1576001905061236d565b816122bf576000905061236d565b81600181146122d557600281146122df5761230e565b600191505061236d565b60ff8411156122f1576122f0612212565b5b8360020a91508482111561230857612307612212565b5b5061236d565b5060208310610133831016604e8410600b84101617156123435782820a90508381111561233e5761233d612212565b5b61236d565b612350848484600161224e565b9250905081840481111561236757612366612212565b5b81810290505b9392505050565b600061237f82611f3c565b915061238a83611f3c565b92506123b77fffffffffffffffffffffffffffffffffffffffffffffffffffffffffffffffff84846122a1565b905092915050565b60006123ca82611f3c565b91506123d583611f3c565b92508282026123e381611f3c565b915082820484148315176123fa576123f9612212565b5b5092915050565b7f4e487b7100000000000000000000000000000000000000000000000000000000600052601260045260246000fd5b600061243b82611f3c565b915061244683611f3c565b92508261245657612455612401565b5b828204905092915050565b600061246c82611f3c565b915061247783611f3c565b925082820390508181111561248f5761248e612212565b5b92915050565b60006124a082611f3c565b91506124ab83611f3c565b92508282019050808211156124c3576124c2612212565b5b92915050565b6000815190506124d881612060565b92915050565b6000602082840312156124f4576124f3611f70565b5b6000612502848285016124c9565b91505092915050565b600082825260208201905092915050565b7f496e697469616c697a61626c653a20636f6e747261637420697320616c72656160008201527f647920696e697469616c697a6564000000000000000000000000000000000000602082015250565b6000612578602e8361250b565b91506125838261251c565b604082019050919050565b600060208201905081810360008301526125a78161256b565b9050919050565b6000819050919050565b600060ff82169050919050565b6000819050919050565b60006125ea6125e56125e0846125ae565b6125c5565b6125b8565b9050919050565b6125fa816125cf565b82525050565b600060208201905061261560008301846125f1565b92915050565b7f4f776e61626c6532537465703a2063616c6c6572206973206e6f74207468652060008201527f6e6577206f776e65720000000000000000000000000000000000000000000000602082015250565b600061267760298361250b565b91506126828261261b565b604082019050919050565b600060208201905081810360008301526126a68161266a565b9050919050565b60006040820190506126c26000830185612000565b6126cf6020830184611f46565b9392505050565b7f496e76616c6964546f6b656e0000000000000000000000000000000000000000600082015250565b600061270c600c8361250b565b9150612717826126d6565b602082019050919050565b6000602082019050818103600083015261273b816126ff565b9050919050565b7f4f776e61626c653a2063616c6c6572206973206e6f7420746865206f776e6572600082015250565b600061277860208361250b565b915061278382612742565b602082019050919050565b600060208201905081810360008301526127a78161276b565b9050919050565b7f496e697469616c697a61626c653a20636f6e7472616374206973206e6f74206960008201527f6e697469616c697a696e67000000000000000000000000000000000000000000602082015250565b600061280a602b8361250b565b9150612815826127ae565b604082019050919050565b60006020820190508181036000830152612839816127fd565b9050919050565b60006060820190506128556000830186612000565b6128626020830185612000565b61286f6040830184611f46565b949350505050565b6128808161202a565b811461288b57600080fd5b50565b60008151905061289d81612877565b92915050565b6000602082840312156128b9576128b8611f70565b5b60006128c78482850161288e565b91505092915050565b7f5361666545524332303a204552433230206f7065726174696f6e20646964206e60008201527f6f74207375636365656400000000000000000000000000000000000000000000602082015250565b600061292c602a8361250b565b9150612937826128d0565b604082019050919050565b6000602082019050818103600083015261295b8161291f565b9050919050565b7f416464726573733a20696e73756666696369656e742062616c616e636520666f60008201527f722063616c6c0000000000000000000000000000000000000000000000000000602082015250565b60006129be60268361250b565b91506129c982612962565b604082019050919050565b600060208201905081810360008301526129ed816129b1565b9050919050565b600081519050919050565b600081905092915050565b60005b83811015612a28578082015181840152602081019050612a0d565b60008484015250505050565b6000612a3f826129f4565b612a4981856129ff565b9350612a59818560208601612a0a565b80840191505092915050565b6000612a718284612a34565b915081905092915050565b7f416464726573733a2063616c6c20746f206e6f6e2d636f6e7472616374000000600082015250565b6000612ab2601d8361250b565b9150612abd82612a7c565b602082019050919050565b60006020820190508181036000830152612ae181612aa5565b9050919050565b600081519050919050565b6000601f19601f8301169050919050565b6000612b0f82612ae8565b612b19818561250b565b9350612b29818560208601612a0a565b612b3281612af3565b840191505092915050565b60006020820190508181036000830152612b578184612b04565b90509291505056fea2646970667358221220549298a2e892b73e77c7a86c41d1a5b88222719f6b867d4c589f191a026fdb8564736f6c63430008140033",
  "devdoc": {
    "events": {
      "Initialized(uint8)": {
        "details": "Triggered when the contract has been initialized or reinitialized."
      }
    },
    "kind": "dev",
    "methods": {
      "acceptOwnership()": {
        "details": "The new owner accepts the ownership transfer."
      },
      "claim(address)": {
        "details": "Claim refund and IDO token",
        "params": {
          "staker": "address of staker to claim IDO token1"
        }
      },
      "finalize()": {
        "details": "finalize the IDO pool cannot finalize if IDO has not reached end time or minimum funding goal is not reached. Finalize will calulate total value of USD funded for IDO and determine IDO size"
      },
      "owner()": {
        "details": "Returns the address of the current owner."
      },
      "participate(address,address,uint256)": {
        "details": "Participate in IDO",
        "params": {
          "amount": "amount of token to participate",
          "receipient": "address to participate in IDO",
          "token": "address of token used to particpate, must be either buyToken or fyToken"
        }
      },
      "pendingOwner()": {
        "details": "Returns the address of the pending owner."
      },
      "renounceOwnership()": {
        "details": "Leaves the contract without owner. It will not be possible to call `onlyOwner` functions. Can only be called by the current owner. NOTE: Renouncing ownership will leave the contract without an owner, thereby disabling any functionality that is only available to the owner."
      },
      "transferOwnership(address)": {
        "details": "Starts the ownership transfer of the contract to a new account. Replaces the pending transfer if there is one. Can only be called by the current owner."
      },
      "withdrawSpareIDO()": {
        "details": "Withdraw remaining IDO token if funding goal is not reached"
      }
    },
    "version": 1
  },
  "userdoc": {
    "kind": "user",
    "methods": {},
    "version": 1
  },
  "storageLayout": {
    "storage": [
      {
        "astId": 246,
        "contract": "contracts/ido/USDIDOPool.sol:USDIDOPool",
        "label": "_initialized",
        "offset": 0,
        "slot": "0",
        "type": "t_uint8"
      },
      {
        "astId": 249,
        "contract": "contracts/ido/USDIDOPool.sol:USDIDOPool",
        "label": "_initializing",
        "offset": 1,
        "slot": "0",
        "type": "t_bool"
      },
      {
        "astId": 788,
        "contract": "contracts/ido/USDIDOPool.sol:USDIDOPool",
        "label": "__gap",
        "offset": 0,
        "slot": "1",
        "type": "t_array(t_uint256)50_storage"
      },
      {
        "astId": 118,
        "contract": "contracts/ido/USDIDOPool.sol:USDIDOPool",
        "label": "_owner",
        "offset": 0,
        "slot": "51",
        "type": "t_address"
      },
      {
        "astId": 238,
        "contract": "contracts/ido/USDIDOPool.sol:USDIDOPool",
        "label": "__gap",
        "offset": 0,
        "slot": "52",
        "type": "t_array(t_uint256)49_storage"
      },
      {
        "astId": 11,
        "contract": "contracts/ido/USDIDOPool.sol:USDIDOPool",
        "label": "_pendingOwner",
        "offset": 0,
        "slot": "101",
        "type": "t_address"
      },
      {
        "astId": 105,
        "contract": "contracts/ido/USDIDOPool.sol:USDIDOPool",
        "label": "__gap",
        "offset": 0,
        "slot": "102",
        "type": "t_array(t_uint256)49_storage"
      },
      {
        "astId": 6859,
        "contract": "contracts/ido/USDIDOPool.sol:USDIDOPool",
        "label": "buyToken",
        "offset": 0,
        "slot": "151",
        "type": "t_address"
      },
      {
        "astId": 6861,
        "contract": "contracts/ido/USDIDOPool.sol:USDIDOPool",
        "label": "fyToken",
        "offset": 0,
        "slot": "152",
        "type": "t_address"
      },
      {
        "astId": 6863,
        "contract": "contracts/ido/USDIDOPool.sol:USDIDOPool",
        "label": "treasury",
        "offset": 0,
        "slot": "153",
        "type": "t_address"
      },
      {
        "astId": 6865,
        "contract": "contracts/ido/USDIDOPool.sol:USDIDOPool",
        "label": "idoToken",
        "offset": 0,
        "slot": "154",
        "type": "t_address"
      },
      {
        "astId": 6867,
        "contract": "contracts/ido/USDIDOPool.sol:USDIDOPool",
        "label": "isFinalized",
        "offset": 20,
        "slot": "154",
        "type": "t_bool"
      },
      {
        "astId": 6869,
        "contract": "contracts/ido/USDIDOPool.sol:USDIDOPool",
        "label": "claimableTime",
        "offset": 0,
        "slot": "155",
        "type": "t_uint256"
      },
      {
        "astId": 6871,
        "contract": "contracts/ido/USDIDOPool.sol:USDIDOPool",
        "label": "isClaimable",
        "offset": 0,
        "slot": "156",
        "type": "t_bool"
      },
      {
        "astId": 6873,
        "contract": "contracts/ido/USDIDOPool.sol:USDIDOPool",
        "label": "idoPrice",
        "offset": 0,
        "slot": "157",
        "type": "t_uint256"
      },
      {
        "astId": 6875,
        "contract": "contracts/ido/USDIDOPool.sol:USDIDOPool",
        "label": "idoSize",
        "offset": 0,
        "slot": "158",
        "type": "t_uint256"
      },
      {
        "astId": 6877,
        "contract": "contracts/ido/USDIDOPool.sol:USDIDOPool",
        "label": "snapshotTokenPrice",
        "offset": 0,
        "slot": "159",
        "type": "t_uint256"
      },
      {
        "astId": 6879,
        "contract": "contracts/ido/USDIDOPool.sol:USDIDOPool",
        "label": "snapshotPriceDecimals",
        "offset": 0,
        "slot": "160",
        "type": "t_uint256"
      },
      {
        "astId": 6881,
        "contract": "contracts/ido/USDIDOPool.sol:USDIDOPool",
        "label": "fundedUSDValue",
        "offset": 0,
        "slot": "161",
        "type": "t_uint256"
      },
      {
        "astId": 6883,
        "contract": "contracts/ido/USDIDOPool.sol:USDIDOPool",
        "label": "idoDecimals",
        "offset": 0,
        "slot": "162",
        "type": "t_uint256"
      },
      {
        "astId": 6887,
        "contract": "contracts/ido/USDIDOPool.sol:USDIDOPool",
        "label": "totalFunded",
        "offset": 0,
        "slot": "163",
        "type": "t_mapping(t_address,t_uint256)"
      },
      {
        "astId": 6892,
        "contract": "contracts/ido/USDIDOPool.sol:USDIDOPool",
        "label": "accountPosition",
        "offset": 0,
        "slot": "164",
        "type": "t_mapping(t_address,t_struct(Position)7817_storage)"
      },
      {
        "astId": 6894,
        "contract": "contracts/ido/USDIDOPool.sol:USDIDOPool",
        "label": "idoStartTime",
        "offset": 0,
        "slot": "165",
        "type": "t_uint256"
      },
      {
        "astId": 6896,
        "contract": "contracts/ido/USDIDOPool.sol:USDIDOPool",
        "label": "idoEndTime",
        "offset": 0,
        "slot": "166",
        "type": "t_uint256"
      },
      {
        "astId": 6898,
        "contract": "contracts/ido/USDIDOPool.sol:USDIDOPool",
        "label": "minimumFundingGoal",
        "offset": 0,
        "slot": "167",
        "type": "t_uint256"
      }
    ],
    "types": {
      "t_address": {
        "encoding": "inplace",
        "label": "address",
        "numberOfBytes": "20"
      },
      "t_array(t_uint256)49_storage": {
        "base": "t_uint256",
        "encoding": "inplace",
        "label": "uint256[49]",
        "numberOfBytes": "1568"
      },
      "t_array(t_uint256)50_storage": {
        "base": "t_uint256",
        "encoding": "inplace",
        "label": "uint256[50]",
        "numberOfBytes": "1600"
      },
      "t_bool": {
        "encoding": "inplace",
        "label": "bool",
        "numberOfBytes": "1"
      },
      "t_mapping(t_address,t_struct(Position)7817_storage)": {
        "encoding": "mapping",
        "key": "t_address",
        "label": "mapping(address => struct IIDOPool.Position)",
        "numberOfBytes": "32",
        "value": "t_struct(Position)7817_storage"
      },
      "t_mapping(t_address,t_uint256)": {
        "encoding": "mapping",
        "key": "t_address",
        "label": "mapping(address => uint256)",
        "numberOfBytes": "32",
        "value": "t_uint256"
      },
      "t_struct(Position)7817_storage": {
        "encoding": "inplace",
        "label": "struct IIDOPool.Position",
        "members": [
          {
            "astId": 7814,
            "contract": "contracts/ido/USDIDOPool.sol:USDIDOPool",
            "label": "fyAmount",
            "offset": 0,
            "slot": "0",
            "type": "t_uint256"
          },
          {
            "astId": 7816,
            "contract": "contracts/ido/USDIDOPool.sol:USDIDOPool",
            "label": "amount",
            "offset": 0,
            "slot": "1",
            "type": "t_uint256"
          }
        ],
        "numberOfBytes": "64"
      },
      "t_uint256": {
        "encoding": "inplace",
        "label": "uint256",
        "numberOfBytes": "32"
      },
      "t_uint8": {
        "encoding": "inplace",
        "label": "uint8",
        "numberOfBytes": "1"
      }
    }
  }
}