{
  "address": "0xD5E1e1C268153BCB0456081DB2D7bA70a424Ef50",
  "abi": [
    {
      "inputs": [],
      "name": "AlreadyFinalized",
      "type": "error"
    },
    {
      "inputs": [
        {
          "internalType": "address",
          "name": "token",
          "type": "address"
        }
      ],
      "name": "InvalidParticipateToken",
      "type": "error"
    },
    {
      "inputs": [
        {
          "internalType": "uint256",
          "name": "amount",
          "type": "uint256"
        }
      ],
      "name": "InvalidTokenAmounts",
      "type": "error"
    },
    {
      "inputs": [],
      "name": "NoStaking",
      "type": "error"
    },
    {
      "inputs": [],
      "name": "NotFinalized",
      "type": "error"
    },
    {
      "inputs": [
        {
          "internalType": "address",
          "name": "",
          "type": "address"
        }
      ],
      "name": "NotStaker",
      "type": "error"
    },
    {
      "inputs": [
        {
          "internalType": "address",
          "name": "token",
          "type": "address"
        }
      ],
      "name": "ParticipateWithDifferentToken",
      "type": "error"
    },
    {
      "anonymous": false,
      "inputs": [
        {
          "indexed": true,
          "internalType": "address",
          "name": "account",
          "type": "address"
        },
        {
          "indexed": false,
          "internalType": "uint256",
          "name": "idoAmount",
          "type": "uint256"
        },
        {
          "indexed": false,
          "internalType": "uint256",
          "name": "refundAmount",
          "type": "uint256"
        }
      ],
      "name": "Claim",
      "type": "event"
    },
    {
      "anonymous": false,
      "inputs": [
        {
          "indexed": false,
          "internalType": "uint8",
          "name": "version",
          "type": "uint8"
        }
      ],
      "name": "Initialized",
      "type": "event"
    },
    {
      "anonymous": false,
      "inputs": [
        {
          "indexed": true,
          "internalType": "address",
          "name": "previousOwner",
          "type": "address"
        },
        {
          "indexed": true,
          "internalType": "address",
          "name": "newOwner",
          "type": "address"
        }
      ],
      "name": "OwnershipTransferred",
      "type": "event"
    },
    {
      "anonymous": false,
      "inputs": [
        {
          "indexed": true,
          "internalType": "address",
          "name": "account",
          "type": "address"
        },
        {
          "indexed": false,
          "internalType": "address",
          "name": "token",
          "type": "address"
        },
        {
          "indexed": false,
          "internalType": "uint256",
          "name": "amount",
          "type": "uint256"
        }
      ],
      "name": "Participation",
      "type": "event"
    },
    {
      "inputs": [
        {
          "internalType": "address",
          "name": "",
          "type": "address"
        }
      ],
      "name": "accountPosition",
      "outputs": [
        {
          "internalType": "address",
          "name": "token",
          "type": "address"
        },
        {
          "internalType": "uint256",
          "name": "amount",
          "type": "uint256"
        }
      ],
      "stateMutability": "view",
      "type": "function"
    },
    {
      "inputs": [],
      "name": "buyToken",
      "outputs": [
        {
          "internalType": "address",
          "name": "",
          "type": "address"
        }
      ],
      "stateMutability": "view",
      "type": "function"
    },
    {
      "inputs": [
        {
          "internalType": "address",
          "name": "staker",
          "type": "address"
        }
      ],
      "name": "claim",
      "outputs": [],
      "stateMutability": "nonpayable",
      "type": "function"
    },
    {
      "inputs": [],
      "name": "finalize",
      "outputs": [],
      "stateMutability": "nonpayable",
      "type": "function"
    },
    {
      "inputs": [],
      "name": "fyToken",
      "outputs": [
        {
          "internalType": "address",
          "name": "",
          "type": "address"
        }
      ],
      "stateMutability": "view",
      "type": "function"
    },
    {
      "inputs": [],
      "name": "idoPrice",
      "outputs": [
        {
          "internalType": "uint256",
          "name": "",
          "type": "uint256"
        }
      ],
      "stateMutability": "view",
      "type": "function"
    },
    {
      "inputs": [],
      "name": "idoSize",
      "outputs": [
        {
          "internalType": "uint256",
          "name": "",
          "type": "uint256"
        }
      ],
      "stateMutability": "view",
      "type": "function"
    },
    {
      "inputs": [],
      "name": "idoToken",
      "outputs": [
        {
          "internalType": "address",
          "name": "",
          "type": "address"
        }
      ],
      "stateMutability": "view",
      "type": "function"
    },
    {
      "inputs": [
        {
          "internalType": "address",
          "name": "usdb_",
          "type": "address"
        },
        {
          "internalType": "address",
          "name": "fyUSD_",
          "type": "address"
        },
        {
          "internalType": "address",
          "name": "idoToken_",
          "type": "address"
        },
        {
          "internalType": "uint256",
          "name": "idoDecimals_",
          "type": "uint256"
        },
        {
          "internalType": "address",
          "name": "treasury_",
          "type": "address"
        }
      ],
      "name": "init",
      "outputs": [],
      "stateMutability": "nonpayable",
      "type": "function"
    },
    {
      "inputs": [],
      "name": "isFinalized",
      "outputs": [
        {
          "internalType": "bool",
          "name": "",
          "type": "bool"
        }
      ],
      "stateMutability": "view",
      "type": "function"
    },
    {
      "inputs": [],
      "name": "owner",
      "outputs": [
        {
          "internalType": "address",
          "name": "",
          "type": "address"
        }
      ],
      "stateMutability": "view",
      "type": "function"
    },
    {
      "inputs": [
        {
          "internalType": "address",
          "name": "receipient",
          "type": "address"
        },
        {
          "internalType": "address",
          "name": "token",
          "type": "address"
        },
        {
          "internalType": "uint256",
          "name": "amount",
          "type": "uint256"
        }
      ],
      "name": "participate",
      "outputs": [],
      "stateMutability": "payable",
      "type": "function"
    },
    {
      "inputs": [],
      "name": "renounceOwnership",
      "outputs": [],
      "stateMutability": "nonpayable",
      "type": "function"
    },
    {
      "inputs": [
        {
          "internalType": "address",
          "name": "_token",
          "type": "address"
        },
        {
          "internalType": "uint256",
          "name": "_idoDecimals",
          "type": "uint256"
        }
      ],
      "name": "setIDOToken",
      "outputs": [],
      "stateMutability": "nonpayable",
      "type": "function"
    },
    {
      "inputs": [
        {
          "internalType": "uint256",
          "name": "price",
          "type": "uint256"
        }
      ],
      "name": "setTokenPriceInUSD",
      "outputs": [],
      "stateMutability": "nonpayable",
      "type": "function"
    },
    {
      "inputs": [],
      "name": "snapshotPriceDecimals",
      "outputs": [
        {
          "internalType": "uint256",
          "name": "",
          "type": "uint256"
        }
      ],
      "stateMutability": "view",
      "type": "function"
    },
    {
      "inputs": [],
      "name": "snapshotTokenPrice",
      "outputs": [
        {
          "internalType": "uint256",
          "name": "",
          "type": "uint256"
        }
      ],
      "stateMutability": "view",
      "type": "function"
    },
    {
      "inputs": [
        {
          "internalType": "address",
          "name": "newOwner",
          "type": "address"
        }
      ],
      "name": "transferOwnership",
      "outputs": [],
      "stateMutability": "nonpayable",
      "type": "function"
    },
    {
      "inputs": [],
      "name": "treasury",
      "outputs": [
        {
          "internalType": "address",
          "name": "",
          "type": "address"
        }
      ],
      "stateMutability": "view",
      "type": "function"
    },
    {
      "inputs": [],
      "name": "withdrawSpareIDO",
      "outputs": [],
      "stateMutability": "nonpayable",
      "type": "function"
    }
  ],
  "transactionHash": "0x3d595ff907f1e680dcab7f9c82a86ca64b42156b96d39ce85cf1be751cac5c8b",
  "args": [],
  "numDeployments": 1,
  "solcInputHash": "cae8cb29bcfa77b569b812f486e7b9c9",
  "bytecode": "0x608060405234801561001057600080fd5b50612734806100206000396000f3fe60806040526004361061011f5760003560e01c80639653cc7a116100a0578063cd80fe0d11610064578063cd80fe0d14610356578063d6cd82bc14610381578063dc3bfba9146103ac578063f2fde38b146103d7578063f46cf7f0146104005761011f565b80639653cc7a14610292578063997ccc7e146102ae5780639a877542146102d9578063a482171914610302578063bf9c83ce1461032d5761011f565b80635eeb57c0116100e75780635eeb57c0146101d157806361d027b3146101fa578063715018a6146102255780638d4e40831461023c5780638da5cb5b146102675761011f565b806310a12053146101245780631dcd8ae51461014f5780631e83409a1461017a57806335f567be146101a35780634bb278f3146101ba575b600080fd5b34801561013057600080fd5b5061013961043e565b6040516101469190611b82565b60405180910390f35b34801561015b57600080fd5b50610164610444565b6040516101719190611b82565b60405180910390f35b34801561018657600080fd5b506101a1600480360381019061019c9190611c00565b61044a565b005b3480156101af57600080fd5b506101b86106d9565b005b3480156101c657600080fd5b506101cf6107c9565b005b3480156101dd57600080fd5b506101f860048036038101906101f39190611c59565b610a83565b005b34801561020657600080fd5b5061020f610a95565b60405161021c9190611c95565b60405180910390f35b34801561023157600080fd5b5061023a610abb565b005b34801561024857600080fd5b50610251610acf565b60405161025e9190611ccb565b60405180910390f35b34801561027357600080fd5b5061027c610ae2565b6040516102899190611c95565b60405180910390f35b6102ac60048036038101906102a79190611ce6565b610b0c565b005b3480156102ba57600080fd5b506102c3610e40565b6040516102d09190611b82565b60405180910390f35b3480156102e557600080fd5b5061030060048036038101906102fb9190611d39565b610e46565b005b34801561030e57600080fd5b50610317610f8e565b6040516103249190611c95565b60405180910390f35b34801561033957600080fd5b50610354600480360381019061034f9190611db4565b610fb4565b005b34801561036257600080fd5b5061036b611008565b6040516103789190611b82565b60405180910390f35b34801561038d57600080fd5b5061039661100e565b6040516103a39190611c95565b60405180910390f35b3480156103b857600080fd5b506103c1611034565b6040516103ce9190611c95565b60405180910390f35b3480156103e357600080fd5b506103fe60048036038101906103f99190611c00565b61105a565b005b34801561040c57600080fd5b5061042760048036038101906104229190611c00565b6110dd565b604051610435929190611df4565b60405180910390f35b606a5481565b606c5481565b606860149054906101000a900460ff16610490576040517f1bee0d5a00000000000000000000000000000000000000000000000000000000815260040160405180910390fd5b6000607060008373ffffffffffffffffffffffffffffffffffffffff1673ffffffffffffffffffffffffffffffffffffffff1681526020019081526020016000206040518060400160405290816000820160009054906101000a900473ffffffffffffffffffffffffffffffffffffffff1673ffffffffffffffffffffffffffffffffffffffff1673ffffffffffffffffffffffffffffffffffffffff1681526020016001820154815250509050600081602001510361057c576040517fbaa8213400000000000000000000000000000000000000000000000000000000815260040160405180910390fd5b60008061058883611121565b91509150607060008573ffffffffffffffffffffffffffffffffffffffff1673ffffffffffffffffffffffffffffffffffffffff168152602001908152602001600020600080820160006101000a81549073ffffffffffffffffffffffffffffffffffffffff0219169055600182016000905550506000811115610616576106158360000151858361121c565b5b6106568360000151606760009054906101000a900473ffffffffffffffffffffffffffffffffffffffff168386602001516106519190611e4c565b61121c565b610683606860009054906101000a900473ffffffffffffffffffffffffffffffffffffffff16858461121c565b8373ffffffffffffffffffffffffffffffffffffffff167f34fcbac0073d7c3d388e51312faf357774904998eeb8fca628b9e6f65ee1cbf783836040516106cb929190611e80565b60405180910390a250505050565b606860149054906101000a900460ff1661071f576040517f1bee0d5a00000000000000000000000000000000000000000000000000000000815260040160405180910390fd5b610727611312565b6000606e54600a6107389190611fdc565b606954606a546107489190612027565b6107529190612098565b9050606d54811061076357506107c7565b6000606b54606c54606d546107789190612027565b6107829190612098565b9050600081606a546107949190611e4c565b90506107c3606860009054906101000a900473ffffffffffffffffffffffffffffffffffffffff16338361121c565b5050505b565b6107d1611312565b606860149054906101000a900460ff1615610818576040517f475a253500000000000000000000000000000000000000000000000000000000815260040160405180910390fd5b606860009054906101000a900473ffffffffffffffffffffffffffffffffffffffff1673ffffffffffffffffffffffffffffffffffffffff166370a08231306040518263ffffffff1660e01b81526004016108739190611c95565b602060405180830381865afa158015610890573d6000803e3d6000fd5b505050506040513d601f19601f820116820180604052508101906108b491906120de565b606a819055506108c2611390565b606b6000606c6000849190505583919050555050606c54606b54606f6000606660009054906101000a900473ffffffffffffffffffffffffffffffffffffffff1673ffffffffffffffffffffffffffffffffffffffff1673ffffffffffffffffffffffffffffffffffffffff16815260200190815260200160002054606f6000606560009054906101000a900473ffffffffffffffffffffffffffffffffffffffff1673ffffffffffffffffffffffffffffffffffffffff1673ffffffffffffffffffffffffffffffffffffffff168152602001908152602001600020546109aa919061210b565b6109b49190612027565b6109be9190612098565b606d81905550606860009054906101000a900473ffffffffffffffffffffffffffffffffffffffff1673ffffffffffffffffffffffffffffffffffffffff166370a08231306040518263ffffffff1660e01b8152600401610a1f9190611c95565b602060405180830381865afa158015610a3c573d6000803e3d6000fd5b505050506040513d601f19601f82011682018060405250810190610a6091906120de565b606a819055506001606860146101000a81548160ff021916908315150217905550565b610a8b611312565b8060698190555050565b606760009054906101000a900473ffffffffffffffffffffffffffffffffffffffff1681565b610ac3611312565b610acd600061139e565b565b606860149054906101000a900460ff1681565b6000603360009054906101000a900473ffffffffffffffffffffffffffffffffffffffff16905090565b606860149054906101000a900460ff1615610b53576040517f475a253500000000000000000000000000000000000000000000000000000000815260040160405180910390fd5b606560009054906101000a900473ffffffffffffffffffffffffffffffffffffffff1673ffffffffffffffffffffffffffffffffffffffff168273ffffffffffffffffffffffffffffffffffffffff1614158015610bff5750606660009054906101000a900473ffffffffffffffffffffffffffffffffffffffff1673ffffffffffffffffffffffffffffffffffffffff168273ffffffffffffffffffffffffffffffffffffffff1614155b15610c4157816040517f0fe3f57b000000000000000000000000000000000000000000000000000000008152600401610c389190611c95565b60405180910390fd5b6000607060008573ffffffffffffffffffffffffffffffffffffffff1673ffffffffffffffffffffffffffffffffffffffff16815260200190815260200160002090506000816001015414158015610ce957508060000160009054906101000a900473ffffffffffffffffffffffffffffffffffffffff1673ffffffffffffffffffffffffffffffffffffffff168373ffffffffffffffffffffffffffffffffffffffff1614155b15610d2b57826040517f6d8b9236000000000000000000000000000000000000000000000000000000008152600401610d229190611c95565b60405180910390fd5b828160000160006101000a81548173ffffffffffffffffffffffffffffffffffffffff021916908373ffffffffffffffffffffffffffffffffffffffff16021790555081816001016000828254610d82919061210b565b9250508190555081606f60008573ffffffffffffffffffffffffffffffffffffffff1673ffffffffffffffffffffffffffffffffffffffff1681526020019081526020016000206000828254610dd8919061210b565b92505081905550610dea838584611464565b8373ffffffffffffffffffffffffffffffffffffffff167ff6764e668f66491117a03c0e0009c5bed5b1aabe82e3ab4d38ff8bdb35094ec18484604051610e32929190611df4565b60405180910390a250505050565b606b5481565b60008060019054906101000a900460ff16159050808015610e775750600160008054906101000a900460ff1660ff16105b80610ea45750610e8630611514565b158015610ea35750600160008054906101000a900460ff1660ff16145b5b610ee3576040517f08c379a0000000000000000000000000000000000000000000000000000000008152600401610eda906121c2565b60405180910390fd5b60016000806101000a81548160ff021916908360ff1602179055508015610f20576001600060016101000a81548160ff0219169083151502179055505b610f2d8686868686611537565b8015610f865760008060016101000a81548160ff0219169083151502179055507f7f26b83ff96e1f2b6a682f133852f6798a09c465da95921460cefb38474024986001604051610f7d9190612234565b60405180910390a15b505050505050565b606560009054906101000a900473ffffffffffffffffffffffffffffffffffffffff1681565b610fbc611312565b81606860006101000a81548173ffffffffffffffffffffffffffffffffffffffff021916908373ffffffffffffffffffffffffffffffffffffffff16021790555080606e819055505050565b60695481565b606860009054906101000a900473ffffffffffffffffffffffffffffffffffffffff1681565b606660009054906101000a900473ffffffffffffffffffffffffffffffffffffffff1681565b611062611312565b600073ffffffffffffffffffffffffffffffffffffffff168173ffffffffffffffffffffffffffffffffffffffff16036110d1576040517f08c379a00000000000000000000000000000000000000000000000000000000081526004016110c8906122c1565b60405180910390fd5b6110da8161139e565b50565b60706020528060005260406000206000915090508060000160009054906101000a900473ffffffffffffffffffffffffffffffffffffffff16908060010154905082565b6000806000606c54606b54856020015161113b9190612027565b6111459190612098565b90506000606e54600a6111589190611fdc565b90506000606d5483606a5461116d9190612027565b6111779190612098565b90506000606954838561118a9190612027565b6111949190612098565b9050606d5483606954606a546111aa9190612027565b6111b49190612098565b106111c9578060009550955050505050611217565b600060695484846111da9190612027565b6111e49190612098565b856111ef9190611e4c565b905082606b54606c54836112039190612027565b61120d9190612098565b9650965050505050505b915091565b600073ffffffffffffffffffffffffffffffffffffffff168373ffffffffffffffffffffffffffffffffffffffff16036112e1578047101561129557806040517f83b9f0ae00000000000000000000000000000000000000000000000000000000815260040161128c9190611b82565b60405180910390fd5b8173ffffffffffffffffffffffffffffffffffffffff166108fc829081150290604051600060405180830381858888f193505050501580156112db573d6000803e3d6000fd5b5061130d565b61130c82828573ffffffffffffffffffffffffffffffffffffffff166115a29092919063ffffffff16565b5b505050565b61131a611628565b73ffffffffffffffffffffffffffffffffffffffff16611338610ae2565b73ffffffffffffffffffffffffffffffffffffffff161461138e576040517f08c379a00000000000000000000000000000000000000000000000000000000081526004016113859061232d565b60405180910390fd5b565b600080600180915091509091565b6000603360009054906101000a900473ffffffffffffffffffffffffffffffffffffffff16905081603360006101000a81548173ffffffffffffffffffffffffffffffffffffffff021916908373ffffffffffffffffffffffffffffffffffffffff1602179055508173ffffffffffffffffffffffffffffffffffffffff168173ffffffffffffffffffffffffffffffffffffffff167f8be0079c531659141344cd1fd0a4f28419497f9722a3daafe3b4186f6b6457e060405160405180910390a35050565b600073ffffffffffffffffffffffffffffffffffffffff168373ffffffffffffffffffffffffffffffffffffffff16036114e1573481146114dc57806040517f83b9f0ae0000000000000000000000000000000000000000000000000000000081526004016114d39190611b82565b60405180910390fd5b61150f565b61150e8230838673ffffffffffffffffffffffffffffffffffffffff16611630909392919063ffffffff16565b5b505050565b6000808273ffffffffffffffffffffffffffffffffffffffff163b119050919050565b600060019054906101000a900460ff16611586576040517f08c379a000000000000000000000000000000000000000000000000000000000815260040161157d906123bf565b60405180910390fd5b61159385858585856116b9565b61159b61181a565b5050505050565b6116238363a9059cbb60e01b84846040516024016115c1929190611df4565b604051602081830303815290604052907bffffffffffffffffffffffffffffffffffffffffffffffffffffffff19166020820180517bffffffffffffffffffffffffffffffffffffffffffffffffffffffff8381831617835250505050611873565b505050565b600033905090565b6116b3846323b872dd60e01b858585604051602401611651939291906123df565b604051602081830303815290604052907bffffffffffffffffffffffffffffffffffffffffffffffffffffffff19166020820180517bffffffffffffffffffffffffffffffffffffffffffffffffffffffff8381831617835250505050611873565b50505050565b600060019054906101000a900460ff16611708576040517f08c379a00000000000000000000000000000000000000000000000000000000081526004016116ff906123bf565b60405180910390fd5b84606560006101000a81548173ffffffffffffffffffffffffffffffffffffffff021916908373ffffffffffffffffffffffffffffffffffffffff16021790555083606660006101000a81548173ffffffffffffffffffffffffffffffffffffffff021916908373ffffffffffffffffffffffffffffffffffffffff16021790555082606860006101000a81548173ffffffffffffffffffffffffffffffffffffffff021916908373ffffffffffffffffffffffffffffffffffffffff16021790555081606e8190555080606760006101000a81548173ffffffffffffffffffffffffffffffffffffffff021916908373ffffffffffffffffffffffffffffffffffffffff1602179055505050505050565b600060019054906101000a900460ff16611869576040517f08c379a0000000000000000000000000000000000000000000000000000000008152600401611860906123bf565b60405180910390fd5b61187161193b565b565b60006118d5826040518060400160405280602081526020017f5361666545524332303a206c6f772d6c6576656c2063616c6c206661696c65648152508573ffffffffffffffffffffffffffffffffffffffff1661199c9092919063ffffffff16565b90506000815114806118f75750808060200190518101906118f69190612442565b5b611936576040517f08c379a000000000000000000000000000000000000000000000000000000000815260040161192d906124e1565b60405180910390fd5b505050565b600060019054906101000a900460ff1661198a576040517f08c379a0000000000000000000000000000000000000000000000000000000008152600401611981906123bf565b60405180910390fd5b61199a611995611628565b61139e565b565b60606119ab84846000856119b4565b90509392505050565b6060824710156119f9576040517f08c379a00000000000000000000000000000000000000000000000000000000081526004016119f090612573565b60405180910390fd5b6000808673ffffffffffffffffffffffffffffffffffffffff168587604051611a229190612604565b60006040518083038185875af1925050503d8060008114611a5f576040519150601f19603f3d011682016040523d82523d6000602084013e611a64565b606091505b5091509150611a7587838387611a81565b92505050949350505050565b60608315611ae3576000835103611adb57611a9b85611af6565b611ada576040517f08c379a0000000000000000000000000000000000000000000000000000000008152600401611ad190612667565b60405180910390fd5b5b829050611aee565b611aed8383611b19565b5b949350505050565b6000808273ffffffffffffffffffffffffffffffffffffffff163b119050919050565b600082511115611b2c5781518083602001fd5b806040517f08c379a0000000000000000000000000000000000000000000000000000000008152600401611b6091906126dc565b60405180910390fd5b6000819050919050565b611b7c81611b69565b82525050565b6000602082019050611b976000830184611b73565b92915050565b600080fd5b600073ffffffffffffffffffffffffffffffffffffffff82169050919050565b6000611bcd82611ba2565b9050919050565b611bdd81611bc2565b8114611be857600080fd5b50565b600081359050611bfa81611bd4565b92915050565b600060208284031215611c1657611c15611b9d565b5b6000611c2484828501611beb565b91505092915050565b611c3681611b69565b8114611c4157600080fd5b50565b600081359050611c5381611c2d565b92915050565b600060208284031215611c6f57611c6e611b9d565b5b6000611c7d84828501611c44565b91505092915050565b611c8f81611bc2565b82525050565b6000602082019050611caa6000830184611c86565b92915050565b60008115159050919050565b611cc581611cb0565b82525050565b6000602082019050611ce06000830184611cbc565b92915050565b600080600060608486031215611cff57611cfe611b9d565b5b6000611d0d86828701611beb565b9350506020611d1e86828701611beb565b9250506040611d2f86828701611c44565b9150509250925092565b600080600080600060a08688031215611d5557611d54611b9d565b5b6000611d6388828901611beb565b9550506020611d7488828901611beb565b9450506040611d8588828901611beb565b9350506060611d9688828901611c44565b9250506080611da788828901611beb565b9150509295509295909350565b60008060408385031215611dcb57611dca611b9d565b5b6000611dd985828601611beb565b9250506020611dea85828601611c44565b9150509250929050565b6000604082019050611e096000830185611c86565b611e166020830184611b73565b9392505050565b7f4e487b7100000000000000000000000000000000000000000000000000000000600052601160045260246000fd5b6000611e5782611b69565b9150611e6283611b69565b9250828203905081811115611e7a57611e79611e1d565b5b92915050565b6000604082019050611e956000830185611b73565b611ea26020830184611b73565b9392505050565b60008160011c9050919050565b6000808291508390505b6001851115611f0057808604811115611edc57611edb611e1d565b5b6001851615611eeb5780820291505b8081029050611ef985611ea9565b9450611ec0565b94509492505050565b600082611f195760019050611fd5565b81611f275760009050611fd5565b8160018114611f3d5760028114611f4757611f76565b6001915050611fd5565b60ff841115611f5957611f58611e1d565b5b8360020a915084821115611f7057611f6f611e1d565b5b50611fd5565b5060208310610133831016604e8410600b8410161715611fab5782820a905083811115611fa657611fa5611e1d565b5b611fd5565b611fb88484846001611eb6565b92509050818404811115611fcf57611fce611e1d565b5b81810290505b9392505050565b6000611fe782611b69565b9150611ff283611b69565b925061201f7fffffffffffffffffffffffffffffffffffffffffffffffffffffffffffffffff8484611f09565b905092915050565b600061203282611b69565b915061203d83611b69565b925082820261204b81611b69565b9150828204841483151761206257612061611e1d565b5b5092915050565b7f4e487b7100000000000000000000000000000000000000000000000000000000600052601260045260246000fd5b60006120a382611b69565b91506120ae83611b69565b9250826120be576120bd612069565b5b828204905092915050565b6000815190506120d881611c2d565b92915050565b6000602082840312156120f4576120f3611b9d565b5b6000612102848285016120c9565b91505092915050565b600061211682611b69565b915061212183611b69565b925082820190508082111561213957612138611e1d565b5b92915050565b600082825260208201905092915050565b7f496e697469616c697a61626c653a20636f6e747261637420697320616c72656160008201527f647920696e697469616c697a6564000000000000000000000000000000000000602082015250565b60006121ac602e8361213f565b91506121b782612150565b604082019050919050565b600060208201905081810360008301526121db8161219f565b9050919050565b6000819050919050565b600060ff82169050919050565b6000819050919050565b600061221e612219612214846121e2565b6121f9565b6121ec565b9050919050565b61222e81612203565b82525050565b60006020820190506122496000830184612225565b92915050565b7f4f776e61626c653a206e6577206f776e657220697320746865207a65726f206160008201527f6464726573730000000000000000000000000000000000000000000000000000602082015250565b60006122ab60268361213f565b91506122b68261224f565b604082019050919050565b600060208201905081810360008301526122da8161229e565b9050919050565b7f4f776e61626c653a2063616c6c6572206973206e6f7420746865206f776e6572600082015250565b600061231760208361213f565b9150612322826122e1565b602082019050919050565b600060208201905081810360008301526123468161230a565b9050919050565b7f496e697469616c697a61626c653a20636f6e7472616374206973206e6f74206960008201527f6e697469616c697a696e67000000000000000000000000000000000000000000602082015250565b60006123a9602b8361213f565b91506123b48261234d565b604082019050919050565b600060208201905081810360008301526123d88161239c565b9050919050565b60006060820190506123f46000830186611c86565b6124016020830185611c86565b61240e6040830184611b73565b949350505050565b61241f81611cb0565b811461242a57600080fd5b50565b60008151905061243c81612416565b92915050565b60006020828403121561245857612457611b9d565b5b60006124668482850161242d565b91505092915050565b7f5361666545524332303a204552433230206f7065726174696f6e20646964206e60008201527f6f74207375636365656400000000000000000000000000000000000000000000602082015250565b60006124cb602a8361213f565b91506124d68261246f565b604082019050919050565b600060208201905081810360008301526124fa816124be565b9050919050565b7f416464726573733a20696e73756666696369656e742062616c616e636520666f60008201527f722063616c6c0000000000000000000000000000000000000000000000000000602082015250565b600061255d60268361213f565b915061256882612501565b604082019050919050565b6000602082019050818103600083015261258c81612550565b9050919050565b600081519050919050565b600081905092915050565b60005b838110156125c75780820151818401526020810190506125ac565b60008484015250505050565b60006125de82612593565b6125e8818561259e565b93506125f88185602086016125a9565b80840191505092915050565b600061261082846125d3565b915081905092915050565b7f416464726573733a2063616c6c20746f206e6f6e2d636f6e7472616374000000600082015250565b6000612651601d8361213f565b915061265c8261261b565b602082019050919050565b6000602082019050818103600083015261268081612644565b9050919050565b600081519050919050565b6000601f19601f8301169050919050565b60006126ae82612687565b6126b8818561213f565b93506126c88185602086016125a9565b6126d181612692565b840191505092915050565b600060208201905081810360008301526126f681846126a3565b90509291505056fea2646970667358221220a48ed207b3757e91538eb31695792e0045cba56f87c33e7b2f3cebdcbe889d4a64736f6c63430008140033",
  "devdoc": {
    "events": {
      "Initialized(uint8)": {
        "details": "Triggered when the contract has been initialized or reinitialized."
      }
    },
    "kind": "dev",
    "methods": {
      "owner()": {
        "details": "Returns the address of the current owner."
      },
      "renounceOwnership()": {
        "details": "Leaves the contract without owner. It will not be possible to call `onlyOwner` functions. Can only be called by the current owner. NOTE: Renouncing ownership will leave the contract without an owner, thereby disabling any functionality that is only available to the owner."
      },
      "setTokenPriceInUSD(uint256)": {
        "params": {
          "price": "usd price of 10 ** decimals of IDO token"
        }
      },
      "transferOwnership(address)": {
        "details": "Transfers ownership of the contract to a new account (`newOwner`). Can only be called by the current owner."
      }
    },
    "version": 1
  },
  "userdoc": {
    "kind": "user",
    "methods": {},
    "version": 1
  },
  "storageLayout": {
    "storage": [
      {
        "astId": 720,
        "contract": "contracts/ido/USDIDOPool.sol:USDIDOPool",
        "label": "_initialized",
        "offset": 0,
        "slot": "0",
        "type": "t_uint8"
      },
      {
        "astId": 723,
        "contract": "contracts/ido/USDIDOPool.sol:USDIDOPool",
        "label": "_initializing",
        "offset": 1,
        "slot": "0",
        "type": "t_bool"
      },
      {
        "astId": 1262,
        "contract": "contracts/ido/USDIDOPool.sol:USDIDOPool",
        "label": "__gap",
        "offset": 0,
        "slot": "1",
        "type": "t_array(t_uint256)50_storage"
      },
      {
        "astId": 592,
        "contract": "contracts/ido/USDIDOPool.sol:USDIDOPool",
        "label": "_owner",
        "offset": 0,
        "slot": "51",
        "type": "t_address"
      },
      {
        "astId": 712,
        "contract": "contracts/ido/USDIDOPool.sol:USDIDOPool",
        "label": "__gap",
        "offset": 0,
        "slot": "52",
        "type": "t_array(t_uint256)49_storage"
      },
      {
        "astId": 8997,
        "contract": "contracts/ido/USDIDOPool.sol:USDIDOPool",
        "label": "buyToken",
        "offset": 0,
        "slot": "101",
        "type": "t_address"
      },
      {
        "astId": 8999,
        "contract": "contracts/ido/USDIDOPool.sol:USDIDOPool",
        "label": "fyToken",
        "offset": 0,
        "slot": "102",
        "type": "t_address"
      },
      {
        "astId": 9001,
        "contract": "contracts/ido/USDIDOPool.sol:USDIDOPool",
        "label": "treasury",
        "offset": 0,
        "slot": "103",
        "type": "t_address"
      },
      {
        "astId": 9003,
        "contract": "contracts/ido/USDIDOPool.sol:USDIDOPool",
        "label": "idoToken",
        "offset": 0,
        "slot": "104",
        "type": "t_address"
      },
      {
        "astId": 9005,
        "contract": "contracts/ido/USDIDOPool.sol:USDIDOPool",
        "label": "isFinalized",
        "offset": 20,
        "slot": "104",
        "type": "t_bool"
      },
      {
        "astId": 9007,
        "contract": "contracts/ido/USDIDOPool.sol:USDIDOPool",
        "label": "idoPrice",
        "offset": 0,
        "slot": "105",
        "type": "t_uint256"
      },
      {
        "astId": 9009,
        "contract": "contracts/ido/USDIDOPool.sol:USDIDOPool",
        "label": "idoSize",
        "offset": 0,
        "slot": "106",
        "type": "t_uint256"
      },
      {
        "astId": 9011,
        "contract": "contracts/ido/USDIDOPool.sol:USDIDOPool",
        "label": "snapshotTokenPrice",
        "offset": 0,
        "slot": "107",
        "type": "t_uint256"
      },
      {
        "astId": 9013,
        "contract": "contracts/ido/USDIDOPool.sol:USDIDOPool",
        "label": "snapshotPriceDecimals",
        "offset": 0,
        "slot": "108",
        "type": "t_uint256"
      },
      {
        "astId": 9015,
        "contract": "contracts/ido/USDIDOPool.sol:USDIDOPool",
        "label": "fundedUSDValue",
        "offset": 0,
        "slot": "109",
        "type": "t_uint256"
      },
      {
        "astId": 9017,
        "contract": "contracts/ido/USDIDOPool.sol:USDIDOPool",
        "label": "idoDecimals",
        "offset": 0,
        "slot": "110",
        "type": "t_uint256"
      },
      {
        "astId": 9021,
        "contract": "contracts/ido/USDIDOPool.sol:USDIDOPool",
        "label": "totalFunded",
        "offset": 0,
        "slot": "111",
        "type": "t_mapping(t_address,t_uint256)"
      },
      {
        "astId": 9026,
        "contract": "contracts/ido/USDIDOPool.sol:USDIDOPool",
        "label": "accountPosition",
        "offset": 0,
        "slot": "112",
        "type": "t_mapping(t_address,t_struct(Position)9784_storage)"
      }
    ],
    "types": {
      "t_address": {
        "encoding": "inplace",
        "label": "address",
        "numberOfBytes": "20"
      },
      "t_array(t_uint256)49_storage": {
        "base": "t_uint256",
        "encoding": "inplace",
        "label": "uint256[49]",
        "numberOfBytes": "1568"
      },
      "t_array(t_uint256)50_storage": {
        "base": "t_uint256",
        "encoding": "inplace",
        "label": "uint256[50]",
        "numberOfBytes": "1600"
      },
      "t_bool": {
        "encoding": "inplace",
        "label": "bool",
        "numberOfBytes": "1"
      },
      "t_mapping(t_address,t_struct(Position)9784_storage)": {
        "encoding": "mapping",
        "key": "t_address",
        "label": "mapping(address => struct IIDOPool.Position)",
        "numberOfBytes": "32",
        "value": "t_struct(Position)9784_storage"
      },
      "t_mapping(t_address,t_uint256)": {
        "encoding": "mapping",
        "key": "t_address",
        "label": "mapping(address => uint256)",
        "numberOfBytes": "32",
        "value": "t_uint256"
      },
      "t_struct(Position)9784_storage": {
        "encoding": "inplace",
        "label": "struct IIDOPool.Position",
        "members": [
          {
            "astId": 9781,
            "contract": "contracts/ido/USDIDOPool.sol:USDIDOPool",
            "label": "token",
            "offset": 0,
            "slot": "0",
            "type": "t_address"
          },
          {
            "astId": 9783,
            "contract": "contracts/ido/USDIDOPool.sol:USDIDOPool",
            "label": "amount",
            "offset": 0,
            "slot": "1",
            "type": "t_uint256"
          }
        ],
        "numberOfBytes": "64"
      },
      "t_uint256": {
        "encoding": "inplace",
        "label": "uint256",
        "numberOfBytes": "32"
      },
      "t_uint8": {
        "encoding": "inplace",
        "label": "uint8",
        "numberOfBytes": "1"
      }
    }
  }
}