{
  "address": "0xFa9397f1fa04FF86A89efB5663fE1c8A5544ec6b",
  "abi": [
    {
      "inputs": [],
      "stateMutability": "nonpayable",
      "type": "constructor"
    },
    {
      "inputs": [],
      "name": "InvalidArguments",
      "type": "error"
    },
    {
      "inputs": [
        {
          "internalType": "uint256",
          "name": "amount",
          "type": "uint256"
        }
      ],
      "name": "InvalidTokenAmounts",
      "type": "error"
    },
    {
      "inputs": [],
      "name": "NoStaking",
      "type": "error"
    },
    {
      "inputs": [
        {
          "internalType": "address",
          "name": "user",
          "type": "address"
        }
      ],
      "name": "NotPoolAdmin",
      "type": "error"
    },
    {
      "inputs": [
        {
          "internalType": "uint256",
          "name": "id",
          "type": "uint256"
        }
      ],
      "name": "PoolClosed",
      "type": "error"
    },
    {
      "inputs": [
        {
          "internalType": "uint256",
          "name": "id",
          "type": "uint256"
        }
      ],
      "name": "PoolNotExisted",
      "type": "error"
    },
    {
      "anonymous": false,
      "inputs": [
        {
          "indexed": false,
          "internalType": "uint8",
          "name": "version",
          "type": "uint8"
        }
      ],
      "name": "Initialized",
      "type": "event"
    },
    {
      "anonymous": false,
      "inputs": [
        {
          "indexed": false,
          "internalType": "uint256",
          "name": "id",
          "type": "uint256"
        },
        {
          "indexed": false,
          "internalType": "uint256",
          "name": "yieldAPY",
          "type": "uint256"
        },
        {
          "indexed": false,
          "internalType": "address",
          "name": "yieldToken",
          "type": "address"
        },
        {
          "indexed": false,
          "internalType": "address",
          "name": "stakeToken",
          "type": "address"
        }
      ],
      "name": "PoolCreated",
      "type": "event"
    },
    {
      "anonymous": false,
      "inputs": [
        {
          "indexed": false,
          "internalType": "uint256",
          "name": "poolId",
          "type": "uint256"
        },
        {
          "indexed": false,
          "internalType": "address",
          "name": "stakeToken",
          "type": "address"
        },
        {
          "indexed": false,
          "internalType": "uint256",
          "name": "rewardAmount",
          "type": "uint256"
        }
      ],
      "name": "RewardClaim",
      "type": "event"
    },
    {
      "anonymous": false,
      "inputs": [
        {
          "indexed": false,
          "internalType": "uint256",
          "name": "poolId",
          "type": "uint256"
        },
        {
          "indexed": false,
          "internalType": "uint256",
          "name": "yield",
          "type": "uint256"
        },
        {
          "indexed": false,
          "internalType": "address",
          "name": "yieldToken",
          "type": "address"
        },
        {
          "indexed": false,
          "internalType": "address",
          "name": "stakeToken",
          "type": "address"
        },
        {
          "indexed": false,
          "internalType": "uint256",
          "name": "amount",
          "type": "uint256"
        }
      ],
      "name": "Stake",
      "type": "event"
    },
    {
      "anonymous": false,
      "inputs": [
        {
          "indexed": false,
          "internalType": "uint256",
          "name": "poolId",
          "type": "uint256"
        },
        {
          "indexed": false,
          "internalType": "address",
          "name": "stakeToken",
          "type": "address"
        },
        {
          "indexed": false,
          "internalType": "uint256",
          "name": "totalAmount",
          "type": "uint256"
        },
        {
          "indexed": false,
          "internalType": "uint256",
          "name": "rewardAmount",
          "type": "uint256"
        }
      ],
      "name": "Unstake",
      "type": "event"
    },
    {
      "inputs": [],
      "name": "POOL_ADMIN_ROLE",
      "outputs": [
        {
          "internalType": "bytes32",
          "name": "",
          "type": "bytes32"
        }
      ],
      "stateMutability": "view",
      "type": "function"
    },
    {
      "inputs": [],
      "name": "USDB",
      "outputs": [
        {
          "internalType": "contract IERC20Rebasing",
          "name": "",
          "type": "address"
        }
      ],
      "stateMutability": "view",
      "type": "function"
    },
    {
      "inputs": [],
      "name": "YIELD_DENOM",
      "outputs": [
        {
          "internalType": "uint256",
          "name": "",
          "type": "uint256"
        }
      ],
      "stateMutability": "view",
      "type": "function"
    },
    {
      "inputs": [
        {
          "internalType": "uint256",
          "name": "yieldAPY",
          "type": "uint256"
        },
        {
          "internalType": "address",
          "name": "stakeToken",
          "type": "address"
        }
      ],
      "name": "addPool",
      "outputs": [
        {
          "internalType": "uint256",
          "name": "poolId",
          "type": "uint256"
        }
      ],
      "stateMutability": "nonpayable",
      "type": "function"
    },
    {
      "inputs": [
        {
          "internalType": "address",
          "name": "stakeToken",
          "type": "address"
        },
        {
          "internalType": "address",
          "name": "yieldToken",
          "type": "address"
        }
      ],
      "name": "addSupportYieldTokens",
      "outputs": [],
      "stateMutability": "nonpayable",
      "type": "function"
    },
    {
      "inputs": [],
      "name": "blast",
      "outputs": [
        {
          "internalType": "contract IBlast",
          "name": "",
          "type": "address"
        }
      ],
      "stateMutability": "view",
      "type": "function"
    },
    {
      "inputs": [],
      "name": "claimNativeYield",
      "outputs": [],
      "stateMutability": "nonpayable",
      "type": "function"
    },
    {
      "inputs": [
        {
          "internalType": "uint256",
          "name": "poolId",
          "type": "uint256"
        }
      ],
      "name": "claimPendingReward",
      "outputs": [],
      "stateMutability": "nonpayable",
      "type": "function"
    },
    {
      "inputs": [],
      "name": "claimUSDBYield",
      "outputs": [],
      "stateMutability": "nonpayable",
      "type": "function"
    },
    {
      "inputs": [
        {
          "internalType": "uint256",
          "name": "poolId",
          "type": "uint256"
        }
      ],
      "name": "closePool",
      "outputs": [],
      "stateMutability": "nonpayable",
      "type": "function"
    },
    {
      "inputs": [
        {
          "internalType": "address",
          "name": "operator",
          "type": "address"
        },
        {
          "internalType": "address",
          "name": "blastPointAddress",
          "type": "address"
        }
      ],
      "name": "configurePointsOperator",
      "outputs": [],
      "stateMutability": "nonpayable",
      "type": "function"
    },
    {
      "inputs": [
        {
          "internalType": "uint256",
          "name": "poolId",
          "type": "uint256"
        },
        {
          "internalType": "address",
          "name": "account",
          "type": "address"
        }
      ],
      "name": "getUserStakePosition",
      "outputs": [
        {
          "components": [
            {
              "internalType": "uint256",
              "name": "amount",
              "type": "uint256"
            },
            {
              "internalType": "uint256",
              "name": "lastCalcTs",
              "type": "uint256"
            },
            {
              "internalType": "uint256",
              "name": "pendingReward",
              "type": "uint256"
            }
          ],
          "internalType": "struct INonLockStaking.StakePosition",
          "name": "",
          "type": "tuple"
        }
      ],
      "stateMutability": "view",
      "type": "function"
    },
    {
      "inputs": [
        {
          "internalType": "address",
          "name": "roleControl_",
          "type": "address"
        },
        {
          "internalType": "address",
          "name": "treasury_",
          "type": "address"
        }
      ],
      "name": "init",
      "outputs": [],
      "stateMutability": "nonpayable",
      "type": "function"
    },
    {
      "inputs": [
        {
          "internalType": "uint256",
          "name": "",
          "type": "uint256"
        }
      ],
      "name": "poolInfo",
      "outputs": [
        {
          "internalType": "uint256",
          "name": "yieldAPY",
          "type": "uint256"
        },
        {
          "internalType": "address",
          "name": "yieldToken",
          "type": "address"
        },
        {
          "internalType": "address",
          "name": "stakeToken",
          "type": "address"
        },
        {
          "internalType": "uint256",
          "name": "totalStaked",
          "type": "uint256"
        },
        {
          "internalType": "bool",
          "name": "enabled",
          "type": "bool"
        }
      ],
      "stateMutability": "view",
      "type": "function"
    },
    {
      "inputs": [
        {
          "internalType": "address",
          "name": "_blast",
          "type": "address"
        }
      ],
      "name": "setBlast",
      "outputs": [],
      "stateMutability": "nonpayable",
      "type": "function"
    },
    {
      "inputs": [
        {
          "internalType": "uint256",
          "name": "poolId",
          "type": "uint256"
        },
        {
          "internalType": "uint256",
          "name": "yield",
          "type": "uint256"
        }
      ],
      "name": "setPoolYield",
      "outputs": [],
      "stateMutability": "nonpayable",
      "type": "function"
    },
    {
      "inputs": [
        {
          "internalType": "address",
          "name": "_treasury",
          "type": "address"
        }
      ],
      "name": "setTreasury",
      "outputs": [],
      "stateMutability": "nonpayable",
      "type": "function"
    },
    {
      "inputs": [
        {
          "internalType": "address",
          "name": "usdb",
          "type": "address"
        }
      ],
      "name": "setUSDBRebasing",
      "outputs": [],
      "stateMutability": "nonpayable",
      "type": "function"
    },
    {
      "inputs": [
        {
          "internalType": "uint256",
          "name": "poolId",
          "type": "uint256"
        },
        {
          "internalType": "uint256",
          "name": "amount",
          "type": "uint256"
        }
      ],
      "name": "stake",
      "outputs": [],
      "stateMutability": "payable",
      "type": "function"
    },
    {
      "inputs": [],
      "name": "treasury",
      "outputs": [
        {
          "internalType": "address",
          "name": "",
          "type": "address"
        }
      ],
      "stateMutability": "view",
      "type": "function"
    },
    {
      "inputs": [
        {
          "internalType": "uint256",
          "name": "poolId",
          "type": "uint256"
        }
      ],
      "name": "unstake",
      "outputs": [],
      "stateMutability": "nonpayable",
      "type": "function"
    },
    {
      "inputs": [
        {
          "internalType": "address",
          "name": "",
          "type": "address"
        }
      ],
      "name": "yieldTokens",
      "outputs": [
        {
          "internalType": "address",
          "name": "",
          "type": "address"
        }
      ],
      "stateMutability": "view",
      "type": "function"
    }
  ],
  "transactionHash": "0xbdf5161b8898bc6c3bd82761f6804ab93220f10341448f911989fdc9c85cef69",
  "args": [],
  "numDeployments": 2,
  "solcInputHash": "9f316dad025abefb93a4541cfbad3e0a",
  "bytecode": "0x60806040523480156200001157600080fd5b50620000226200002860201b60201c565b620001d2565b600060019054906101000a900460ff16156200007b576040517f08c379a0000000000000000000000000000000000000000000000000000000008152600401620000729062000175565b60405180910390fd5b60ff801660008054906101000a900460ff1660ff1614620000ec5760ff6000806101000a81548160ff021916908360ff1602179055507f7f26b83ff96e1f2b6a682f133852f6798a09c465da95921460cefb384740249860ff604051620000e39190620001b5565b60405180910390a15b565b600082825260208201905092915050565b7f496e697469616c697a61626c653a20636f6e747261637420697320696e69746960008201527f616c697a696e6700000000000000000000000000000000000000000000000000602082015250565b60006200015d602783620000ee565b91506200016a82620000ff565b604082019050919050565b6000602082019050818103600083015262000190816200014e565b9050919050565b600060ff82169050919050565b620001af8162000197565b82525050565b6000602082019050620001cc6000830184620001a4565b92915050565b61371880620001e26000396000f3fe6080604052600436106101355760003560e01c80637b0472f0116100ab578063b8f6dba71161006f578063b8f6dba7146103df578063c6cf7c5f1461040a578063cf85c2fb14610447578063d225481314610470578063f09a40161461049b578063f0f44260146104c457610135565b80637b0472f01461031d57806385036b6c1461033957806394caca16146103765780639a45228f1461039f578063a4951daf146103c857610135565b80632e17de78116100fd5780632e17de781461020f57806331a0edec1461023857806333ba88821461026357806337de615f146102a05780633959aaef146102c957806361d027b3146102f257610135565b80630f5baf611461013a5780631526fe2714610151578063166f323714610192578063175e1a7d146101bb57806319260c86146101e6575b600080fd5b34801561014657600080fd5b5061014f6104ed565b005b34801561015d57600080fd5b5061017860048036038101906101739190612b91565b6106b1565b604051610189959493929190612c29565b60405180910390f35b34801561019e57600080fd5b506101b960048036038101906101b49190612ca8565b610734565b005b3480156101c757600080fd5b506101d06108a2565b6040516101dd9190612d47565b60405180910390f35b3480156101f257600080fd5b5061020d60048036038101906102089190612d62565b6108c8565b005b34801561021b57600080fd5b5061023660048036038101906102319190612b91565b610aab565b005b34801561024457600080fd5b5061024d610e54565b60405161025a9190612db0565b60405180910390f35b34801561026f57600080fd5b5061028a60048036038101906102859190612dcb565b610e7a565b6040516102979190612e0b565b60405180910390f35b3480156102ac57600080fd5b506102c760048036038101906102c29190612b91565b611209565b005b3480156102d557600080fd5b506102f060048036038101906102eb9190612b91565b611356565b005b3480156102fe57600080fd5b50610307611637565b6040516103149190612e26565b60405180910390f35b61033760048036038101906103329190612e41565b61165d565b005b34801561034557600080fd5b50610360600480360381019061035b9190612dcb565b6119c2565b60405161036d9190612ed2565b60405180910390f35b34801561038257600080fd5b5061039d60048036038101906103989190612ca8565b611a4b565b005b3480156103ab57600080fd5b506103c660048036038101906103c19190612e41565b611bcc565b005b3480156103d457600080fd5b506103dd611d9c565b005b3480156103eb57600080fd5b506103f4612001565b6040516104019190612f06565b60405180910390f35b34801561041657600080fd5b50610431600480360381019061042c9190612d62565b612025565b60405161043e9190612e26565b60405180910390f35b34801561045357600080fd5b5061046e60048036038101906104699190612d62565b612058565b005b34801561047c57600080fd5b5061048561221d565b6040516104929190612e0b565b60405180910390f35b3480156104a757600080fd5b506104c260048036038101906104bd9190612ca8565b612224565b005b3480156104d057600080fd5b506104eb60048036038101906104e69190612d62565b612413565b005b600060029054906101000a900473ffffffffffffffffffffffffffffffffffffffff1673ffffffffffffffffffffffffffffffffffffffff166391d148547f24e583e35a20f9ecfc1572e7cb66bcc18ad3cd1650ec40dbf6ad2290e553a9fa336040518363ffffffff1660e01b815260040161056a929190612f21565b602060405180830381865afa158015610587573d6000803e3d6000fd5b505050506040513d601f19601f820116820180604052508101906105ab9190612f76565b6105ec57336040517f7e652f1e0000000000000000000000000000000000000000000000000000000081526004016105e39190612e26565b60405180910390fd5b600860009054906101000a900473ffffffffffffffffffffffffffffffffffffffff1673ffffffffffffffffffffffffffffffffffffffff1663860043b630600160009054906101000a900473ffffffffffffffffffffffffffffffffffffffff166040518363ffffffff1660e01b815260040161066b929190612fa3565b6020604051808303816000875af115801561068a573d6000803e3d6000fd5b505050506040513d601f19601f820116820180604052508101906106ae9190612fe1565b50565b60046020528060005260406000206000915090508060000154908060010160009054906101000a900473ffffffffffffffffffffffffffffffffffffffff16908060020160009054906101000a900473ffffffffffffffffffffffffffffffffffffffff16908060030154908060040160009054906101000a900460ff16905085565b600060029054906101000a900473ffffffffffffffffffffffffffffffffffffffff1673ffffffffffffffffffffffffffffffffffffffff166391d148547f24e583e35a20f9ecfc1572e7cb66bcc18ad3cd1650ec40dbf6ad2290e553a9fa336040518363ffffffff1660e01b81526004016107b1929190612f21565b602060405180830381865afa1580156107ce573d6000803e3d6000fd5b505050506040513d601f19601f820116820180604052508101906107f29190612f76565b61083357336040517f7e652f1e00000000000000000000000000000000000000000000000000000000815260040161082a9190612e26565b60405180910390fd5b8073ffffffffffffffffffffffffffffffffffffffff166336b91f2b836040518263ffffffff1660e01b815260040161086c9190612e26565b600060405180830381600087803b15801561088657600080fd5b505af115801561089a573d6000803e3d6000fd5b505050505050565b600860009054906101000a900473ffffffffffffffffffffffffffffffffffffffff1681565b600060029054906101000a900473ffffffffffffffffffffffffffffffffffffffff1673ffffffffffffffffffffffffffffffffffffffff166391d148547f24e583e35a20f9ecfc1572e7cb66bcc18ad3cd1650ec40dbf6ad2290e553a9fa336040518363ffffffff1660e01b8152600401610945929190612f21565b602060405180830381865afa158015610962573d6000803e3d6000fd5b505050506040513d601f19601f820116820180604052508101906109869190612f76565b6109c757336040517f7e652f1e0000000000000000000000000000000000000000000000000000000081526004016109be9190612e26565b60405180910390fd5b80600760006101000a81548173ffffffffffffffffffffffffffffffffffffffff021916908373ffffffffffffffffffffffffffffffffffffffff160217905550600760009054906101000a900473ffffffffffffffffffffffffffffffffffffffff1673ffffffffffffffffffffffffffffffffffffffff16631a33757d60026040518263ffffffff1660e01b8152600401610a649190613085565b6020604051808303816000875af1158015610a83573d6000803e3d6000fd5b505050506040513d601f19601f82011682018060405250810190610aa79190612fe1565b5050565b6000600460008381526020019081526020016000206040518060a0016040529081600082015481526020016001820160009054906101000a900473ffffffffffffffffffffffffffffffffffffffff1673ffffffffffffffffffffffffffffffffffffffff1673ffffffffffffffffffffffffffffffffffffffff1681526020016002820160009054906101000a900473ffffffffffffffffffffffffffffffffffffffff1673ffffffffffffffffffffffffffffffffffffffff1673ffffffffffffffffffffffffffffffffffffffff168152602001600382015481526020016004820160009054906101000a900460ff1615151515815250509050600073ffffffffffffffffffffffffffffffffffffffff16816020015173ffffffffffffffffffffffffffffffffffffffff1603610c1d57816040517feb0d37cc000000000000000000000000000000000000000000000000000000008152600401610c149190612e0b565b60405180910390fd5b60006005600084815260200190815260200160002060003373ffffffffffffffffffffffffffffffffffffffff1673ffffffffffffffffffffffffffffffffffffffff1681526020019081526020016000206040518060600160405290816000820154815260200160018201548152602001600282015481525050905060006201518061016d620186a085600001518560000151866020015142610cc191906130cf565b610ccb9190613103565b610cd59190613103565b610cdf9190613174565b610ce99190613174565b610cf39190613174565b90506000826040015182610d0791906131a5565b90506000836000015190506005600087815260200190815260200160002060003373ffffffffffffffffffffffffffffffffffffffff1673ffffffffffffffffffffffffffffffffffffffff16815260200190815260200160002060008082016000905560018201600090556002820160009055505080600460008881526020019081526020016000206003016000828254610da391906130cf565b92505081905550610db985604001513383612556565b610dc88560200151338461264c565b7ff8a016136ec23af173a9a6d969a9fa0582a5099a74e1b53d91328789f14577f386866040015184604051610dff939291906131d9565b60405180910390a17fc1e00202ee2c06861d326fc6374026b751863ff64218ccbaa38c3e603a8e72c2868660400151866000015185604051610e449493929190613210565b60405180910390a1505050505050565b600760009054906101000a900473ffffffffffffffffffffffffffffffffffffffff1681565b60008060029054906101000a900473ffffffffffffffffffffffffffffffffffffffff1673ffffffffffffffffffffffffffffffffffffffff166391d148547f24e583e35a20f9ecfc1572e7cb66bcc18ad3cd1650ec40dbf6ad2290e553a9fa336040518363ffffffff1660e01b8152600401610ef8929190612f21565b602060405180830381865afa158015610f15573d6000803e3d6000fd5b505050506040513d601f19601f82011682018060405250810190610f399190612f76565b610f7a57336040517f7e652f1e000000000000000000000000000000000000000000000000000000008152600401610f719190612e26565b60405180910390fd5b60008303610fb4576040517f5f6f132c00000000000000000000000000000000000000000000000000000000815260040160405180910390fd5b6000600360008473ffffffffffffffffffffffffffffffffffffffff1673ffffffffffffffffffffffffffffffffffffffff16815260200190815260200160002060009054906101000a900473ffffffffffffffffffffffffffffffffffffffff169050600073ffffffffffffffffffffffffffffffffffffffff168173ffffffffffffffffffffffffffffffffffffffff160361107e576040517f5f6f132c00000000000000000000000000000000000000000000000000000000815260040160405180910390fd5b60025491506040518060a001604052808581526020018273ffffffffffffffffffffffffffffffffffffffff1681526020018473ffffffffffffffffffffffffffffffffffffffff1681526020016000815260200160011515815250600460008481526020019081526020016000206000820151816000015560208201518160010160006101000a81548173ffffffffffffffffffffffffffffffffffffffff021916908373ffffffffffffffffffffffffffffffffffffffff16021790555060408201518160020160006101000a81548173ffffffffffffffffffffffffffffffffffffffff021916908373ffffffffffffffffffffffffffffffffffffffff1602179055506060820151816003015560808201518160040160006101000a81548160ff0219169083151502179055509050506001826111bf91906131a5565b6002819055507fdf8d6ed0cc461638776b3ca70e85e07a489b1843721ce48af5e1edd7ceadd5fe828583866040516111fa9493929190613255565b60405180910390a15092915050565b600060029054906101000a900473ffffffffffffffffffffffffffffffffffffffff1673ffffffffffffffffffffffffffffffffffffffff166391d148547f24e583e35a20f9ecfc1572e7cb66bcc18ad3cd1650ec40dbf6ad2290e553a9fa336040518363ffffffff1660e01b8152600401611286929190612f21565b602060405180830381865afa1580156112a3573d6000803e3d6000fd5b505050506040513d601f19601f820116820180604052508101906112c79190612f76565b61130857336040517f7e652f1e0000000000000000000000000000000000000000000000000000000081526004016112ff9190612e26565b60405180910390fd5b60006004600083815260200190815260200160002060040160006101000a81548160ff0219169083151502179055506000600460008381526020019081526020016000206000018190555050565b6000600460008381526020019081526020016000206040518060a0016040529081600082015481526020016001820160009054906101000a900473ffffffffffffffffffffffffffffffffffffffff1673ffffffffffffffffffffffffffffffffffffffff1673ffffffffffffffffffffffffffffffffffffffff1681526020016002820160009054906101000a900473ffffffffffffffffffffffffffffffffffffffff1673ffffffffffffffffffffffffffffffffffffffff1673ffffffffffffffffffffffffffffffffffffffff168152602001600382015481526020016004820160009054906101000a900460ff1615151515815250509050600073ffffffffffffffffffffffffffffffffffffffff16816020015173ffffffffffffffffffffffffffffffffffffffff16036114c857816040517feb0d37cc0000000000000000000000000000000000000000000000000000000081526004016114bf9190612e0b565b60405180910390fd5b60006005600084815260200190815260200160002060003373ffffffffffffffffffffffffffffffffffffffff1673ffffffffffffffffffffffffffffffffffffffff1681526020019081526020016000209050600081600001540361155a576040517fbaa8213400000000000000000000000000000000000000000000000000000000815260040160405180910390fd5b60008160000154905060006201518061016d620186a086600001518587600101544261158691906130cf565b6115909190613103565b61159a9190613103565b6115a49190613174565b6115ae9190613174565b6115b89190613174565b905060008360020154826115cc91906131a5565b9050600084600201819055504284600101819055506115f08560200151338361264c565b7ff8a016136ec23af173a9a6d969a9fa0582a5099a74e1b53d91328789f14577f386866040015183604051611627939291906131d9565b60405180910390a1505050505050565b600160009054906101000a900473ffffffffffffffffffffffffffffffffffffffff1681565b6000600460008481526020019081526020016000206040518060a0016040529081600082015481526020016001820160009054906101000a900473ffffffffffffffffffffffffffffffffffffffff1673ffffffffffffffffffffffffffffffffffffffff1673ffffffffffffffffffffffffffffffffffffffff1681526020016002820160009054906101000a900473ffffffffffffffffffffffffffffffffffffffff1673ffffffffffffffffffffffffffffffffffffffff1673ffffffffffffffffffffffffffffffffffffffff168152602001600382015481526020016004820160009054906101000a900460ff16151515158152505090506000151581608001511515036117a757826040517feb0d37cc00000000000000000000000000000000000000000000000000000000815260040161179e9190612e0b565b60405180910390fd5b60006005600085815260200190815260200160002060003373ffffffffffffffffffffffffffffffffffffffff1673ffffffffffffffffffffffffffffffffffffffff1681526020019081526020016000209050600081600001540361189957604051806060016040528084815260200142815260200160008152506005600086815260200190815260200160002060003373ffffffffffffffffffffffffffffffffffffffff1673ffffffffffffffffffffffffffffffffffffffff168152602001908152602001600020600082015181600001556020820151816001015560408201518160020155905050611935565b60006201518061016d620186a0856000015185600001548660010154426118c091906130cf565b6118ca9190613103565b6118d49190613103565b6118de9190613174565b6118e89190613174565b6118f29190613174565b90504282600101819055508082600201600082825461191191906131a5565b925050819055508382600001600082825461192c91906131a5565b92505081905550505b8260046000868152602001908152602001600020600301600082825461195b91906131a5565b92505081905550611971826040015133856126be565b7f8cbcc18badd6d14ded750186c5461cc995c9b0311cf89a7d0c4f40f9e9a5f75784836000015184602001518560400151876040516119b495949392919061329a565b60405180910390a150505050565b6119ca612b35565b6005600084815260200190815260200160002060008373ffffffffffffffffffffffffffffffffffffffff1673ffffffffffffffffffffffffffffffffffffffff1681526020019081526020016000206040518060600160405290816000820154815260200160018201548152602001600282015481525050905092915050565b600060029054906101000a900473ffffffffffffffffffffffffffffffffffffffff1673ffffffffffffffffffffffffffffffffffffffff166391d148547f24e583e35a20f9ecfc1572e7cb66bcc18ad3cd1650ec40dbf6ad2290e553a9fa336040518363ffffffff1660e01b8152600401611ac8929190612f21565b602060405180830381865afa158015611ae5573d6000803e3d6000fd5b505050506040513d601f19601f82011682018060405250810190611b099190612f76565b611b4a57336040517f7e652f1e000000000000000000000000000000000000000000000000000000008152600401611b419190612e26565b60405180910390fd5b80600360008473ffffffffffffffffffffffffffffffffffffffff1673ffffffffffffffffffffffffffffffffffffffff16815260200190815260200160002060006101000a81548173ffffffffffffffffffffffffffffffffffffffff021916908373ffffffffffffffffffffffffffffffffffffffff1602179055505050565b600060029054906101000a900473ffffffffffffffffffffffffffffffffffffffff1673ffffffffffffffffffffffffffffffffffffffff166391d148547f24e583e35a20f9ecfc1572e7cb66bcc18ad3cd1650ec40dbf6ad2290e553a9fa336040518363ffffffff1660e01b8152600401611c49929190612f21565b602060405180830381865afa158015611c66573d6000803e3d6000fd5b505050506040513d601f19601f82011682018060405250810190611c8a9190612f76565b611ccb57336040517f7e652f1e000000000000000000000000000000000000000000000000000000008152600401611cc29190612e26565b60405180910390fd5b6000821480611cda5750600081145b15611d11576040517f5f6f132c00000000000000000000000000000000000000000000000000000000815260040160405180910390fd5b600015156004600084815260200190815260200160002060040160009054906101000a900460ff16151503611d7d57816040517feb0d37cc000000000000000000000000000000000000000000000000000000008152600401611d749190612e0b565b60405180910390fd5b8060046000848152602001908152602001600020600001819055505050565b600060029054906101000a900473ffffffffffffffffffffffffffffffffffffffff1673ffffffffffffffffffffffffffffffffffffffff166391d148547f24e583e35a20f9ecfc1572e7cb66bcc18ad3cd1650ec40dbf6ad2290e553a9fa336040518363ffffffff1660e01b8152600401611e19929190612f21565b602060405180830381865afa158015611e36573d6000803e3d6000fd5b505050506040513d601f19601f82011682018060405250810190611e5a9190612f76565b611e9b57336040517f7e652f1e000000000000000000000000000000000000000000000000000000008152600401611e929190612e26565b60405180910390fd5b6000600760009054906101000a900473ffffffffffffffffffffffffffffffffffffffff1673ffffffffffffffffffffffffffffffffffffffff1663e12f3a61306040518263ffffffff1660e01b8152600401611ef89190612e26565b602060405180830381865afa158015611f15573d6000803e3d6000fd5b505050506040513d601f19601f82011682018060405250810190611f399190612fe1565b9050600760009054906101000a900473ffffffffffffffffffffffffffffffffffffffff1673ffffffffffffffffffffffffffffffffffffffff1663aad3ec96600160009054906101000a900473ffffffffffffffffffffffffffffffffffffffff16836040518363ffffffff1660e01b8152600401611fba9291906132ed565b6020604051808303816000875af1158015611fd9573d6000803e3d6000fd5b505050506040513d601f19601f82011682018060405250810190611ffd9190612fe1565b5050565b7f24e583e35a20f9ecfc1572e7cb66bcc18ad3cd1650ec40dbf6ad2290e553a9fa81565b60036020528060005260406000206000915054906101000a900473ffffffffffffffffffffffffffffffffffffffff1681565b600060029054906101000a900473ffffffffffffffffffffffffffffffffffffffff1673ffffffffffffffffffffffffffffffffffffffff166391d148547f24e583e35a20f9ecfc1572e7cb66bcc18ad3cd1650ec40dbf6ad2290e553a9fa336040518363ffffffff1660e01b81526004016120d5929190612f21565b602060405180830381865afa1580156120f2573d6000803e3d6000fd5b505050506040513d601f19601f820116820180604052508101906121169190612f76565b61215757336040517f7e652f1e00000000000000000000000000000000000000000000000000000000815260040161214e9190612e26565b60405180910390fd5b80600860006101000a81548173ffffffffffffffffffffffffffffffffffffffff021916908373ffffffffffffffffffffffffffffffffffffffff160217905550600860009054906101000a900473ffffffffffffffffffffffffffffffffffffffff1673ffffffffffffffffffffffffffffffffffffffff1663f098767a6040518163ffffffff1660e01b8152600401600060405180830381600087803b15801561220257600080fd5b505af1158015612216573d6000803e3d6000fd5b5050505050565b620186a081565b60008060019054906101000a900460ff161590508080156122555750600160008054906101000a900460ff1660ff16105b8061228257506122643061276e565b1580156122815750600160008054906101000a900460ff1660ff16145b5b6122c1576040517f08c379a00000000000000000000000000000000000000000000000000000000081526004016122b890613399565b60405180910390fd5b60016000806101000a81548160ff021916908360ff16021790555080156122fe576001600060016101000a81548160ff0219169083151502179055505b82600060026101000a81548173ffffffffffffffffffffffffffffffffffffffff021916908373ffffffffffffffffffffffffffffffffffffffff160217905550600073ffffffffffffffffffffffffffffffffffffffff168273ffffffffffffffffffffffffffffffffffffffff16146123b55781600160006101000a81548173ffffffffffffffffffffffffffffffffffffffff021916908373ffffffffffffffffffffffffffffffffffffffff1602179055505b801561240e5760008060016101000a81548160ff0219169083151502179055507f7f26b83ff96e1f2b6a682f133852f6798a09c465da95921460cefb384740249860016040516124059190613401565b60405180910390a15b505050565b600060029054906101000a900473ffffffffffffffffffffffffffffffffffffffff1673ffffffffffffffffffffffffffffffffffffffff166391d148547f24e583e35a20f9ecfc1572e7cb66bcc18ad3cd1650ec40dbf6ad2290e553a9fa336040518363ffffffff1660e01b8152600401612490929190612f21565b602060405180830381865afa1580156124ad573d6000803e3d6000fd5b505050506040513d601f19601f820116820180604052508101906124d19190612f76565b61251257336040517f7e652f1e0000000000000000000000000000000000000000000000000000000081526004016125099190612e26565b60405180910390fd5b80600160006101000a81548173ffffffffffffffffffffffffffffffffffffffff021916908373ffffffffffffffffffffffffffffffffffffffff16021790555050565b600073ffffffffffffffffffffffffffffffffffffffff168373ffffffffffffffffffffffffffffffffffffffff160361261b57804710156125cf57806040517f83b9f0ae0000000000000000000000000000000000000000000000000000000081526004016125c69190612e0b565b60405180910390fd5b8173ffffffffffffffffffffffffffffffffffffffff166108fc829081150290604051600060405180830381858888f19350505050158015612615573d6000803e3d6000fd5b50612647565b61264682828573ffffffffffffffffffffffffffffffffffffffff166127919092919063ffffffff16565b5b505050565b8273ffffffffffffffffffffffffffffffffffffffff166340c10f1983836040518363ffffffff1660e01b81526004016126879291906132ed565b600060405180830381600087803b1580156126a157600080fd5b505af11580156126b5573d6000803e3d6000fd5b50505050505050565b600073ffffffffffffffffffffffffffffffffffffffff168373ffffffffffffffffffffffffffffffffffffffff160361273b5734811461273657806040517f83b9f0ae00000000000000000000000000000000000000000000000000000000815260040161272d9190612e0b565b60405180910390fd5b612769565b6127688230838673ffffffffffffffffffffffffffffffffffffffff16612817909392919063ffffffff16565b5b505050565b6000808273ffffffffffffffffffffffffffffffffffffffff163b119050919050565b6128128363a9059cbb60e01b84846040516024016127b09291906132ed565b604051602081830303815290604052907bffffffffffffffffffffffffffffffffffffffffffffffffffffffff19166020820180517bffffffffffffffffffffffffffffffffffffffffffffffffffffffff83818316178352505050506128a0565b505050565b61289a846323b872dd60e01b8585856040516024016128389392919061341c565b604051602081830303815290604052907bffffffffffffffffffffffffffffffffffffffffffffffffffffffff19166020820180517bffffffffffffffffffffffffffffffffffffffffffffffffffffffff83818316178352505050506128a0565b50505050565b6000612902826040518060400160405280602081526020017f5361666545524332303a206c6f772d6c6576656c2063616c6c206661696c65648152508573ffffffffffffffffffffffffffffffffffffffff166129689092919063ffffffff16565b90506000815114806129245750808060200190518101906129239190612f76565b5b612963576040517f08c379a000000000000000000000000000000000000000000000000000000000815260040161295a906134c5565b60405180910390fd5b505050565b60606129778484600085612980565b90509392505050565b6060824710156129c5576040517f08c379a00000000000000000000000000000000000000000000000000000000081526004016129bc90613557565b60405180910390fd5b6000808673ffffffffffffffffffffffffffffffffffffffff1685876040516129ee91906135e8565b60006040518083038185875af1925050503d8060008114612a2b576040519150601f19603f3d011682016040523d82523d6000602084013e612a30565b606091505b5091509150612a4187838387612a4d565b92505050949350505050565b60608315612aaf576000835103612aa757612a6785612ac2565b612aa6576040517f08c379a0000000000000000000000000000000000000000000000000000000008152600401612a9d9061364b565b60405180910390fd5b5b829050612aba565b612ab98383612ae5565b5b949350505050565b6000808273ffffffffffffffffffffffffffffffffffffffff163b119050919050565b600082511115612af85781518083602001fd5b806040517f08c379a0000000000000000000000000000000000000000000000000000000008152600401612b2c91906136c0565b60405180910390fd5b60405180606001604052806000815260200160008152602001600081525090565b600080fd5b6000819050919050565b612b6e81612b5b565b8114612b7957600080fd5b50565b600081359050612b8b81612b65565b92915050565b600060208284031215612ba757612ba6612b56565b5b6000612bb584828501612b7c565b91505092915050565b612bc781612b5b565b82525050565b600073ffffffffffffffffffffffffffffffffffffffff82169050919050565b6000612bf882612bcd565b9050919050565b612c0881612bed565b82525050565b60008115159050919050565b612c2381612c0e565b82525050565b600060a082019050612c3e6000830188612bbe565b612c4b6020830187612bff565b612c586040830186612bff565b612c656060830185612bbe565b612c726080830184612c1a565b9695505050505050565b612c8581612bed565b8114612c9057600080fd5b50565b600081359050612ca281612c7c565b92915050565b60008060408385031215612cbf57612cbe612b56565b5b6000612ccd85828601612c93565b9250506020612cde85828601612c93565b9150509250929050565b6000819050919050565b6000612d0d612d08612d0384612bcd565b612ce8565b612bcd565b9050919050565b6000612d1f82612cf2565b9050919050565b6000612d3182612d14565b9050919050565b612d4181612d26565b82525050565b6000602082019050612d5c6000830184612d38565b92915050565b600060208284031215612d7857612d77612b56565b5b6000612d8684828501612c93565b91505092915050565b6000612d9a82612d14565b9050919050565b612daa81612d8f565b82525050565b6000602082019050612dc56000830184612da1565b92915050565b60008060408385031215612de257612de1612b56565b5b6000612df085828601612b7c565b9250506020612e0185828601612c93565b9150509250929050565b6000602082019050612e206000830184612bbe565b92915050565b6000602082019050612e3b6000830184612bff565b92915050565b60008060408385031215612e5857612e57612b56565b5b6000612e6685828601612b7c565b9250506020612e7785828601612b7c565b9150509250929050565b612e8a81612b5b565b82525050565b606082016000820151612ea66000850182612e81565b506020820151612eb96020850182612e81565b506040820151612ecc6040850182612e81565b50505050565b6000606082019050612ee76000830184612e90565b92915050565b6000819050919050565b612f0081612eed565b82525050565b6000602082019050612f1b6000830184612ef7565b92915050565b6000604082019050612f366000830185612ef7565b612f436020830184612bff565b9392505050565b612f5381612c0e565b8114612f5e57600080fd5b50565b600081519050612f7081612f4a565b92915050565b600060208284031215612f8c57612f8b612b56565b5b6000612f9a84828501612f61565b91505092915050565b6000604082019050612fb86000830185612bff565b612fc56020830184612bff565b9392505050565b600081519050612fdb81612b65565b92915050565b600060208284031215612ff757612ff6612b56565b5b600061300584828501612fcc565b91505092915050565b7f4e487b7100000000000000000000000000000000000000000000000000000000600052602160045260246000fd5b6003811061304e5761304d61300e565b5b50565b600081905061305f8261303d565b919050565b600061306f82613051565b9050919050565b61307f81613064565b82525050565b600060208201905061309a6000830184613076565b92915050565b7f4e487b7100000000000000000000000000000000000000000000000000000000600052601160045260246000fd5b60006130da82612b5b565b91506130e583612b5b565b92508282039050818111156130fd576130fc6130a0565b5b92915050565b600061310e82612b5b565b915061311983612b5b565b925082820261312781612b5b565b9150828204841483151761313e5761313d6130a0565b5b5092915050565b7f4e487b7100000000000000000000000000000000000000000000000000000000600052601260045260246000fd5b600061317f82612b5b565b915061318a83612b5b565b92508261319a57613199613145565b5b828204905092915050565b60006131b082612b5b565b91506131bb83612b5b565b92508282019050808211156131d3576131d26130a0565b5b92915050565b60006060820190506131ee6000830186612bbe565b6131fb6020830185612bff565b6132086040830184612bbe565b949350505050565b60006080820190506132256000830187612bbe565b6132326020830186612bff565b61323f6040830185612bbe565b61324c6060830184612bbe565b95945050505050565b600060808201905061326a6000830187612bbe565b6132776020830186612bbe565b6132846040830185612bff565b6132916060830184612bff565b95945050505050565b600060a0820190506132af6000830188612bbe565b6132bc6020830187612bbe565b6132c96040830186612bff565b6132d66060830185612bff565b6132e36080830184612bbe565b9695505050505050565b60006040820190506133026000830185612bff565b61330f6020830184612bbe565b9392505050565b600082825260208201905092915050565b7f496e697469616c697a61626c653a20636f6e747261637420697320616c72656160008201527f647920696e697469616c697a6564000000000000000000000000000000000000602082015250565b6000613383602e83613316565b915061338e82613327565b604082019050919050565b600060208201905081810360008301526133b281613376565b9050919050565b6000819050919050565b600060ff82169050919050565b60006133eb6133e66133e1846133b9565b612ce8565b6133c3565b9050919050565b6133fb816133d0565b82525050565b600060208201905061341660008301846133f2565b92915050565b60006060820190506134316000830186612bff565b61343e6020830185612bff565b61344b6040830184612bbe565b949350505050565b7f5361666545524332303a204552433230206f7065726174696f6e20646964206e60008201527f6f74207375636365656400000000000000000000000000000000000000000000602082015250565b60006134af602a83613316565b91506134ba82613453565b604082019050919050565b600060208201905081810360008301526134de816134a2565b9050919050565b7f416464726573733a20696e73756666696369656e742062616c616e636520666f60008201527f722063616c6c0000000000000000000000000000000000000000000000000000602082015250565b6000613541602683613316565b915061354c826134e5565b604082019050919050565b6000602082019050818103600083015261357081613534565b9050919050565b600081519050919050565b600081905092915050565b60005b838110156135ab578082015181840152602081019050613590565b60008484015250505050565b60006135c282613577565b6135cc8185613582565b93506135dc81856020860161358d565b80840191505092915050565b60006135f482846135b7565b915081905092915050565b7f416464726573733a2063616c6c20746f206e6f6e2d636f6e7472616374000000600082015250565b6000613635601d83613316565b9150613640826135ff565b602082019050919050565b6000602082019050818103600083015261366481613628565b9050919050565b600081519050919050565b6000601f19601f8301169050919050565b60006136928261366b565b61369c8185613316565b93506136ac81856020860161358d565b6136b581613676565b840191505092915050565b600060208201905081810360008301526136da8184613687565b90509291505056fea2646970667358221220ad9f43dc12f5d8bc2096a805f53b72ded07c53df435e1bf315498a229337da8064736f6c63430008140033",
  "devdoc": {
    "events": {
      "Initialized(uint8)": {
        "details": "Triggered when the contract has been initialized or reinitialized."
      }
    },
    "kind": "dev",
    "methods": {
      "setBlast(address)": {
        "params": {
          "_blast": "blast address"
        }
      },
      "setUSDBRebasing(address)": {
        "params": {
          "usdb": "USDB token address"
        }
      }
    },
    "version": 1
  },
  "userdoc": {
    "kind": "user",
    "methods": {
      "claimUSDBYield()": {
        "notice": "Admin claims native USDB yield and send to treasury address"
      },
      "setBlast(address)": {
        "notice": "set native blast contract"
      },
      "setUSDBRebasing(address)": {
        "notice": "set USDB token address"
      }
    },
    "version": 1
  },
  "storageLayout": {
    "storage": [
      {
        "astId": 6,
        "contract": "contracts/NonLockStakingPools.sol:NonLockStakingPools",
        "label": "_initialized",
        "offset": 0,
        "slot": "0",
        "type": "t_uint8"
      },
      {
        "astId": 9,
        "contract": "contracts/NonLockStakingPools.sol:NonLockStakingPools",
        "label": "_initializing",
        "offset": 1,
        "slot": "0",
        "type": "t_bool"
      },
      {
        "astId": 1430,
        "contract": "contracts/NonLockStakingPools.sol:NonLockStakingPools",
        "label": "roleControl",
        "offset": 2,
        "slot": "0",
        "type": "t_contract(IRoleControl)2463"
      },
      {
        "astId": 1432,
        "contract": "contracts/NonLockStakingPools.sol:NonLockStakingPools",
        "label": "treasury",
        "offset": 0,
        "slot": "1",
        "type": "t_address"
      },
      {
        "astId": 1434,
        "contract": "contracts/NonLockStakingPools.sol:NonLockStakingPools",
        "label": "nextPoolId",
        "offset": 0,
        "slot": "2",
        "type": "t_uint256"
      },
      {
        "astId": 1438,
        "contract": "contracts/NonLockStakingPools.sol:NonLockStakingPools",
        "label": "yieldTokens",
        "offset": 0,
        "slot": "3",
        "type": "t_mapping(t_address,t_address)"
      },
      {
        "astId": 1443,
        "contract": "contracts/NonLockStakingPools.sol:NonLockStakingPools",
        "label": "poolInfo",
        "offset": 0,
        "slot": "4",
        "type": "t_mapping(t_uint256,t_struct(PoolInfo)2399_storage)"
      },
      {
        "astId": 1450,
        "contract": "contracts/NonLockStakingPools.sol:NonLockStakingPools",
        "label": "userStakes",
        "offset": 0,
        "slot": "5",
        "type": "t_mapping(t_uint256,t_mapping(t_address,t_struct(StakePosition)2388_storage))"
      },
      {
        "astId": 1455,
        "contract": "contracts/NonLockStakingPools.sol:NonLockStakingPools",
        "label": "listUsers",
        "offset": 0,
        "slot": "6",
        "type": "t_mapping(t_uint256,t_array(t_address)dyn_storage)"
      },
      {
        "astId": 1458,
        "contract": "contracts/NonLockStakingPools.sol:NonLockStakingPools",
        "label": "USDB",
        "offset": 0,
        "slot": "7",
        "type": "t_contract(IERC20Rebasing)2363"
      },
      {
        "astId": 1461,
        "contract": "contracts/NonLockStakingPools.sol:NonLockStakingPools",
        "label": "blast",
        "offset": 0,
        "slot": "8",
        "type": "t_contract(IBlast)2316"
      }
    ],
    "types": {
      "t_address": {
        "encoding": "inplace",
        "label": "address",
        "numberOfBytes": "20"
      },
      "t_array(t_address)dyn_storage": {
        "base": "t_address",
        "encoding": "dynamic_array",
        "label": "address[]",
        "numberOfBytes": "32"
      },
      "t_bool": {
        "encoding": "inplace",
        "label": "bool",
        "numberOfBytes": "1"
      },
      "t_contract(IBlast)2316": {
        "encoding": "inplace",
        "label": "contract IBlast",
        "numberOfBytes": "20"
      },
      "t_contract(IERC20Rebasing)2363": {
        "encoding": "inplace",
        "label": "contract IERC20Rebasing",
        "numberOfBytes": "20"
      },
      "t_contract(IRoleControl)2463": {
        "encoding": "inplace",
        "label": "contract IRoleControl",
        "numberOfBytes": "20"
      },
      "t_mapping(t_address,t_address)": {
        "encoding": "mapping",
        "key": "t_address",
        "label": "mapping(address => address)",
        "numberOfBytes": "32",
        "value": "t_address"
      },
      "t_mapping(t_address,t_struct(StakePosition)2388_storage)": {
        "encoding": "mapping",
        "key": "t_address",
        "label": "mapping(address => struct INonLockStaking.StakePosition)",
        "numberOfBytes": "32",
        "value": "t_struct(StakePosition)2388_storage"
      },
      "t_mapping(t_uint256,t_array(t_address)dyn_storage)": {
        "encoding": "mapping",
        "key": "t_uint256",
        "label": "mapping(uint256 => address[])",
        "numberOfBytes": "32",
        "value": "t_array(t_address)dyn_storage"
      },
      "t_mapping(t_uint256,t_mapping(t_address,t_struct(StakePosition)2388_storage))": {
        "encoding": "mapping",
        "key": "t_uint256",
        "label": "mapping(uint256 => mapping(address => struct INonLockStaking.StakePosition))",
        "numberOfBytes": "32",
        "value": "t_mapping(t_address,t_struct(StakePosition)2388_storage)"
      },
      "t_mapping(t_uint256,t_struct(PoolInfo)2399_storage)": {
        "encoding": "mapping",
        "key": "t_uint256",
        "label": "mapping(uint256 => struct INonLockStaking.PoolInfo)",
        "numberOfBytes": "32",
        "value": "t_struct(PoolInfo)2399_storage"
      },
      "t_struct(PoolInfo)2399_storage": {
        "encoding": "inplace",
        "label": "struct INonLockStaking.PoolInfo",
        "members": [
          {
            "astId": 2390,
            "contract": "contracts/NonLockStakingPools.sol:NonLockStakingPools",
            "label": "yieldAPY",
            "offset": 0,
            "slot": "0",
            "type": "t_uint256"
          },
          {
            "astId": 2392,
            "contract": "contracts/NonLockStakingPools.sol:NonLockStakingPools",
            "label": "yieldToken",
            "offset": 0,
            "slot": "1",
            "type": "t_address"
          },
          {
            "astId": 2394,
            "contract": "contracts/NonLockStakingPools.sol:NonLockStakingPools",
            "label": "stakeToken",
            "offset": 0,
            "slot": "2",
            "type": "t_address"
          },
          {
            "astId": 2396,
            "contract": "contracts/NonLockStakingPools.sol:NonLockStakingPools",
            "label": "totalStaked",
            "offset": 0,
            "slot": "3",
            "type": "t_uint256"
          },
          {
            "astId": 2398,
            "contract": "contracts/NonLockStakingPools.sol:NonLockStakingPools",
            "label": "enabled",
            "offset": 0,
            "slot": "4",
            "type": "t_bool"
          }
        ],
        "numberOfBytes": "160"
      },
      "t_struct(StakePosition)2388_storage": {
        "encoding": "inplace",
        "label": "struct INonLockStaking.StakePosition",
        "members": [
          {
            "astId": 2383,
            "contract": "contracts/NonLockStakingPools.sol:NonLockStakingPools",
            "label": "amount",
            "offset": 0,
            "slot": "0",
            "type": "t_uint256"
          },
          {
            "astId": 2385,
            "contract": "contracts/NonLockStakingPools.sol:NonLockStakingPools",
            "label": "lastCalcTs",
            "offset": 0,
            "slot": "1",
            "type": "t_uint256"
          },
          {
            "astId": 2387,
            "contract": "contracts/NonLockStakingPools.sol:NonLockStakingPools",
            "label": "pendingReward",
            "offset": 0,
            "slot": "2",
            "type": "t_uint256"
          }
        ],
        "numberOfBytes": "96"
      },
      "t_uint256": {
        "encoding": "inplace",
        "label": "uint256",
        "numberOfBytes": "32"
      },
      "t_uint8": {
        "encoding": "inplace",
        "label": "uint8",
        "numberOfBytes": "1"
      }
    }
  }
}